:020000040800F2
:1000000010130020CD0100086B27000833260008DC
:1000100069270008290B000895520008000000001D
:100020000000000000000000000000006F2B00082E
:10003000730D000800000000E3010008392C0008DF
:10004000E7010008E7010008E7010008E7010008F0
:10005000E7010008E7010008E7010008E7010008E0
:10006000E7010008E7010008E7010008E90B0008C4
:10007000FD0B0008E7010008E7010008E7010008A0
:10008000E7010008E7010008E7010008E7010008B0
:10009000E7010008E7010008E7010008E7010008A0
:1000A000E7010008E7010008E7010008E701000890
:1000B000E7010008E7010008052D0008E701000836
:1000C000E7010008E7010008E7010008E701000870
:1000D000E7010008C94D0008914F00086950000869
:1000E000E7010008E7010008E7010008E701000850
:1000F000E7010008E7010008E7010008E701000840
:10010000E7010008E7010008E7010008E70100082F
:10011000E7010008E7010008E7010008E70100081F
:10012000E7010008E7010008E7010008E70100080F
:1001300000F002F800F03AF80AA090E8000C8244BF
:100140008344AAF10107DA4501D100F02FF8AFF29C
:10015000090EBAE80F0013F0010F18BFFB1A43F0A5
:10016000010318470458000024580000103A24BF27
:1001700078C878C1FAD8520724BF30C830C144BF0C
:1001800004680C607047000000230024002500264E
:10019000103A28BF78C1FBD8520728BF30C148BFEA
:1001A0000B6070471FB51FBD10B510BD00F080F883
:1001B0001146FFF7F7FF05F0B3F900F09EF803B41E
:1001C000FFF7F2FF03BC05F093F8000009488047F1
:1001D00009480047FEE7FEE7FEE7FEE7FEE7FEE729
:1001E000FEE7FEE7FEE7FEE704480549054A064B41
:1001F00070470000B52C00083101000810090020EC
:1002000010130020100B0020100B002070474FF03F
:1002100000020429C0F0128010F0030C00F01F80CF
:10022000CCF1040CBCF1020F18BF00F8012BA8BFE1
:1002300020F8022BA1EB0C0100F011B85FEAC17CA1
:1002400024BF00F8012B00F8012B48BF00F8012B58
:10025000704770477047704770474FF0000200B515
:10026000134694469646203922BFA0E80C50A0E8D9
:100270000C50B1F12001BFF4F7AF090728BFA0E887
:100280000C5048BF0CC05DF804EB890028BF40F853
:10029000042B08BF704748BF20F8022B11F0804F95
:1002A00018BF00F8012B704700487047B0080020C5
:1002B0007546FFF7F9FFAE4605006946534620F044
:1002C0000700854618B020B5FFF78EFFBDE8204037
:1002D0004FF000064FF000074FF000084FF0000B02
:1002E00021F00701AC46ACE8C009ACE8C009ACE8B5
:1002F000C009ACE8C0098D46704710B50446AFF39D
:1003000000802046BDE81040FFF759BF08B54FF404
:10031000E060ADF8000010208DF8030002208DF899
:1003200002006946014802F0FBF808BD00080140E0
:100330002DE9F1412B4C4FF4806681B031462046C7
:1003400002F073F9A5152946204602F070F900BFA6
:1003500000BF00BF00BF3146204602F068F900BF71
:100360002946204602F063F900BF00BF314620460F
:1003700002F05BF900208DF800004FF400784FF692
:10038000FF7721E0BDF8040041460004204602D575
:1003900002F04DF901E002F048F92946204602F04A
:1003A00044F900BF00BF2946204602F040F900BFD3
:1003B00000BFBDF8040007EA4000ADF804009DF856
:1003C0000000401C8DF800009DF800001028D9D3D3
:1003D0003146204602F02BF929462046BDE8FC4173
:1003E00002F025B90008014008B54FF47A7000BF4B
:1003F000ADF80000BDF80000002803D0BDF80000F3
:10040000401EF5E708BD000030B587B00121082087
:1004100002F00AFA01218C03204602F0F9F960107B
:10042000ADF8140003208DF816001820254D8DF826
:10043000170005A9284602F073F8ADF8144005A985
:10044000284602F06DF86000ADF8140005A92846B2
:1004500002F066F8A410ADF8144010208DF81700D3
:1004600005A9284602F05CF82146284602F0DFF88C
:10047000FFF7BAFF2146284602F0D7F80020ADF872
:1004800000004FF48271ADF802106110ADF8041055
:10049000ADF808008910ADF80A103821ADF80C103D
:1004A000ADF80600ADF80E000720074CADF81000BF
:1004B0006946204602F03FFB0121204602F026FB60
:1004C00007B030BD000C0140003800402DE9FE436C
:1004D00000258DF80850454E454C06F1C807A6F199
:1004E000100817E09DF80810012002F0DBFA9DF8D3
:1004F000082028F81200B8F80600627826F81200E2
:10050000B8F80400A17827F811009DF80800401CF5
:100510008DF808009DF808000828E3D36078401C97
:100520006070A078401CA070627864203149312A44
:100530001DD9657002958DF800500BE09DF80020E4
:1005400036F81220029B1A4402929DF80020521C99
:100550008DF800209DF80020322AEFD3029A2378EC
:10056000B2FBF0F221F813202278521C227022787C
:10057000022A1BD9257002958DF800500CE000BFAF
:100580009DF8002031F81220029B1A4402929DF837
:100590000020521C8DF800209DF80020032AEFD384
:1005A00002990322B1FBF2F1134A1180A178632969
:1005B00019D9A57002958DF804500BE09DF8041030
:1005C00037F81110029A114402919DF80410491C49
:1005D0008DF804109DF804106429EFD30299B1FB43
:1005E000F0F006490880BDE8FE830000F806002010
:1005F00098000020880800204200002044000020CD
:1006000011B50D4C81B00221204602F089FA002874
:10061000F9D0BDF80410204602F08BFA01212046E3
:1006200002F07EFA0028F9D0204602F080FAADF8F8
:100630000000BDF800001CBD003800402DE9F0416D
:10064000434D92B0284600F005F90121480202F01E
:10065000EBF80121084602F0CFF80126DFF8F4801C
:10066000ADF8406000248DF8434010A9404601F0E9
:1006700057FF0227ADF840708DF8434010A940465F
:1006800001F04EFF4FEA7838404600F0DBFA304880
:1006900069464C3000903048CDE901046420CDE932
:1006A00003048020059040000690800007902020E1
:1006B00008900002CDE90904404600F03DFB01210D
:1006C000404600F0B3FA01220221404600F02CFB24
:1006D00000F07AFA0121284600F0B2F88DF8306077
:1006E0000B948DF831604FF46020CDE90D048DF846
:1006F0003C700BA9284600F0DDF84FF4404002F0B2
:1007000071F8052301220021284600F0F7F805239F
:1007100002220121284600F0F1F80121284600F0CC
:1007200085F8284600F024F9284600F030F92846DC
:1007300000F0B9F80028FAD1284600F0ADF80028FA
:10074000FAD10121284600F018F912B0BDE8F08175
:1007500000240140000801409C000020FCB500215D
:100760008DF804102F4D304805F1C80303F16402E1
:1007700017E000BF9DF80440E4079DF804401AD03C
:10078000E40709D09DF8044035F81460447802EB82
:100790004407641C44703E809DF80440641C8DF83E
:1007A00004409DF80440642CE4D301704170019131
:1007B0008DF8001014E035F81460047803EB44075A
:1007C000641C0470E7E700BF9DF8004033F8144054
:1007D000019D2C4401949DF80040641C8DF800405C
:1007E0009DF80040322CEFD3019C3223B4FBF3F48C
:1007F000448001910AE000BF9DF8001032F81140DA
:100800000199214401919DF80010491C8DF80010B8
:100810009DF800103229EFD30199B1FBF3F18180EB
:10082000FCBD00009C0000203C00002000298168E5
:1008300002D041F0010101E021F001018160704727
:100840000029816802D041F4807101E021F48071B7
:10085000816070470D4910B5884202D101214415CD
:100860000AE00B49884202D10121041504E009493C
:1008700088420AD10121CC03204601F0E1FF204645
:10088000BDE81040002101F0DBBF10BD0024014095
:1008900000280140003C01400146002089684907CA
:1008A00000D501207047014600208968090700D55E
:1008B0000120704710B542680E4B0C791A400B6846
:1008C00042EA04221343436083680B4A1340D1E990
:1008D000024222434C7943EA44031A438260C26ACB
:1008E000097C22F47002491EC9B242EA0151C16278
:1008F00010BD0000FFFEF0FFFDF7F1FF70B507240B
:1009000009290AD9C568A1F10A0606EB4606B440D2
:10091000A543B3401D43C56007E0056901EB4106EF
:10092000B440A543B3401D4305611F23072A09D2E4
:10093000446B521E02EB820293409C4391400C4355
:10094000446370BD0D2A09D2046BD21F02EB8202F0
:1009500093409C4391400C43046370BDC46A0D3ABC
:1009600002EB820293409C4391400C43C46270BDF1
:10097000816841F00801816070470029816802D0D8
:1009800041F4A00101E021F4A00181607047816879
:1009900041F00401816070472DE9F8435D4CE06847
:1009A0005D4901270026DFF874815D4D884206D934
:1009B000AE8026632021404601F039FEE762A26B3B
:1009C0000A204FF4FA6112B9E26B012A05D0A36B39
:1009D0004FF47A72012B17D018E06268B2FBF0F086
:1009E00000902068009A50434E4AB0FBF2F000900D
:1009F000A06E009A904248D2A888401CA880A8887F
:100A0000884242D9AE8019E0E36B13B1A36BC3B146
:100A100019E0636800932368B3FBF0F0009B584330
:100A2000B0FBF2F00090A06E009A90422DD2E888C0
:100A3000401CE880E888884227D9EE802663202180
:100A40001FE0E36B1BB1A06B012826D01DE063689B
:100A5000B3FBF0F300932368B3FBF0F0009B584323
:100A6000B0FBF2F00090A06E009A90420DD228895F
:100A7000401C28812889884207D92E8126634FF49B
:100A80000041404601F0D3FDE7622068E16E8842F4
:100A900028D9E06B012817D024E0E06B0128F4D1BD
:100AA000606800902068009B5843B0FBF2F0009013
:100AB000A06E009A9042E8D26889401C68816889DB
:100AC0008842E2D96E81B9E72888401C28802888AE
:100AD000052807D92E8026632021404601F0A7FD76
:100AE0000320E0626068216F884210D9A06B012862
:100AF0000DD16888401C68806888052807D96E80F9
:100B000026632021404601F092FD0420E062BDE80A
:100B1000F8830000D8020020804F12000008014036
:100B200084000020A0860100FEE7000011B586B019
:100B300000210698CDE900102148D0F888200392C2
:100B4000D0F88C20019C039B059212031B1BB2FB67
:100B5000F3F30293059B0092DDE902325A430192BE
:100B6000DDE900239A4208D21A46009BD21A01926C
:100B70009DF8102042F0010206E0D21A0092019284
:100B80009DF8102022F001028DF810200068029AD2
:100B9000504300909DF81000C007DDE900020CD022
:100BA000904202D20846009101E0801A0090054A66
:100BB000000B9060009107B010BD1044F6E70000F4
:100BC000D8020020A003002008B50B208DF80000FB
:100BD00003208DF801008DF8020001208DF803003C
:100BE000684601F0C3FD08BD0348016841F00101FA
:100BF0000160022000F00EB81400002010B5202083
:100C000000F008F80248016841F08001016010BD61
:100C100018000020C10002D502490860704702494F
:100C20004860704704040240000002400029016847
:100C300002D041F0010102E04FF6FE721140016066
:100C40007047000001684FF6FE72114001600021FC
:100C5000016041608160C1603149314A0839904288
:100C600003D1486840F00F0006E02D4A143290424C
:100C700004D1486840F0F00048607047284A2832A4
:100C8000904203D1486840F47060F5E7244A3C3252
:100C9000904203D1486840F47040EDE7204A50325A
:100CA000904203D1486840F47020E5E71C4A643262
:100CB000904203D1486840F47000DDE7184A78326A
:100CC000904203D1486840F07060D5E7154A111F83
:100CD000904203D1086840F00F0006E0114A143238
:100CE000904204D1086840F0F000086070470D4A57
:100CF0002832904203D1086840F47060F5E7094A51
:100D00003C32904203D1086840F47040EDE7054A58
:100D100050329042EAD1086840F47020E5E70000C4
:100D20000800024008040240002A026801D00A4379
:100D300000E08A430260704730B5036847F6F072FE
:100D400093430C6A8A682243D1E904452C43224329
:100D50008C692243CC6922434C6A22438C6A224329
:100D60001A430260CA6842600A6882604968C160CA
:100D700030BD704731B504F079FBA02004F03AFB98
:100D800004F0AAFB70B99DF8000004F033FB04F0F6
:100D9000A3FB38B904F06AFBA12004F02BFB04F09C
:100DA0009BFB18B104F082FB002038BD04F0F0FA80
:100DB000034C207004F0D0FA04F078FB207838BDA2
:100DC0004C0000202DE9F0410120FFF7D3FFFE4D3C
:100DD00028600120FFF7CEFF286028680002286005
:100DE0000220FFF7C7FF296808442860286800022E
:100DF00028600320FFF7BEFF2968084428602868A0
:100E0000000228600420FFF7B5FF29680844286025
:100E10000520FFF7AFFF6860686800026860062081
:100E2000FFF7A8FF696808446860686800026860A6
:100E30000720FFF79FFF6968084468606868000240
:100E400068600820FFF796FF696808446860092019
:100E5000FFF790FFE860E8680002E8600A20FFF70B
:100E600089FFE9680844E860E8680002E8600B2050
:100E7000FFF780FFE9680844E860E8680002E8607E
:100E80000C20FFF777FFE9680844E8600D20FFF7C2
:100E900071FF28612869000228610E20FFF76AFFB0
:100EA0002969084428612869000228610F20FFF79A
:100EB00061FF29690844286128690002286110201F
:100EC000FFF758FF2969084428611120FFF752FFF6
:100ED000BE4C20602068000220601220FFF74AFF0D
:100EE0002168084420602068000220601320FFF77A
:100EF00041FF21680844206020680002206014201F
:100F0000FFF738FF2168084420601520FFF732FF03
:100F100060606068000260601620FFF72BFF616868
:100F2000084460606068000260601720FFF722FFDD
:100F30006168084460606068000260601820FFF724
:100F400019FF6168084460601920FFF713FFE06033
:100F5000E0680002E0601A20FFF70CFFE168084437
:100F6000E060E0680002E0601B20FFF703FFE1683B
:100F70000844E060E0680002E0601C20FFF7FAFE31
:100F8000E1680844E0601D20FFF7F4FE206120695D
:100F9000000220611E20FFF7EDFE21690844206158
:100FA0002069000220611F20FFF7E4FE2169084448
:100FB00020612069000220612020FFF7DBFE21690B
:100FC000084420612120FFF7D5FE814E3070222099
:100FD000FFF7D0FEA861A8690002A8612320FFF7EF
:100FE000C9FEA9690844A861A8690002A861242073
:100FF000FFF7C0FEA9690844A861A8690002A861BA
:101000002520FFF7B7FEA9690844A8612620FFF74D
:10101000B1FEE861E8690002E8612720FFF7AAFE57
:10102000E9690844E861E8690002E8612820FFF7FF
:10103000A1FEE9690844E861E8690002E861292045
:10104000FFF798FEE9690844E8612A20FFF792FE5D
:101050006862686A000268622B20FFF78BFE696A8B
:1010600008446862686A000268622C20FFF782FE0A
:10107000696A08446862686A000268622D20FFF7A6
:1010800079FE696A084468622E20FFF773FEA86241
:10109000A86A0002A8622F20FFF76CFEA96A084424
:1010A000A862A86A0002A8623020FFF763FEA96A5E
:1010B0000844A862A86A0002A8623120FFF75AFE1D
:1010C000A96A0844A8623220FFF754FEA061A06913
:1010D0000002A0613320FFF74DFEA1690844A06122
:1010E000A0690002A0613420FFF744FEA169084412
:1010F000A061A0690002A0613520FFF73BFEA16955
:101100000844A0613620FFF735FEE061E069000287
:10111000E0613720FFF72EFEE1690844E061E069F5
:101120000002E0613820FFF725FEE1690844E06134
:10113000E0690002E0613920FFF71CFEE169084424
:10114000E0613A20FFF716FE6062606A00026062AA
:101150003B20FFF70FFE616A08446062606A00028C
:1011600060623C20FFF706FE616A08446062606AC4
:10117000000260623D20FFF7FDFD616A0844606285
:101180003E20FFF7F7FDA062A06A0002A0623F20A8
:10119000FFF7F0FDA16A0844A062A06A0002A06205
:1011A0004020FFF7E7FDA16A0844A062A06A0002A0
:1011B000A0624120FFF7DEFDA16A0844A062422040
:1011C000FFF7D8FD707005E07C0200202C020020A3
:1011D000CC0200204320FFF7CDFDB0704420FFF784
:1011E000C9FDF0704520FFF7C5FDA860A8680002A2
:1011F000A8604620FFF7BEFDA9680844A860A8685B
:101200000002A8604720FFF7B5FDA9680844A86060
:10121000A8680002A8604820FFF7ACFDA968084450
:10122000A8604920FFF7A6FD68616869000268614F
:101230004A20FFF79FFD69690844686168690002F8
:1012400068614B20FFF796FD696908446861686929
:10125000000268614C20FFF78DFD696908446861F0
:101260004D20FFF787FDA060A0680002A0604E201F
:10127000FFF780FDA1680844A060A0680002A0609C
:101280004F20FFF777FDA1680844A060A068000226
:10129000A0605020FFF76EFDA1680844A0605120B7
:1012A000FFF768FD60616069000260615220FFF72E
:1012B00061FD6169084460616069000260615320FA
:1012C000FFF758FD61690844606160690002606170
:1012D0005420FFF74FFD6169084460615520FFF716
:1012E00049FD2862286A000228625620FFF742FD65
:1012F000296A08442862286A000228625720FFF7FA
:1013000039FD296A08442862286A000228625820A8
:10131000FFF730FD296A084428625920FFF72AFDAB
:10132000E862E86A0002E8625A20FFF723FDE96AF2
:101330000844E862E86A0002E8625B20FFF71AFDF1
:10134000E96A0844E862E86A0002E8625C20FFF7A4
:1013500011FDE96A0844E8625D20FFF70BFD206299
:10136000206A000220625E20FFF704FD216A084423
:101370002062206A000220625F20FFF7FBFC216AE6
:1013800008442062206A000220626020FFF7F2FC1D
:10139000216A084420626120FFF7ECFCE062E06A09
:1013A0000002E0626220FFF7E5FCE16A0844E062C7
:1013B000E06A0002E0626320FFF7DCFCE16A0844B7
:1013C000E062E06A0002E0626420FFF7D3FCE16AB9
:1013D0000844E0626520FFF7CDFC30716620FFF71E
:1013E000C9FC70717320FFF7C5FCFE4F3864E06ADA
:1013F000000238647420FFF7BDFCE16A08443864D9
:10140000E06A000238647520FFF7B4FCE16A084422
:101410003864E06A000238647620FFF7ABFCE16ACA
:10142000084438646720FFF7A5FC2063206B0002A6
:1014300020636820FFF79EFC216B08442063206B2B
:10144000000220636920FFF795FC216B08442063AC
:10145000206B000220636A20FFF78CFC216B08449C
:1014600020636B20FFF786FC6063606B00026063A3
:101470006C20FFF77FFC616B08446063606B0002C7
:1014800060636D20FFF776FC616B08446063606BFE
:10149000000260636E20FFF76DFC616B08446063BF
:1014A0006F20FFF767FCA063A06B0002A0637020B1
:1014B000FFF760FCA16B0844A063A06B0002A0636F
:1014C0007120FFF757FCA16B0844A063A06B0002DA
:1014D000A0637220FFF74EFCA16B0844A063772045
:1014E000FFF748FCE063E06B0002E0637820FFF761
:1014F00041FCE16B0844E063E06B0002E0637920AB
:10150000FFF738FCE16B0844E063E06B0002E06346
:101510007A20FFF72FFCE16B0844E0637B20FFF7A4
:1015200029FC2064206C000220647C20FFF722FC50
:10153000216C08442064206C000220647D20FFF7A9
:1015400019FC216C08442064206C000220647E2079
:10155000FFF710FC216C084420647F20FFF70AFC91
:101560006064606C000260648020FFF703FC616CC3
:1015700008446064606C000260648120FFF7FAFB3D
:10158000616C08446064606C000260648220FFF754
:10159000F1FB616C084460648320FFF7EBFBA064FF
:1015A000A06C0002A0648420FFF7E4FBA16C084457
:1015B000A064A06C0002A0648520FFF7DBFBA16C97
:1015C0000844A064A06C0002A0648620FFF7D2FB50
:1015D000A16C0844A0648720FFF7CCFBE064E06CBA
:1015E0000002E0648820FFF7C5FBE16C0844E0647A
:1015F000E06C0002E0648920FFF7BCFBE16C08446A
:10160000E064E06C0002E0648A20FFF7B3FBE16C69
:101610000844E0648B20FFF7ADFB2863286B0002D1
:1016200028638C20FFF7A6FB296B08442863286BEE
:10163000000228638D20FFF79DFB296B0844286377
:10164000286B000228638E20FFF794FB296B084467
:1016500028638F20FFF78EFB6863686B0002686366
:101660009020FFF787FB696B08446863686B000292
:1016700068639120FFF77EFB696B08446863686BC1
:10168000000268639220FFF775FB696B084468638A
:101690009320FFF76FFBA863A86B0002A863942058
:1016A000FFF768FBA96B0844A863A86B0002A86356
:1016B0009520FFF75FFBA96B0844A863A86B0002A5
:1016C000A8639620FFF756FBA96B0844A8639720F0
:1016D000FFF750FBE863E86B0002E8639820FFF730
:1016E00049FBE96B0844E863E86B0002E863992072
:1016F000FFF740FBE96B0844E863E86B0002E8632E
:101700009A20FFF737FBE96B0844E8639B20FFF75B
:1017100031FB2864286C000228649C20FFF72AFB18
:10172000296C08442864286C000228649D20FFF777
:1017300021FB296C08442864286C000228649E2040
:10174000FFF718FB296C084428649F20FFF712FB61
:101750006864686C00026864A020FFF70BFB696C8A
:1017600008446864686C00026864A120FFF702FB0B
:10177000696C08446864686C00026864A220FFF722
:10178000F9FA696C08446864A320FFF7F3FAA864C7
:10179000A86C0002A864A420FFF7ECFAA96C084426
:1017A000A864A86C0002A864A520FFF7E3FAA96C5E
:1017B0000844A864A86C0002A864A620FFF7DAFA1F
:1017C000A96C0844A864A720FFF7D4FAE864E86C81
:1017D0000002E864A820FFF7CDFAE96C0844E86449
:1017E000E86C01E0D80200200002E864A920FFF7BD
:1017F000C1FAE96C0844E864E86C0002E864AA20D5
:10180000FFF7B8FAE96C0844E864AB20FFF7B2FAD6
:10181000B071AC20FFF7AEFAF071AD20FFF7AAFA75
:101820003072AE20FFF7A6FA7072BDE8F08103B502
:1018300083B0BDF80C00ADF8040003F037FE0020C3
:101840000AE003F013FEA02003F0D4FD03F044FEF1
:1018500040B1BDF80000401CADF80000BDF800002C
:101860006428EED3BDF80000B0F57A7F10D0BDF843
:101870000400C0B203F0BEFD03F02EFE40B99DF897
:10188000100003F0B7FD03F027FE08B903F00EFEC9
:1018900005B05DF804EB03F009BE000004490A68D6
:1018A00022F010020A600A6802430A6070470000D2
:1018B00000200240034A116801F038010143116021
:1018C0007047000000200240F8B5FE4D2868000E69
:1018D0008DF800009DF800100120FFF7A8FF286890
:1018E000000C8DF800009DF800100220FFF79FFF0C
:1018F0002868000A8DF800009DF800100320FFF70B
:1019000096FF2868C1B20420FFF791FF6868000EB7
:101910008DF800009DF800100520FFF788FF68682B
:10192000000C8DF800009DF800100620FFF77FFFE7
:101930006868000A8DF800009DF800100720FFF786
:1019400076FF6868C1B20820FFF771FFE868000EF3
:101950008DF800009DF800100920FFF768FFE86887
:10196000000C8DF800009DF800100A20FFF75FFFC3
:10197000E868000A8DF800009DF800100B20FFF7C2
:1019800056FFE868C1B20C20FFF751FF00F0AAFE35
:101990002869000E8DF800009DF800100D20FFF75B
:1019A00046FF2869000C8DF800009DF800100E20FD
:1019B000FFF73DFF2869000A8DF800009DF8001030
:1019C0000F20FFF734FF2869C1B21020FFF72FFF67
:1019D000BD4C2068000E8DF800009DF8001011200D
:1019E000FFF725FF2068000C8DF800009DF800101F
:1019F0001220FFF71CFF2068000A8DF800009DF8F8
:101A000000101320FFF713FF2068C1B21420FFF766
:101A10000EFF6068000E8DF800009DF80010152084
:101A2000FFF705FF6068000C8DF800009DF80010BE
:101A30001620FFF7FCFE6068000A8DF800009DF894
:101A400000101720FFF7F3FE6068C1B21820FFF7FF
:101A5000EEFEE068000E8DF800009DF800101920E1
:101A6000FFF7E5FEE068000C8DF800009DF800101F
:101A70001A20FFF7DCFEE068000A8DF800009DF8F0
:101A800000101B20FFF7D3FEE068C1B21C20FFF757
:101A9000CEFE2069000E8DF800009DF800101D207C
:101AA000FFF7C5FE2069000C8DF800009DF80010BE
:101AB0001E20FFF7BCFE2069000A8DF800009DF88B
:101AC00000101F20FFF7B3FE2069C1B22020FFF7EE
:101AD000AEFE7E4E31782120FFF7A9FE00F002FE17
:101AE000A869000E8DF800009DF800102220FFF775
:101AF0009EFEA869000C8DF800009DF800102320C0
:101B0000FFF795FEA869000A8DF800009DF8001007
:101B10002420FFF78CFEA869C1B22520FFF787FEBD
:101B2000E869000E8DF800009DF800102620FFF7F0
:101B30007EFEE869000C8DF800009DF8001027205B
:101B4000FFF775FEE869000A8DF800009DF80010A7
:101B50002820FFF76CFEE869C1B22920FFF767FE75
:101B6000686A000E8DF800009DF800102A20FFF72B
:101B70005EFE686A000C8DF800009DF800102B20B6
:101B8000FFF755FE686A000A8DF800009DF8001006
:101B90002C20FFF74CFE686AC1B22D20FFF747FEEC
:101BA00000F0A0FDA86A000E8DF800009DF800105E
:101BB0002E20FFF73CFEA86A000C8DF800009DF86F
:101BC00000102F20FFF733FEA86A000A8DF80000EE
:101BD0009DF800103020FFF72AFEA86AC1B231201C
:101BE000FFF725FEA069000E8DF800009DF800109B
:101BF0003220FFF71CFEA069000C8DF800009DF854
:101C000000103320FFF713FEA069000A8DF80000D2
:101C10009DF800103420FFF70AFEA069C1B23520FC
:101C2000FFF705FEE069000E8DF800009DF800103A
:101C30003620FFF7FCFDE069000C8DF800009DF8F0
:101C400000103720FFF7F3FDE069000A8DF800006F
:101C50009DF800103820FFF7EAFDE069C1B2392095
:101C6000FFF7E5FD00F03EFD606A000E8DF8000014
:101C70009DF800103A20FFF7DAFD606A000C8DF83D
:101C800000009DF800103B20FFF7D1FD606A000ABC
:101C90008DF800009DF800103C20FFF7C8FD606A39
:101CA000C1B23D20FFF7C3FDA06A000E8DF8000011
:101CB0009DF800103E20FFF7BAFDA06A000C8DF8D9
:101CC000000005E07C0200202C020020CC02002055
:101CD0009DF800103F20FFF7AAFDA06A000A8DF8CA
:101CE00000009DF800104020FFF7A1FDA06AC1B2DE
:101CF0004120FFF79CFD71784220FFF798FD00F02E
:101D0000F1FCB1784320FFF792FDF1784420FFF712
:101D10008EFDA868000E8DF800009DF8001045208B
:101D2000FFF785FDA868000C8DF800009DF80010F5
:101D30004620FFF77CFDA868000A8DF800009DF89A
:101D400000104720FFF773FDA868C1B24820FFF7D5
:101D50006EFD6869000E8DF800009DF800104920A6
:101D6000FFF765FD6869000C8DF800009DF8001014
:101D70004A20FFF75CFD6869000A8DF800009DF8B5
:101D800000104B20FFF753FD6869C1B24C20FFF7EC
:101D90004EFDA068000E8DF800009DF800104D204B
:101DA000FFF745FDA068000C8DF800009DF80010BD
:101DB0004E20FFF73CFDA068000A8DF800009DF85A
:101DC00000104F20FFF733FDA068C1B25020FFF78D
:101DD0002EFD6069000E8DF800009DF80010512066
:101DE000FFF725FD6069000C8DF800009DF80010DC
:101DF0005220FFF71CFD6069000A8DF800009DF875
:101E000000105320FFF713FD6069C1B25420FFF7A3
:101E10000EFD00F067FC286A000E8DF800009DF8AA
:101E200000105520FFF703FD286A000C8DF8000014
:101E30009DF800105620FFF7FAFC286A000A8DF87A
:101E400000009DF800105720FFF7F1FC286AC1B28E
:101E50005820FFF7ECFCE86A000E8DF800009DF8B2
:101E600000105920FFF7E3FCE86A000C8DF8000031
:101E70009DF800105A20FFF7DAFCE86A000A8DF896
:101E800000009DF800105B20FFF7D1FCE86AC1B2AA
:101E90005C20FFF7CCFC00F025FC206A000E8DF8DA
:101EA00000009DF800105D20FFF7C1FC206A000CC7
:101EB0008DF800009DF800105E20FFF7B8FC206A46
:101EC000000A8DF800009DF800105F20FFF7AFFCBE
:101ED000206AC1B26020FFF7AAFCE06A000E8DF80C
:101EE00000009DF800106120FFF7A1FCE06A000CE3
:101EF0008DF800009DF800106220FFF798FCE06A62
:101F0000000A8DF800009DF800106320FFF78FFC99
:101F1000E06AC1B26420FFF78AFC31796520FFF7DF
:101F200086FC71796620FFF782FC00F0DBFB206BFA
:101F3000000E8DF800009DF800106720FFF777FC79
:101F4000206B000C8DF800009DF800106820FFF752
:101F50006EFC206B000A8DF800009DF800106920CF
:101F6000FFF765FC206BC1B26A20FFF760FC606B75
:101F7000000E8DF800009DF800106B20FFF757FC55
:101F8000606B000C8DF800009DF800106C20FFF7CE
:101F90004EFC606B000A8DF800009DF800106D206B
:101FA000FFF745FC206BC1B26E20FFF740FC00F04C
:101FB00099FBA06B000E8DF800009DF800106F20BB
:101FC000FFF735FCA06B000C8DF800009DF80010A9
:101FD0007020FFF72CFCA06B000A8DF800009DF824
:101FE00000107120FFF723FCA06BC1B27220FFF735
:101FF0001EFCE06B000E8DF800009DF800107720AD
:10200000FFF715FCE06B000C8DF800009DF8001048
:102010007820FFF70CFCE06B000A8DF800009DF8BB
:1020200000107920FFF703FCE06BC1B27A20FFF7C4
:10203000FEFB00F057FB206C000E8DF800009DF8B1
:1020400000107B20FFF7F3FB206C000C8DF80000E4
:102050009DF800107C20FFF7EAFB206C000A8DF849
:1020600000009DF800107D20FFF7E1FB206CC1B25D
:102070007E20FFF7DCFB606C000E8DF800009DF801
:1020800000107F20FFF7D3FB606C000C8DF8000080
:102090009DF800108020FFF7CAFB606C000A8DF8E5
:1020A00000009DF800108120FFF7C1FB606CC1B2F9
:1020B0008220FFF7BCFB00F015FBA06C000E8DF832
:1020C00000009DF800108320FFF7B1FBA06C000C0E
:1020D0008DF800009DF800108420FFF7A8FBA06C8D
:1020E000000A8DF800009DF800108520FFF79FFB87
:1020F000A06CC1B28620FFF79AFBE06C000E8DF851
:1021000000009DF800108720FFF791FBE06C000CA9
:102110008DF800009DF800108820FFF788FBE06C28
:10212000000A8DF800009DF800108920FFF77FFB62
:10213000E06CC1B28A20FFF77AFB00F0D3FA286B7B
:10214000000E8DF800009DF800108B20FFF76FFB4C
:10215000286B000C8DF800009DF800108C20FFF714
:1021600066FB286B000A8DF800009DF800108D209A
:10217000FFF75DFB286BC1B28E20FFF758FB686B41
:10218000000E8DF800009DF800108F20FFF74FFB28
:10219000686B000C8DF800009DF800109020FFF790
:1021A00046FB686B000A8DF800009DF80010912036
:1021B000FFF73DFB686BC1B29220FFF738FB00F0E0
:1021C00091FAA86B000E8DF800009DF80010932086
:1021D000FFF72DFBA86B000C8DF800009DF8001098
:1021E0009420FFF724FBA86B000A8DF800009DF8EF
:1021F00000109520FFF71BFBA86BC1B29620FFF7DC
:1022000016FBE86B000E8DF800009DF8001097207B
:10221000FFF70DFBE86B000C8DF800009DF8001037
:102220009820FFF704FBE86B000A8DF800009DF88A
:1022300000109920FFF7FBFAE86BC1B29A20FFF774
:10224000F6FA00F04FFA286C000E8DF800009DF8A9
:1022500000109B20FFF7EBFA286C000C8DF80000B3
:102260009DF800109C20FFF7E2FA286C000A8DF818
:1022700000009DF800109D20FFF7D9FA286CC1B22C
:102280009E20FFF7D4FA686C000E8DF800009DF8D0
:1022900000109F20FFF7CBFA686C000C8DF800004F
:1022A0009DF80010A020FFF7C2FA686C000A8DF8B4
:1022B00000009DF80010A120FFF7B9FA686CC1B2C8
:1022C000A220FFF7B4FA00F00DFAA86C000E8DF80A
:1022D00000009DF80010A320FFF7A9FAA86C000CDD
:1022E0008DF800009DF80010A420FFF7A0FAA86C5C
:1022F000000A8DF800009DF80010A520FFF797FA5E
:10230000A86CC1B2A620FFF792FAE86C000E8DF817
:1023100000009DF80010A720FFF789FAE86C000C78
:102320008DF800009DF80010A820FFF780FAE86CF7
:10233000000A8DF800009DF80010A920FFF777FA39
:10234000E86CC1B2AA20FFF772FAB179AB20FFF7AF
:102350006EFAF179AC20FFF76AFA317AAD20FFF717
:1023600066FA717AAE20FFF762FA00F0BBF9114C01
:10237000206C000E8DF800009DF800107320FFF710
:1023800056FA206C000C8DF800009DF800107420A7
:10239000FFF74DFA206C000A8DF800009DF8001040
:1023A0007520FFF744FA206CBDE8F840C1B27620F2
:1023B000FFF73DBAD802002010B50121084600F011
:1023C0003FFA0021BDE81040012000F039BA0000BA
:1023D000F8B5214E304600F049F8204F384600F05D
:1023E00045F81F4800F042F8FFF7E6FF01211C20E6
:1023F00000F01AFA0121084600F016FA01211948E6
:1024000000F0E0F80121184800F0DCF84FF4076014
:10241000ADF8000010248DF8034003258DF802501C
:102420006946304600F07CF88020ADF80000482076
:102430008DF803006946304600F072F840F2031050
:10244000ADF800008DF803408DF80250694638461B
:1024500000F066F8F8BD000000080140000C0140E3
:10246000001001400004300000023000254910B582
:10247000884206D10121042000F0E2F90021042065
:102480003BE02149884206D10121082000F0D8F91B
:102490000021082031E01D49884206D10121102089
:1024A00000F0CEF90021102027E01949884206D11A
:1024B0000121202000F0C4F9002120201DE0154951
:1024C000884206D10121402000F0BAF900214020C5
:1024D00013E01149884206D10121802000F0B0F9B3
:1024E0000021802009E00D4988420AD1841501218C
:1024F000204600F0A5F900212046BDE8104000F07C
:102500009FB910BD00080140000C014000100140BF
:102510000014014000180140001C0140002001404F
:10252000F0B5CA78002502F00F03D20601D58A78EB
:1025300013430A784FF00F0E12F0FF0F4FF0010215
:102540001CD004680F8802FA05F63740B74211D153
:102550004FEA850C0EFA0CF724EA070703FA0CF48D
:102560003C43CF78282F02D0482F02D002E04661AA
:1025700000E006616D1C082DE4D304600C88FF2C7C
:102580001ED944685FF0000606F1080702FA07F555
:102590000F882F40AF420FD14FEA860C0EFA0CF78E
:1025A000BC4303FA0CF73C43CF78282F00D1456198
:1025B000CF78482F00D10561761C082EE4D3446003
:1025C000F0BD0000F0B5144C002801DAE36900E02A
:1025D0006368420D120185B2C0F301579540C0F304
:1025E0000346032F05D0C2020AD50322B24093430B
:1025F00007E023F07062636823F07063636002E0B9
:10260000AB4343F0706201B12A43002801DAE26172
:10261000F0BD6260F0BD00000000014002460020F5
:1026200092680A4200D00120704741617047016101
:102630007047FEE713B582B04FF6FF71ADF800109A
:102640009DF80C1011B901218DF80C1000244AF2EC
:10265000010300BF9DF80C104A1E8DF80C2023D3F7
:102660000178BDF800205140ADF800108DF804400D
:1026700014E000BFBDF80010C907BDF800104FEA14
:10268000510104D0ADF80010BDF800105940ADF86C
:1026900000109DF80410491C8DF804109DF80410DA
:1026A0000829E7D3401CD5E7BDF8000004B010BDF1
:1026B00002494CF6CC4008607047000000300040F2
:1026C00010B545F2555000F021F8032000F012F843
:1026D000FF2000F015F800F005F8BDE81040FFF706
:1026E000E7BF000002494AF6AA20086070470000D0
:1026F0000030004001494860704700000030004051
:1027000001498860704700000030004001490860BE
:10271000704700000030004070B50F4CA06B0F4DAB
:1027200001284FF00201284613D0FFF77EFF0C4826
:10273000007800280CD1A06B002809D160680949F5
:10274000884205D902212846FFF76FFF0120A063C8
:1027500070BDFFF76CFFEAE7D8020020000C0140D3
:1027600052000020B0AD0100FEE7704770B50F23A6
:10277000C47801780122F4B1144C2468457804F43B
:10278000E064C4F5E064240AC4F10406E3408478FC
:10279000B5401C402C4301F1E021230181F80034B5
:1027A000007800F01F018A404009800000F1E0201D
:1027B000C0F8002170BD01F01F0082404809800070
:1027C00000F1E020C0F8802170BD00000CED00E0B9
:1027D0000249084302490860704700000000FA05FA
:1027E0000CED00E0034A516821F44041014351607F
:1027F0007047000000100240044A0029516901D0CE
:10280000014300E081435161704700000010024025
:10281000044A0029D16901D0014300E08143D1611C
:102820007047000000100240044A0029916901D05D
:10283000014300E0814391617047000000100240B5
:10284000044A0029D16801D0014300E08143D160EE
:10285000704700000010024010B500F033F84FF44C
:102860008034204600F0C0F800F006F914490870E2
:102870000878012822D1002000F0ACF8002000F0F8
:10288000D7F8A01100F0CAF80220FFF713F81020C3
:10289000FFF704F84FF4E011204600F0D9F80120CA
:1028A00000F0D0F8392000F075F80028FAD00220A6
:1028B00000F0D8F800F086F80828FBD110BD000021
:1028C0004D0000200C48016841F0010101604168A1
:1028D0000A4A114041600168094A114001600168DB
:1028E00021F480210160416821F4FE0141604FF430
:1028F0001F01816070470000001002400000FFF8D7
:10290000FFFFF6FE30B51F494A6812F00C031E4A5D
:1029100003D0042B01D0082B21D002604A680F237A
:102920001A4C03EA1212A35C0268DA4042604B6858
:10293000072505EA1323E35C22FA03F383604B685F
:1029400005EAD323E35CDA40C2604968032303EA63
:102950009131231F595CB2FBF1F1016130BD4A682E
:102960004B6802F470124FF0020413F4803F04EB42
:10297000924202D04B689B0301D5054B00E0024B0D
:102980005A43CAE70010024000127A0004000020F7
:1029900000093D000246002053090949012B0BD0D4
:1029A000022B0BD0D1F8241002F01F020123934018
:1029B0000B4200D0012070470968F5E7096AF3E788
:1029C000001002400248406800F00C007047000010
:1029D00000100240034A516821F0F00101435160A8
:1029E00070470000001002400B490A6822F4803250
:1029F0000A600A6822F480220A60B0F5803F07D09E
:102A0000B0F5802F03D1086840F4A020086070471B
:102A1000086840F48030F9E700100240034A51682A
:102A200021F4E06101435160704700000010024052
:102A300003494A6822F4605242EAC0004860704785
:102A40000010024001490866704700000000424241
:102A5000034A5368084323F47C13184350607047BB
:102A600000100240034A516821F003010143516004
:102A7000704700000010024018B500204FF4A06419
:102A800000903120FFF786FF0099491C0091A14278
:102A900001D00028F5D03120FFF77CFF002800D0BE
:102AA000012018BD33B581B00020ADF80000BDF89D
:102AB0000400BDF80810400340EAC11041F6594136
:102AC0000843ADF80000BDF800004FF6FF7101EAC1
:102AD0008000ADF800000C4D4FF48054214628468C
:102AE000FFF7A3FDBDF80000FDF78AFDADF800007B
:102AF000FDF77AFC21462846FFF799FDFDF774FCA7
:102B0000BDF800003EBD0000000C01400029018816
:102B100002D041F0400101E021F040010180704706
:102B20000246002012890A4200D0012070478089A5
:102B300070478181704730B502884C8802F4415358
:102B40000A88CD8822438C882C4322430C89224357
:102B50004C8922438C892243CC8922431A43028028
:102B6000828B22F400628283098A018230BD704721
:102B70000548816C054801294FF0400101D0FFF75D
:102B800054BDFFF754BD0000D802002000080140EA
:102B90000CB50021264801910091026842F4803270
:102BA00002604FF4A063026802F400320092019ABE
:102BB000521C0192009A12B9019A9A42F3D102680A
:102BC000920333D5012100911A490A6842F010029C
:102BD0000A600A6822F003020A600A6842F00202F0
:102BE0000A604168416041684160416841F4806128
:102BF0004160416821F47C114160416841F4E81171
:102C00004160016841F08071016001688901FCD573
:102C1000416821F003014160416841F002014160D7
:102C20004168C1F381010229FAD10CBD00910CBDAC
:102C3000001002400020024010B500F067F9094979
:102C400009480A68D30602D503785B1C0370037831
:102C5000142B06D90023037022F0100008600348EB
:102C6000037010BD180000208200002080000020AA
:102C70000E484FF47A710068B0FBF1F0B0F1807F3C
:102C800012D220F07F414FF0E020491E4161084AF6
:102C9000F02182F8141D0021816107210161016981
:102CA00041F0010101617047FEE7000028000020AB
:102CB0000FE000E00F4810B5016841F0010101602C
:102CC00041680D4A1140416001680C4A11400160A1
:102CD000016821F480210160416821F4FE01416016
:102CE0004FF41F018160FFF753FF05494FF000606B
:102CF000086010BD001002400000FFF8FFFFF6FE64
:102D000008ED00E010B501211C4800F06DF81C48EA
:102D100001684A0602D441F0200101E021F02001BF
:102D2000016018494B6B00221748042B24D10B6B10
:102D3000012B21D1D1F8AC4024B1D1F8AC40012C09
:102D400003D010BD4478012C08D08478012CF8D130
:102D5000D1F8A0104468A14208D80BE0D1F89C102B
:102D60004468A14202D84270837005E04168491C62
:102D7000416010BD43708270426010BD0008004089
:102D800018000020D8020020200000207FB501217B
:102D90000420FFF73DFD40F6B140ADF800000020F3
:102DA0000124ADF804400F4DADF80200ADF8060067
:102DB0006946284600F02EF801221146284600F008
:102DC00020F81E208DF80C008DF80D408DF80E4077
:102DD0008DF80F4003A8FFF7C9FC0121284600F039
:102DE00006F87FBD00080040C943018270470029F2
:102DF000018802D041F0010101E021F001010180D0
:102E00007047002A828901D00A4300E08A43828108
:102E10007047000030B502881B4B1C4C98420DD007
:102E2000A0420BD0B0F1804F08D0194DA84205D078
:102E3000184DA84202D0184DA84203D122F07005C7
:102E40004A882A43154DA84206D0154DA84203D002
:102E500022F44075CA882A4302808A8882850A88BB
:102E6000028598420AD0A04208D00E4A904205D06E
:102E70000D4A904202D00D4A904201D1097A018652
:102E80000121818230BD0000002C0140003401404E
:102E90000004004000080040000C0040001000400A
:102EA000001400400040014000440140004801403F
:102EB00070B5124C2088B0F5487F04D310480088C4
:102EC000B0F5967F08D20F4D0020286320210E48D0
:102ED000FFF7ADFB0520E862218840F26C721020FC
:102EE000914202D80849103106E0218840F60202DA
:102EF000914202D304491431086070BD3E000020A5
:102F000040000020D802002000080140034801686A
:102F1000002902D00168491E016070474800002066
:102F20002DE9F84FFE4CE76BFE4D0021A4F1AC03F8
:102F3000002F03F1A0022F884FF47A764FF00A0990
:102F4000A2F1500012D02F8800975F68DDF800C012
:102F500007FB0CF700975778FF074768DDF800C0BC
:102F600065D0674538D90F46009139E02D88009526
:102F70001D68009F7D4300951578ED070568009F4B
:102F80001FD0BD4202D90D46009102E005687D1BAD
:102F900000952D0B0095B54200D20091009D256053
:102FA0000091A56B276875B1B7FBF9F567687D439C
:102FB000E560E568B5FBF6F5E56025684FF47A76DF
:102FC0004FE03D44E4E7B7FBF9F7D4F804C0BCFB9D
:102FD000F9F56F43E7603DE04768ACEB0707009702
:102FE0003F0B40F6B8380097474500D20091009F4C
:102FF0002760276842F2107C674500D2216000916B
:10300000D4F800C044F62067BC451DD92F882D8810
:1030100000959D68009F7D4300951579ED078568B3
:10302000009F46D0BD4204D90D46009104E067449C
:10303000D5E785687D1B00952D0B0095454500D291
:103040000091009D25600091A56B8DB32568676890
:103050007D43E560E568B5FBF6F5E560256842F27D
:10306000107675436668B5FBF6F5A560AC4CA56BAC
:10307000AD4C4CF25036002DAC4F258847F2305BFA
:103080004FEA860E4FEAC60A22D0258800951D69B0
:10309000DDF800C005FB0CF50095D578ED07056956
:1030A000DDF800C073D0654572D90D4600918AE005
:1030B00001E03D44BFE76768B7FBF9F527687D434A
:1030C000E560E568B5FBF6F5E5602568984EC8E76C
:1030D0000095DD68DDF800C005FB0CF500959578DE
:1030E000ED07C568DDF800C02CD0654502D90D4656
:1030F000009103E0C568ACEB050500952D0BAC46CF
:103100000095874DC5F804C0D5F80480D84527D967
:10311000B4F800C0CDF800C0D3F830C0DDF80080AE
:103120000CFB08FCCDF800C092F806C05FEACC7C2E
:10313000D0F830C0DDF800802BD0C44504D98C46CF
:10314000009107E06544D8E7D0F830C0A8EB0C0C3C
:10315000CDF800C04FEA1C3CCDF800C0C5F804C053
:10316000D5F804C0B4451DD9248800945C6BDDF803
:1031700000C004FB0CF40094D479E407446BDDF840
:1031800000C018D0644506D90C46009107E040E025
:1031900015E0C444DCE7446BACEB04040094240B5E
:1031A00000946C6000916C68012C06D92C6B24B1E2
:1031B0002C6814B195E06444F0E7696091E005691A
:1031C000ACEB050500952D0BAC460095544DC5F8AC
:1031D00004C0D5F80480F0452AD9B4F800C0B4F88A
:1031E00000C0CDF800C0D3F814C0DDF800800CFB9F
:1031F00008FCCDF800C092F805C05FEACC7CD0F89E
:1032000014C0DDF8008033D0C44504D98C46009149
:1032100008E06544D6E7D0F814C0A8EB0C0C00BF5A
:10322000CDF800C04FEA1C3CCDF800C0C5F804C082
:10323000D5F804C0BC4529D9B4F800C0B4F800C022
:10324000CDF800C0D3F838C0DDF800800CFB08FCD6
:10325000CDF800C092F808C05FEACC7CD0F838C046
:10326000DDF800802BD0C44504D98C46009107E0DE
:10327000C444D5E7D0F838C0A8EB0C0CCDF800C09A
:103280004FEA1C3CCDF800C0C5F804C0D5F8048056
:10329000D0451DD9B4F800C024880094DC6BDDF85B
:1032A00000C004FB0CF40094547AE407C46BDDF80E
:1032B00000C012D0644504D90C46009105E0C44416
:1032C000DCE7C46BACEB04040094240B00946C604A
:1032D0002C6B24B12C6814B102E06444F4E76960FB
:1032E00000910F4C656B134CDFF84CC0D4F8008094
:1032F0000B4CC834012D29D0094DAD6BF5B3DFF867
:1033000020B0DBF83450002D76D0DBF834605D4619
:10331000022E72D06E6B032E70D06E6B042E0DE0F9
:10332000D80200204400002042000020E093040066
:10333000A086010018000020500000206FD06E6BA6
:10334000052E6DD06D6B062D6BD09DE22668FA4D73
:10335000EF6CBE4203D0F94E28F040073760F74EBD
:1033600037685FEA876833D5B24627F02006CAF887
:103370000060EF6B2FB1EF6B012F00E077E00DD015
:1033800026E02768D5F88480A7EB08072760276820
:10339000D5F84C8047451BD8EF6C14E0D5F88480F5
:1033A000B8FBF9F7D4F80080A8EB07072760D5F839
:1033B0004C80B8FBF9F7D4F80080474508D3D5F81E
:1033C0004C80B8FBF9F7276046F04006CAF8006069
:1033D000EE6B24684FEA0434009486B1ED6C44F639
:1033E0002064A54227D25278520720D4C269009C9B
:1033F000A24217D9009118E072E1D7E12BE21278CE
:10340000520709D48269A24201D9009102E0806981
:10341000201A009098691BE080692044F9E760E277
:103420007AE39CE3C069201A0090D86910E0C06973
:10343000009A1044F8E71279520714D4026A009CEB
:10344000A24201D9009102E0006A201A0090186A95
:10345000009AB2FBF0F04008CDF80000ACF8040090
:103460000091BDE8F88F006A009A1044EEE7DFF89B
:10347000C8E2DEF83450DFF8C8A28DB1DEF834704F
:103480007546022F47D06F6B032F6AD06F6B042FE6
:103490007ED06E6B052E7CD06D6B062D7AD038E019
:1034A0005FEA88650CD56768DEF87C80754647441E
:1034B00067606768DEF85080474501D32D6D656011
:1034C00064685CE0009C05E1406A201A01E0406A03
:1034D00020440090586A17E0256DB5427DD307E07F
:1034E000006C201A01E0006C20440090186C0BE086
:1034F000256DB5420DD3256D26E0406C201A01E004
:10350000406C20440090586C009AB2FBF0F04008E8
:1035100000900098A2E7EF6B002F2F680DD042F2C9
:10352000107800BF07FB08F7D5F85480B7FBF8F711
:10353000A760A468009424037AE04FF47A78F1E756
:103540002C6DB442E5D32D6D5545E2D8009C240383
:103550000094D2795207D3D4426CA242CDD90091C3
:10356000D1E7ED6B002D754617D0AF6DDFF8D08138
:103570002D6807FB08F7B7FBF5F5E560E4680094F4
:10358000DEF8507074465F459CD3276D5F4502E0BE
:103590000FE088E09CE0ABD39EE7D5F80080AD6DEE
:1035A000B8FBF9F7DFF8988105FB08F5B5FBF7F5EF
:1035B000E3E7D5F8AC703FB1D5F8AC70012F03D07C
:1035C000D5F8AC70022FA4D15E4F3F78012F09D0FF
:1035D0005D4F3F78012F9CD100E034E05FEA8867BF
:1035E0003ED424E05FEA886721D56768D5F89480E7
:1035F0004745676809D2D5F8A48047446760676883
:10360000D5F8948047450FD211E0D5F8948047450E
:103610000DD96768D5F8A880A7EB080767606768C9
:10362000D5F89480474502D8D5F8947039E064689D
:1036300000942F6D5F45A7D32F6D5F4580D32C6D10
:10364000B442BFF47DAF009C2403009492795207EA
:103650003FF549AF026CA2427FF642AF009145E7C9
:103660006768D5F898804745676809D2D5F8A4807F
:10367000474467606768D5F8988047450FD2D6E71A
:10368000D5F898804745D2D96768D5F8A880A7EBC8
:10369000080767606768D5F898804745C7D8D5F8A8
:1036A00098706760C3E75FEA886609D56668ED6F62
:1036B000354465606568A668B54201D3A568656054
:1036C000646806E0426AA2427FF6FEAE009101E71E
:1036D000246900942403009492785207F2D5F6E608
:1036E0005FEA886516D5DBF87C60DA464D46B6FBA6
:1036F000F5F6D4F8048046446660DBF85060D4F8F0
:103700000480B6FBF9F6464504D8DAF85060B6FBFB
:10371000F9F5656064680094DBF850605C467645B6
:1037200017D2009D2D030095D27852077ED4826A6D
:10373000AA4267D900910AE0D802002018000020B0
:10374000A086010021000020220000200090986A3D
:1037500014E0266D764515D3256DBD4212D2009D2D
:103760002D0300955279520771D4C26AAA4201D939
:10377000009102E0C26AA81A0090D86A009AB2FBCF
:10378000F0F047E1256DBD427ED3009D2D030095ED
:10379000127A520707D4826CAA4276D9009100E0CF
:1037A0000090986CEAE7826C5019F9E7ED6BD94606
:1037B000002DDBF800604D4621D04FF47A7800BF31
:1037C0006D6D06FB08F6B6FBF5F5A560A4680094E0
:1037D000D9F850604C467645A3D3266D764514D370
:1037E000256DBD4211D2009D2D03009552795207DF
:1037F0002DD4C26AAA42BBD8C06A281ABCE74FF0CF
:103800006408DDE7806A281AA0E7256DBD427DD3F4
:10381000266D56457AD2009D2D030095127A5207E7
:1038200075D4826CAA4202D9009103E046E1806C13
:10383000281A00909A6C5BE1009B1B030093527A5C
:103840005207C26C7ED49A427DD9009101E0C5E056
:103850000092C06C92E7ED6B002D5D461FD0AE6DFF
:103860004FF47A782D6806FB08F6B6FBF5F5E560AF
:10387000E4680094DBF850605C4676451BD2009DFE
:103880002D030095D27801E03FE038E152077DD466
:10389000826AAA423FF64EAF826AA81A56E7D5F866
:1038A0000080AD6DB8FBF9F64FF47A7805FB08F5AA
:1038B000B5FBF6F5DBE7266D764502D3256DBD42F7
:1038C00091D3256DBD4221D3266D56451ED2009D54
:1038D0002D030095127A52077FF55DAF806C284466
:1038E0005EE7D5F8AC5045B1DBF8AC605D46012E23
:1038F00003D0D5F8AC50022D07D1AA4D2D78012D5B
:1039000006D0A94D2D78012D7CD03CE1FAE068E08D
:103910005FEA88653ED5DBF894604D46B6FBF5F668
:10392000D4F80480464514D9DBF8A460D946B6FB28
:10393000F5F6D4F8048046446660DBF89460B6FB84
:10394000F5F601E0E6E0E2E0D4F8048046451AD955
:1039500020E0DBF89460D4F80480B6FBF5F6464529
:1039600018D2DBF8A860D946B6FBF5F6D4F8048087
:10397000A8EB06066660DBF89460D4F80480B6FB1A
:10398000F5F6464506D3D9F8946000E023E0B6FB8F
:10399000F5F5656064680094DBF850605C46764538
:1039A000FFF46DAF266D764502D3256DBD4287D3FA
:1039B000256DBD4218D3266D564515D2009D2D03A9
:1039C0000095127A52070CD4826CAA423FF62CAFB3
:1039D000826CA81A2DE7826A5019B7E6C06A28449B
:1039E000CAE6806C284424E7256D554554D3009BD6
:1039F0001B030093527A5207C26C09D49A4202D92F
:103A0000009103E00DE0C26C9A1A0092C26C6FE064
:103A10001A44FAE740080090206DE8BBACF80410A7
:103A2000B1E05FEA88653BD5DBF898604D46B6FBB0
:103A3000F5F6D4F80480D94646455E4610D9D6F846
:103A4000A460D4F80480B6FBF5F646446660D9F865
:103A50009860D4F80480B6FBF5F6464519D91FE006
:103A6000D6F89860D4F80480B6FBF5F6464517D230
:103A7000D9F8A860D4F80480B6FBF5F6A8EB0606E2
:103A80006660D9F89860D4F80480B6FBF5F6464530
:103A900006D3D9F8986000E075E0B6FBF5F56560EF
:103AA00064680094DBF850605C46764509D2009D5E
:103AB0002D030095D27852077FF5EAAE806A28443C
:103AC00044E6266D7645FFF4FCAE256DBD42BFF49D
:103AD000F8AE009D2D030095527952070CD4C26AAE
:103AE000AA4201D9009102E0C06A281A0090DA6A5D
:103AF0000098B0FBF2F08DE7C06A2844F6E7806CCE
:103B0000281A4DE6256D5545BFF496AE3BE0C26CD4
:103B10009A1A9DE61A449BE65FEA886609D56668AC
:103B2000ED6F354465606568A668B54201D3A56848
:103B30006560646824030094D27852070CD4826ACA
:103B4000A24201D9009102E0806A201A00909A6A8C
:103B50000098B0FBF2F014E0806A2044F6E7246994
:103B600024030094D278520719D4826AA24201D960
:103B7000009102E0806A201A0090986A009AB2FBD5
:103B8000F0F0400800900098ACF804000091DBF8D9
:103B9000500000287FF465ACACF8041061E4806A42
:103BA0002044E9E721000020220000202DE9FF5FEA
:103BB000C14C2078C14DDFF80893C24FC24E4FF080
:103BC000010B4FF00008012802D0207800287DD199
:103BD000607803287AD1E079A17900EB0120ADF873
:103BE00004000621B448FEF725FDBDF80410884204
:103BF00003D0BDF8040000286ED1E078FF286BD216
:103C0000E07861790844FF2866D285F800B0032087
:103C1000687060798000A870404635E09DF800002B
:103C2000800713D09DF8000000F0030001281AD08F
:103C30009DF8000000F003000228E0789DF80010D5
:103C400000EB910056F8200016D016E0E1789DF8C0
:103C5000000001EB900056F82000010E9DF80000D6
:103C60002844C1700DE0E0789DF8001000EB910051
:103C700056F82000000C00E0000A9DF800102944CE
:103C8000C8709DF80000401C8DF80000A8789DF8D1
:103C900000108842C2D8A878C01CC1B28748FEF77D
:103CA000C9FCADF80400BDF80400AA78010A8348F5
:103CB000C01C1154BDF80400AA788049091D505455
:103CC000A878401D89F80000386800E004E040F062
:103CD0000800386000F002F92078012802D020782E
:103CE00000287AD18DF80C806078DFF8E0A10628F2
:103CF00056D1E078FF2853D2607A217A00EB012078
:103D0000ADF8000008216C48FEF794FCBDF80010E7
:103D1000884202D0BDF80000F0BB6079217900EB49
:103D200001200090E079A17900EB0120ADF80400BA
:103D3000E0788DF80800BDF80400009900EB014020
:103D40009DF80810009046F821002078316C8842D8
:103D50001AD1404609E000BF9DF80C00205C9DF898
:103D60000C1068549DF80C00401C8DF80C009DF858
:103D70000C000A28F0D30A2189F80010386840F0B6
:103D80000800386000F0AAF8DAF8001041F00101EC
:103D9000CAF80010C82100E002E04748FCF737FAF3
:103DA0006078102819D1A07904EB8000007AA179FD
:103DB00004EB8101C97900EB0120ADF80000A07986
:103DC000072101EB8000C1B23B48FEF733FCBDF890
:103DD000001088426DD140462AE06AE09DF8080054
:103DE00004EB8000007A9DF8081004EB8101C9798A
:103DF00000EB012000909DF8080004EB8000807A21
:103E00009DF8081004EB8101497A00EB0120ADF820
:103E10000400BDF80400009900EB01400090E17837
:103E20009DF80820114446F821009DF80800401C28
:103E30008DF80800A0799DF808108842CED8F06B64
:103E4000012803D022490878401C087020780128F6
:103E500022D185F800B0102068701E488178A970C2
:103E6000C178E970017929714079687106211A4891
:103E7000FEF7E0FBADF80000BDF80000000AA871F5
:103E8000BDF80000E871082189F80010386840F09A
:103E90000800386000F022F8DAF80010064841F017
:103EA0000101CAF8001004B0C821BDE8F05FFCF7BA
:103EB000AEB9BDE8FF9F0000200600205805002095
:103EC0008100002014000020D80200201C000020E7
:103ED00050000020C803002090040020F8B5002006
:103EE0008DF800008DF800000F4C104E104D10E0C2
:103EF0009DF80000315C204601F0C8F98021204681
:103F000001F02CF90028F9D09DF80000401C8DF834
:103F100000009DF8000029788842E9D3054801682F
:103F200021F008010160F8BD00380140580500206B
:103F30008100002014000020F8B500208DF800005A
:103F40008DF800000F4C104E104D10E09DF8000051
:103F5000315C204601F09AF98021204601F0FEF8FC
:103F60000028F9D09DF80000401C8DF800009DF855
:103F7000000029788842E9D30548016821F008014A
:103F80000160F8BD00440040900400208100002042
:103F9000140000202DE9FF5FFE4D2878DFF8F8B30C
:103FA000FE4E4FF0010A4FF00009012802D0287898
:103FB00000287CD16878032879D1E979A87901EBC8
:103FC0000020ADF804000621F248FEF733FBBDF8EF
:103FD0000410884203D0BDF8040000286ED1E878B0
:103FE000FF286BD2E87869790844FF2866D2EC4C48
:103FF00084F800A00320607068798000A0704846B3
:1040000032E000BF9DF80000800713D09DF800004B
:1040100000F00300012816D09DF8000000F0030016
:104020000228E8789DF8001000EB910156F8210075
:1040300012D012E0E8789DF8001000EB910156F8DC
:104040002100000E09E0E8789DF8001000EB9101D6
:1040500056F82100000C00E0000A9DF800102144F1
:10406000C8709DF80000401C8DF80000A0789DF8F5
:1040700000108842C6D8A078C01CC1B2C848FEF75C
:10408000D9FAADF80400BDF80400A278010AC448CA
:10409000C01C1154BDF80400A278C149091D505438
:1040A000A078C049401D0870DBF8001000E005E072
:1040B00041F00801CBF80010FFF73EFF2878BA4C1A
:1040C000012802D0287800287ED14F468DF80C9028
:1040D0006878062859D1E878FF2856D2687A297A74
:1040E00000EB0120ADF800000821AA48FEF7A2FA73
:1040F000BDF80010884202D0BDF80000E8BB687926
:10410000297900EB01200090E879A97900EB0120E2
:10411000ADF80400E8788DF80800BDF804000099B7
:104120009DF8082000EB01400146009046F822105F
:104130002978306C81421DD18DF80C7098480AE0C6
:104140009DF80C10695C9DF80C2081549DF80C10B2
:10415000491C8DF80C109DF80C100A29F0D39148D9
:104160000A210170DBF8001041F00801CBF80010C3
:10417000FFF7E2FE8D48016800E006E041F0010132
:104180000160C8218348FCF742F8687810281BD1E9
:10419000706B874904280AD1D6F8AC00012806D1F3
:1041A000306B012803D18348077081F800A0706B41
:1041B000042817D1D6F8AC00022813D1306B01289F
:1041C00010D17C48027800E0A3E0012A03D00A78ED
:1041D000012A04D006E0077081F800A002E00F7009
:1041E00080F800A0A879A84605EB8000007AA9799C
:1041F00005EB8101C97900EB0120ADF80000A87939
:10420000072101EB8000C1B26248FEF713FABDF846
:10421000001088427DD18DF808702CE09DF80800D0
:1042200008EB8000007A9DF8081008EB8101C9793D
:1042300000EB012000909DF8080008EB8000807AD8
:104240009DF8081008EB8101497A00EB0120ADF8D8
:104250000400BDF80400009900EB0140009098F8BC
:1042600003109DF80820114446F821009DF808002D
:10427000401C8DF8080098F806009DF80810884248
:10428000CCD8F06B012802D02078401C207098F820
:104290000000012828D1424F87F800A01020787034
:1042A00098F80200B87098F80300F87098F80400C5
:1042B000387198F80500787106213846FEF7BAF98A
:1042C000ADF80000BDF80000000AB871BDF80000AC
:1042D000F871344808210170DBF8001041F0080142
:1042E000CBF80010FFF728FE3048016841F00101CB
:1042F0000160706B042809D1306B012806D1607809
:1043000020B92C4981F800A084F801A0C8212148D7
:1043100000E001E0FBF77BFF287801287ED1687878
:10432000A528FBD1287AE97900EB0120ADF800003F
:1043300007211848FEF77EF9BDF800108842EDD13C
:10434000A878DFF87480012811D1B8F80000A061C6
:10435000A088E0612879E97800EB01202062206ADA
:104360006979000400EB0120A97908442062A8784B
:10437000AB460A4EAC3E06F1500706F1A0050228F6
:104380007ED1B8F800006062A088A0629BF804109B
:1043900014E00000C803002014000020D802002010
:1043A0009004002081000020500000201C0000200C
:1043B0002200002021000020440000209BF8032060
:1043C00001EB0221E162E16A9BF8052009049BF8F8
:1043D000060001EB02210844E062E06A0090216AD5
:1043E000401A00030090606AA169401A0190DDE95B
:1043F0000001B0FBF1F000903060E06A0003009033
:10440000606A01903068019948430190DDE900013C
:1044100088420AD208460099401A00E0FEE3019063
:104420003860287840F0010005E0401A00903860BC
:10443000287820F001002870E06A0090216A401A74
:1044400000030090A06AE169401A40000190DDE994
:104450000001B0FBF1F00090B061E06A0003009051
:10446000B0690190A16A484340000190DDE9000174
:1044700088420AD208460099401A0190B86100E0CB
:104480000EE0287840F0040005E0401A0090B86182
:10449000287820F004002870FDF716FA84F80290BE
:1044A0009BF80210584603290FD1B8F80010A160FC
:1044B000A18821610179C178216A4279090401EB5F
:1044C000022182791144E16061618078042870D111
:1044D000B8F800006062A088A0629BF804109BF806
:1044E000032001EB0221E162E16A9BF80520090447
:1044F0009BF8060001EB02210844E062E06A0090AC
:10450000216A401A00030090606AA169401A019074
:10451000DDE90001B0FBF1F000907060E06A00039B
:104520000090606A01907068019948430190DDE94C
:104530000001884208D208460099401A019078602C
:10454000687840F0010005E0401A009078606878D3
:1045500020F001006870E06A0090216A401A0003B0
:104560000090A06AE169401A40000190DDE9000175
:10457000B0FBF1F00090F061E06A00030090F06998
:104580000190A16A484340000190DDE900018842A2
:1045900006D2081A0190F861687840F0040005E03E
:1045A000401A0090F861687820F004006870FDF708
:1045B0008BF99BF8020005287BD1C4F81890C4F849
:1045C0001C90C4F82090B8F80000A061A088E061B9
:1045D0009BF804109BF8032001EB02212162216A61
:1045E0009BF8052009049BF8060001EB0221084412
:1045F0002062206A0090E16A401A00030090A069DE
:10460000616A401A0190DDE90001B0FBF1F0009011
:10461000B060206A00030090A0690190B068019921
:1046200048430190DDE90001884208D2084600991C
:10463000401A0190B860287940F0010005E0401A66
:104640000090B860287920F001002871206A00905D
:10465000E16A401A00030090E069A16A401A400034
:104660000190DDE90001B0FBF1F000903062206ABA
:1046700000030090306A0190E169484340000190D6
:10468000DDE90001884209D208460099401A0190EC
:104690003862287940F0040006E00AE0401A0090F1
:1046A0003862287920F004002871FDF70DF984F8AC
:1046B00002909BF802105846DFF80887062911D1AE
:1046C000B8F80010A161A188E1610179C27801EB1D
:1046D00002212162216A4279090401EB02218279D7
:1046E000114421628078072874D1B8F80000606214
:1046F000A088A0629BF804109BF8032001EB022124
:10470000E162E16A9BF8052009049BF8060001EBD1
:1047100002210844E062E06A0090216A401A000326
:104720000090606AA169401A0190DDE90001B0FBC8
:10473000F1F00090F060E06A00030090606A019080
:10474000F068019948430190DDE90001884208D2F0
:1047500008460099401A0190F860A87840F00100DE
:1047600005E0401A0090F860A87820F00100A870D9
:10477000E06A0090216A401A00030090A06AE16993
:10478000401A40000190DDE90001B0FBF1F000901B
:104790007062E06A00030090706A0190A16A484369
:1047A00040000190DDE90001884208D208460099E6
:1047B000401A01907862A87840F0040005E0401AA1
:1047C00000907862A87820F00400A870FDF77CF8CB
:1047D00084F802909BF80200082874D1B8F8000011
:1047E0006062A088A0629BF804109BF8032001EB94
:1047F0000221E162E16A9BF8052009049BF80600AA
:1048000001EB02210844E062E06A0090216A401A4C
:1048100000030090606AA169401A0190DDE900017F
:10482000B0FBF1F000903063E06A00030090606A32
:104830000190306B019948430190DDE90001884205
:1048400008D208460099401A01903863A87940F0D0
:10485000010005E0401A00903863A87920F00100BB
:10486000A871E06A0090216A401A00030090A06AD3
:10487000E169401A40000190DDE90001B0FBF1F070
:1048800000903064E06A00030090306C0190A16AEF
:10489000484340000190DDE90001884208D2084603
:1048A0000099401A01903864A87940F0040005E0AE
:1048B000401A00903864A87920F00400A871FDF730
:1048C00003F884F802909BF80200092874D1B8F824
:1048D00000006062A088A0629BF804109BF803208F
:1048E00001EB0221E162E16A9BF8052009049BF8D3
:1048F000060001EB02210844E062E06A0090216AB0
:10490000401A00030090606AA169401A0190DDE935
:104910000001B0FBF1F000907063E06A00030090CA
:10492000606A0190706B019948430190DDE90001D4
:10493000884208D208460099401A01907863E879C5
:1049400040F0010005E0401A00907863E87920F01B
:104950000100E871E06A0090216A401A00030090AB
:10496000A06AE169401A40000190DDE90001B0FB56
:10497000F1F000907064E06A00030090706C0190A8
:10498000A16A484340000190DDE90001884208D255
:1049900008460099401A01907864E87940F00400D4
:1049A00005E0401A00907864E87920F00400E8718E
:1049B000FCF78AFF84F802909BF8021058460A29F7
:1049C00011D1B8F80010A161A188E1610179C27824
:1049D00001EB02212162216A4279090401EB0221E3
:1049E00082791144216280780B2870D1B8F80000D8
:1049F0006062A088A0629BF804109BF8032001EB82
:104A00000221E162E16A9BF8052009049BF8060097
:104A100001EB02210844E062E06A0090216A401A3A
:104A200000030090606AA169401A0190DDE900016D
:104A3000B0FBF1F000903061E06A00030090606A22
:104A400001903069019948430190DDE900018842F5
:104A500008D208460099401A01903861E87840F081
:104A6000010005E0401A00903861E87820F001006C
:104A7000E870E06A0090216A401A00030090A06A82
:104A8000E169401A40000190DDE90001B0FBF1F05E
:104A90000090B062E06A00030090B06A0190A16AE1
:104AA000484340000190DDE90001884206D2081A1F
:104AB0000190B862E87840F0040005E0401A0090E8
:104AC000B862E87820F00400E870FCF7FDFE9BF87F
:104AD00002000C2874D1B8F80000A061A088E06141
:104AE0009BF804109BF8032001EB02212162216A4C
:104AF0009BF8052009049BF8060001EB02210844FD
:104B00002062206A0090E16A401A00030090A069C8
:104B1000616A401A0190DDE90001B0FBF1F00090FC
:104B20007061206A00030090A0690190706901998A
:104B300048430190DDE90001884208D20846009907
:104B4000401A01907861687940F0010005E0401A50
:104B500000907861687920F001006871206A009007
:104B6000E16A401A00030090E069A16A401A40001F
:104B70000190DDE90001B0FBF1F00090F062206AE5
:104B800000030090F06A0190E16948434000019001
:104B9000DDE90001884208D208460099401A0190D8
:104BA000F862687940F0040005E0401A0090F8626D
:104BB000687920F004006871FCF786FE84F80290A2
:104BC0009BF802000D2876D1B8F80000A061A088FB
:104BD000E0619BF804109BF8032001EB02212162A5
:104BE000216A9BF8052009049BF8060001EB0221CD
:104BF00008442062206A0090E16A401A0003009095
:104C0000A069616A401A0190DDE90001B0FBF1F092
:104C10000090B063206A0003009000E0D0E0A0693B
:104C20000190B06B019948430190DDE90001884291
:104C300008D208460099401A0190B863287A40F0DB
:104C4000010005E0401A0090B863287A20F00100C6
:104C50002872206A0090E16A401A00030090E0691F
:104C6000A16A401A40000190DDE90001B0FBF1F0BB
:104C70000090B064206A00030090B06C0190E1697C
:104C8000484340000190DDE90001884208D208460F
:104C90000099401A0190B864287A40F0040005E0B9
:104CA000401A0090B864287A20F004002872FCF7BB
:104CB0000BFE84F802909BF802000E2874D1B8F81D
:104CC0000000A061A088E0619BF804109BF803201D
:104CD00001EB02212162216A9BF8052009049BF85F
:104CE000060001EB022108442062206A0090E16A7C
:104CF000401A00030090A069616A401A0190DDE942
:104D00000001B0FBF1F00090F063206A0003009016
:104D1000A0690190F06B019948430190DDE9000121
:104D2000884208D208460099401A0190F863687AD0
:104D300040F0010005E0401A0090F863687A20F026
:104D400001006872206A0090E16A401A0003009036
:104D5000E069A16A401A40000190DDE90001B0FB62
:104D6000F1F00090F064206A00030090F06C019074
:104D7000E169484340000190DDE90001884208D222
:104D800008460099401A0190F864687A40F00400DF
:104D900005E0401A0090F864687A20F00400687218
:104DA000FCF792FD84F802909BF8021058460F29F8
:104DB00006D184F802A08179407901EB0020A0801F
:104DC000BDE8FF9F420000202DE9F0412D4C2E4D03
:104DD00040F225562068314640F0100020602846F9
:104DE00000F0C3F900284AD03146284600F053F9B4
:104DF000284600F047FA264A244D117868542F7847
:104E0000244E012300202449012F02D02D7855B3D0
:104E10002CE0224FBB626F78062F24D06F78102FC2
:104E200015D06F78032F16D06D78A52D17D01DE003
:104E300010700B70226822F01002226030700A7825
:104E4000012A1CD10870BDE8F041FEF7AFBE15780D
:104E5000A02DEDD00AE01578072DE9D006E01578F1
:104E6000082DE5D002E01578082DE1D813785B1CF9
:104E700013701378C82B02D9107008703070BDE819
:104E8000F0810000180000200038014020060020BA
:104E9000800000208200002020000020D802002096
:104EA00038B54FF4E060FDF793FC25208DF8000045
:104EB00000258DF8015001248DF802408DF8034043
:104EC0006846FDF753FC26208DF800008DF8015050
:104ED00002208DF802008DF803406846FDF746FC7D
:104EE00027208DF800008DF8015003208DF8020076
:104EF0008DF803406846FDF739FC38BD30B585B004
:104F000001212048FDF784FC0424ADF8104018204E
:104F10008DF8130003201C4D8DF8120004A92846BB
:104F2000FDF7FEFA0820ADF810008DF8134004A933
:104F30002846FDF7F5FA4FF4E13000900020ADF877
:104F40000400ADF80600ADF80800ADF80C000C2028
:104F50000E4CADF80A006946204600F03DF9FFF717
:104F60009FFF012240F22551204600F01DF901214A
:104F7000204600F096F84021204600F089F805B060
:104F800030BD000004000200000801400044004061
:104F900070B52F4C2F4D40F225562068314640F019
:104FA00010002060284600F0E0F800284ED031467E
:104FB000284600F070F8284600F064F92749264B8F
:104FC0000A7898541E780022254D2648012E02D0DA
:104FD0001B7863B32EE05E78062E28D05E78102E04
:104FE00019D05E78032E1AD05B78A52B1BD021E058
:104FF0000A70016841F010010160236823F010037A
:1050000023602A70CA0621D521F010010160BDE895
:105010007040FEF7BFBF0B78A02BE9D00AE00B78F9
:10502000072BE5D006E00B78082BE1D002E00B78E7
:10503000082BDDD80B785B1C0B700B78C82B05D9BF
:105040000A70016821F0100101602A7070BD000033
:105050001800002000440040C80300208000002009
:10506000820000201400002070B5084D40F2255445
:105070002146284600F079F8002805D02146284628
:10508000BDE8704000F007B870BD00000048004067
:10509000C943018070470A0A01219140C943018038
:1050A00070470029818902D041F4005101E021F4C8
:1050B000005181817047000010B586B0012144F293
:1050C0000800FDF7B1FB01210846FDF7ADFB01210A
:1050D0000420FDF777FA4020ADF8100018208DF875
:1050E000130003201B4C8DF8120004A92046FDF785
:1050F00017FA8020ADF8100004208DF8130004A9E1
:105100002046FDF70DFA4FF4E13000900020ADF895
:105110000400ADF80600ADF80800ADF80C000C2056
:105120000D4CADF80A006946204600F055F8FFF72F
:10513000B7FE012240F22551204600F035F801214A
:105140002046FFF7AEFF40212046FFF7A1FF06B043
:1051500010BD0000000C0140003801400246002054
:1051600012880A4200D00120704730B501F01F02BA
:1051700001240025C1F3421304FA02F2012B0FD0DF
:10518000022B0FD0838A4FEA11210088134204FAC0
:1051900001F400EA040001D000B10125284630BD29
:1051A0008389F0E7038AEEE710B5C1F3421301F0FB
:1051B0001F040121A140012B07D0022B07D014307E
:1051C000002A026805D00A4304E00C30F8E71030EA
:1051D000F6E78A43026010BD30B50446008A85B008
:1051E0000D464CF6FF710840E98801432182A189F0
:1051F0004EF6F3100140A8882A8910436A890A43B1
:105200001043A081A08A4FF6FF410840A9890143BD
:10521000A1826846FDF776FB1948844201D10398C4
:1052200000E00298A189090400EBC00101EB001025
:10523000296801D5490000E08900B0FBF1F0642243
:10524000B0FBF2F109010B096FF018056B4300EB9D
:105250008300A3891D044FF0320306D503EBC00081
:10526000B0FBF2F000F0070005E003EB0010B0FB2C
:10527000F2F000F00F000843208105B030BD0000BF
:10528000003801408088C0F308007047C1F308016E
:1052900081807047FEE7000070B5114CE06B114E45
:1052A0004FF4006500282946304614D0FDF7BDF9BB
:1052B0000D480078002811D1E06B00280ED120683D
:1052C0000A4988420AD90120E06329463046BDE8F0
:1052D0007040FDF7AAB9FDF7AAF9E9E770BD000033
:1052E000D80200200008014052000020E093040092
:1052F00070470000F8B501211020FDF77DFA4FF44A
:105300008040ADF8000014240B4E8DF803400225B8
:105310008DF8025069463046FDF702F9A803ADF852
:1053200000008DF803408DF8025069463046FDF7C5
:10533000F7F800F0BBF8F8BD0010014008B50020F8
:105340008DF800009DF800000A2803D29DF80000A7
:10535000401CF5E708BD000070B50C4C4FF48041CF
:105360002046FDF764F9FFF7E9FF4FF400452946B1
:105370002046FDF75CF9FFF7E1FF29462046FDF7DF
:1053800054F9BDE87040FFF7D9BF0000001001409C
:105390007CB500208DF800008DF804004FF4004427
:1053A000134D66101DE040008DF800002146284690
:1053B000FDF73DF9FFF7C2FF31462846FDF72EF90C
:1053C00020B19DF80000401C8DF8000021462846C1
:1053D000FDF72BF9FFF7B2FF9DF80400401C8DF894
:1053E00004009DF8040008289DF80000DBD37CBD74
:1053F0000010014071B581B000208DF800004FF41D
:105400008046194C75002AE09DF8040031460006DC
:10541000204602D5FDF70BF901E0FDF706F9FFF78D
:105420008DFF29462046FDF702F9FFF787FF294641
:105430002046FDF7FAF89DF80000072803D1314611
:105440002046FDF7F4F89DF8040040008DF80400B4
:10545000FFF774FF9DF80000401C8DF800009DF8D8
:1054600000000828D0D37CBD0010014070B50E4D5F
:105470004FF4804421462846FDF7D9F866003146AE
:105480002846FDF7D4F8FFF759FF21462846FDF7D7
:10549000CCF8FFF753FF31462846FDF7C6F8BDE8C4
:1054A0007040FFF74BBF00000010014070B5094D80
:1054B0004FF4804421462846FDF7B7F8610028469E
:1054C000FDF7B5F8FFF73AFF21462846BDE87040E2
:1054D000FDF7ADB800100140F8B5104C4FF4804511
:1054E00029462046FDF7A3F8FFF728FF6E00314656
:1054F0002046FDF79CF8FFF721FF29462046FDF7DF
:105500008DF800B101208DF8000031462046FDF7EE
:105510008CF8FFF713FF9DF80000F8BD0010014064
:10552000FDF79AF9FDF7A4FBFCF752FFFAF7EEFE40
:10553000FAF76AFFFBF782F8FFF7DCFEFBF742FCA5
:10554000FFF7BAFDFFF7DAFCFDF720FCFDF7B8F82E
:10555000194901200864194D194E1A4F1A4C4FF081
:10556000000800BFFDF7BEF82068C10604D520F092
:1055700010002060FEF70EFD2878012803D185F881
:105580000080FEF713FB3088FAF7D2FEFAF79EFF91
:10559000387818B9FDF7C4FCFBF7FEF92068C1079D
:1055A00004D020F001002060FBF7D8F8FDF780FC64
:1055B00000F00CF8D6E70000D80200202000002000
:1055C0005400002052000020140000202DE9F05F5C
:1055D000DA4C626BDB4DDA48DB4F2968DB4E21F099
:1055E00040014FF0010992B1626B012A626B19D040
:1055F000022A626B1ED0032A09D0626B042A06D0ED
:10560000626B052A24D0626B062A2CD039E0626BCB
:1056100073789A4202D021F0200129600121FDF720
:1056200004F82EE073789A4202D021F0200129601C
:10563000012115E073789A4202D021F020012960FF
:105640000121FCF7F2FF606DD8B9C4F8549018E05E
:105650000121FCF7EAFFC4F83C904FF40061BC481C
:10566000FCF7E5FF0DE0626B73789A4202D021F0FF
:10567000200129600121FCF7D8FFA06B88B1B54853
:105680003861616BA0467170206BDFF8CCA2DFF847
:10569000CCB2002438B1D8F830104046012915D0DA
:1056A00044E1AF48ECE72021A948FCF7C0FF286897
:1056B00020F0600028607C603470D8F8000038600A
:1056C0008AF800408BF80040A6482EE1416B91B16A
:1056D000416B01290FD0416B02290CD0416B03298A
:1056E00009D0416B052979D0416B062974D0416BF3
:1056F000042972D01AE1C16B012902D0C16B49B3F0
:1057000014E10168806F81420ED2C8F83040202138
:105710008F48FCF78CFF7C60D8F800003860286860
:1057200020F06000286003E020218948FCF77DFF1D
:10573000D8F80000D8F87410884202D930780028D0
:1057400073D0D8F80000D8F874108842A8D2307806
:1057500080B3EBE00168806F00EB8000B1EB400F9D
:105760000ED2C8F8304020217948FCF760FF7C60F9
:10577000D8F800003860286820F06000286003E056
:1057800020217348FCF751FFD8F80000D8F87410B6
:1057900001EB8101B0EB410F02D93078002844D0F1
:1057A000D8F80000D8F8741001EB8101B0EB410F7C
:1057B000CDD3BBE0FFE7C8F8304020216448FCF7B8
:1057C00036FF7C60D8F800003860286820F0600060
:1057D00028603046A9E001E018E027E0746050F846
:1057E000881F82685143642251437160716842F29C
:1057F0001072B1FBF2F10268511A716050F8880C16
:105800007168884207D37068FBF790F920215048EF
:10581000FCF70BFF8AE020214D48FCF708FF7C6075
:10582000286820F06000286080E064E0C16B0129F6
:1058300002D0C16B51B379E00168806F814212D20E
:10584000C8F8304020214248FCF7F1FE7C60D8F8CF
:1058500000003860286820F0600028608AF8004066
:105860008BF8004003E020213948FCF7DEFED8F831
:105870000000D8F87410884201D93078D8B3D8F82D
:105880000000D8F87410884232D34FE00168806F6E
:1058900000EB8000B1EB400F12D2C8F8304020215D
:1058A0002B48FCF7C4FE7C60D8F8000038602868FC
:1058B00020F0600028608AF800408BF8004003E088
:1058C00020212348FCF7B1FED8F80000D8F8741066
:1058D00001EB8101B0EB410F01D9307858B1D8F814
:1058E0000000D8F8741001EB8101B0EB410F1DD21C
:1058F000307840B11AE0FFE720211548FCF795FE0B
:1059000086F8009012E0C8F8304020211048FCF7DB
:105910008EFE7C60D8F800003860286820F06000B7
:10592000286034708AF8004058460470FCF7F4FE92
:10593000FFF7B2FCBDE8F05FFDF71AB9D80200200E
:10594000000C014018000020A0030020900000205F
:105950000008014020BF020021000020220000209A
:105960005809030051000020885900080000002059
:105970009C0000006C010008245A00089C000020D4
:1059800074120000880100080204060800000000EC
:1059900001020304010203040607080900000000D5
:1059A00000000000000000000000000000000000F7
:1059B00000A24A04000000000000000001020304ED
:1059C00006070809000000000000000000000000B9
:1059D00000000000000000000000000000000000C7
:1059E00000000000000000000000000000000000B7
:1059F00000000000000000000000000000000000A7
:105A00000000000000000000000000000000000096
:105A10000000000000000000000000000000000086
:045A20000000000082
:0400000508000131BD
:00000001FF
