:020000040801F1
:10000000681300204D010108574701088F4301087C
:10001000494701089D1C0108119A010800000000D1
:10002000000000000000000000000000335F010835
:10003000D92401080000000063010108FD5F0108E8
:1000400067010108670101086701010867010108EC
:1000500067010108670101086701010867010108DC
:100060006701010867010108670101089D1F010878
:10007000B11F010867010108670101086701010854
:1000800067010108670101086701010867010108AC
:10009000670101086701010867010108670101089C
:1000A000670101086701010867010108670101088C
:1000B0006701010867010108AD62010867010108D5
:1000C000670101086701010867010108670101086C
:1000D00067010108DD92010849950108ED960108C4
:1000E000670101086701010867010108670101084C
:1000F000670101086701010867010108670101083C
:10010000670101086701010867010108670101082B
:10011000670101086701010867010108670101081B
:10012000670101086701010867010108670101080B
:10013000DFF80CD000F044FE0048004721AC010875
:100140006813002080F30888704700000648804745
:1001500006480047FEE7FEE7FEE7FEE7FEE7FEE7AC
:10016000FEE7FEE7FEE7FEE77960010831010108DE
:100170002DE9F05F0546002092469B4688460646DC
:10018000814640241BE0284641464746224600F06F
:10019000FCFB53465A46C01A914110D311461846EB
:1001A000224600F0E3FB2D1A67EB01084F4622467A
:1001B0000120002100F0DAFB17EB00094E41201E60
:1001C000A4F10104DFDC484631462A464346BDE837
:1001D000F09F00000048704744C7010810B504466E
:1001E000FFF7F8FF0068005D00F0010010BD10B5DA
:1001F000431A934209D28318881803E010F8011DAE
:1002000003F8011D521EF9D210BD40EA01039B07FD
:1002100003D009E008C9121F08C0042AFAD203E07B
:1002200011F8013B00F8013B521EF9D210BDD2B2C9
:1002300001E000F8012B491EFBD270470022F6E7CF
:1002400010B513460A4604461946FFF7F0FF20464C
:1002500010BD10B5044604E00B7800F8013B03B173
:10026000491C521EF8D2204610BD421C10F8011B3A
:100270000029FBD1801A704710B5044600E0401CED
:100280000378002BFBD100E0401C521E04D311F870
:10029000013B0370002BF7D100210170204610BDF7
:1002A0002DE9F0410546002090460E46044600E048
:1002B000641C44450BD2285D00F089FB0746305D85
:1002C00000F085FB381A02D1295D0029F0D1BDE884
:1002D000F0812DE9F04791460F46804604460026FE
:1002E00014F8015B2DB1FFF775FF0068405DC00792
:1002F000F6D12B2D02D02D2D18D0641E4A4639463A
:10030000204600F06AFB27B13968A14201D1C7F845
:10031000008071054FF002040BD54042002803DD38
:1003200009F0D2FC0460A007BDE8F08746F48066BF
:10033000E4E70028F8DA09F0C7FC04606FF0004039
:10034000F2E72DE9F05F93460F468046044600260B
:1003500009F0BAFCD0F80090824614F8015B2DB188
:10036000FFF738FF0068405DC007F6D12B2D02D0A3
:100370002D2D1AD0641E0021CAF800105A463946A5
:10038000204600F02AFB014627B13868A04201D17F
:10039000C7F80080DAF80000022809D0CAF80090F7
:1003A000700505D54842BDE8F09F46F48066E2E757
:1003B0000846F8E700F0BBBB00F001BCF0B480EAEF
:1003C0000102D40F4200B2EB410F02D202460846AE
:1003D00011464A0042D0C30DDDB2C1F3C752AD1A77
:1003E000202D35DAC1F3160141F4000204B1524266
:1003F000C5F1200602FA06F12A411044B3EBD05FA2
:1004000023D0C4B1012DA0EBC35009DCF0BC4FF0E8
:10041000004202EAC352DBB200F5000000F016BC55
:10042000400000F1807000EBC350A0F1807040EA02
:10043000D170490009E0490841EAC071A0EBC350FE
:1004400000F50000400800EBC350F0BC00F0F5BB25
:100450006142012202EB4101001BF6E7F0BC70474C
:1004600081F00041AAE780F00040A7E780EA01029E
:1004700010B502F00043400022D04A001FD0010E08
:1004800001EB1261C0F35600C2F3560240F40000C3
:1004900042F40002A0FB022000047F39140400D0C3
:1004A000401C50EA124001D44000491EC2B20C0662
:1004B00004EBD010401C4008802A02D003E000204A
:1004C00010BD20F00100002900DA0020184310BD03
:1004D00030B480EA010202F0004530F0004221F021
:1004E000004013D090B1C30DD40DC2F31601C0F378
:1004F0001600E41A41F4000140F400027D349142F8
:1005000001D3641C00E04900002C02DA30BC00205A
:1005100070474FF400000023914201D3891A03432E
:1005200040084FEA4101F7D151B1914202D14FF059
:10053000004105E002D24FF0010101E06FF001013E
:1005400003EBC450284430BC00F077BB2DE9FE4FCC
:10055000804681EA0300C00F0C46009021F0004164
:1005600023F00045B8EB0200A94105D240462146E0
:1005700090461C460B46024623F00040104347D0ED
:10058000270DC7F30A00C3F30A510290401A0190E5
:1005900040286BDAC3F3130040F4801B00989246A6
:1005A00020B10023D2EB030A63EB0B0B01985946F1
:1005B000C0F14002504600F0D9F906460D465046BB
:1005C0005946019A00F0F1F910EB0800614100244E
:1005D00087EA115284EAE7731A4340D0009A62B363
:1005E000019A012A4FEA075215DC001B61EB020158
:1005F0004FF0004202EA0752CDE90042001C41F5EB
:10060000801132462B4600F05EFB03B0BDE8F08F50
:1006100040462146F9E7001B61EB0201001C41F551
:10062000801300185B412018A2F5001747EB030167
:1006300040EAD570B6196D4111E06D084FEA3606F3
:1006400045EAC0754FEA0752001B61EB0201001C2E
:1006500041F5801149084FEA3000001951413246F6
:100660002B4603B0BDE8F04F00F01EBB00980122FE
:1006700040000023D0EB020263EBE07300982146B8
:100680004FEAE074B8EB000061EB0401E9E783F0A6
:1006900000435BE781F0004158E72DE9FE4F81EA16
:1006A000030404F0004421F0004100944FF0000BDB
:1006B00023F0004350EA01045ED052EA03045BD009
:1006C000C3F30A54C1F30A552C44A4F2F334019441
:1006D000A0FB0254C1F3130141F48011C3F31303CF
:1006E00043F4801301FB024400FB034E840A970A83
:1006F00044EA815447EA8357A4FB076802958D0AB0
:1007000005FB07854FEA932C04FB0C542705029D3B
:100710004FEA065847EA1637B5EB08056EEB070CAB
:10072000870E920E47EA811742EA8312A7FB020165
:10073000B6EB0B0164EB00042B0D43EA0C335E189F
:1007400044EB1C50DA465146E7FB0201C5F31304A3
:100750004FEA0B3343EA14534FEA0432019C43EA55
:100760000603A4F10C040294009CCDE900B400F04F
:10077000AAFA03B0BDE8F08F00200146F9E72DE9A1
:10078000F04D81EA030404F0004B21F000451446CB
:100790004FF0000A23F0004150EA050220D054EA4D
:1007A00001021DD0C5F30A570246C5F31303C1F376
:1007B0001300C1F30A5640F4801543F48013A7EBED
:1007C0000608101BD64608F2FD3873EB050002D36D
:1007D00008F1010801E092185B41B8F1000F03DA5B
:1007E00000200146BDE8F08D00204FF48011064640
:1007F00084460EE0171B73EB050705D3121B63EB52
:10080000050306434CEA010C49084FEA30009218F0
:100810005B4150EA0107EDD152EA030012D082EAAF
:10082000040083EA0501084305D0101BAB4106D242
:100830000122002306E000224FF0004302E06FF0A7
:10084000010253101AEB06004CEB085110EB0A00A2
:1008500041EB0B01BDE8F04D00F026BA96230022D3
:10086000114600F0F3B90EB540F233420292002275
:10087000CDE90022134600F026FA03B000BD20F0B7
:100880000040C10DC0F3160040F400007F2901DADA
:1008900000207047962903DCC1F19601C8407047DB
:1008A00096398840704700F0004230F000400AD08E
:1008B000C10D01F56071C0F3160042EA0151C20892
:1008C00040071143704700200146704730B5041EB1
:1008D00071F1000404DB4FF00044404264EB01017D
:1008E000141E73F1000405DB1C464FF00043524216
:1008F00063EB04038B4208BF824230BD30B5041E57
:1009000071F1000404DB4FF00044404264EB01014C
:10091000141E73F1000405DB1C464FF000435242E5
:1009200063EB0403994208BF904230BD002801DB0D
:10093000C0F10040002901DBC1F10041884270474D
:1009400030B50B46014600202022012409E021FA9F
:1009500002F59D4205D303FA02F5491B04FA02F59C
:100960002844151EA2F10102F1DC30BD202A04DB6F
:10097000203A00FA02F1002070479140C2F12003B2
:1009800020FA03F3194390407047202A04DB203AF1
:1009900021FA02F00021704721FA02F3D040C2F19F
:1009A00020029140084319467047202A06DBCB17E6
:1009B000203A41FA02F043EAE07306E041FA02F31A
:1009C000D040C2F120029140084319467047A0F17F
:1009D0004101192900D8203070472DE9F05F824687
:1009E0000078002715468B460AF10104B9463028E5
:1009F00001D09DB113E014F8010B0127782803D032
:100A0000582801D045B10AE00DB1102D07D10027BB
:100A1000102514F8010B02E0082500E00A25002645
:100A2000B0460EE005FB080005FB06F1012701EBCF
:100A300010461FFA80F8B6F5803F00D3B94614F887
:100A4000010B294600F0CEF90028EBDABBF1000FCC
:100A500005D00FB1641E00E05446CBF80040B9F158
:100A6000000F06D009F030F902210160C81EBDE870
:100A7000F09F48EA0640FAE70FB4002300B589B0BA
:100A80000CA900910B996FF00042CB601E4B0693AE
:100A90001E4B07930423CDE901321D4A08920246FA
:100AA0006B46002000F040FA09B05DF814FB70B509
:100AB00086B006464FF0FF300091CDE901010020DD
:100AC00015460C4604903246694604A8FFF7D4FF49
:100AD00002460498211825B108B1084600E02046D6
:100AE0002860049800280DD0002A02DD0098884272
:100AF00008D0081B0094CDE901043246694604A8D9
:100B0000FFF7BAFF06B070BD611101087F1101083F
:100B1000DD0101087CB50023CDE9003305466846B8
:100B2000FFF7C5FF6946284609F0D2F87CBD2DE9DC
:100B3000F04791460E4680460446002514F8017B96
:100B40002FB1FFF747FB0068C05DC007F6D12B2F20
:100B500002D02D2F1ED0641E4A463146204600F09A
:100B60001FFB26B13268A24201D1C6F800806A0597
:100B70004FF0020418D50023D0EB030563EB01020C
:100B80005D1B934109DB0023D0EB030063EB010104
:100B9000BDE8F08745F48065DEE709F095F804606C
:100BA00000204FF00041F3E7021E71F10002EFDA7E
:100BB00009F08AF804604FF0FF304108E8E72DE9BA
:100BC000F05F93460F4680460446002609F07CF805
:100BD000D0F80090824614F8015B2DB1FFF7FAFAC5
:100BE0000068405DC007F6D12B2D02D02D2D1FD0FF
:100BF000641E0021CAF800105A463946204600F00B
:100C0000CFFA024627B13868A04201D1C7F8008068
:100C1000DAF8000002280ED0CAF8009070050AD554
:100C200000200346D2EB000063EB0101BDE8F09F1A
:100C300046F48066DDE71046F8E70029A8BF704754
:100C4000401C490008BF20F00100704710B4B0FA02
:100C500080FC00FA0CF050EA010404BF10BC70479D
:100C600049B1CCF1200421FA04F411FA0CF118BFB7
:100C7000012121430843A3EB0C01CB1D4FEA006186
:100C80004FEA102042BF002010BC704700EBC35059
:100C900010440029A4BF10BC7047401C490008BF85
:100CA00020F0010010BC704710B5141E73F1000451
:100CB00008DA401C41F1000192185B411A4301D14E
:100CC00020F0010010BD2DE9F04D92469B4611B178
:100CD000B1FA81F202E0B0FA80F220329046FFF7DA
:100CE00045FE04460F4640EA0A0041EA0B0153461E
:100CF0005A46084313D0114653EA010019D0C8F1EF
:100D000040025046FFF741FE05460E465046594602
:100D10004246FFF72BFE084305D0012004E02046A1
:100D20003946BDE8F08D0020054346EAE0762C43C5
:100D300037430A986305E40AA0EB08000022FD0A85
:100D400044EA47540A3002D500200146E9E701058C
:100D500010196941DDE9084500196941BDE8F04D08
:100D6000A2E770B521F0004303430CD0C1F30A554C
:100D70000024D5EB040564EB0403D617AD1AB34188
:100D800002DB0020014670BD201841EB025170BD0E
:100D9000C1F30A52C1F3130140F2FF3341F4801151
:100DA0009A4202DA00200146704740F233439A42E9
:100DB000A2F2334202DC5242FFF7E7BDFFF7D6BD95
:100DC000064C074D06E0E06840F0010394E8070098
:100DD00098471034AC42F6D3FFF7AEF9ECCD0108DA
:100DE0000CCE01083A2800D2303820F02002412AE7
:100DF00001D3A2F13700884201D34FF0FF30704792
:100E00002DE9FF4F087883B09946FF2805D0491C8B
:100E10002D2804D00024002008E000200BE001244D
:100E2000F9E700EB800003EB4000491C0B78FF2B37
:100E3000F7D104B1404200230293147819461D46AD
:100E40002D2C01D02B2C04D1521C2D2C13D000247E
:100E50000294AA461478FF2C0FD00A25A3FB05782C
:100E600001FB05814FF0000C03FB0C11521CE31930
:100E70004AEB0101EEE70124EAE7814453EA01006D
:100E800002D019F5C87F06DA03980021C0E90011E5
:100E900007B0BDE8F08F0025AE4E2F46DFF8B882D0
:100EA0001846FFF7E0FCCDE90001B9F1000002DAD5
:100EB000C9F1000400E004460023A74A1AEB030B23
:100EC00042EB045A12E0E00707D02A463346384680
:100ED0004146FFF7E2FB074688462A46334610465E
:100EE0001946FFF7DAFB05460E466410002CEAD1DE
:100EF000DDE90001B9F1000F5A46534606DAFFF763
:100F00003EFC3A464346FFF73AFC05E0FFF7C5FBD7
:100F10003A464346FFF7C1FB029A0AB181F000410D
:100F2000039AC2E90001B3E72DE9FF4F1F468DB0D8
:100F3000D7E901464FF0FF382E2045464FF0000913
:100F40000B90B9696D1C0E988847396A82468847AC
:100F50000028F6D1BAF1FF3F0AD024F4D064002E65
:100F600011DDBAF12B0F08D0BAF12D0F0BD102E031
:100F7000404611B08DE744F48064B9696D1C0E9849
:100F800088478246761E6946600501D52D2000E01F
:100F90002B208DF8000001F1010B0DF1200809E074
:100FA000B9696D1C0E98884782460F9844F4007406
:100FB000761E0560002E02DDBAF1300FF0D00B99DD
:100FC0008A453ED144F0800406E00F99681CA9F1DF
:100FD000010944F400740860B9696D1C761E0E980E
:100FE000884782463028F0D02BE00B998A4505D1FE
:100FF000200603D444F08004761E18E0504608F022
:10100000A5FF08B30DF11301761E44F400748B455F
:1010100008D2AAF130000BF8010B200607D5A9F180
:10102000010003E0200602D409F101008146A00579
:1010300002D50F99681C0860B9696D1C0E98884725
:101040008246002ED1DC53E0002E51DDBAF1650F4F
:1010500002D0BAF1450F4BD1A00549D5B9696D1C35
:1010600024F44074761E0E9888478246002E0CDDCC
:101070002B2804D0BAF12D0F07D144F48074B9693C
:101080006D1C0E9888478246761EE00501D52D21FD
:1010900000E02B2108F8011BCDF82C8021E00DF198
:1010A0002901761E44F4007488450CD2AAF1300060
:1010B00010F0FF0088F8000002D10B99884509D98B
:1010C00008F1010806E0E00501D5244801E042F2FC
:1010D0000F708146B9696D1C0E98884782460F983B
:1010E0000560002E04DD504608F030FF0028D6D100
:1010F000F9690E988847FF208BF8000088F80000F7
:101100000020069007904B466A4608A906A8FFF7FC
:1011100077FEA00502D46FF001002AE714F0240F37
:101120000AD0E00714D1DDE906123868031D3B60E0
:101130000068C0E900120BE0DDE9060100F091F85B
:101140000146E00704D13868021D3A60006801607A
:1011500028460EE7000014400000F03FF1D8FFFFE2
:10116000426842B1016811F8013B23B1521EC0E947
:101170000012184670470121C160881E70474268FE
:101180005AB1C368016843B983688B4205D0491ED0
:10119000521CC0E90012002070474FF0FF3070472A
:1011A0002DE9F74F4FF00009009C1546CA4614F888
:1011B000010B302801D0ADB115E014F8010B4FF050
:1011C0000109782803D0582801D04DB10BE00DB1AA
:1011D000102D08D14FF00009102514F8010B02E082
:1011E000082500E00A2500273E46B8464FEAE57B81
:1011F00016E0A5FB07230BFB073105FB080005FBE9
:101200000616030CD71846F100061FFA80F8381EA0
:101210004FF0010976F5803000D3CA4614F8010B6F
:101220002946FFF7DFFD0028E3DA019838B1B9F16C
:10123000000F01D0641E00E0009C01980460BAF128
:10124000000F08D008F040FD02210160C81E0146D1
:1012500003B0BDE8F08F310441EA174148EA074086
:10126000F6E701F0004330B421F0004150EA0102FA
:1012700006D00A0DA2F56072C1F31301002A02DC48
:1012800030BC00207047440F44EAC104C100E0189C
:1012900030BC00EBC250FFF7D0BC0020704770B5E7
:1012A0008C1810F8015B15F0070301D110F8013B11
:1012B0002A1106D110F8012B03E010F8016B01F898
:1012C000016B5B1EF9D12B0705D40023521E0DD4F0
:1012D00001F8013BFAE710F8013BCB1A921C03E03E
:1012E00013F8015B01F8015B521EF9D5A142D8D376
:1012F000002070BD08B54FF4E060ADF8000010208C
:101300008DF8030002208DF802006946014802F0C2
:10131000B5FF08BD000801402DE9F1412B4C4FF409
:10132000806681B03146204603F02DF8A515294688
:10133000204603F02AF800BF00BF00BF00BF3146BF
:10134000204603F022F800BF2946204603F01DF88E
:1013500000BF00BF3146204603F015F800208DF88D
:1013600000004FF400784FF6FF7721E0BDF804004D
:1013700041460004204602D503F007F801E003F0DF
:1013800002F82946204602F0FEFF00BF00BF2946B2
:10139000204602F0FAFF00BF00BFBDF8040007EAD4
:1013A0004000ADF804009DF80000401C8DF80000DE
:1013B0009DF800001028D9D33146204602F0E5FF01
:1013C00029462046BDE8FC4102F0DFBF000801408D
:1013D00008B54FF47A7000BFADF80000BDF800000A
:1013E000002803D0BDF80000401EF5E708BD00004E
:1013F00030B587B00121082003F0E0FA01218C0309
:10140000204603F0CFFA6010ADF8140003208DF8E9
:1014100016001820254D8DF8170005A9284602F062
:101420002DFFADF8144005A9284602F027FF600003
:10143000ADF8140005A9284602F020FFA410ADF86D
:10144000144010208DF8170005A9284602F016FF59
:101450002146284602F099FFFFF7BAFF21462846A9
:1014600002F091FF0020ADF800004FF48271ADF85A
:1014700002106110ADF80410ADF808008910ADF845
:101480000A103821ADF80C10ADF80600ADF80E00CA
:101490000720074CADF810006946204604F02DFDEA
:1014A0000121204604F014FD07B030BD000C0140BE
:1014B000003800402DE9FE4300258DF80850454EC8
:1014C000454C06F1C807A6F1100817E09DF8081072
:1014D000012004F0C9FC9DF8082028F81200B8F893
:1014E0000600627826F81200B8F80400A17827F800
:1014F00011009DF80800401C8DF808009DF80800B8
:101500000828E3D36078401C6070A078401CA0706D
:10151000627864203149312A1DD9657002958DF8B1
:1015200000500BE09DF8002036F81220029B1A4470
:1015300002929DF80020521C8DF800209DF800209A
:10154000322AEFD3029A2378B2FBF0F221F813206B
:101550002278521C22702278022A1BD9257002950B
:101560008DF800500CE000BF9DF8002031F81220EB
:10157000029B1A4402929DF80020521C8DF8002014
:101580009DF80020032AEFD302990322B1FBF2F168
:10159000134A1180A178632919D9A57002958DF895
:1015A00004500BE09DF8041037F81110029A114412
:1015B00002919DF80410491C8DF804109DF8041048
:1015C0006429EFD30299B1FBF0F006490880BDE829
:1015D000FE830000F4070020B400002084090020EE
:1015E0004E0000205000002011B50D4C81B00221AA
:1015F000204604F077FC0028F9D0BDF804102046FE
:1016000004F079FC0121204604F06CFC0028F9D09C
:10161000204604F06EFCADF80000BDF800001CBDD3
:10162000003800402DE9F041434D92B0284600F0CB
:1016300005F90121480203F0C1F90121084603F030
:10164000A5F90126DFF8F480ADF8406000248DF89C
:10165000434010A9404602F011FE0227ADF8407049
:101660008DF8434010A9404602F008FE4FEA783852
:10167000404600F0C1FC304869464C30009030488C
:10168000CDE901046420CDE90304802005904000E9
:10169000069080000790202008900002CDE9090400
:1016A000404600F023FD0121404600F099FC012254
:1016B0000221404600F012FD00F060FC01212846A6
:1016C00000F0B2F88DF830600B948DF831604FF473
:1016D0006020CDE90D048DF83C700BA9284600F080
:1016E000DDF84FF4404003F047F9052301220021C3
:1016F000284600F0F7F8052302220121284600F0D1
:10170000F1F80121284600F085F8284600F024F978
:10171000284600F030F9284600F0B9F80028FAD140
:10172000284600F0ADF80028FAD10121284600F043
:1017300018F912B0BDE8F081002401400008014012
:1017400050010020FCB500218DF804102F4D3048C9
:1017500005F1C80303F1640217E000BF9DF80440DF
:10176000E4079DF804401AD0E40709D09DF804402E
:1017700035F81460447802EB4407641C44703E80E2
:101780009DF80440641C8DF804409DF80440642CCE
:10179000E4D30170417001918DF8001014E035F828
:1017A0001460047803EB4407641C0470E7E700BF8F
:1017B0009DF8004033F81440019D2C4401949DF89D
:1017C0000040641C8DF800409DF80040322CEFD39F
:1017D000019C3223B4FBF3F4448001910AE000BF82
:1017E0009DF8001032F811400199214401919DF8B3
:1017F0000010491C8DF800109DF800103229EFD31D
:101800000199B1FBF3F18180FCBD00005001002083
:10181000480000200029816802D041F0010101E068
:1018200021F00101816070470029816802D041F4F4
:10183000807101E021F48071816070470D4910B51D
:10184000884202D1012144150AE00B49884202D1A5
:101850000121041504E0094988420AD10121CC0381
:10186000204603F0B7F82046BDE81040002103F001
:10187000B1B810BD0024014000280140003C0140E7
:10188000014600208968490700D5012070470146BC
:1018900000208968090700D50120704710B542680B
:1018A0000E4B0C791A400B6842EA04221343436042
:1018B00083680B4A1340D1E9024222434C7943EA40
:1018C00044031A438260C26A097C22F47002491EF2
:1018D000C9B242EA0151C16210BD0000FFFEF0FF33
:1018E000FDF7F1FF70B5072409290AD9C568A1F1F0
:1018F0000A0606EB4606B440A543B3401D43C56047
:1019000007E0056901EB4106B440A543B3401D4320
:1019100005611F23072A09D2446B521E02EB820283
:1019200093409C4391400C43446370BD0D2A09D2FF
:10193000046BD21F02EB820293409C4391400C4304
:10194000046370BDC46A0D3A02EB820293409C436B
:1019500091400C43C46270BD816841F00801816010
:1019600070470029816802D041F4A00101E021F410
:10197000A00181607047816841F004018160704777
:101980002DE9F8436A4CE0686A4901270026DFF830
:10199000A8816A4D884206D9AE8026632021404640
:1019A00002F0F3FCE762A26B0A204FF4FA6112B96D
:1019B000E26B012A05D0A36B4FF47A72012B17D08A
:1019C00018E06268B2FBF0F000902068009A504383
:1019D0005B4AB0FBF2F00090A06E009A904248D2B1
:1019E000A888401CA880A888884242D9AE8019E007
:1019F000E36B13B1A36BC3B119E063680093236871
:101A0000B3FBF0F0009B5843B0FBF2F00090A06EE7
:101A1000009A90422DD2E888401CE880E8888842ED
:101A200027D9EE80266320211FE0E36B1BB1A06B5A
:101A3000012835D01DE06368B3FBF0F30093236801
:101A4000B3FBF0F0009B5843B0FBF2F00090A06EA7
:101A5000009A90420DD22889401C2881288988420A
:101A600007D92E8126634FF40041404602F08DFCD9
:101A7000E7628021C146404602F07EFCDFF8C48068
:101A80004FF4807718B3E6623946404602F07BFC9B
:101A90002068E16E884234D9E06B012823D030E021
:101AA000E06B0128E5D1606800902068009B5843F6
:101AB000B0FBF2F00090A06E009A9042D9D26889F3
:101AC000401C688168898842D3D96E81AAE7266361
:101AD0002021484602F059FC0220E0623946404687
:101AE00002F053FCD4E72888401C28802888052869
:101AF00007D92E8026632021484602F046FC0320A9
:101B0000E0626068216F884210D9A06B01280DD176
:101B10006888401C68806888052807D96E8026631D
:101B20002021484602F031FC0420E062BDE8F88341
:101B3000C0030020801A0600000801409E0000201B
:101B4000A0860100000C01400246002004E013784A
:101B5000002B03D0401C521C8842F8D37047000071
:101B600011494A6C11488AB14B6C4FF41652012B43
:101B700008D04B6C022B0CD04B6C032B0CD0496C57
:101B800004290CD0C0F8042007F052BE4FF496513F
:101B900007E04FF4615104E04FF4964101E04FF447
:101BA000E1314160F0E70000C00300209400002014
:101BB00070B5274C206B012839D1606B254D012869
:101BC000606BC1B212D0A06BC0B200F045F80646FF
:101BD0006068FEF743FE3146FEF7A8FE60682CD22F
:101BE000FEF73CFE3146FEF73BFC2BE0E06BC0B25B
:101BF00000F032F806462068FEF730FE3146FEF768
:101C000095FE206805D2FEF729FE3146FEF728FC36
:101C100004E0FEF723FE3146FEF725FC3146FEF7D1
:101C200057FCA84203DC3046FEF729FE206070BD59
:101C30003046FEF724FE606070BDFEF70FFE3146B1
:101C4000FEF711FC3146FEF743FCA842F0DD70BD03
:101C5000C00300200AD7A33B10B50E4A044639B191
:101C6000012907D0DC3202290ED0032905D10DE06D
:101C7000106D00E0D06CFEF7F1FD002C08D0BDE83F
:101C800010400549FEF724BC9068F4E7D068F2E7FD
:101C900010BD0000C003002000002041FEE700004E
:101CA00010B504460648006DFEF7D8FD0549FEF75D
:101CB0000FFC0146204604F041F8012010BD000051
:101CC000C003002000401C4638B504460022694687
:101CD00003F09EFC70B109490098FEF7C7FBFEF7C0
:101CE000CEFD0749086502220649204603F080FF21
:101CF000012038BD4FF0FF3038BD000000401C46C9
:101D0000C0030020D0BF010810B504460648806D0E
:101D1000FEF7A4FD0549FEF7DBFB0146204604F073
:101D20000DF8012010BD0000C003002000007A441F
:101D300010B504460648006FFEF790FD0549FEF712
:101D4000C7FB0146204603F0F9FF012010BD00004B
:101D5000C003002000007A4438B5044600226946DA
:101D600003F056FC70B109490098FEF77FFBFEF7BF
:101D700086FD0749086702220649204603F038FF1E
:101D8000012038BD4FF0FF3038BD000000007A441C
:101D9000C0030020D0BF010838B5044600226946C0
:101DA00003F036FC70B109490098FEF75FFBFEF7BF
:101DB00066FD0749886502220649204603F018FFA0
:101DC000012038BD4FF0FF3038BD000000007A44DC
:101DD000C0030020D0BF010810B504460648406D7E
:101DE000FEF73CFD0549FEF773FB0146204603F074
:101DF000A5FF012010BD0000C003002000007A44B0
:101E000038B504460022694603F002FC70B1094966
:101E10000098FEF72BFBFEF732FD074948650222CA
:101E20000649204603F0E4FE012038BD4FF0FF30A4
:101E300038BD000000007A44C0030020D0BF010874
:101E400010B504460948C16B406859B1FEF706FD5C
:101E5000074900BFFEF73CFB0146204603F06EFF3A
:101E6000012010BDFEF7FAFC0249F3E7C003002091
:101E700000007A4400401C4610B504460648C06C79
:101E8000FEF7ECFC0549FEF723FB0146204603F074
:101E900055FF012010BD0000C003002000401C467B
:101EA00038B504460022694603F0B2FB70B1094917
:101EB0000098FEF7DBFAFEF7E2FC0749C86402224D
:101EC0000649204603F094FE012038BD4FF0FF3054
:101ED00038BD000000401C46C0030020D0BF0108F0
:101EE00011B586B000210698CDE900102148D0F840
:101EF00088200392D0F88C20019C039B059212034A
:101F00001B1BB2FBF3F30293059B0092DDE9023247
:101F10005A430192DDE900239A4208D21A46009BF7
:101F2000D21A01929DF8102042F0010206E0D21A66
:101F3000009201929DF8102022F001028DF81020ED
:101F40000068029A504300909DF81000C007DDE938
:101F500000020CD0904202D20846009101E0801AA3
:101F60000090054A000B9060009107B010BD10442E
:101F7000F6E70000C00300209C04002008B50B20F9
:101F80008DF8000003208DF801008DF8020001207B
:101F90008DF80300684602F0DFFB08BD03480168C6
:101FA00041F001010160022000F00EB8180000208D
:101FB00010B5202000F008F80248016841F08001C7
:101FC000016010BD20000020C10002D50249086058
:101FD0007047024948607047040402400000024014
:101FE0000029016802D041F0010102E04FF6FE72C3
:101FF000114001607047000001684FF6FE72114009
:1020000001600021016041608160C1603149314A55
:102010000839904203D1486840F00F0006E02D4A8D
:102020001432904204D1486840F0F0004860704794
:10203000284A2832904203D1486840F47060F5E79E
:10204000244A3C32904203D1486840F47040EDE7A6
:10205000204A5032904203D1486840F47020E5E7AE
:102060001C4A6432904203D1486840F47000DDE7B6
:10207000184A7832904203D1486840F07060D5E742
:10208000154A111F904203D1086840F00F0006E086
:10209000114A1432904204D1086840F0F000086000
:1020A00070470D4A2832904203D1086840F47060AE
:1020B000F5E7094A3C32904203D1086840F4704089
:1020C000EDE7054A50329042EAD1086840F47020AA
:1020D000E5E700000800024008040240002A026808
:1020E00001D00A4300E08A430260704730B50368BC
:1020F00047F6F07293430C6A8A682243D1E904459B
:102100002C4322438C692243CC6922434C6A2243EC
:102110008C6A22431A430260CA6842600A6882607D
:102120004968C16030BD1FB504460122694603F00D
:1021300043FA38B1002202A9204603F03DFA0120FB
:1021400004B010BD4FF0FF30FAE7000030B593B097
:102150000546002302AA104903F098FA002308AAB2
:102160000D49284603F092FA0F240EAB02AA0A4941
:102170002846009403F014F90EAB08AA0649284635
:10218000009403F00DF900221346284603F043FDA6
:1021900013B0012030BD000070C6010810B5044620
:1021A0000648D0F89C00FEF759FB0549FEF790F968
:1021B0000146204603F0C2FD012010BDC0030020EF
:1021C0000000204138B504460022694603F020FA99
:1021D00078B109490098FEF749F9FEF750FB074925
:1021E000C1F89C0002220649204603F001FD0120AF
:1021F00038BD4FF0FF3038BD00002041C003002043
:10220000D0BF010810B504460648D0F89400FEF788
:1022100025FB0549FEF75CF90146204603F08EFDDB
:10222000012010BDC003002000401C4638B5044604
:102230000022694603F0ECF978B109490098FEF7ED
:1022400015F9FEF71CFB0749C1F894000222064964
:10225000204603F0CDFC012038BD4FF0FF3038BDE3
:1022600000401C46C0030020D0BF010810B5044642
:102270000648D0F8A000FEF7F1FA0549FEF728F964
:102280000146204603F05AFD012010BDC003002086
:102290000000204138B504460022694603F0B8F931
:1022A00078B109490098FEF7E1F8FEF7E8FA074926
:1022B000C1F8A00002220649204603F099FC012043
:1022C00038BD4FF0FF3038BD00002041C003002072
:1022D000D0BF010810B504460648D0F89800FEF7B4
:1022E000BDFA0549FEF7F4F80146204603F026FD45
:1022F000012010BDC003002000401C4638B5044634
:102300000022694603F084F978B109490098FEF784
:10231000ADF8FEF7B4FA0749C1F898000222064961
:10232000204603F065FC012038BD4FF0FF3038BD7A
:1023300000401C46C0030020D0BF010838B5044649
:102340000648D0F8AC106A46054802F0AFFC0422FB
:102350002046009903F04CFC012038BDC00300204A
:102360001801002038B5044601236A46084903F0E5
:10237000CBF850B107490098C1F8AC0002220649D9
:10238000204603F035FC012038BD4FF0FF3038BD4A
:1023900018010020C0030020D0BF010810B504467A
:1023A0000648D0F8A800FEF759FA0549FEF790F85C
:1023B0000146204603F0C2FC012010BDC0030020EE
:1023C00000401C4638B504460022694603F020F957
:1023D00078B109490098FEF749F8FEF750FA074925
:1023E000C1F8A80002220649204603F001FC0120A2
:1023F00038BD4FF0FF3038BD00401C46C003002000
:10240000D0BF010810B504460648D0F8A400FEF776
:1024100025FA0549FEF75CF80146204603F08EFCDC
:10242000012010BDC003002000401C4610B504462A
:102430000648D0F8A400FEF711FA0549FEF748F85F
:102440000146204603F07AFC012010BDC0030020A5
:1024500000401C4638B504460022694603F0D8F80F
:1024600078B109490098FEF701F8FEF708FA074924
:10247000C1F8A40002220649204603F0B9FB01205E
:1024800038BD4FF0FF3038BD00401C46C00300206F
:10249000D0BF010838B504460022694603F0B8F8F9
:1024A00080B10A490098FDF7E1FFFEF7E8F9084915
:1024B00041F8A40F486002220649204603F098FB29
:1024C000012038BD4FF0FF3038BD000000401C46F1
:1024D000C0030020D0BF01087047000031B508F0EC
:1024E00017FBA02008F0D8FA08F048FB70B99DF857
:1024F000000008F0D1FA08F041FB38B908F008FBF9
:10250000A12008F0C9FA08F039FB18B108F020FB47
:10251000002038BD08F08EFA034C207008F06EFAE7
:1025200008F016FB207838BD580000202DE9F04156
:102530000120FFF7D3FFFE4D28600120FFF7CEFFFB
:1025400028602868000228600220FFF7C7FF29687A
:10255000084428602868000228600320FFF7BEFFB7
:102560002968084428602868000228600420FFF7D2
:10257000B5FF2968084428600520FFF7AFFF6860B1
:102580006868000268600620FFF7A8FF69680844D1
:1025900068606868000268600720FFF79FFF69684D
:1025A000084468606868000268600820FFF796FFCA
:1025B0006968084468600920FFF790FFE860E868F0
:1025C0000002E8600A20FFF789FFE9680844E86034
:1025D000E8680002E8600B20FFF780FFE968084424
:1025E000E860E8680002E8600C20FFF777FFE96820
:1025F0000844E8600D20FFF771FF28612869000298
:1026000028610E20FFF76AFF2969084428612869BC
:10261000000228610F20FFF761FF29690844286143
:102620002869000228611020FFF758FF2969084433
:1026300028611120FFF752FFBE4C20602068000285
:1026400020601220FFF74AFF2168084420602068BC
:10265000000220601320FFF741FF2168084420603A
:102660002068000220601420FFF738FF216808442A
:1026700020601520FFF732FF606060680002606034
:102680001620FFF72BFF6168084460606068000255
:1026900060601720FFF722FF61680844606060688F
:1026A000000260601820FFF719FF6168084460604D
:1026B0001920FFF713FFE060E0680002E0601A20D5
:1026C000FFF70CFFE1680844E060E0680002E060AA
:1026D0001B20FFF703FFE1680844E060E0680002A8
:1026E000E0601C20FFF7FAFEE1680844E0601D206E
:1026F000FFF7F4FE20612069000220611E20FFF731
:10270000EDFE2169084420612069000220611F203C
:10271000FFF7E4FE2169084420612069000220617E
:102720002020FFF7DBFE2169084420612120FFF70C
:10273000D5FE814E30702220FFF7D0FEA861A86937
:102740000002A8612320FFF7C9FEA9690844A86117
:10275000A8690002A8612420FFF7C0FEA969084407
:10276000A861A8690002A8612520FFF7B7FEA96942
:102770000844A8612620FFF7B1FEE861E86900027D
:10278000E8612720FFF7AAFEE9690844E861E869E3
:102790000002E8612820FFF7A1FEE9690844E8612A
:1027A000E8690002E8612920FFF798FEE96908441A
:1027B000E8612A20FFF792FE6862686A0002686298
:1027C0002B20FFF78BFE696A08446862686A000282
:1027D00068622C20FFF782FE696A08446862686AB2
:1027E000000268622D20FFF779FE696A084468627A
:1027F0002E20FFF773FEA862A86A0002A8622F20AD
:10280000FFF76CFEA96A0844A862A86A0002A862E1
:102810003020FFF763FEA96A0844A862A86A000294
:10282000A8623120FFF75AFEA96A0844A862322044
:10283000FFF754FEA061A0690002A0613320FFF7FA
:102840004DFEA1690844A061A0690002A061342086
:10285000FFF744FEA1690844A061A0690002A061DD
:102860003520FFF73BFEA1690844A0613620FFF741
:1028700035FEE061E0690002E0613720FFF72EFEDF
:10288000E1690844E061E0690002E0613820FFF797
:1028900025FEE1690844E061E0690002E061392059
:1028A000FFF71CFEE1690844E0613A20FFF716FEDD
:1028B0006062606A000260623B20FFF70FFE616A9F
:1028C00008446062606A000260623C20FFF706FE16
:1028D000616A08446062606A000260623D20FFF73E
:1028E000FDFD616A084460623E20FFF7F7FDA062CB
:1028F000A06A0002A0623F20FFF7F0FDA16A084431
:10290000A062A06A0002A0624020FFF7E7FDA16A72
:102910000844A062A06A0002A0624120FFF7DEFD29
:10292000A16A0844A0624220FFF7D8FD707005E05C
:1029300048030020E0020020B00300204320FFF7FE
:10294000CDFDB0704420FFF7C9FDF0704520FFF7C2
:10295000C5FDA860A8680002A8604620FFF7BEFD7C
:10296000A9680844A860A8680002A8604720FFF78B
:10297000B5FDA9680844A860A8680002A8604820BE
:10298000FFF7ACFDA9680844A8604920FFF7A6FD41
:1029900068616869000268614A20FFF79FFD696904
:1029A000084468616869000268614B20FFF796FD82
:1029B0006969084468616869000268614C20FFF732
:1029C0008DFD6969084468614D20FFF787FDA060AF
:1029D000A0680002A0604E20FFF780FDA1680844B7
:1029E000A060A0680002A0604F20FFF777FDA168FB
:1029F0000844A060A0680002A0605020FFF76EFDB0
:102A0000A1680844A0605120FFF768FD606160691B
:102A1000000260615220FFF761FD61690844606156
:102A20006069000260615320FFF758FD6169084446
:102A300060616069000260615420FFF74FFD6169C9
:102A4000084460615520FFF749FD2862286A0002AA
:102A500028625620FFF742FD296A08442862286A46
:102A6000000228625720FFF739FD296A08442862CE
:102A7000286A000228625820FFF730FD296A0844BE
:102A800028625920FFF72AFDE862E86A0002E8623E
:102A90005A20FFF723FDE96A0844E862E86A000269
:102AA000E8625B20FFF71AFDE96A0844E862E86A19
:102AB0000002E8625C20FFF711FDE96A0844E86261
:102AC0005D20FFF70BFD2062206A000220625E207D
:102AD000FFF704FD216A08442062206A0002206298
:102AE0005F20FFF7FBFC216A08442062206A000295
:102AF00020626020FFF7F2FC216A08442062612016
:102B0000FFF7ECFCE062E06A0002E0626220FFF79F
:102B1000E5FCE16A0844E062E06A0002E0626320EA
:102B2000FFF7DCFCE16A0844E062E06A0002E06270
:102B30006420FFF7D3FCE16A0844E0626520FFF7F8
:102B4000CDFC30716620FFF7C9FC70717320FFF770
:102B5000C5FCFE4F3864386C000238647420FFF7FF
:102B6000BDFC396C08443864386C00023864752048
:102B7000FFF7B4FC396C08443864386C00023864E0
:102B80007620FFF7ABFC396C084438646720FFF708
:102B9000A5FC2063206B000220636820FFF79EFCE9
:102BA000216B08442063206B000220636920FFF73B
:102BB00095FC216B08442063206B000220636A208F
:102BC000FFF78CFC216B084420636B20FFF786FC29
:102BD0006063606B000260636C20FFF77FFC616BD9
:102BE00008446063606B000260636D20FFF776FC51
:102BF000616B08446063606B000260636E20FFF7E6
:102C00006DFC616B084460636F20FFF767FCA06395
:102C1000A06B0002A0637020FFF760FCA16B08446A
:102C2000A063A06B0002A0637120FFF757FCA16BAB
:102C30000844A063A06B0002A0637220FFF74EFC63
:102C4000A16B0844A0637720FFF748FCE063E06BCA
:102C50000002E0637820FFF741FCE16B0844E06389
:102C6000E06B0002E0637920FFF738FCE16B084479
:102C7000E063E06B0002E0637A20FFF72FFCE16B7A
:102C80000844E0637B20FFF729FC2064206C0002ED
:102C900020647C20FFF722FC216C08442064206C17
:102CA000000220647D20FFF719FC216C0844206499
:102CB000206C000220647E20FFF710FC216C084489
:102CC00020647F20FFF70AFC6064606C000260648F
:102CD0008020FFF703FC616C08446064606C0002B4
:102CE00060648120FFF7FAFB616C08446064606CEB
:102CF000000260648220FFF7F1FB616C08446064AD
:102D00008320FFF7EBFBA064A06C0002A06484208A
:102D1000FFF7E4FBA16C0844A064A06C0002A0646F
:102D20008520FFF7DBFBA16C0844A064A06C0002C7
:102D3000A0648620FFF7D2FBA16C0844A064872022
:102D4000FFF7CCFBE064E06C0002E0648820FFF752
:102D5000C5FBE16C0844E064E06C0002E06489209B
:102D6000FFF7BCFBE16C0844E064E06C0002E06447
:102D70008A20FFF7B3FBE16C0844E0648B20FFF787
:102D8000ADFB2863286B000228638C20FFF7A6FBAD
:102D9000296B08442863286B000228638D20FFF705
:102DA0009DFB296B08442863286B000228638E2052
:102DB000FFF794FB296B084428638F20FFF78EFBF5
:102DC0006863686B000268639020FFF787FB696B9C
:102DD00008446863686B000268639120FFF77EFB1C
:102DE000696B08446863686B000268639220FFF7B0
:102DF00075FB696B084468639320FFF76FFBA8635A
:102E0000A86B0002A8639420FFF768FBA96B084435
:102E1000A863A86B0002A8639520FFF75FFBA96B6E
:102E20000844A863A86B0002A8639620FFF756FB2E
:102E3000A96B0844A8639720FFF750FBE863E86B91
:102E40000002E8639820FFF749FBE96B0844E86358
:102E5000E86B0002E8639920FFF740FBE96B084448
:102E6000E863E86B0002E8639A20FFF737FBE96B41
:102E70000844E8639B20FFF731FB2864286C0002BC
:102E800028649C20FFF72AFB296C08442864286CDE
:102E9000000228649D20FFF721FB296C0844286468
:102EA000286C000228649E20FFF718FB296C084458
:102EB00028649F20FFF712FB6864686C0002686456
:102EC000A020FFF70BFB696C08446864686C000283
:102ED0006864A120FFF702FB696C08446864686CB1
:102EE00000026864A220FFF7F9FA696C084468647C
:102EF000A320FFF7F3FAA864A86C0002A864A4203A
:102F0000FFF7ECFAA96C0844A864A86C0002A86456
:102F1000A520FFF7E3FAA96C0844A864A86C000296
:102F2000A864A620FFF7DAFAA96C0844A864A720D1
:102F3000FFF7D4FAE864E86C0002E864A820FFF721
:102F4000CDFAE96C0844E864E86C01E0C0030020B5
:102F50000002E864A920FFF7C1FAE96C0844E864BC
:102F6000E86C0002E864AA20FFF7B8FAE96C0844AC
:102F7000E864AF20FFF7B2FA2065206D00022065FB
:102F8000B020FFF7ABFA216D08442065206D0002E8
:102F90002065B120FFF7A2FA216D08442065206D5D
:102FA00000022065B220FFF799FA216D08442065E0
:102FB000B320FFF793FAE065E06D0002E065B4200E
:102FC000FFF78CFAE16D0844E065E06D0002E06512
:102FD000B520FFF783FAE16D0844E065E06D00027B
:102FE000E065B620FFF77AFAE16D0844E065B720A6
:102FF000FFF774FA6065606D00026065B820FFF746
:103000006DFA616D08446065606D00026065B9200D
:10301000FFF764FA616D08446065606D00026065E9
:10302000BA20FFF75BFA616D08446065BB20FFF7CB
:1030300055FA2066206E00022066BC20FFF74EFA8B
:10304000216E08442066206E00022066BD20FFF736
:1030500045FA216E08442066206E00022066BE20DC
:10306000FFF73CFA216E08442066BF20FFF736FACE
:10307000A065A06D0002A065C020FFF72FFAA16D2A
:103080000844A065A06D0002A065C120FFF726FAE4
:10309000A16D0844A065A06D0002A065C220FFF7E5
:1030A0001DFAA16D0844A065C320FFF717FA6066FA
:1030B000606E00026066C420FFF710FA616E08447B
:1030C0006066606E00026066C520FFF707FA616EF9
:1030D00008446066606E00026066C620FFF7FEF975
:1030E000616E08446066C720FFF7F8F92865286D0F
:1030F00000022865C820FFF7F1F9296D084428650A
:10310000286D00022865C920FFF7E8F9296D0844F9
:103110002865286D00022865CA20FFF7DFF9296DB0
:1031200008442865CB20FFF7D9F9E865E86D00026F
:10313000E865CC20FFF7D2F9E96D0844E865E86D51
:103140000002E865CD20FFF7C9F9E96D0844E8659C
:10315000E86D0002E865CE20FFF7C0F9E96D08448C
:10316000E865CF20FFF7BAF96865686D0002686509
:10317000D020FFF7B3F9696D08446865686D0002F7
:103180006865D120FFF7AAF9696D08446865686D24
:1031900000026865D220FFF7A1F9696D08446865EF
:1031A000D320FFF79BF92866286E00022866D420FA
:1031B000FFF794F9296E08442866286E00022866F5
:1031C000D520FFF78BF9296E08442866286E000287
:1031D0002866D620FFF782F9296E08442866D72092
:1031E000FFF77CF9A865A86D0002A865D820FFF755
:1031F00075F9A96D0844A865A86D0002A865D920D5
:10320000FFF76CF9A96D0844A865A86D0002A865D0
:10321000DA20FFF763F9A96D0844A865DB20FFF702
:103220005DF96866686E00026866DC20FFF756F993
:10323000696E08446866686E00026866DD20FFF704
:103240004DF9696E08446866686E00026866DE20A3
:10325000FFF744F9696E08446866AB20FFF73EF952
:10326000B071AC20FFF73AF9F071AD20FFF736F9F5
:103270003072AE20FFF732F97072DF20FFF72EF9BF
:10328000B072E020FFF72AF9F072E120FFF726F98B
:103290003073EF20FFF722F9C7F8D000BDE8F081C6
:1032A00003B583B0BDF80C00ADF8040007F050FC86
:1032B00000200AE007F02CFCA02007F0EDFB07F04F
:1032C0005DFC40B1BDF80000401CADF80000BDF849
:1032D00000006428EED3BDF80000B0F57A7F10D06E
:1032E000BDF80400C0B207F0D7FB07F047FC40B9B7
:1032F0009DF8100007F0D0FB07F040FC08B907F07C
:1033000027FC05B05DF804EB07F022BC04490A680D
:1033100022F010020A600A6802430A607047000047
:1033200000200240034A116801F038010143116096
:103330007047000000200240F8B5FE4C2068000EE7
:103340008DF800009DF800100120FFF7A9FF20680C
:10335000000C8DF800009DF800100220FFF7A0FF80
:103360002068000A8DF800009DF800100320FFF788
:1033700097FF2068C1B20420FFF792FF6068000E3B
:103380008DF800009DF800100520FFF789FF6068A8
:10339000000C8DF800009DF800100620FFF780FF5C
:1033A0006068000A8DF800009DF800100720FFF704
:1033B00077FF6068C1B20820FFF772FFE068000E77
:1033C0008DF800009DF800100920FFF769FFE06804
:1033D000000C8DF800009DF800100A20FFF760FF38
:1033E000E068000A8DF800009DF800100B20FFF740
:1033F00057FFE068C1B20C20FFF752FF01F00AF955
:103400002069000E8DF800009DF800100D20FFF7D8
:1034100047FF2069000C8DF800009DF800100E2079
:10342000FFF73EFF2069000A8DF800009DF80010AC
:103430000F20FFF735FF2069C1B21020FFF730FFE2
:10344000BD4D2868000E8DF800009DF80010112079
:10345000FFF726FF2868000C8DF800009DF800108B
:103460001220FFF71DFF2868000A8DF800009DF864
:1034700000101320FFF714FF2868C1B21420FFF7D3
:103480000FFF6868000E8DF800009DF800101520F1
:10349000FFF706FF6868000C8DF800009DF800102B
:1034A0001620FFF7FDFE6868000A8DF800009DF801
:1034B00000101720FFF7F4FE6868C1B21820FFF76C
:1034C000EFFEE868000E8DF800009DF8001019204E
:1034D000FFF7E6FEE868000C8DF800009DF800108C
:1034E0001A20FFF7DDFEE868000A8DF800009DF85D
:1034F00000101B20FFF7D4FEE868C1B21C20FFF7C4
:10350000CFFE2869000E8DF800009DF800101D20E8
:10351000FFF7C6FE2869000C8DF800009DF800102A
:103520001E20FFF7BDFE2869000A8DF800009DF8F7
:1035300000101F20FFF7B4FE2869C1B22020FFF75A
:10354000AFFE7E4E31782120FFF7AAFE01F062F82F
:10355000A069000E8DF800009DF800102220FFF7F2
:103560009FFEA069000C8DF800009DF8001023203C
:10357000FFF796FEA069000A8DF800009DF8001084
:103580002420FFF78DFEA069C1B22520FFF788FE39
:10359000E069000E8DF800009DF800102620FFF76E
:1035A0007FFEE069000C8DF800009DF800102720D8
:1035B000FFF776FEE069000A8DF800009DF8001024
:1035C0002820FFF76DFEE069C1B22920FFF768FEF1
:1035D000606A000E8DF800009DF800102A20FFF7A9
:1035E0005FFE606A000C8DF800009DF800102B2033
:1035F000FFF756FE606A000A8DF800009DF8001083
:103600002C20FFF74DFE606AC1B22D20FFF748FE67
:1036100001F000F8A06A000E8DF800009DF800107F
:103620002E20FFF73DFEA06A000C8DF800009DF8EB
:1036300000102F20FFF734FEA06A000A8DF800006A
:103640009DF800103020FFF72BFEA06AC1B2312098
:10365000FFF726FEA869000E8DF800009DF8001007
:103660003220FFF71DFEA869000C8DF800009DF8C0
:1036700000103320FFF714FEA869000A8DF800003F
:103680009DF800103420FFF70BFEA869C1B2352069
:10369000FFF706FEE869000E8DF800009DF80010A7
:1036A0003620FFF7FDFDE869000C8DF800009DF85D
:1036B00000103720FFF7F4FDE869000A8DF80000DC
:1036C0009DF800103820FFF7EBFDE869C1B2392002
:1036D000FFF7E6FD00F09EFF686A000E8DF800001F
:1036E0009DF800103A20FFF7DBFD686A000C8DF8AA
:1036F00000009DF800103B20FFF7D2FD686A000A29
:103700008DF800009DF800103C20FFF7C9FD686AA5
:10371000C1B23D20FFF7C4FDA86A000E8DF800007D
:103720009DF800103E20FFF7BBFDA86A000C8DF845
:10373000000005E048030020E0020020B003002064
:103740009DF800103F20FFF7ABFDA86A000A8DF836
:1037500000009DF800104020FFF7A2FDA86AC1B24A
:103760004120FFF79DFD71784220FFF799FD00F0A1
:1037700051FFB1784320FFF793FDF1784420FFF724
:103780008FFDA068000E8DF800009DF80010452008
:10379000FFF786FDA068000C8DF800009DF8001072
:1037A0004620FFF77DFDA068000A8DF800009DF817
:1037B00000104720FFF774FDA068C1B24820FFF752
:1037C0006FFD6069000E8DF800009DF80010492023
:1037D000FFF766FD6069000C8DF800009DF8001091
:1037E0004A20FFF75DFD6069000A8DF800009DF832
:1037F00000104B20FFF754FD6069C1B24C20FFF769
:103800004FFDA868000E8DF800009DF800104D20B7
:10381000FFF746FDA868000C8DF800009DF8001029
:103820004E20FFF73DFDA868000A8DF800009DF8C6
:1038300000104F20FFF734FDA868C1B25020FFF7F9
:103840002FFD6869000E8DF800009DF800105120D2
:10385000FFF726FD6869000C8DF800009DF8001048
:103860005220FFF71DFD6869000A8DF800009DF8E1
:1038700000105320FFF714FD6869C1B25420FFF710
:103880000FFD00F0C7FE206A000E8DF800009DF8C5
:1038900000105520FFF704FD206A000C8DF8000091
:1038A0009DF800105620FFF7FBFC206A000A8DF8F7
:1038B00000009DF800105720FFF7F2FC206AC1B20B
:1038C0005820FFF7EDFCE06A000E8DF800009DF82F
:1038D00000105920FFF7E4FCE06A000C8DF80000AE
:1038E0009DF800105A20FFF7DBFCE06A000A8DF813
:1038F00000009DF800105B20FFF7D2FCE06AC1B227
:103900005C20FFF7CDFC00F085FE286A000E8DF8E4
:1039100000009DF800105D20FFF7C2FC286A000C33
:103920008DF800009DF800105E20FFF7B9FC286AB2
:10393000000A8DF800009DF800105F20FFF7B0FC32
:10394000286AC1B26020FFF7ABFCE86A000E8DF870
:1039500000009DF800106120FFF7A2FCE86A000C4F
:103960008DF800009DF800106220FFF799FCE86ACE
:10397000000A8DF800009DF800106320FFF790FC0E
:10398000E86AC1B26420FFF78BFC31796520FFF74C
:1039900087FC71796620FFF783FC00F03BFE286B03
:1039A000000E8DF800009DF800106720FFF778FCEE
:1039B000286B000C8DF800009DF800106820FFF7C0
:1039C0006FFC286B000A8DF800009DF8001069203C
:1039D000FFF766FC286BC1B26A20FFF761FC686BD9
:1039E000000E8DF800009DF800106B20FFF758FCCA
:1039F000686B000C8DF800009DF800106C20FFF73C
:103A00004FFC686B000A8DF800009DF800106D20D7
:103A1000FFF746FC286BC1B26E20FFF741FC00F0B7
:103A2000F9FDA86B000E8DF800009DF800106F20C6
:103A3000FFF736FCA86B000C8DF800009DF8001015
:103A40007020FFF72DFCA86B000A8DF800009DF890
:103A500000107120FFF724FCA86BC1B27220FFF7A1
:103A60001FFCE86B000E8DF800009DF80010772019
:103A7000FFF716FCE86B000C8DF800009DF80010B5
:103A80007820FFF70DFCE86B000A8DF800009DF828
:103A900000107920FFF704FCE86BC1B27A20FFF731
:103AA000FFFB00F0B7FD286C000E8DF800009DF8BC
:103AB00000107B20FFF7F4FB286C000C8DF8000051
:103AC0009DF800107C20FFF7EBFB286C000A8DF8B6
:103AD00000009DF800107D20FFF7E2FB286CC1B2CA
:103AE0007E20FFF7DDFB686C000E8DF800009DF86E
:103AF00000107F20FFF7D4FB686C000C8DF80000ED
:103B00009DF800108020FFF7CBFB686C000A8DF851
:103B100000009DF800108120FFF7C2FB686CC1B265
:103B20008220FFF7BDFB00F075FDA86C000E8DF83C
:103B300000009DF800108320FFF7B2FBA86C000C7A
:103B40008DF800009DF800108420FFF7A9FBA86CF9
:103B5000000A8DF800009DF800108520FFF7A0FBFB
:103B6000A86CC1B28620FFF79BFBE86C000E8DF8B5
:103B700000009DF800108720FFF792FBE86C000C16
:103B80008DF800009DF800108820FFF789FBE86C95
:103B9000000A8DF800009DF800108920FFF780FBD7
:103BA000E86CC1B28A20FFF77BFB00F033FD206B8D
:103BB000000E8DF800009DF800108B20FFF770FBC1
:103BC000206B000C8DF800009DF800108C20FFF792
:103BD00067FB206B000A8DF800009DF800108D2017
:103BE000FFF75EFB206BC1B28E20FFF759FB606BC5
:103BF000000E8DF800009DF800108F20FFF750FB9D
:103C0000606B000C8DF800009DF800109020FFF70D
:103C100047FB606B000A8DF800009DF800109120B2
:103C2000FFF73EFB606BC1B29220FFF739FB00F05B
:103C3000F1FCA06B000E8DF800009DF800109320A1
:103C4000FFF72EFBA06B000C8DF800009DF8001014
:103C50009420FFF725FBA06B000A8DF800009DF86B
:103C600000109520FFF71CFBA06BC1B29620FFF758
:103C700017FBE06B000E8DF800009DF800109720F8
:103C8000FFF70EFBE06B000C8DF800009DF80010B4
:103C90009820FFF705FBE06B000A8DF800009DF807
:103CA00000109920FFF7FCFAE06BC1B29A20FFF7F1
:103CB000F7FA00F0AFFC206C000E8DF800009DF8C4
:103CC00000109B20FFF7ECFA206C000C8DF8000030
:103CD0009DF800109C20FFF7E3FA206C000A8DF895
:103CE00000009DF800109D20FFF7DAFA206CC1B2A9
:103CF0009E20FFF7D5FA606C000E8DF800009DF84D
:103D000000109F20FFF7CCFA606C000C8DF80000CB
:103D10009DF80010A020FFF7C3FA606C000A8DF830
:103D200000009DF80010A120FFF7BAFA606CC1B244
:103D3000A220FFF7B5FA00F06DFCA06C000E8DF824
:103D400000009DF80010A320FFF7AAFAA06C000C59
:103D50008DF800009DF80010A420FFF7A1FAA06CD8
:103D6000000A8DF800009DF80010A520FFF798FAD2
:103D7000A06CC1B2A620FFF793FAE06C000E8DF89C
:103D800000009DF80010A720FFF78AFAE06C000CF5
:103D90008DF800009DF80010A820FFF781FAE06C74
:103DA000000A8DF800009DF80010A920FFF778FAAE
:103DB000E06CC1B2AA20FFF773FA00F02BFC286D6B
:103DC000000E8DF800009DF80010AF20FFF768FA94
:103DD000286D000C8DF800009DF80010B020FFF752
:103DE0005FFA286D000A8DF800009DF80010B120E0
:103DF000FFF756FA286DC1B2B220FFF751FAE86D0D
:103E0000000E8DF800009DF80010B320FFF748FA6F
:103E1000E86D000C8DF800009DF80010B420FFF74D
:103E20003FFAE86D000A8DF800009DF80010B520FB
:103E3000FFF736FAE86DC1B2B620FFF731FA00F0AD
:103E4000E9FB686D000E8DF800009DF80010B720AA
:103E5000FFF726FA686D000C8DF800009DF8001041
:103E6000B820FFF71DFA686D000A8DF800009DF874
:103E70000010B920FFF714FA686DC1B2BA20FFF73D
:103E80000FFA286E000E8DF800009DF80010BB2080
:103E9000FFF706FA286E000C8DF800009DF8001060
:103EA000BC20FFF7FDF9286E000A8DF800009DF890
:103EB0000010BD20FFF7F4F9286EC1B2BE20FFF755
:103EC000EFF900F0A7FBA86D000E8DF800009DF83B
:103ED0000010BF20FFF7E4F9A86D000C8DF800007A
:103EE0009DF80010C020FFF7DBF9A86D000A8DF8DF
:103EF00000009DF80010C120FFF7D2F9A86DC1B2F3
:103F0000C220FFF7CDF9686E000E8DF800009DF815
:103F10000010C320FFF7C4F9686E000C8DF8000094
:103F20009DF80010C420FFF7BBF9686E000A8DF8F9
:103F300000009DF80010C520FFF7B2F9686EC1B20D
:103F4000C620FFF7ADF900F065FB206D000E8DF87F
:103F500000009DF80010C720FFF7A2F9206D000CAB
:103F60008DF800009DF80010C820FFF799F9206D2A
:103F7000000A8DF800009DF80010C920FFF790F9A5
:103F8000206DC1B2CA20FFF78BF9E06D000E8DF8ED
:103F900000009DF80010CB20FFF782F9E06D000CC7
:103FA0008DF800009DF80010CC20FFF779F9E06D46
:103FB000000A8DF800009DF80010CD20FFF770F981
:103FC000E06DC1B2CE20FFF76BF900F023FB606D0E
:103FD000000E8DF800009DF80010CF20FFF760F96B
:103FE000606D000C8DF800009DF80010D020FFF7E8
:103FF00057F9606D000A8DF800009DF80010D1207F
:10400000FFF74EF9606DC1B2D220FFF749F9206E7B
:10401000000E8DF800009DF80010D320FFF740F946
:10402000206E000C8DF800009DF80010D420FFF7E2
:1040300037F9206E000A8DF800009DF80010D52099
:10404000FFF72EF9206EC1B2D620FFF729F900F054
:10405000E1FAA06D000E8DF800009DF80010D72049
:10406000FFF71EF9A06D000C8DF800009DF8001000
:10407000D820FFF715F9A06D000A8DF800009DF813
:104080000010D920FFF70CF9A06DC1B2DA20FFF7BC
:1040900007F9606E000E8DF800009DF80010DB201F
:1040A000FFF7FEF8606E000C8DF800009DF8001020
:1040B000DC20FFF7F5F8606E000A8DF800009DF82F
:1040C0000010DD20FFF7ECF8606EC1B2DE20FFF7D4
:1040D000E7F800F09FFAB179AB20FFF7E1F8F1794A
:1040E000AC20FFF7DDF8317AAD20FFF7D9F8717A0F
:1040F000AE20FFF7D5F8B17ADF20FFF7D1F8F17ADB
:10410000E020FFF7CDF8317BE120FFF7C9F8BDE8EB
:10411000F84000F07FBA10B50121084600F05AFCC3
:104120000021BDE81040012000F054BCF8B5214E3C
:10413000304600F049F8204F384600F045F81F4857
:1041400000F042F8FFF7E7FF01211C2000F036FCE9
:104150000121084600F032FC0121194800F0E0F886
:104160000121184800F0DCF84FF40760ADF80000BA
:1041700010248DF8034003258DF80250694630461F
:1041800000F07CF88020ADF8000048208DF8030096
:104190006946304600F072F840F20310ADF80000B6
:1041A0008DF803408DF802506946384600F066F8F5
:1041B000F8BD000000080140000C01400010014063
:1041C0000004300000023000254910B5884206D1B5
:1041D0000121042000F0FEFB002104203BE02149E6
:1041E000884206D10121082000F0F4FB00210820BC
:1041F00031E01D49884206D10121102000F0EAFB80
:104200000021102027E01949884206D101212020F1
:1042100000F0E0FB002120201DE01549884206D176
:104220000121402000F0D6FB0021402013E011497D
:10423000884206D10121802000F0CCFB00218020A3
:1042400009E00D4988420AD184150121204600F079
:10425000C1FB00212046BDE8104000F0BBBB10BDF3
:1042600000080140000C0140001001400014014012
:1042700000180140001C014000200140F0B5CA7840
:10428000002502F00F03D20601D58A7813430A787D
:104290004FF00F0E12F0FF0F4FF001021CD0046818
:1042A0000F8802FA05F63740B74211D14FEA850C64
:1042B0000EFA0CF724EA070703FA0CF43C43CF7814
:1042C000282F02D0482F02D002E0466100E00661AC
:1042D0006D1C082DE4D304600C88FF2C1ED94468A3
:1042E0005FF0000606F1080702FA07F50F882F4075
:1042F000AF420FD14FEA860C0EFA0CF7BC4303FA1B
:104300000CF73C43CF78282F00D14561CF78482F58
:1043100000D10561761C082EE4D34460F0BD000096
:10432000F0B5144C002801DAE36900E06368420D3F
:10433000120185B2C0F301579540C0F30346032F25
:1043400005D0C2020AD50322B240934307E023F00E
:104350007062636823F07063636002E0AB4343F014
:10436000706201B12A43002801DAE261F0BD6260A7
:10437000F0BD0000000001400246002092680A42A1
:1043800000D0012070474161704701617047FEE72E
:1043900013B582B04FF6FF71ADF800109DF80C1008
:1043A00011B901218DF80C1000244AF2010300BF5D
:1043B0009DF80C104A1E8DF80C2023D30178BDF80F
:1043C00000205140ADF800108DF8044014E000BF0B
:1043D000BDF80010C907BDF800104FEA510104D024
:1043E000ADF80010BDF800105940ADF800109DF870
:1043F0000410491C8DF804109DF804100829E7D317
:10440000401CD5E7BDF8000004B010BD10B504464F
:104410000448006BFCF722FA0146204601F08EFCAE
:10442000012010BDC003002038B5044600226946B3
:1044300001F037FA48B1064900980863022205499D
:10444000204601F0D5FB012038BD4FF0FF3038BDCC
:10445000C0030020D0BF010810B504460448806B9B
:10446000FCF7FCF90146204601F068FC012010BD74
:10447000C003002038B504460022694601F011FA55
:1044800048B106490098886302220549204601F098
:10449000AFFB012038BD4FF0FF3038BDC003002016
:1044A000D0BF010810B504460648D0F88000FCF7DC
:1044B000D5F90549FCF70CF80146204601F03EFC11
:1044C000012010BDC003002000401C4638B5044642
:1044D0000022694601F09CF878B109490098FBF781
:1044E000C5FFFCF7CCF90749C1F880000222064954
:1044F000204601F07DFB012038BD4FF0FF3038BD74
:1045000000401C46C0030020D0BF010810B504467F
:104510000648C06FFCF7A2F90549FBF7D9FF014631
:10452000204601F00BFC012010BD0000C00300205C
:1045300000401C4610B504460648C06FFCF78EF9D3
:104540000549FBF7C5FF0146204601F0F7FB0120B6
:1045500010BD0000C003002000401C4638B50446D2
:104560000022694601F054F870B109490098FBF740
:104570007DFFFCF784F90749C867022206492046F7
:1045800001F036FB012038BD4FF0FF3038BD000090
:1045900000401C46C0030020D0BF010838B50446C7
:1045A0000022694601F034F880B10A490098FBF70F
:1045B0005DFFFCF764F90849C867C1F88000022272
:1045C0000649204601F014FB012038BD4FF0FF30B2
:1045D00038BD000000401C46C0030020D0BF0108C9
:1045E00002494CF6CC4008607047000000300040A3
:1045F00010B545F2555000F021F8032000F012F8F4
:10460000FF2000F015F800F005F8BDE81040FFF7B6
:10461000E7BF000002494AF6AA2008607047000080
:104620000030004001494860704700000030004001
:10463000014988607047000000300040014908606F
:1046400070470000003000402DE9F047214CA06B7E
:10465000DFF8849001284FF00201484627D0FFF789
:1046600094FE1E48007800282DD1A06B00282AD186
:104670006068A04649F640440125194F4FF47A7608
:10468000A04206D902214846FFF77DFEC8F83850FF
:104690007E80D8F83410404661B1416B1148022940
:1046A00013D0D8F8341003290DD1C0680EE0FFF7FD
:1046B0006AFED6E7006D09E002214846FFF763FE77
:1046C000C8F838507E80BDE8F0878068A042F3D8F3
:1046D000F9E70000C0030020000C01405E0000204C
:1046E000AC0000209C04002038B504460648416B0D
:1046F0006A46064800F0DAFA04222046009901F0E2
:1047000077FA012038BD0000C0030020D800002047
:1047100038B5044601236A46084900F0F5FE48B161
:1047200007490098486302220649204601F060FAD2
:10473000012038BD4FF0FF3038BD0000D800002008
:10474000C0030020D0BF0108FEE710B5082101F02A
:104750000EFB012010BD704770B50F23C47801789F
:104760000122F4B1144C2468457804F4E064C4F5E3
:10477000E064240AC4F10406E3408478B5401C4098
:104780002C4301F1E021230181F80034007800F08E
:104790001F018A404009800000F1E020C0F800219C
:1047A00070BD01F01F0082404809800000F1E02048
:1047B000C0F8802170BD00000CED00E00249084304
:1047C00002490860704700000000FA050CED00E0A7
:1047D000024A1140014302480160704780FFFF1FF9
:1047E00008ED00E010B504460648C068FCF736F84E
:1047F0000549FBF76DFE0146204601F09FFA0120B6
:1048000010BD0000C003002000007A4410B504462B
:104810000648806EFCF722F80549FBF759FE014671
:10482000204601F08BFA012010BD0000C0030020DB
:1048300000007A4438B504460022694600F0E8FEDC
:1048400070B109490098FBF711FEFCF718F8074909
:10485000886602220649204601F0CAF9012038BDC7
:104860004FF0FF3038BD000000007A44C003002044
:10487000D0BF010810B5140008D00878801F0628A2
:1048800007D2DFE800F0080B110614140E4900F0FF
:1048900036FB002010BD1022486801E0486808225D
:1048A000214607F011F90AE002224868F8E7486853
:1048B0004FF00A02002BF3D0214607F0F0F8002851
:1048C000E8D0012010BD0000CAFEFFFF10B51400A3
:1048D00008D00878801F062807D2DFE800F0080B10
:1048E000110614140E4900F00AFB002010BD10221E
:1048F000486801E048680822214607F0EFF80AE01E
:1049000002224868F8E748684FF00A02002BF3D00B
:10491000214607F0CEF80028E8D0012010BD0000A5
:10492000CAFEFFFFFEB51E460C00054610D06946C4
:1049300000F0BAFF00280AD00021684600F097FE78
:1049400040B13346224669462846FFF793FFFEBD35
:1049500008490AE00121684600F089FE10B16FF0B5
:10496000890101E06FF06701284600F0C8FA0020D5
:10497000FEBD0000CAFEFFFF034A516821F440411A
:10498000014351607047000000100240044A0029B2
:10499000516901D0014300E081435161704700003B
:1049A00000100240044A0029D16901D0014300E00F
:1049B0008143D1617047000000100240044A002981
:1049C000916901D0014300E081439161704700008B
:1049D00000100240044A0029D16801D0014300E0E0
:1049E0008143D160704700000010024010B500F014
:1049F00033F84FF48034204600F0C0F800F006F998
:104A0000144908700878012822D1002000F0ACF881
:104A1000002000F0D7F8A01100F0CAF80220FEF73D
:104A200081FC1020FEF772FC4FF4E011204600F0EC
:104A3000D9F8012000F0D0F8392000F075F80028EE
:104A4000FAD0022000F0D8F800F086F80828FBD150
:104A500010BD0000590000200C48016841F0010120
:104A6000016041680A4A114041600168094A1140E9
:104A70000160016821F480210160416821F4FE0198
:104A800041604FF41F018160704700000010024038
:104A90000000FFF8FFFFF6FE30B51F494A6812F02C
:104AA0000C031E4A03D0042B01D0082B21D0026036
:104AB0004A680F231A4C03EA1212A35C0268DA4018
:104AC00042604B68072505EA1323E35C22FA03F3EF
:104AD00083604B6805EAD323E35CDA40C26049682F
:104AE000032303EA9131231F595CB2FBF1F1016109
:104AF00030BD4A684B6802F470124FF0020413F4A0
:104B0000803F04EB924202D04B689B0301D5054BDA
:104B100000E0024B5A43CAE70010024000127A003C
:104B20000400002000093D00024600205309094905
:104B3000012B0BD0022B0BD0D1F8241002F01F0256
:104B4000012393400B4200D0012070470968F5E72C
:104B5000096AF3E7001002400248406800F00C00C8
:104B60007047000000100240034A516821F0F00134
:104B70000143516070470000001002400B490A6871
:104B800022F480320A600A6822F480220A60B0F5BA
:104B9000803F07D0B0F5802F03D1086840F4A020F3
:104BA00008607047086840F48030F9E70010024060
:104BB000034A516821F4E0610143516070470000ED
:104BC0000010024003494A6822F4605242EAC000E1
:104BD00048607047001002400149086670470000B5
:104BE00000004242034A5368084323F47C131843ED
:104BF0005060704700100240034A516821F00301E1
:104C000001435160704700000010024018B50020B9
:104C10004FF4A06400903120FFF786FF0099491CF3
:104C20000091A14201D00028F5D03120FFF77CFF90
:104C3000002800D0012018BD10B504460448806C3F
:104C4000FBF70CFE0146204601F078F8012010BD6C
:104C5000C003002038B504460022694600F021FE5A
:104C600048B106490098886402220549204600F0B0
:104C7000BFFF012038BD4FF0FF3038BDC00300201A
:104C8000D0BF010810B5044606488068FBF7E6FD72
:104C90000549FBF71DFC0146204601F04FF80120B5
:104CA00010BD0000C003002000007A4410B50023AE
:104CB0000BE000BF00EBC30464688C4204D150F8E1
:104CC00033001060012010BD5B1C50F83340002CF5
:104CD000F0D1002010BD1CB5CDE90023846A026A22
:104CE00000690B462146006806F038F81CBD10B577
:104CF000044600F053FA204600F0A8F800220421F0
:104D0000204600F0C2FE00220721204600F0BDFE32
:104D1000012010BD38B504460122694600F0A4FC0C
:104D200038B10098032182B2204600F0AEFE012087
:104D300038BD4FF0FF3038BD10B50246032100F0FA
:104D40009AFE0146104601F012F8012010BD10B580
:104D50000446022100F08FFE0146204601F007F8CC
:104D600000220221204600F090FE012010BD00002C
:104D700070B506465FF0000406EB8405D5F88400A4
:104D800028B1FBF772FA0246D5F8841001E001223F
:104D900004A1304600F02CFF641C042CECDB012045
:104DA00070BD00003000000010B50122022100F0AB
:104DB000CDFE012010BD10B5012100F0D8FF01206B
:104DC00010BD20B1C16A11B1096901B108470120C4
:104DD000704738B504460122694600F045FC38B1F9
:104DE0000098012182B2204600F04FFE012038BD1C
:104DF0004FF0FF3038BD10B50246012100F03BFEF8
:104E00000146104600F0B3FF012010BD10B5024668
:104E1000002100F030FE0146104600F0A8FF0120FE
:104E200010BD0120704700001CB51446CDE90001FB
:104E300004A21946204604F02FFF2046BDE81C407E
:104E4000FBF713BA252E31356C67000010B5044608
:104E50003C3005F005FD2046BDE8104000F01EB8CE
:104E600008B50021ADF8001069463C3005F0FDFCA6
:104E7000BDF9000008BD70B50D46044604220021AE
:104E800000F064FEE06A002807D00268002A04D01F
:104E900029462046BDE87040104770BD10B5044655
:104EA000FFF7DEFF002815D10021204600F0E3FDCA
:104EB00040070FD504220021204600F0CFFDE06A14
:104EC000002807D00268002A04D02046BDE8104020
:104ED0000021104710BD3C3005F0CBBC10B5044696
:104EE00059B154B10020088004F13C0005F0D8FC11
:104EF0002046FFF7D3FF012010BD002010BD002386
:104F00001A4600F001B800002DE9F84F05460C469E
:104F1000ADF800103C30984616466946074605F045
:104F200080FCDFF888A04FF0010940B14FEA09008A
:104F300080F001079EB1B8F1000F0CD00FE0694678
:104F4000384605F0CBFCADF800A06946384605F0C0
:104F500068FC0020ECE7FF213046FCF7F5FDDFF8A8
:104F60005080002606EB460138F91120A2420ADBE8
:104F700008EB4100B0F90210A14204DC8288022152
:104F8000284600F0E3FD761C092EEBDB214628467F
:104F9000FFF771FF1FB151462846FFF76CFF002D48
:104FA00001D085F83890BDE8F88F0000A2FEFFFF21
:104FB00064C4010810F1830F3ED018DC10F1C80F53
:104FC00042D00ADC00F580706B3045D00D2841D00E
:104FD00035283DD08B281FD138E010F1AA0F31D0F1
:104FE00010F1970F2CD010F18A0F15D126E010F197
:104FF000680F19D009DC10F1710F1BD010F16D0F83
:1050000016D010F16C0F07D110E010F1670F09D026
:1050100010F1650F04D008B110A0704713A07047BD
:1050200015A0704719A070471DA0704720A07047B9
:1050300025A0704729A070472DA0704730A0704769
:1050400034A0704738A070473CA070473FA070471D
:1050500044A0704747A070474AA07047556E6B6EDA
:105060006F776E206572726F720000004E6F206560
:1050700072726F7200000000496E76616C69642084
:10508000636861726163746572000000496E7661E5
:105090006C696420736570617261746F72000000E6
:1050A000446174612074797065206572726F72005A
:1050B000506172616D65746572206E6F7420616CF1
:1050C0006C6F7765640000004D697373696E6720CB
:1050D000706172616D65746572000000556E646583
:1050E00066696E6564206865616465720000000031
:1050F000496E76616C696420737566666978000034
:10510000537566666978206E6F7420616C6C6F777A
:1051100065640000496E76616C696420737472691D
:105120006E6720646174610045787072657373699D
:105130006F6E206572726F720000000045786563C3
:105140007574696F6E206572726F7200496C6C6560
:1051500067616C20706172616D6574657220766143
:105160006C75650053797374656D206572726F722A
:10517000000000005175657565206F766572666C7C
:105180006F770000496E707574206275666665728F
:10519000206F76657272756E000000000022022199
:1051A00000F073BC2DE9FF4F89B08146DDE918A7F7
:1051B000DDF85C800C981646002478B171B16FB1AF
:1051C0005FEA0A0004D0169840B15FEA080005D0F3
:1051D0000878102804D06FF0670113E0264911E029
:1051E00048684022401C03900490886806A9801EED
:1051F000059003A806F0E0F96FF0A90B08B10025AF
:1052000024E059464846FFF77AFE01200DB0BDE87C
:10521000F08F01D1514600E00021CDF80080CDE9AA
:10522000011703A94846169B0C9A05F039FA0400A9
:1052300004D0012C17D0022C10D018E0B54204D0B5
:1052400006A903A806F013F818B16D1CB542E0DDFD
:105250000DE003A806F05CF858B1022403A806F09C
:1052600057F830B103E059464846FFF748FE20465C
:10527000CCE70124F7E70000CAFEFFFF7CB5144627
:105280000D46FBF710FBCDE9000105A2214628469B
:1052900004F002FD2846BDE87C40FAF7E6BF0000B6
:1052A000256700002DE9F05F0F46DDE90D981D46EA
:1052B000164604469821DDF844B0DDF828A0FAF738
:1052C000BDFFC4F884A02760E662E5650B98C4F8CA
:1052D00088000C98C4F80C80C4E923090F9860601A
:1052E0000020A0605A4620461099BDE8F05FFFF705
:1052F000F2BD2DE9F04104461700D4E902204FF039
:1053000000054FF001082E460ED063689B1A5B1E05
:105310009F4212DDA66006706FF4B5712046FFF75C
:10532000EEFD0020BDE8F0818654D4E9022120463C
:1053300000F008FB8046A66030E010443A46FAF7D9
:1053400056FFA0683844A060E1680E5404F164067A
:10535000A068421BE0684119304606F0D3F90544C5
:1053600094F88000012804D094F864101A2911D010
:1053700011E02A462046E16800F0E4FA8046A06881
:10538000421BE0684119FAF732FFA068401B002574
:10539000A060DDE710B1A068A842D9D84046C1E7B7
:1053A0002DE9F84F98460A9C16000B46074619D07F
:1053B000B8F1000F16D0ACB130780025B8B19168C3
:1053C0006A461846FFF772FC70B1224640460099C3
:1053D000FAF73FFF611E4046FCF7B6FB08F80050A5
:1053E000BDE8F88F0020FBE788F80050FAE7D6E91F
:1053F000020123464246FFF717FD0546401CA04226
:1054000027D2FF6D96F810901FB30026DFF854A046
:1054100022E00A794A451ED1D1E902010022534611
:10542000FBF754FA17D107EB061007688FB1621B20
:1054300016460DA14046FAF71FFFAD1CA54204D247
:10544000721E39464046FAF717FF4046FAF70DFF3D
:1054500005462846C4E7761C07EB061108680028B5
:10546000D7D1F6E70000F03F20000000FEB514465B
:105470000D00064612D08CB11A46694600F014FAA7
:1054800000280AD09DF800100D2909D06FF067019F
:105490004FEA0600FFF733FD0020FEBD0349F9E7A0
:1054A0000199296002992160FEBD0000CAFEFFFF3C
:1054B0007FB50D00064617D0694600F0F5F90400E7
:1054C0000FD09DF800000A2813D003AB0C4A6946A0
:1054D000304600F051F9040003D0039800B10120D8
:1054E0002870204604B070BD0649FFF708FD002073
:1054F000F8E703AA6946304600F0CAF9EDE7000074
:105500009CC40108CAFEFFFFFEB514460D00064606
:105510000DD064B11A46694600F0C6F9002805D0DE
:1055200023462A466946304600F026F9FEBD024968
:10553000FFF7E5FC0020FEBDCAFEFFFFFEB51646E4
:10554000089A1D460C00074613D095B1694600F035
:10555000ABF902000BD09DF800000E280ED00F28EA
:105560000ED06FF067013846FFF7C9FC00221046E5
:10557000FEBD1049FFF7C3FC0020FEBD272300E05D
:105580002223012000210BE0B0420DD2019F3F5C9D
:105590006754019F491C3F5C9F4200D1401C401C46
:1055A000029F7F1E8742EFD82960B142DFD20020E0
:1055B0006054DCE7CAFEFFFFFEB50D0006460FD0C3
:1055C000694600F071F904001DD00021684600F022
:1055D0004EF850B12A466946304600F00BF912E009
:1055E0000A49FFF78CFC0020FEBD0121684600F04F
:1055F0003EF810B16FF0890101E06FF067013046AD
:10560000FFF77DFC00242046FEBD0000CAFEFFFF20
:10561000FEB50D0006460FD0694600F045F90400BE
:105620001DD00021684600F022F850B12A46694694
:10563000304600F007F912E00A49FFF760FC00204D
:10564000FEBD0121684600F012F810B16FF089012B
:1056500001E06FF067013046FFF751FC002420465F
:10566000FEBD0000CAFEFFFF0123FFF75BB9007813
:10567000801F062808D2DFE800F0030303070305B4
:105680000120704708467047002070472DE9F0411F
:105690008AB01400884607461DD01A46694600F0B5
:1056A00003F905001BD0019803900490029805901F
:1056B0009DF80000801F052803D80020207420706A
:1056C00001259DF80000801F06280FD2DFE800F0BA
:1056D00017190C0A0A0A2749FFF711FC00200AB023
:1056E000BDE8F0810A2100E00221617404F108069E
:1056F00006283BD2DFE800F007070726070D102138
:10570000F3E70821F1E732466946384600F072F8BF
:105710002DE006A903A805F0BCFD06A903A805F025
:10572000DDFF06A903A805F09DFF3246694638460D
:1057300000F060F8DDE907122346384606F01BFA50
:10574000054614E006A903A805F0C8FF06A903A8AA
:1057500005F047FD09AB424606A9384600F00CF8B3
:105760000546012020700998A06000E00025284629
:10577000B5E70000CAFEFFFF2DE9F84F9846150077
:105780000E4682464FF0000708D0B8F1000F05D052
:105790003078092809D06FF0670123E0144950469A
:1057A000FFF7ADFB0020BDE8F88F0024A14613E011
:1057B000FAF75BFD0146CDF8009055F83400D6E9C4
:1057C000012305F0BFFB30B105EBC40001274168A0
:1057D000C8F8001009E0641C55F834000028E7D12F
:1057E0006FF0DF015046FFF78AFB3846DBE7000029
:1057F000CAFEFFFF7CB5140008D00A78921F062A63
:105800001BD2DFE802F00808081A13130C49FFF74F
:1058100076FB00207CBD6A4600F040F80546DDE9D5
:105820000001FBF720F8C4E9000107E048682146C1
:1058300006F05FF908B1012500E0002528467CBD8F
:10584000CAFEFFFF38B5140008D00A78921F062A56
:1058500019D2DFE802F00808081811110B49FFF708
:105860004EFB002038BD6A4600F015F8054600984A
:10587000FAF7F4FF206007E04868214606F044F993
:1058800008B1012500E00025284638BDCAFEFFFF0B
:105890000123FEF7EFBF0023FEF7ECBF0023FFF765
:1058A00015B80023FFF73EB82DE9F04116460D006C
:1058B000044610D00021284605F09AF9E269616992
:1058C00004F114001144A269074691420AD826B196
:1058D0006FF06C012FE01A492EE00920287000209B
:1058E000BDE8F081616B59B1294605F0C0FC28780C
:1058F00030B10021284605F07BF96FF066011AE00F
:10590000606B2946401C6063384605F08FFF28789D
:10591000801F0B2809D2DFE800F0060606060606FF
:105920000806060606000120DAE70021284605F0F1
:105930005FF96FF096012046FFF7E1FACFE700002C
:10594000CAFEFFFF2DE9F04F9046424A8946040007
:1059500087B007CA04AB4FF0010A83E8070019D0EB
:10596000002004F16405206342464946284605F0BC
:10597000C9FE06462878192810D0A868002852DDEC
:10598000294604A804F027FF68680390A868002748
:1059900002902DE0002007B0BDE8F08F6FF06401A9
:1059A0002046FFF7ACFA3CE001EB820B00210091AE
:1059B0000B460191DDE9022105F0D0F9B8B1C4F838
:1059C00010B028696061A0616869E0616868A062E0
:1059D00000206062A8682062204605F012FB00EA01
:1059E0000A0A95E8070004AB83E807001BE07F1C68
:1059F000216807EB470251F822000028D4D1334632
:105A000000E05B1E3BB109EB030010F8010C0D2810
:105A1000F7D00A28F5D04A466FF070012046FFF70C
:105A200073FA4FF0000A464503DAB144A8EB0608C2
:105A30009AE7206B00280BDD022207A1204606F022
:105A4000A9FA200004D0C16A11B1C96801B1884720
:105A50005046A0E7B4C401080D0A000010B50B467B
:105A6000044600F008F820EA02022046BDE8104093
:105A7000194600F00AB80A2905D220B100EB41000E
:105A8000B0F848007047002070472DE9F04100272A
:105A9000144605460A2957D2002D55D005EB41067C
:105AA0000A29B6F84880A6F8484037D2DFE801F066
:105AB0000516181B2B2E3020272901212846FFF719
:105AC000DAFF20F04000044205D044F04004A04535
:105AD00024D0012722E024F040041FE0002103E04D
