:020000040801F1
:10000000A01600204D010108F3470108C74301086D
:10001000E5470108311E010851AF0108000000004A
:10002000000000000000000000000000276101083F
:10003000192601080000000063010108FD610108A4
:1000400067010108670101086701010867010108EC
:1000500067010108670101086701010867010108DC
:10006000670101086701010867010108A52001086F
:10007000B92001086701010867010108670101084B
:1000800067010108670101086701010867010108AC
:10009000670101086701010867010108670101089C
:1000A000670101086701010867010108670101088C
:1000B0006701010867010108C964010867010108B7
:1000C000670101086701010867010108670101086C
:1000D00067010108C1A6010899A90108ADAB010893
:1000E000670101086701010867010108670101084C
:1000F000670101086701010867010108670101083C
:10010000670101086701010867010108670101082B
:10011000670101086701010867010108670101081B
:10012000670101086701010867010108670101080B
:10013000DFF80CD000F06AFE004800470DC301084C
:10014000A016002080F3088870470000064880470A
:1001500006480047FEE7FEE7FEE7FEE7FEE7FEE7AC
:10016000FEE7FEE7FEE7FEE77D62010831010108D8
:100170002DE9F05F0546002092469B4688460646DC
:10018000814640241BE0284641464746224600F06F
:1001900022FC53465A46C01A914110D311461846C4
:1001A000224600F009FC2D1A67EB01084F46224653
:1001B0000120002100F000FC17EB00094E41201E39
:1001C000A4F10104DFDC484631462A464346BDE837
:1001D000F09F00000048704774E2010810B5044623
:1001E000FFF7F8FF0068005D00F0010010BD10B5DA
:1001F000431A934209D28318881803E010F8011DAE
:1002000003F8011D521EF9D210BD40EA01039B07FD
:1002100003D009E008C9121F08C0042AFAD203E07B
:1002200011F8013B00F8013B521EF9D210BDD2B2C9
:1002300001E000F8012B491EFBD270470022F6E7CF
:1002400010B513460A4604461946FFF7F0FF20464C
:1002500010BD10B5044604E00B7800F8013B03B173
:10026000491C521EF8D2204610BD421C10F8011B3A
:100270000029FBD1801A704710B5044600E0401CED
:100280000378002BFBD100E0401C521E04D311F870
:10029000013B0370002BF7D100210170204610BDF7
:1002A0002DE9F0410546002090460E46044600E048
:1002B000641C44450BD2285D00F0AFFB0746305D5F
:1002C00000F0ABFB381A02D1295D0029F0D1BDE85E
:1002D000F0812DE9F04791460F46804604460026FE
:1002E00014F8015B2DB1FFF775FF0068405DC00792
:1002F000F6D12B2D02D02D2D18D0641E4A4639463A
:10030000204600F090FB27B13968A14201D1C7F81F
:10031000008071054FF002040BD54042002803DD38
:100320000AF084FF0460A007BDE8F08746F4806609
:10033000E4E70028F8DA0AF079FF04606FF0004083
:10034000F2E72DE9F05F93460F468046044600260B
:100350000AF06CFFD0F80090824614F8015B2DB1D2
:10036000FFF738FF0068405DC007F6D12B2D02D0A3
:100370002D2D1AD0641E0021CAF800105A463946A5
:10038000204600F050FB014627B13868A04201D159
:10039000C7F80080DAF80000022809D0CAF80090F7
:1003A000700505D54842BDE8F09F46F48066E2E757
:1003B0000846F8E700F0E1BB00F027BCF0B480EAA3
:1003C0000102D40F4200B2EB410F02D202460846AE
:1003D00011464A0042D0C30DDDB2C1F3C752AD1A77
:1003E000202D35DAC1F3160141F4000204B1524266
:1003F000C5F1200602FA06F12A411044B3EBD05FA2
:1004000023D0C4B1012DA0EBC35009DCF0BC4FF0E8
:10041000004202EAC352DBB200F5000000F03CBC2F
:10042000400000F1807000EBC350A0F1807040EA02
:10043000D170490009E0490841EAC071A0EBC350FE
:1004400000F50000400800EBC350F0BC00F01BBCFE
:100450006142012202EB4101001BF6E7F0BC70474C
:1004600081F00041AAE780F00040A7E780EA01029E
:1004700010B502F00043400022D04A001FD0010E08
:1004800001EB1261C0F35600C2F3560240F40000C3
:1004900042F40002A0FB022000047F39140400D0C3
:1004A000401C50EA124001D44000491EC2B20C0662
:1004B00004EBD010401C4008802A02D003E000204A
:1004C00010BD20F00100002900DA0020184310BD03
:1004D00030B480EA010202F0004530F0004221F021
:1004E000004013D090B1C30DD40DC2F31601C0F378
:1004F0001600E41A41F4000140F400027D349142F8
:1005000001D3641C00E04900002C02DA30BC00205A
:1005100070474FF400000023914201D3891A03432E
:1005200040084FEA4101F7D151B1914202D14FF059
:10053000004105E002D24FF0010101E06FF001013E
:1005400003EBC450284430BC00F09DBB2DE9FE4FA6
:10055000804681EA0300C00F0C46009021F0004164
:1005600023F00045B8EB0200A94105D240462146E0
:1005700090461C460B46024623F00040104347D0ED
:10058000270DC7F30A00C3F30A510290401A0190E5
:1005900040286BDAC3F3130040F4801B00989246A6
:1005A00020B10023D2EB030A63EB0B0B01985946F1
:1005B000C0F14002504600F0FFF906460D46504695
:1005C0005946019A00F017FA10EB08006141002427
:1005D00087EA115284EAE7731A4340D0009A62B363
:1005E000019A012A4FEA075215DC001B61EB020158
:1005F0004FF0004202EA0752CDE90042001C41F5EB
:10060000801132462B4600F084FB03B0BDE8F08F2A
:1006100040462146F9E7001B61EB0201001C41F551
:10062000801300185B412018A2F5001747EB030167
:1006300040EAD570B6196D4111E06D084FEA3606F3
:1006400045EAC0754FEA0752001B61EB0201001C2E
:1006500041F5801149084FEA3000001951413246F6
:100660002B4603B0BDE8F04F00F044BB00980122D8
:1006700040000023D0EB020263EBE07300982146B8
:100680004FEAE074B8EB000061EB0401E9E783F0A6
:1006900000435BE781F0004158E72DE9FE4F81EA16
:1006A000030404F0004421F0004100944FF0000BDB
:1006B00023F0004350EA01045ED052EA03045BD009
:1006C000C3F30A54C1F30A552C44A4F2F334019441
:1006D000A0FB0254C1F3130141F48011C3F31303CF
:1006E00043F4801301FB024400FB034E840A970A83
:1006F00044EA815447EA8357A4FB076802958D0AB0
:1007000005FB07854FEA932C04FB0C542705029D3B
:100710004FEA065847EA1637B5EB08056EEB070CAB
:10072000870E920E47EA811742EA8312A7FB020165
:10073000B6EB0B0164EB00042B0D43EA0C335E189F
:1007400044EB1C50DA465146E7FB0201C5F31304A3
:100750004FEA0B3343EA14534FEA0432019C43EA55
:100760000603A4F10C040294009CCDE900B400F04F
:10077000D0FA03B0BDE8F08F00200146F9E72DE97B
:10078000F04D81EA030404F0004B21F000451446CB
:100790004FF0000A23F0004150EA050220D054EA4D
:1007A00001021DD0C5F30A570246C5F31303C1F376
:1007B0001300C1F30A5640F4801543F48013A7EBED
:1007C0000608101BD64608F2FD3873EB050002D36D
:1007D00008F1010801E092185B41B8F1000F03DA5B
:1007E00000200146BDE8F08D00204FF48011064640
:1007F00084460EE0171B73EB050705D3121B63EB52
:10080000050306434CEA010C49084FEA30009218F0
:100810005B4150EA0107EDD152EA030012D082EAAF
:10082000040083EA0501084305D0101BAB4106D242
:100830000122002306E000224FF0004302E06FF0A7
:10084000010253101AEB06004CEB085110EB0A00A2
:1008500041EB0B01BDE8F04D00F04CBA96230022AD
:10086000114600F019BA0EB540F233410291002151
:10087000CDE900110A460B4600F04BFA03B000BD6B
:100880000EB540F2334202920022CDE90022134617
:1008900000F03FFA03B000BD20F00040C10DC0F3EE
:1008A000160040F400007F2901DA002070479629E5
:1008B00003DCC1F19601C840704796398840704703
:1008C000C1F30A5210B5C1F3130140F2FF3341F4F2
:1008D00080119A4201DA002010BD40F233439A425F
:1008E000A2F2334203DC524200F075F810BD904092
:1008F00010BD00F0004230F000400AD0C10D01F5FB
:100900006071C0F3160042EA0151C208400711436A
:10091000704700200146704730B5041E71F1000495
:1009200004DB4FF00044404264EB0101141E73F1FC
:10093000000405DB1C464FF00043524263EB040306
:100940008B4208BF824230BD30B5041E71F10004F5
:1009500004DB4FF00044404264EB0101141E73F1CC
:10096000000405DB1C464FF00043524263EB0403D6
:10097000994208BF904230BD002801DBC0F1004021
:10098000002901DBC1F100418842704730B50B46B8
:10099000014600202022012409E021FA02F59D42AF
:1009A00005D303FA02F5491B04FA02F52844151E83
:1009B000A2F10102F1DC30BD202A04DB203A00FA6A
:1009C00002F1002070479140C2F1200320FA03F3A6
:1009D000194390407047202A04DB203A21FA02F0A4
:1009E0000021704721FA02F3D040C2F12002914069
:1009F000084319467047202A06DBCB17203A41FAF4
:100A000002F043EAE07306E041FA02F3D040C2F19B
:100A100020029140084319467047A0F1410119296D
:100A200000D8203070472DE9F05F8246007800271B
:100A300015468B460AF10104B946302801D09DB114
:100A400013E014F8010B0127782803D0582801D0AF
:100A500045B10AE00DB1102D07D10027102514F87B
:100A6000010B02E0082500E00A250026B0460EE052
:100A700005FB080005FB06F1012701EB10461FFAF4
:100A800080F8B6F5803F00D3B94614F8010B29462B
:100A900000F0CEF90028EBDABBF1000F05D00FB162
:100AA000641E00E05446CBF80040B9F1000F06D0B8
:100AB0000AF0BCFB02210160C81EBDE8F09F48EAB5
:100AC0000640FAE70FB4002300B589B00CA90091E5
:100AD0000B996FF00042CB601E4B06931E4B0793A1
:100AE0000423CDE901321D4A089202466B460020DC
:100AF00000F040FA09B05DF814FB70B586B0064608
:100B00004FF0FF300091CDE90101002015460C4661
:100B100004903246694604A8FFF7D4FF02460498C1
:100B2000211825B108B1084600E020462860049845
:100B300000280DD0002A02DD0098884208D0081B4A
:100B40000094CDE901043246694604A8FFF7BAFFD4
:100B500006B070BDAD110108CB110108DD0101081F
:100B60007CB50023CDE9003305466846FFF7C5FF95
:100B7000694628460AF05EFB7CBD2DE9F0479146A8
:100B80000E4680460446002514F8017B2FB1FFF77E
:100B900021FB0068C05DC007F6D12B2F02D02D2F9E
:100BA0001ED0641E4A463146204600F01FFB26B187
:100BB0003268A24201D1C6F800806A054FF00204F3
:100BC00018D50023D0EB030563EB01025D1B9341B5
:100BD00009DB0023D0EB030063EB0101BDE8F087E4
:100BE00045F48065DEE70AF021FB046000204FF049
:100BF0000041F3E7021E71F10002EFDA0AF016FB82
:100C000004604FF0FF304108E8E72DE9F05F9346BC
:100C10000F468046044600260AF008FBD0F80090F4
:100C2000824614F8015B2DB1FFF7D4FA0068405DED
:100C3000C007F6D12B2D02D02D2D1FD0641E002110
:100C4000CAF800105A463946204600F0CFFA02464C
:100C500027B13868A04201D1C7F80080DAF8000057
:100C600002280ED0CAF8009070050AD5002003466D
:100C7000D2EB000063EB0101BDE8F09F46F4806613
:100C8000DDE71046F8E70029A8BF7047401C49007F
:100C900008BF20F00100704710B4B0FA80FC00FAE1
:100CA0000CF050EA010404BF10BC704749B1CCF10C
:100CB000200421FA04F411FA0CF118BF0121214398
:100CC0000843A3EB0C01CB1D4FEA00614FEA102053
:100CD00042BF002010BC704700EBC35010440029F5
:100CE000A4BF10BC7047401C490008BF20F00100A1
:100CF00010BC704710B5141E73F1000408DA401CD4
:100D000041F1000192185B411A4301D120F001002A
:100D100010BD2DE9F04D92469B4611B1B1FA81F21A
:100D200002E0B0FA80F220329046FFF745FE04461A
:100D30000F4640EA0A0041EA0B0153465A4608436F
:100D400013D0114653EA010019D0C8F140025046B1
:100D5000FFF741FE05460E46504659464246FFF70C
:100D60002BFE084305D0012004E020463946BDE8AB
:100D7000F08D0020054346EAE0762C4337430A987D
:100D80006305E40AA0EB08000022FD0A44EA475488
:100D90000A3002D500200146E9E701051019694132
:100DA000DDE9084500196941BDE8F04DA2E770B5DD
:100DB00021F0004303430CD0C1F30A550024D5EBC6
:100DC000040564EB0403D617AD1AB34102DB00201F
:100DD000014670BD201841EB025170BDC1F30A52AB
:100DE000C1F3130140F2FF3341F480119A4202DA59
:100DF00000200146704740F233439A42A2F2334248
:100E000002DC5242FFF7E7BDFFF7D6BD064C074DA7
:100E100006E0E06840F0010394E8070098471034CA
:100E2000AC42F6D3FFF788F91CE901083CE9010858
:100E30003A2800D2303820F02002412A01D3A2F112
:100E40003700884201D34FF0FF3070472DE9FF4F44
:100E5000087883B09946FF2805D0491C2D2804D076
:100E60000024002008E000200BE00124F9E700EB5B
:100E7000800003EB4000491C0B78FF2BF7D104B135
:100E8000404200230293147819461D462D2C01D0B0
:100E90002B2C04D1521C2D2C13D000240294AA46D2
:100EA0001478FF2C0FD00A25A3FB057801FB0581E0
:100EB0004FF0000C03FB0C11521CE3194AEB01012B
:100EC000EEE70124EAE7814453EA010002D019F574
:100ED000C87F06DA03980021C0E9001107B0BDE819
:100EE000F08F0025AE4E2F46DFF8B8821846FFF788
:100EF000C7FCCDE90001B9F1000002DAC9F1000434
:100F000000E004460023A74A1AEB030B42EB045A05
:100F100012E0E00707D02A46334638464146FFF73D
:100F2000BCFB074688462A46334610461946FFF75B
:100F3000B4FB05460E466410002CEAD1DDE9000141
:100F4000B9F1000F5A46534606DAFFF718FC3A4645
:100F50004346FFF714FC05E0FFF79FFB3A46434684
:100F6000FFF79BFB029A0AB181F00041039AC2E9A4
:100F70000001B3E72DE9FF4F1F468DB0D7E90146C9
:100F80004FF0FF382E2045464FF000090B90B9690D
:100F90006D1C0E988847396A824688470028F6D12A
:100FA000BAF1FF3F0AD024F4D064002E11DDBAF16B
:100FB0002B0F08D0BAF12D0F0BD102E0404611B033
:100FC0008DE744F48064B9696D1C0E9888478246A9
:100FD000761E6946600501D52D2000E02B208DF896
:100FE000000001F1010B0DF1200809E0B9696D1C49
:100FF0000E98884782460F9844F40074761E056068
:10100000002E02DDBAF1300FF0D00B998A453ED1A7
:1010100044F0800406E00F99681CA9F1010944F42A
:1010200000740860B9696D1C761E0E988847824668
:101030003028F0D02BE00B998A4505D1200603D447
:1010400044F08004761E18E050460AF031FA08B3E6
:101050000DF11301761E44F400748B4508D2AAF1F9
:1010600030000BF8010B200607D5A9F1010003E0C1
:10107000200602D409F101008146A00502D50F998E
:10108000681C0860B9696D1C0E9888478246002E5E
:10109000D1DC53E0002E51DDBAF1650F02D0BAF178
:1010A000450F4BD1A00549D5B9696D1C24F4407496
:1010B000761E0E9888478246002E0CDD2B2804D021
:1010C000BAF12D0F07D144F48074B9696D1C0E98E4
:1010D00088478246761EE00501D52D2100E02B21B0
:1010E00008F8011BCDF82C8021E00DF12901761EB6
:1010F00044F4007488450CD2AAF1300010F0FF00CF
:1011000088F8000002D10B99884509D908F1010837
:1011100006E0E00501D5244801E042F20F70814667
:10112000B9696D1C0E98884782460F980560002E9D
:1011300004DD50460AF0BCF90028D6D1F9690E98B2
:101140008847FF208BF8000088F8000000200690F8
:1011500007904B466A4608A906A8FFF777FEA00548
:1011600002D46FF001002AE714F0240F0AD0E00740
:1011700014D1DDE906123868031D3B600068C0E940
:1011800000120BE0DDE9060100F091F80146E007EE
:1011900004D13868021D3A600068016028460EE7F5
:1011A000000014400000F03FF1D8FFFF426842B158
:1011B000016811F8013B23B1521EC0E90012184624
:1011C00070470121C160881E704742685AB1C368E8
:1011D000016843B983688B4205D0491E521CC0E99F
:1011E0000012002070474FF0FF3070472DE9F74F95
:1011F0004FF00009009C1546CA4614F8010B302830
:1012000001D0ADB115E014F8010B4FF001097828B9
:1012100003D0582801D04DB10BE00DB1102D08D1ED
:101220004FF00009102514F8010B02E0082500E03A
:101230000A2500273E46B8464FEAE57B16E0A5FBA7
:1012400007230BFB073105FB080005FB0616030C03
:10125000D71846F100061FFA80F8381E4FF0010932
:1012600076F5803000D3CA4614F8010B2946FFF703
:10127000DFFD0028E3DA019838B1B9F1000F01D0A1
:10128000641E00E0009C01980460BAF1000F08D0D1
:1012900009F0CCFF02210160C81E014603B0BDE881
:1012A000F08F310441EA174148EA0740F6E701F0C0
:1012B000004330B421F0004150EA010206D00A0D8B
:1012C000A2F56072C1F31301002A02DC30BC0020D9
:1012D0007047440F44EAC104C100E01830BC00EB81
:1012E000C250FFF7D0BC0020704770B58C1810F8C2
:1012F000015B15F0070301D110F8013B2A1106D15B
:1013000010F8012B03E010F8016B01F8016B5B1E74
:10131000F9D12B0705D40023521E0DD401F8013B4F
:10132000FAE710F8013BCB1A921C03E013F8015BBB
:1013300001F8015B521EF9D5A142D8D3002070BD3F
:1013400008B54FF4E060ADF8000010208DF8030000
:1013500002208DF802006946014802F0A7FF08BD8F
:10136000000801402DE9F14181B02B4D4FF4806719
:101370003946284603F023F8AE153146284603F0D7
:1013800020F800BF00BF00BF00BF3946284603F069
:1013900018F800BF3146284603F013F800BF00BF1D
:1013A0003946284603F00BF8002100914FF40078ED
:1013B0004FF6FF7421E0BDF80400000404D5414657
:1013C000284602F0FEFF03E04146284602F0F7FF00
:1013D0003146284602F0F3FF00BF00BF31462846E1
:1013E00002F0EFFF00BF00BFBDF8040004EA4000B8
:1013F00001909DF80020521C00929DF800001028DA
:10140000D9D33946284602F0DCFF31462846BDE8EC
:10141000FC4102F0D6BF00000008014008B54FF4BF
:101420007A70009003E0BDF80000401E0090BDF807
:1014300000000028F7D108BD30B587B00121082091
:1014400003F048FB01218C03204603F035FB6110BB
:10145000ADF8041003218DF8061018218DF807103F
:10146000244D01A9284602F021FFADF8044001A94E
:10147000284602F01BFF6000ADF8040001A92846D1
:1014800002F014FFA410ADF8044010208DF80700FE
:1014900001A9284602F00AFF2146284602F091FFE2
:1014A000FFF7BCFF2146284602F089FF0020ADF877
:1014B00008004FF48271ADF80A106110ADF80C10FD
:1014C000ADF80E00ADF810008910ADF812103821FB
:1014D000ADF81410ADF816000720ADF81800064C52
:1014E00002A9204604F003FE0121204604F0E8FD95
:1014F00007B030BD000C0140003800402DE9FF412D
:1015000000260396534C544D04F1100704F1D808FB
:1015100014E09DF80C10012004F0A2FD9DF80C10C1
:1015200024F81100E088697827F81100A088A978CC
:1015300028F811009DF80C00401C03909DF80C0049
:101540000828E6D3E088A988884201D9E088A880E5
:101550006878401C6870A878401CA8703F48406BB1
:101560003F4A052807D069783E48312938D96E703E
:101570000096029626E068780A284CD96E7000968C
:1015800002960AE09DF8080037F810000099084418
:1015900000909DF80800401C02909DF808000A2861
:1015A000F0D300980A21B0FBF1F0108033E09DF8F1
:1015B000081037F81110009B194400919DF808108D
:1015C000491C02919DF808103229F0D3009932236A
:1015D000B1FBF3F12B7820F813102978491C2970FE
:1015E0002978022917D92E70009602960AE09DF8F4
:1015F000081030F81110009B194400919DF8081054
:10160000491C02919DF808100329F0D3009803218A
:10161000B0FBF1F01080A878632818D9AE7000965E
:1016200001960AE09DF8040038F81000009908447B
:1016300000909DF80400401C01909DF8040064286F
:10164000F0D300986421B0FBF1F007490880BDE8B1
:10165000FF810000180B002054020020F406002037
:10166000B6010020B80C0020B801002011B581B0EF
:101670000C4C0221204604F02FFD0028F9D0BDF8C3
:101680000410204604F031FD0121204604F024FD21
:101690000028F9D0204604F026FD0090BDF8000097
:1016A0001CBD0000003800402DE9F04192B0444ECE
:1016B000304600F005F90121480203F00BFA012140
:1016C000084603F0EBF90125ADF8045000248DF82D
:1016D0000740DFF8F08001A9404602F0E7FD02274D
:1016E000ADF804708DF8074001A9404602F0DEFD18
:1016F0004FEA7838404600F005FD31484C30029002
:10170000314803900494642005900694802007904B
:10171000400008908000099020200A9000020B9061
:101720000C9402A9404600F073FD0121404600F0F0
:10173000DBFC01220221404600F060FD00F0A2FC2B
:101740000121304600F0B0F80D948DF838508DF836
:1017500039504FF460200F9010948DF844700DA90B
:10176000304600F0EDF84FF4404003F08DF90523CA
:1017700001220021304600F007F905230222012151
:10178000304600F001F90121304600F081F8304682
:1017900000F034F9304600F042F93446204600F0BB
:1017A000C8F80028FAD1204600F0BCF80028FAD189
:1017B0000121204600F027F912B0BDE8F0810000B9
:1017C0000024014000080140F4020020FEB500257D
:1017D00001952D4A2D4902F1C80302F5967414E0D3
:1017E0009DF80400C00719D09DF80400C00708D078
:1017F0009DF8040032F810704878461C4E7024F8AA
:1018000010709DF80400401C01909DF804006428AD
:10181000E6D30D704D700095029514E09DF804001C
:1018200032F810700878461C0E7023F81070E8E744
:101830009DF8080033F81000009A104400909DF8BD
:101840000800401C02909DF808003228F0D3009850
:101850003223B0FBF3F04880009502950AE09DF832
:10186000080034F81000009A104400909DF8080019
:10187000401C02909DF808003228F0D30098B0FB7D
:10188000F3F08880FEBD0000F4020020B0010020CB
:10189000002904D0816841F00101816070478168AE
:1018A00021F0010181607047002904D0816841F472
:1018B000807181607047816821F480718160704718
:1018C00010B5154988420AD144150121204603F07C
:1018D0000FF92046BDE81040002103F009B90F4977
:1018E00088420AD104150121204603F001F920465F
:1018F000BDE81040002103F0FBB8094988420AD135
:101900000121CC03204603F0F3F82046BDE8104047
:10191000002103F0EDB810BD002401400028014073
:10192000003C0140014600208968490700D501209C
:101930007047014600208968090700D501207047DB
:1019400010B542680E4B1A400C790B6842EA04222B
:101950001343436082680B4B1A40D1E9024323438F
:101960004C7942EA440213438360C26A22F4700253
:10197000097C491EC9B242EA0151C16210BD000092
:10198000FFFEF0FFFDF7F1FF70B5072609290AD920
:10199000C568A1F10A0404EB4404A640B543A34082
:1019A0001D43C56007E0056901EB4104A640B5434E
:1019B000A3401D4305611F23072A09D2446B521E11
:1019C00002EB820293409C4391400C43446370BD00
:1019D0000D2A09D2046BD21F02EB820293409C4372
:1019E00091400C43046370BDC46A0D3A02EB82025D
:1019F00093409C4391400C43C46270BD816841F0A8
:101A0000080181607047002904D0816841F4A00179
:101A100081607047816821F4A0018160704781680E
:101A200041F00401816070472DE9F84FDFF898B26A
:101A3000DFF898A2DFF898824FF001090026ABF199
:101A40001407D8F8B4001BF800005AF82000FEF77D
:101A50000AFFA04AA04BFEF720FE04460D46D8F828
:101A60000C00FEF700FF22462B46FEF76DFF23D247
:101A7000C7F80C90D8F80C00D8F8B4101BF8011077
:101A80005AF82110884209D9BE80C8F83060202158
:101A9000924802F096FCC8F82C900FE03869904903
:101AA00088420BD9BE80C8F8306020218B4802F0F4
:101AB00088FCC8F82C9001E0FE603E61D8F8382020
:101AC0000A214FF4FA601AB9D8F83C20012A06D04E
:101AD000D8F838304FF47A72012B24D026E0D8F8A9
:101AE0000420B2FBF1F10091D8F80010009A5143A4
:101AF00000917C4A0099B1FBF2F10091D8F868108E
:101B0000009A91420ED2B988491CB980B9888142A5
:101B100008D9BE80C8F830602021704802F051FC1E
:101B2000C8F82C907BE0D8F83C301BB1D8F838309E
:101B30001BB325E0D8F804300093D8F80030B3FB8D
:101B4000F1F1009B594300910099B1FBF2F1009132
:101B5000D8F8682000998A4261D2F988491CF98036
:101B6000F98881425BD9FE80C8F8306020215B484B
:101B700002F027FCC8F82C9051E0D8F83C3023B193
:101B8000D8F83810012926D049E0D8F80430B3FB42
:101B9000F1F30093D8F80030B3FBF1F1009B594307
:101BA00000910099B1FBF2F10091D8F86810009A09
:101BB000914234D23989491C3981398981422ED9DF
:101BC0003E81C8F830604FF40041444802F0F9FB10
:101BD000C8F82C9023E0D8F83C1001291FD1D8F880
:101BE00004100091D8F80010009B5943009100990F
:101BF000B1FBF2F10091D8F86810009A91420ED230
:101C00007989491C79817989814208D97E81C8F80E
:101C100030602021314802F0D4FBC8F82C902F4CC2
:101C20008021204602F0C4FBDFF8BC90A51580B1EE
:101C3000C8F82C602946484602F0C1FBD8F80000DD
:101C4000D8F86C10884222D9D8F83C0001280ED070
:101C50001DE0C8F830602021204602F0B2FB0220CF
:101C6000C8F82C002946484602F0ABFBE6E7388866
:101C7000401C38803888052809D93E80C8F8306073
:101C80002021204602F09DFB0320C8F82C00D8F844
:101C90000400D8F87010884213D9D8F83800012809
:101CA0000FD17888401C78807888052809D97E80F3
:101CB000C8F830602021204602F083FB0420C8F8D9
:101CC0002C00BDE8F88F00002C02002054010020F9
:101CD000F4060020CDCCCCCCCCCCEC3F00080140AD
:101CE00040548900A0860100000C014002460020FB
:101CF00004E01378002B03D0401C521C8842F8D318
:101D00007047000070B5324D286B012820D1686BF8
:101D1000304C01281DD0686BC1B2A86BC0B200F076
:101D20005BF806466868FEF799FD3146FEF724FE2B
:101D30003DD26868FEF792FD3146FEF791FB3146D1
:101D4000FEF7C6FBA04203DC3046FEF7A5FD686047
:101D500070BD686BC1B2E86BC0B200F03DF80646DA
:101D60002868FEF77BFD3146FEF706FE0FD2286895
:101D7000FEF774FD3146FEF773FB3146FEF7A8FB14
:101D8000A042E5DC3046FEF787FD286070BD28687C
:101D9000FEF764FD3146FEF766FB3146FEF798FB21
:101DA000A042F3DC3046FEF777FD286070BD68681E
:101DB000FEF754FD3146FEF756FB3146FEF788FB31
:101DC000A042F3DC3046FEF767FD686070BD00009E
:101DD000F40600200AD7A33B70B50446124B06292F
:101DE00003F1DC0217D2DFE801F003070B0F161333
:101DF000186DFEF733FD0EE0D86CFEF72FFD0AE0FC
:101E00009068FEF72BFD06E0D068FEF727FD02E0A4
:101E10009068FEF723FD002C04D0BDE87040034914
:101E2000FEF756BB70BD0000F40600200000204104
:101E3000FEE7000010B504460648006DFEF70EFDF3
:101E40000549FEF745FB0146204604F06DF80120E8
:101E500010BD0000F406002000401C4638B50446C2
:101E600000226946204603F09BFC70B108490098A7
:101E7000FEF7FCFAFEF710FD064908650222064946
:101E8000204603F0A5FF012038BD4FF0FF3038BDDC
:101E900000401C46F4060020FCDA010810B5044698
:101EA0000648806DFEF7DAFC0549FEF711FB014696
:101EB000204604F039F8012010BD0000F40600208F
:101EC00000007A4410B504460648006FFEF7C6FCD1
:101ED0000549FEF7FDFA0146204604F025F80120E9
:101EE00010BD0000F406002000007A4438B5044616
:101EF00000226946204603F053FC70B1084900985F
:101F0000FEF7B4FAFEF7C8FC064908670222064944
:101F1000204603F05DFF012038BD4FF0FF3038BD93
:101F200000007A44F4060020FCDA010838B50446C3
:101F300000226946204603F033FC70B1084900983E
:101F4000FEF794FAFEF7A8FC0649886502220649C6
:101F5000204603F03DFF012038BD4FF0FF3038BD73
:101F600000007A44F4060020FCDA010810B50446AB
:101F70000648406DFEF772FC0549FEF7A9FA0146D6
:101F8000204603F0D1FF012010BD0000F406002020
:101F900000007A4438B5044600226946204603F022
:101FA000FFFB70B108490098FEF760FAFEF774FC79
:101FB0000649486502220649204603F009FF012030
:101FC00038BD4FF0FF3038BD00007A44F4060020E1
:101FD000FCDA010810B504460D48C16B00290BD08E
:101FE0004068FEF73BFC0B49FEF772FA01462046BB
:101FF00003F09AFF012010BD4068FEF72FFC064950
:10200000FEF766FA0146204603F08EFFF2E7000075
:10201000F406002000007A4400401C4610B5044637
:102020000648C06CFEF71AFC0549FEF751FA014656
:10203000204603F079FF012010BD0000F4060020C7
:1020400000401C4638B5044600226946204603F08D
:10205000A7FB70B108490098FEF708FAFEF71CFCD0
:102060000649C86402220649204603F0B1FE012059
:1020700038BD4FF0FF3038BD00401C46F40600204C
:10208000FCDA010808B50B208DF8000003208DF85C
:1020900001008DF8020001208DF80300684602F06F
:1020A000A9FB08BD0348016841F00101016002205D
:1020B00000F00EB88001002010B5202000F008F8D4
:1020C0000248016841F08001016010BD88010020D4
:1020D000C10002D502490860704702494860704754
:1020E0000404024000000240002904D0016841F0CD
:1020F00001010160704701684FF6FE7211400160F6
:102100007047000001684FF6FE7211400160002127
:10211000016041608160C1603649364A08399042A9
:1021200004D1486840F00F0048607047314A1432CB
:10213000904204D1486840F0F000486070472D4A52
:102140002832904204D1486840F47060486070477B
:10215000284A3C32904204D1486840F470404860BC
:102160007047244A5032904204D1486840F47020AD
:10217000486070471F4A6432904204D1486840F476
:102180007000486070471B4A7832904204D148681A
:1021900040F0706048607047174A111F904204D1A8
:1021A000086840F00F0008607047134A14329042EC
:1021B00004D1086840F0F000086070470E4A2832E9
:1021C000904204D1086840F47060086070470A4A81
:1021D0003C32904204D1086840F470400860704777
:1021E000054A50329042FAD1086840F470200860E5
:1021F000704700000800024008040240002A03D093
:1022000002680A430260704702688A4302607047AE
:1022100030B5026847F6F0739A430C6A8B68234323
:10222000D1E904452C4323438C692343CC692343E0
:102230004C6A23438C6A234313430360CA68426099
:102240000A6882604968C16030BD1FB5044601223A
:1022500002A9204603F072FA38B1002269462046EE
:1022600003F06CFA012004B010BD4FF0FF30FAE724
:1022700030B593B0054600230CAA1049284603F058
:10228000D3FA002306AA0D49284603F0CDFA0F24FD
:1022900002AB0CAA09492846009403F043F902ABAB
:1022A00006AA06492846009403F03CF9002213468A
:1022B000284603F0A1FD13B0012030BDA0E10108C4
:1022C00010B504460648D0F89C00FEF7C7FA054949
:1022D000FEF7FEF80146204603F026FE012010BD61
:1022E000F40600200000204138B50446002269466B
:1022F000204603F055FA78B109490098FEF7B6F880
:10230000FEF7CAFA0749C1F89C0002220649204696
:1023100003F05EFD012038BD4FF0FF3038BD0000F6
:1023200000002041F4060020FCDA010810B5044644
:102330000648D0F89400FEF791FA0549FEF7C8F870
:102340000146204603F0F0FD012010BDF4060020F8
:1023500000401C4638B5044600226946204603F07A
:102360001FFA78B109490098FEF780F8FEF794FA51
:102370000749C1F8940002220649204603F028FDCF
:10238000012038BD4FF0FF3038BD000000401C4632
:10239000F4060020FCDA010810B504460648D0F81F
:1023A000A000FEF75BFA0549FEF792F801462046C9
:1023B00003F0BAFD012010BDF4060020000020410A
:1023C00038B5044600226946204603F0E9F978B1A1
:1023D00009490098FEF74AF8FEF75EFA0749C1F886
:1023E000A00002220649204603F0F2FC012038BD7D
:1023F0004FF0FF3038BD000000002041F4060020FF
:10240000FCDA010810B504460648D0F89800FEF73B
:1024100025FA0549FEF75CF80146204603F084FDE5
:10242000012010BDF406002000401C4638B50446CB
:1024300000226946204603F0B3F978B109490098B3
:10244000FEF714F8FEF728FA0749C1F898000222AF
:102450000649204603F0BCFC012038BD4FF0FF3098
:1024600038BD000000401C46F4060020FCDA0108DC
:1024700038B504460649D1F8AC106A46054802F062
:10248000B9FC04222046009903F0A2FC012038BDCB
:10249000F4060020BC02002038B5044601236A4639
:1024A0000949204603F0E4F850B108490098C1F802
:1024B000AC0002220649204603F08AFC012038BD08
:1024C0004FF0FF3038BD0000BC020020F4060020B1
:1024D000FCDA010810B504460648D0F8A800FEF75B
:1024E000BDF90549FDF7F4FF0146204603F01CFD48
:1024F000012010BDF406002000401C4638B50446FB
:1025000000226946204603F04BF978B1094900984A
:10251000FDF7ACFFFEF7C0F90749C1F8A800022299
:102520000649204603F054FC012038BD4FF0FF302F
:1025300038BD000000401C46F4060020FCDA01080B
:1025400010B504460648D0F8A400FEF787F90549FF
:10255000FDF7BEFF0146204603F0E6FC012010BD5A
:10256000F406002000401C4610B504460648D0F88A
:10257000A400FEF773F90549FDF7AAFF01462046BE
:1025800003F0D2FC012010BDF406002000401C46E0
:1025900038B5044600226946204603F001F978B1B7
:1025A00009490098FDF762FFFEF776F90749C1F87F
:1025B000A40002220649204603F00AFC012038BD8F
:1025C0004FF0FF3038BD000000401C46F4060020EC
:1025D000FCDA010838B5044600226946204603F0BB
:1025E000DFF878B109490098FDF740FFFEF754F98C
:1025F00007490860486002220649204603F0E8FBCC
:10260000012038BD4FF0FF3038BD000000401C46AF
:1026100098070020FCDA01087047000031B509F086
:1026200077FDA02009F038FD09F0A8FD70B99DF8EC
:10263000000009F031FD09F0A1FD38B909F068FD8D
:10264000A12009F029FD09F099FD18B109F080FDDC
:10265000002038BD09F0F0FC034C207009F0D0FCDC
:1026600009F076FD207838BDC00100202DE9F04149
:102670000120FFF7D3FFFE4C20600120FFF7CEFFC3
:1026800020602068000220600220FFF7C7FF216859
:10269000084420602068000220600320FFF7BEFF8E
:1026A0002168084420602068000220600420FFF7B1
:1026B000B5FF2168084420600520FFF7AFFF606088
:1026C0006068000260600620FFF7A8FF61680844A8
:1026D00060606068000260600720FFF79FFF61682C
:1026E000084460606068000260600820FFF796FFA1
:1026F0006168084460600920FFF790FFE060E068CF
:102700000002E0600A20FFF789FFE1680844E0600A
:10271000E0680002E0600B20FFF780FFE1680844FA
:10272000E060E0680002E0600C20FFF777FFE168FE
:102730000844E0600D20FFF771FF2061206900026E
:1027400020610E20FFF76AFF21690844206120699B
:10275000000220610F20FFF761FF2169084420611A
:102760002069000220611020FFF758FF216908440A
:1027700020611120FFF752FFBE4D2860286800023B
:1027800028601220FFF74AFF29680844286028685B
:10279000000228601320FFF741FF296808442860E1
:1027A0002868000228601420FFF738FF29680844D1
:1027B00028601520FFF732FF6860686800026860D3
:1027C0001620FFF72BFF69680844686068680002FC
:1027D00068601720FFF722FF69680844686068682E
:1027E000000268601820FFF719FF696808446860F4
:1027F0001920FFF713FFE860E8680002E8601A207C
:10280000FFF70CFFE9680844E860E8680002E86048
:102810001B20FFF703FFE9680844E860E86800024E
:10282000E8601C20FFF7FAFEE9680844E8601D2014
:10283000FFF7F4FE28612869000228611E20FFF7D7
:10284000EDFE2969084428612869000228611F20DB
:10285000FFF7E4FE2969084428612869000228611D
:102860002020FFF7DBFE2969084428612120FFF7BB
:10287000D5FE814E30702220FFF7D0FEA061A06906
:102880000002A0612320FFF7C9FEA1690844A061EE
:10289000A0690002A0612420FFF7C0FEA1690844DE
:1028A000A061A0690002A0612520FFF7B7FEA16921
:1028B0000844A0612620FFF7B1FEE061E069000254
:1028C000E0612720FFF7AAFEE1690844E061E069C2
:1028D0000002E0612820FFF7A1FEE1690844E06101
:1028E000E0690002E0612920FFF798FEE1690844F1
:1028F000E0612A20FFF792FE6062606A0002606277
:102900002B20FFF78BFE616A08446062606A000258
:1029100060622C20FFF782FE616A08446062606A90
:10292000000260622D20FFF779FE616A0844606250
:102930002E20FFF773FEA062A06A0002A0622F2083
:10294000FFF76CFEA16A0844A062A06A0002A062C0
:102950003020FFF763FEA16A0844A062A06A00026B
:10296000A0623120FFF75AFEA16A0844A06232201B
:10297000FFF754FEA861A8690002A8613320FFF7A1
:102980004DFEA9690844A861A8690002A861342025
:10299000FFF744FEA9690844A861A8690002A8617C
:1029A0003520FFF73BFEA9690844A8613620FFF7F0
:1029B00035FEE861E8690002E8613720FFF72EFE86
:1029C000E9690844E861E8690002E8613820FFF736
:1029D00025FEE9690844E861E8690002E8613920F8
:1029E000FFF71CFEE9690844E8613A20FFF716FE8C
:1029F0006862686A000268623B20FFF70FFE696A3E
:102A000008446862686A000268623C20FFF706FEBC
:102A1000696A08446862686A000268623D20FFF7DC
:102A2000FDFD696A084468623E20FFF7F7FDA86271
:102A3000A86A0002A8623F20FFF7F0FDA96A0844D7
:102A4000A862A86A0002A8624020FFF7E7FDA96A11
:102A50000844A862A86A0002A8624120FFF7DEFDD0
:102A6000A96A0844A8624220FFF7D8FD707005E00B
:102A70007C06002014060020E40600204320FFF717
:102A8000CDFDB0704420FFF7C9FDF0704520FFF781
:102A9000C5FDA060A0680002A0604620FFF7BEFD53
:102AA000A1680844A060A0680002A0604720FFF76A
:102AB000B5FDA1680844A060A0680002A06048209D
:102AC000FFF7ACFDA1680844A0604920FFF7A6FD10
:102AD00060616069000260614A20FFF79FFD6169E3
:102AE000084460616069000260614B20FFF796FD59
:102AF0006169084460616069000260614C20FFF711
:102B00008DFD6169084460614D20FFF787FDA86075
:102B1000A8680002A8604E20FFF780FDA96808445D
:102B2000A860A8680002A8604F20FFF777FDA96899
:102B30000844A860A8680002A8605020FFF76EFD56
:102B4000A9680844A8605120FFF768FD68616869BA
:102B5000000268615220FFF761FD696908446861FD
:102B60006869000268615320FFF758FD69690844ED
:102B700068616869000268615420FFF74FFD696968
:102B8000084468615520FFF749FD2062206A000271
:102B900020625620FFF742FD216A08442062206A25
:102BA000000220625720FFF739FD216A08442062A5
:102BB000206A000220625820FFF730FD216A084495
:102BC00020625920FFF72AFDE062E06A0002E0621D
:102BD0005A20FFF723FDE16A0844E062E06A000240
:102BE000E0625B20FFF71AFDE16A0844E062E06AF8
:102BF0000002E0625C20FFF711FDE16A0844E06238
:102C00005D20FFF70BFD2862286A000228625E2023
:102C1000FFF704FD296A08442862286A0002286236
:102C20005F20FFF7FBFC296A08442862286A00023B
:102C300028626020FFF7F2FC296A084428626120BC
:102C4000FFF7ECFCE862E86A0002E8626220FFF746
:102C5000E5FCE96A0844E862E86A0002E862632089
:102C6000FFF7DCFCE96A0844E862E86A0002E8620F
:102C70006420FFF7D3FCE96A0844E8626520FFF7A7
:102C8000CDFC30716620FFF7C9FC70717320FFF72F
:102C9000C5FCFE4F3864386C000238647420FFF7BE
:102CA000BDFC396C08443864386C00023864752007
:102CB000FFF7B4FC396C08443864386C000238649F
:102CC0007620FFF7ABFC396C084438646720FFF7C7
:102CD000A5FC2863286B000228636820FFF79EFC90
:102CE000296B08442863286B000228636920FFF7DA
:102CF00095FC296B08442863286B000228636A202E
:102D0000FFF78CFC296B084428636B20FFF786FCD7
:102D10006863686B000268636C20FFF77FFC696B77
:102D200008446863686B000268636D20FFF776FCF7
:102D3000696B08446863686B000268636E20FFF784
:102D40006DFC696B084468636F20FFF767FCA8633C
:102D5000A86B0002A8637020FFF760FCA96B084411
:102D6000A863A86B0002A8637120FFF757FCA96B4A
:102D70000844A863A86B0002A8637220FFF74EFC0A
:102D8000A96B0844A8637720FFF748FCE863E86B69
:102D90000002E8637820FFF741FCE96B0844E86330
:102DA000E86B0002E8637920FFF738FCE96B084420
:102DB000E863E86B0002E8637A20FFF72FFCE96B19
:102DC0000844E8637B20FFF729FC2864286C000294
:102DD00028647C20FFF722FC296C08442864286CB6
:102DE000000228647D20FFF719FC296C0844286440
:102DF000286C000228647E20FFF710FC296C084430
:102E000028647F20FFF70AFC6864686C000268642D
:102E10008020FFF703FC696C08446864686C00025A
:102E200068648120FFF7FAFB696C08446864686C89
:102E3000000268648220FFF7F1FB696C0844686453
:102E40008320FFF7EBFBA864A86C0002A864842031
:102E5000FFF7E4FBA96C0844A864A86C0002A8640E
:102E60008520FFF7DBFBA96C0844A864A86C00026E
:102E7000A8648620FFF7D2FBA96C0844A8648720C9
:102E8000FFF7CCFBE864E86C0002E8648820FFF7F9
:102E9000C5FBE96C0844E864E86C0002E86489203A
:102EA000FFF7BCFBE96C0844E864E86C0002E864E6
:102EB0008A20FFF7B3FBE96C0844E8648B20FFF736
:102EC000ADFB2063206B000220638C20FFF7A6FB84
:102ED000216B08442063206B000220638D20FFF7E4
:102EE0009DFB216B08442063206B000220638E2031
:102EF000FFF794FB216B084420638F20FFF78EFBC4
:102F00006063606B000260639020FFF787FB616B7A
:102F100008446063606B000260639120FFF77EFBF2
:102F2000616B08446063606B000260639220FFF78E
:102F300075FB616B084460639320FFF76FFBA06330
:102F4000A06B0002A0639420FFF768FBA16B08440C
:102F5000A063A06B0002A0639520FFF75FFBA16B4D
:102F60000844A063A06B0002A0639620FFF756FB05
:102F7000A16B0844A0639720FFF750FBE063E06B70
:102F80000002E0639820FFF749FBE16B0844E0632F
:102F9000E06B0002E0639920FFF740FBE16B08441F
:102FA000E063E06B0002E0639A20FFF737FBE16B20
:102FB0000844E0639B20FFF731FB2064206C000293
:102FC00020649C20FFF72AFB216C08442064206CBD
:102FD000000220649D20FFF721FB216C084420643F
:102FE000206C000220649E20FFF718FB216C08442F
:102FF00020649F20FFF712FB6064606C0002606435
:10300000A020FFF70BFB616C08446064606C000259
:103010006064A120FFF702FB616C08446064606C8F
:1030200000026064A220FFF7F9FA616C0844606452
:10303000A320FFF7F3FAA064A06C0002A064A42010
:10304000FFF7ECFAA16C0844A064A06C0002A06435
:10305000A520FFF7E3FAA16C0844A064A06C00026D
:10306000A064A620FFF7DAFAA16C0844A064A720A8
:10307000FFF7D4FAE064E06C0002E064A820FFF7F8
:10308000CDFAE16C0844E064E06C01E0F406002055
:103090000002E064A920FFF7C1FAE16C0844E06493
:1030A000E06C0002E064AA20FFF7B8FAE16C084483
:1030B000E064AF20FFF7B2FA2865286D00022865AA
:1030C000B020FFF7ABFA296D08442865286D00028F
:1030D0002865B120FFF7A2FA296D08442865286DFC
:1030E00000022865B220FFF799FA296D0844286587
:1030F000B320FFF793FAE865E86D0002E865B420B5
:10310000FFF78CFAE96D0844E865E86D0002E865B0
:10311000B520FFF783FAE96D0844E865E86D000221
:10312000E865B620FFF77AFAE96D0844E865B7204C
:10313000FFF774FA6865686D00026865B820FFF7EC
:103140006DFA696D08446865686D00026865B920AC
:10315000FFF764FA696D08446865686D0002686588
:10316000BA20FFF75BFA696D08446865BB20FFF77A
:1031700055FA2866286E00022866BC20FFF74EFA32
:10318000296E08442866286E00022866BD20FFF7D5
:1031900045FA296E08442866286E00022866BE207B
:1031A000FFF73CFA296E08442866BF20FFF736FA7D
:1031B000A865A86D0002A865C020FFF72FFAA96DC9
:1031C0000844A865A86D0002A865C120FFF726FA8B
:1031D000A96D0844A865A86D0002A865C220FFF784
:1031E0001DFAA96D0844A865C320FFF717FA6866A1
:1031F000686E00026866C420FFF710FA696E084422
:103200006866686E00026866C520FFF707FA696E97
:1032100008446866686E00026866C620FFF7FEF91B
:10322000696E08446866C720FFF7F8F92065206DCD
:1032300000022065C820FFF7F1F9216D08442065E0
:10324000206D00022065C920FFF7E8F9216D0844D0
:103250002065206D00022065CA20FFF7DFF9216D8F
:1032600008442065CB20FFF7D9F9E065E06D000246
:10327000E065CC20FFF7D2F9E16D0844E065E06D30
:103280000002E065CD20FFF7C9F9E16D0844E06573
:10329000E06D0002E065CE20FFF7C0F9E16D084463
:1032A000E065CF20FFF7BAF96065606D00026065E8
:1032B000D020FFF7B3F9616D08446065606D0002CE
:1032C0006065D120FFF7AAF9616D08446065606D03
:1032D00000026065D220FFF7A1F9616D08446065C6
:1032E000D320FFF79BF92066206E00022066D420D1
:1032F000FFF794F9216E08442066206E00022066D4
:10330000D520FFF78BF9216E08442066206E00025D
:103310002066D620FFF782F9216E08442066D72068
:10332000FFF77CF9A065A06D0002A065D820FFF72B
:1033300075F9A16D0844A065A06D0002A065D920B3
:10334000FFF76CF9A16D0844A065A06D0002A065AF
:10335000DA20FFF763F9A16D0844A065DB20FFF7D1
:103360005DF96066606E00026066DC20FFF756F96A
:10337000616E08446066606E00026066DD20FFF7E3
:103380004DF9616E08446066606E00026066DE2082
:10339000FFF744F9616E08446066AB20FFF73EF921
:1033A000B071AC20FFF73AF9F071AD20FFF736F9B4
:1033B0003072AE20FFF732F97072DF20FFF72EF97E
:1033C000B072E020FFF72AF9F072E120FFF726F94A
:1033D0003073EF20FFF722F9C7F8D000BDE8F08185
:1033E00003B583B0BDF80C00019008F0B1FE0020D9
:1033F00002900BE008F08CFEA02008F04DFE08F0D3
:10340000BDFE38B1BDF80800401C0290BDF80800B0
:103410006428EFD3BDF80800B0F57A7F10D0BDF86E
:103420000400C0B208F038FE08F0A8FE40B99DF8CC
:10343000100008F031FE08F0A1FE08B908F088FE7F
:1034400005B05DF804EB08F083BE000004490A688B
:1034500022F010020A600A6802430A607047000006
:1034600000200240034A116801F038010143116055
:103470007047000000200240F8B5FE4C2068000EA6
:1034800000909DF800100120FFF7AAFF2068000CB3
:1034900000909DF800100220FFF7A2FF2068000AAC
:1034A00000909DF800100320FFF79AFF2068C1B23A
:1034B0000420FFF795FF6068000E00909DF8001053
:1034C0000520FFF78DFF6068000C00909DF800104C
:1034D0000620FFF785FF6068000A00909DF8001045
:1034E0000720FFF77DFF6068C1B20820FFF778FF73
:1034F000E068000E00909DF800100920FFF770FFB3
:10350000E068000C00909DF800100A20FFF768FFAB
:10351000E068000A00909DF800100B20FFF760FFA4
:10352000E068C1B20C20FFF75BFF01F091F8206961
:10353000000E00909DF800100D20FFF751FF20694C
:10354000000C00909DF800100E20FFF749FF206945
:10355000000A00909DF800100F20FFF741FF20693E
:10356000C1B21020FFF73CFFC34D2868000E009049
:103570009DF800101120FFF733FF2868000C009021
:103580009DF800101220FFF72BFF2868000A00901A
:103590009DF800101320FFF723FF2868C1B2142004
:1035A000FFF71EFF6868000E00909DF800101520C0
:1035B000FFF716FF6868000C00909DF800101620B9
:1035C000FFF70EFF6868000A00909DF800101720B2
:1035D000FFF706FF6868C1B21820FFF701FFE8682F
:1035E000000E00909DF800101920FFF7F9FEE86822
:1035F000000C00909DF800101A20FFF7F1FEE8681B
:10360000000A00909DF800101B20FFF7E9FEE86813
:10361000C1B21C20FFF7E4FE2869000E00909DF85F
:1036200000101D20FFF7DCFE2869000C00909DF8BB
:1036300000101E20FFF7D4FE2869000A00909DF8B4
:1036400000101F20FFF7CCFE2869C1B22020FFF731
:10365000C7FE8A4E31782120FFF7C2FE00F0F8FF46
:10366000A069000E00909DF800102220FFF7B8FE20
:10367000A069000C00909DF800102320FFF7B0FE19
:10368000A069000A00909DF800102420FFF7A8FE12
:10369000A069C1B22520FFF7A3FEE069000E0090EB
:1036A0009DF800102620FFF79BFEE069000C0090BB
:1036B0009DF800102720FFF793FEE069000A0090B4
:1036C0009DF800102820FFF78BFEE069C1B2292089
:1036D000FFF786FE606A000E00909DF800102A2019
:1036E000FFF77EFE606A000C00909DF800102B2012
:1036F000FFF776FE606A000A00909DF800102C200B
:10370000FFF76EFE606AC1B22D20FFF769FE00F080
:103710009FFFA06A000E00909DF800102E20FFF77A
:103720005FFEA06A000C00909DF800102F20FFF7AC
:1037300057FEA06A000A00909DF800103020FFF7A5
:103740004FFEA06AC1B23120FFF74AFEA869000E01
:1037500000909DF800103220FFF742FEA869000C8F
:1037600000909DF800103320FFF73AFEA869000A88
:1037700000909DF800103420FFF732FEA869C1B216
:103780003520FFF72DFEE869000E00909DF800102F
:103790003620FFF725FEE869000C00909DF8001028
:1037A0003720FFF71DFEE869000A00909DF8001021
:1037B0003820FFF715FEE869C1B23920FFF710FE87
:1037C00000F046FF686A000E00909DF800103A2055
:1037D000FFF706FE686A000C00909DF800103B2081
:1037E000FFF7FEFD686A000A00909DF800103C207B
:1037F000FFF7F6FD686AC1B23D20FFF7F1FDA86A48
:10380000000E00909DF800103E20FFF7E9FDA86A29
:10381000000C00909DF800103F20FFF7E1FDA86A22
:10382000000A00909DF800104020FFF7D9FDA86A1B
:10383000C1B24120FFF7D4FD71784220FFF7D0FDDF
:1038400000F006FFB1784320FFF7CAFDF17844206D
:10385000FFF7C6FDA068000E00909DF800104520FF
:10386000FFF7BEFDA068000C00909DF800104620F8
:1038700006E000007C06002014060020E40600207C
:10388000FFF7AEFDA068000A00909DF800104720E9
:10389000FFF7A6FDA068C1B24820FFF7A1FD60694F
:1038A000000E00909DF800104920FFF799FD606917
:1038B000000C00909DF800104A20FFF791FD606910
:1038C000000A00909DF800104B20FFF789FD606909
:1038D000C1B24C20FFF784FDA868000E00909DF84F
:1038E00000104D20FFF77CFDA868000C00909DF8AB
:1038F00000104E20FFF774FDA868000A00909DF8A4
:1039000000104F20FFF76CFDA868C1B25020FFF7F0
:1039100067FD6869000E00909DF800105120FFF7C8
:103920005FFD6869000C00909DF800105220FFF7C1
:1039300057FD6869000A00909DF800105320FFF7BA
:103940004FFD6869C1B25420FFF74AFD00F080FEC8
:10395000206A000E00909DF800105520FFF740FDF2
:10396000206A000C00909DF800105620FFF738FDEB
:10397000206A000A00909DF800105720FFF730FDE4
:10398000206AC1B25820FFF72BFDE06A000E0090BC
:103990009DF800105920FFF723FDE06A000C00900D
:1039A0009DF800105A20FFF71BFDE06A000A009006
:1039B0009DF800105B20FFF713FDE06AC1B25C20A8
:1039C000FFF70EFD00F044FE286A000E00909DF8FF
:1039D00000105D20FFF704FD286A000C00909DF8A0
:1039E00000105E20FFF7FCFC286A000A00909DF89A
:1039F00000105F20FFF7F4FC286AC1B26020FFF7D7
:103A0000EFFCE86A000E00909DF800106120FFF7BF
:103A1000E7FCE86A000C00909DF800106220FFF7B8
:103A2000DFFCE86A000A00909DF800106320FFF7B1
:103A3000D7FCE86AC1B26420FFF7D2FC3179652077
:103A4000FFF7CEFC71796620FFF7CAFC00F000FE9C
:103A5000286B000E00909DF800106720FFF7C0FC57
:103A6000286B000C00909DF800106820FFF7B8FC50
:103A7000286B000A00909DF800106920FFF7B0FC49
:103A8000286BC1B26A20FFF7ABFC686B000E009098
:103A90009DF800106B20FFF7A3FC686B000C0090F2
:103AA0009DF800106C20FFF79BFC686B000A0090EB
:103AB0009DF800106D20FFF793FC286BC1B26E20BB
:103AC000FFF78EFC00F0C4FDA86B000E00909DF87F
:103AD00000106F20FFF784FCA86B000C00909DF88D
:103AE00000107020FFF77CFCA86B000A00909DF886
:103AF00000107120FFF774FCA86BC1B27220FFF7B1
:103B00006FFCE86B000E00909DF800107720FFF727
:103B100067FCE86B000C00909DF800107820FFF720
:103B20005FFCE86B000A00909DF800107920FFF719
:103B300057FCE86BC1B27A20FFF752FC00F088FD19
:103B4000286C000E00909DF800107B20FFF748FCC9
:103B5000286C000C00909DF800107C20FFF740FCC2
:103B6000286C000A00909DF800107D20FFF738FCBB
:103B7000286CC1B27E20FFF733FC686C000E009009
:103B80009DF800107F20FFF72BFC686C000C009064
:103B90009DF800108020FFF723FC686C000A00905D
:103BA0009DF800108120FFF71BFC686CC1B28220D9
:103BB000FFF716FC00F04CFDA86C000E00909DF87D
:103BC00000108320FFF70CFCA86C000C00909DF8FF
:103BD00000108420FFF704FCA86C000A00909DF8F8
:103BE00000108520FFF7FCFBA86CC1B28620FFF710
:103BF000F7FBE86C000E00909DF800108720FFF79F
:103C0000EFFBE86C000C00909DF800108820FFF797
:103C1000E7FBE86C000A00909DF800108920FFF790
:103C2000DFFBE86CC1B28A20FFF7DAFB00F010FD81
:103C3000206B000E00909DF800108B20FFF7D0FB4A
:103C4000206B000C00909DF800108C20FFF7C8FB43
:103C5000206B000A00909DF800108D20FFF7C0FB3C
:103C6000206BC1B28E20FFF7BBFB606B000E009093
:103C70009DF800108F20FFF7B3FB606B000C0090E5
:103C80009DF800109020FFF7ABFB606B000A0090DE
:103C90009DF800109120FFF7A3FB606BC1B292204A
:103CA000FFF79EFB00F0D4FCA06B000E00909DF887
:103CB00000109320FFF794FBA06B000C00909DF880
:103CC00000109420FFF78CFBA06B000A00909DF879
:103CD00000109520FFF784FBA06BC1B29620FFF780
:103CE0007FFBE06B000E00909DF800109720FFF71F
:103CF00077FBE06B000C00909DF800109820FFF718
:103D00006FFBE06B000A00909DF800109920FFF710
:103D100067FBE06BC1B29A20FFF762FB00F098FCF2
:103D2000206C000E00909DF800109B20FFF758FBC0
:103D3000206C000C00909DF800109C20FFF750FBB9
:103D4000206C000A00909DF800109D20FFF748FBB2
:103D5000206CC1B29E20FFF743FB606C000E009008
:103D60009DF800109F20FFF73BFB606C000C00905B
:103D70009DF80010A020FFF733FB606C000A009054
:103D80009DF80010A120FFF72BFB606CC1B2A220B0
:103D9000FFF726FB00F05CFCA06C000E00909DF885
:103DA0000010A320FFF71CFBA06C000C00909DF8F6
:103DB0000010A420FFF714FBA06C000A00909DF8EF
:103DC0000010A520FFF70CFBA06CC1B2A620FFF7E6
:103DD00007FBE06C000E00909DF80010A720FFF795
:103DE000FFFAE06C000C00909DF80010A820FFF78F
:103DF000F7FAE06C000A00909DF80010A920FFF788
:103E0000EFFAE06CC1B2AA20FFF7EAFA00F020FC5A
:103E1000286D000E00909DF80010AF20FFF7E0FA2B
:103E2000286D000C00909DF80010B020FFF7D8FA24
:103E3000286D000A00909DF80010B120FFF7D0FA1D
:103E4000286DC1B2B220FFF7CBFAE86D000E0090EA
:103E50009DF80010B320FFF7C3FAE86D000C009046
:103E60009DF80010B420FFF7BBFAE86D000A00903F
:103E70009DF80010B520FFF7B3FAE86DC1B2B62087
:103E8000FFF7AEFA00F0E4FB686D000E00909DF8BD
:103E90000010B720FFF7A4FA686D000C00909DF8A1
:103EA0000010B820FFF79CFA686D000A00909DF89A
:103EB0000010B920FFF794FA686DC1B2BA20FFF77D
:103EC0008FFA286E000E00909DF80010BB20FFF7BF
:103ED00087FA286E000C00909DF80010BC20FFF7B8
:103EE0007FFA286E000A00909DF80010BD20FFF7B1
:103EF00077FA286EC1B2BE20FFF772FA00F0A8FB75
:103F0000A86D000E00909DF80010BF20FFF768FA22
:103F1000A86D000C00909DF80010C020FFF760FA1B
:103F2000A86D000A00909DF80010C120FFF758FA14
:103F3000A86DC1B2C220FFF753FA686E000E009060
:103F40009DF80010C320FFF74BFA686E000C00903C
:103F50009DF80010C420FFF743FA686E000A009035
:103F60009DF80010C520FFF73BFA686EC1B2C6206D
:103F7000FFF736FA00F06CFB206D000E00909DF804
:103F80000010C720FFF72CFA206D000C00909DF860
:103F90000010C820FFF724FA206D000A00909DF859
:103FA0000010C920FFF71CFA206DC1B2CA20FFF72C
:103FB00017FAE06D000E00909DF80010CB20FFF77F
:103FC0000FFAE06D000C00909DF80010CC20FFF778
:103FD00007FAE06D000A00909DF80010CD20FFF771
:103FE000FFF9E06DC1B2CE20FFF7FAF900F030FB27
:103FF000606D000E00909DF80010CF20FFF7F0F9E3
:10400000606D000C00909DF80010D020FFF7E8F9DB
:10401000606D000A00909DF80010D120FFF7E0F9D4
:10402000606DC1B2D220FFF7DBF9206E000E009068
:104030009DF80010D320FFF7D3F9206E000C0090FC
:104040009DF80010D420FFF7CBF9206E000A0090F5
:104050009DF80010D520FFF7C3F9206EC1B2D6201D
:10406000FFF7BEF900F0F4FAA06D000E00909DF885
:104070000010D720FFF7B4F9A06D000C00909DF858
:104080000010D820FFF7ACF9A06D000A00909DF851
:104090000010D920FFF7A4F9A06DC1B2DA20FFF714
:1040A0009FF9606E000E00909DF80010DB20FFF776
:1040B00097F9606E000C00909DF80010DC20FFF76F
:1040C0008FF9606E000A00909DF80010DD20FFF768
:1040D00087F9606EC1B2DE20FFF782F900F0B8FA0E
:1040E000B179AB20FFF77CF9F179AC20FFF778F9D3
:1040F000317AAD20FFF774F9717AAE20FFF770F9CD
:10410000B17ADF20FFF76CF9F17AE020FFF768F968
:10411000317BE120FFF764F9BDE8F84000F098BA80
:1041200010B50121084600F0E3FC0021BDE8104075
:10413000012000F0DDBC0000F8B5214F384600F04A
:1041400049F8204E304600F045F81F4800F042F88C
:10415000FFF7E6FF01211C2000F0BCFC012108460E
:1041600000F0B8FC0121194800F0F4F801211848CA
:1041700000F0F0F84FF40760ADF8000010258DF85E
:10418000035003248DF802406946384600F08EF84B
:104190008021ADF8001048218DF80310694638469B
:1041A00000F084F840F20311ADF800108DF80350D0
:1041B0008DF802406946304600F078F8F8BD0000FE
:1041C00000080140000C01400010014000043000D4
:1041D0000002300010B52E49884209D10121042087
:1041E00000F086FC0021BDE81040042000F080BCF7
:1041F0002849884209D10121082000F079FC0021DA
:10420000BDE81040082000F073BC2349884209D162
:104210000121102000F06CFC0021BDE810401020AE
:1042200000F066BC1D49884209D10121202000F020
:104230005FFC0021BDE81040202000F059BC184967
:10424000884209D10121402000F052FC0021BDE844
:104250001040402000F04CBC1249884209D1012195
:10426000802000F045FC0021BDE81040802000F0D7
:104270003FBC0D4988420AD184150121204600F037
:1042800037FC2046BDE81040002100F031BC10BDD5
:1042900000080140000C01400010014000140140E2
:1042A00000180140001C0140002001402DE9F041B0
:1042B0000022CC7804F00F03E40601D58C78234368
:1042C0000C784FF00F0714F0FF0F4FF0010C1CD0CB
:1042D00005680CFA02F40E882640A64211D1960019
:1042E00007FA06F825EA080503FA06F848EA05057C
:1042F000CE78282E02D0482E02D002E0446100E0A1
:104300000461521C082AE4D305600A88FF2A1ED9DA
:104310004568002202F108060CFA06F40E882640D1
:10432000A64210D1960007FA06F825EA080503FA16
:1043300006F848EA0505CE78282E00D14461CE78EB
:10434000482E00D10461521C082AE3D34560BDE821
:10435000F0810000F0B5154C002801DAE36900E0B7
:104360006368C0F30346420D120185B2C0F30157E2
:104370009540032F07D0C2020CD50322B2409343CD
:1043800043F0706209E023F07062636823F07063A9
:10439000636002E0AB4343F0706201B12A4300283E
:1043A00001DAE261F0BD6260F0BD00000000014092
:1043B0000246002092680A4200D001207047416105
:1043C000704701617047FEE703B582B04FF6FF7199
:1043D00001919DF80C10002926D10121039123E0C1
:1043E0000178BDF8042051400191002100914AF26A
:1043F000010214E0BDF80410C90708D0BDF804108C
:1044000049080191BDF804105140019103E0BDF845
:104410000410490801919DF80010491C00919DF875
:1044200000100829E6D3401C9DF80C104A1E039288
:10443000D6D2BDF8040004B000BD000010B504469B
:104440000448006BFCF70AFA0146204601F06CFDB7
:10445000012010BDF406002038B50446002269464C
:10446000204601F010FB48B106490098086302227B
:104470000549204601F0ACFC012038BD4FF0FF306B
:1044800038BD0000F4060020FCDA010810B504462F
:104490000448806BFCF7E2F90146204601F044FD38
:1044A000012010BDF406002038B5044600226946FC
:1044B000204601F0E8FA48B10649009888630222D4
:1044C0000549204601F084FC012038BD4FF0FF3043
:1044D00038BD0000F4060020FCDA010810B50446DF
:1044E0000648D0F88000FCF7B9F90549FBF7F0FF62
:1044F0000146204601F018FD012010BDF406002001
:1045000000401C4638B5044600226946204601F0AA
:1045100047F978B109490098FBF7A8FFFCF7BCF907
:104520000749C1F8800002220649204601F050FCEC
:10453000012038BD4FF0FF3038BD000000401C4660
:10454000F4060020FCDA010810B504460648C06FE6
:10455000FCF784F90549FBF7BBFF0146204601F053
:10456000E3FC012010BD0000F406002000401C46C2
:1045700010B504460648C06FFCF770F90549FBF713
:10458000A7FF0146204601F0CFFC012010BD00002E
:10459000F406002000401C4638B504460022694657
:1045A000204601F0FDF870B108490098FBF75EFF66
:1045B000FCF772F90649C86702220649204601F055
:1045C00007FC012038BD4FF0FF3038BD00401C46CD
:1045D000F4060020FCDA010838B5044600226946DA
:1045E000204601F0DDF880B109490098FBF73EFF55
:1045F000FCF752F90749C867C1F880000222064952
:10460000204601F0E5FB012038BD4FF0FF3038BDFA
:1046100000401C46F4060020FCDA010802494CF672
:10462000CC400860704700000030004010B545F2F3
:10463000555000F021F8032000F012F8FF2000F0A0
:1046400015F800F005F8BDE81040FFF7E7BF0000DF
:1046500002494AF6AA200860704700000030004076
:1046600001494860704700000030004001498860FF
:1046700070470000003000400149086070470000AA
:10468000003000402DE9F047DFF8E090D9F838001D
:10469000DFF8DCA0012841D002215046FFF791FE4F
:1046A00034480078002837D1D9F83800002833D1B1
:1046B000D9F80400D9F8B4102F4C304D615C55F88E
:1046C000211001264FF47A77A4F11008884207D907
:1046D00002215046FFF773FEC9F83860A8F804704D
:1046E000D9F83400F8B1D9F83410254802292CD073
:1046F000D9F8341003290FD1C068D9F8B410615C1F
:1047000055F82110884207D902215046FFF757FE7D
:10471000C9F83860A8F80470BDE8F0870221504657
:10472000FFF74DFEBCE7D9F85000D9F8B410615C32
:1047300055F821108842EFD902215046FFF73FFE7D
:10474000C9F83860A8F80470E6E78068D9F8B410B2
:10475000615C55F821108842DED902215046FFF7EE
:104760002EFEC9F83860A8F80470D5E7F4060020DA
:10477000000C0140C6010020480200202C0100204E
:10478000D007002038B504460649496B6A460648FA
:1047900000F030FB04222046009901F019FB0120B3
:1047A00038BD0000F40600207C02002038B5044625
:1047B00001236A460849204600F05AFF48B10749DC
:1047C0000098486302220649204601F001FB0120BF
:1047D00038BD4FF0FF3038BD7C020020F4060020C9
:1047E000FCDA0108FEE710B5082101F0B5FB012055
:1047F00010BD704770B50F23C27801260178002ADA
:104800001ED0144A126802F4E062C2F5E062120A95
:10481000C2F10404D3404578A54082781A402A4367
:10482000120101F1E02181F80024007800F01F015D
:104830008E404009800000F1E020C0F8006170BDAA
:1048400001F01F0086404809800000F1E020C0F818
:10485000806170BD0CED00E0024908430249086028
:10486000704700000000FA050CED00E0024A11401C
:10487000014302480160704780FFFF1F08ED00E020
:1048800010B504460648C068FBF7E8FF0549FBF78A
:104890001FFE0146204601F047FB012010BD00002D
:1048A000F406002000007A4410B504460648806EE5
:1048B000FBF7D4FF0549FBF70BFE0146204601F04C
:1048C00033FB012010BD0000F406002000007A44F4
:1048D00038B5044600226946204600F061FF70B1F9
:1048E00008490098FBF7C2FDFBF7D6FF064988662A
:1048F00002220649204601F06BFA012038BD4FF034
:10490000FF3038BD00007A44F4060020FCDA0108CC
:1049100010B51446002C08D00878801F062837D21E
:10492000DFE800F008111A3623231A4900F0ADFB26
:10493000002010BD48681022214608F00BFD002819
:10494000F7D0012010BD48680822214608F002FD7A
:104950000028F7D0012010BD48680222214608F047
:10496000F9FC0028F7D0012010BD43B148680A22A5
:10497000214608F0D9FC0028F6D0012010BD486877
:104980000A22214608F0E6FC0028F7D0012010BDDD
:10499000002010BDCAFEFFFF10B51446002C08D041
:1049A0000878801F062837D2DFE800F008111A3691
:1049B00023231A4900F069FB002010BD486810222B
:1049C000214608F0D2FC0028F7D0012010BD48682D
:1049D0000822214608F0C9FC0028F7D0012010BDAC
:1049E00048680222214608F0C0FC0028F7D00120C8
:1049F00010BD43B148680A22214608F0A0FC0028F7
:104A0000F6D0012010BD48680A22214608F0ADFC0E
:104A10000028F7D0012010BD002010BDCAFEFFFF06
:104A2000FEB505460C461E46002C11D069462846A8
:104A300001F02CF800280AD00021684600F0E5FEBD
:104A400060B13346224669462846FFF761FFFEBD46
:104A50000C49284600F019FB0020FEBD01216846E4
:104A600000F0D3FE30B16FF08901284600F00DFB55
:104A70000020FEBD6FF06701284600F006FB002015
:104A8000FEBD0000CAFEFFFF034A516821F4404109
:104A9000014351607047000000100240054A0029A0
:104AA00003D051690143516170475169814351619C
:104AB0007047000000100240054A002903D0D16968
:104AC0000143D1617047D1698143D16170470000D2
:104AD00000100240054A002903D091690143916109
:104AE0007047916981439161704700000010024056
:104AF000054A002903D0D1680143D1607047D168CD
:104B00008143D160704700000010024010B500F0F2
:104B100033F84FF48034204600F0CEF800F016F958
:104B2000144908700878012822D1002000F0BAF852
:104B3000002000F0E7F8A01100F0DAF80220FEF7FC
:104B400091FC1020FEF782FC4FF4E011204600F0AB
:104B5000E9F8012000F0E0F8392000F083F800289F
:104B6000FAD0022000F0E8F800F094F80828FBD111
:104B700010BD0000C10100200C48016841F0010196
:104B8000016041680A4A114041600168094A1140C8
:104B90000160016821F480210160416821F4FE0177
:104BA00041604FF41F018160704700000010024017
:104BB0000000FFF8FFFFF6FE10B5264A516801F02D
:104BC0000C01254B002927D0042927D0082927D0FC
:104BD0000360516801F0F0010909204B5C5C016839
:104BE000E1404160546804F4E064240A1C5D21FA49
:104BF00004F48460546804F46054E40A1B5DD940F2
:104C0000C160526802F44042920B144B1B1F9A5C25
:104C1000B1FBF2F1016110BD0360DAE70360D8E790
:104C2000516801F47011536803F48033022404EBDB
:104C3000914133B153689B0307D5094B5943016038
:104C4000C7E7074B59430160C3E7034B5943016072
:104C5000BFE700000010024000127A0004000020AC
:104C600000093D00034600205909094A01290AD0DC
:104C700002290AD0516A03F01F02012393400B421C
:104C800000D0012070471168F5E7116AF3E70000D2
:104C9000001002400248406800F00C00704700001D
:104CA00000100240034A516821F0F00101435160B5
:104CB00070470000001002400C490A6822F480325C
:104CC0000A600A6822F480220A60B0F5803F07D0AB
:104CD000B0F5802F03D1086840F4A0200860704729
:104CE000086840F4803008607047000000100240FF
:104CF000034A516821F4E0610143516070470000AC
:104D000000100240034A516821F4605141EAC0009A
:104D1000506070470010024001490866704700006B
:104D200000004242034B5A6822F47C1208431043AD
:104D30005860704700100240034A516821F0030197
:104D400001435160704700000010024018B5002078
:104D500000904FF4A0643120FFF784FF0099491CB4
:104D600000910099A14201D00028F4D03120FFF732
:104D700079FF08B1012018BD002018BD10B5044608
:104D80000448806CFBF76AFD0146204601F0CCF830
:104D9000012010BDF406002038B504460022694603
:104DA000204600F070FE48B106490098886402224F
:104DB0000549204601F00CF8012038BD4FF0FF30C6
:104DC00038BD0000F4060020FCDA010810B50446E6
:104DD00006488068FBF742FD0549FBF779FB014671
:104DE000204601F0A1F8012010BD0000F4060020CB
:104DF00000007A4410B500230AE000EBC3046468A5
:104E00008C4204D150F833001060012010BD5B1CAF
:104E100050F83340002CF0D1002010BD1CB50C46DA
:104E2000CDE90023026A816A00692346006807F021
:104E300009FB1CBD10B50446204600F061FA20466F
:104E400000F0C7F800220421204600F0FCFE0022FA
:104E50000721204600F0F7FE012010BD38B50446BA
:104E600001226946204600F0CDFC38B100980321AC
:104E700082B2204600F0E7FE012038BD4FF0FF303F
:104E800038BD10B502460321104600F0D2FE01469F
:104E9000104601F061F8012010BD10B50446022152
:104EA000204600F0C6FE0146204601F055F80022DB
:104EB0000221204600F0C7FE012010BD70B5064655
:104EC000002406EB8405D5F8840040B1FBF7CDF94A
:104ED00002463046D5F8841000F07AFF04E0012243
:104EE00004A1304600F074FF641C042CE9DB0120AF
:104EF00070BD00003000000010B50122022100F05A
:104F000012FF012010BD10B5012101F025F801208C
:104F100010BD002804D0C16A11B1096901B1084768
:104F20000120704738B5044601226946204600F04A
:104F300069FC38B10098012182B2204600F083FE5E
:104F4000012038BD4FF0FF3038BD10B502460121B9
:104F5000104600F06EFE0146104600F0FDFF0120F5
:104F600010BD10B502460021104600F062FE014659
:104F7000104600F0F1FF012010BD01207047000035
:104F80001CB51446CDE9000104A21946204606F0DE
:104F900035F92046BDE81C40FBF767B9252E3135B1
:104FA0006C67000038B500913C306946044606F055
:104FB0000CFF08B1012038BD6946204606F067FFA6
:104FC0004FF6A26000906946204606F0FEFE0020E3
:104FD00038BD10B5044604F13C0006F018FF204629
:104FE000BDE8104000F01EB808B5002100916946E8
:104FF0003C3006F011FFBDF9000008BD70B5044655
:105000000D4604220021204600F08DFEE26A002AAF
:1050100007D01268002A04D029462046BDE8704017
:10502000104770BD10B504462046FFF7DDFF00288D
:1050300015D10021204600F0FCFD40070FD50422C9
:105040000021204600F0E6FDE06A002807D0026853
:10505000002A04D02046BDE810400021104710BDB2
:105060003C3006F0DDBE10B5044600290BD054B12B
:105070000020088004F13C0006F0EAFE2046FFF71D
:10508000D1FF012010BD002010BD00231A4600F002
:1050900001B800002DE9F04106460D461446984639
:1050A0004346224629463046FFF77CFF80F0010741
:1050B00034B1B8F1000F03D1FF212046FCF716FEF2
:1050C0000024DFF84C8004EB440038F91010A942AA
:1050D0000ADB08EB4000B0F90210A94204DC828828
:1050E0000221304600F01FFE641C092CEBDB294630
:1050F0003046FFF783FF1FB106493046FFF77EFFBA
:10510000002E02D0012086F83800BDE8F0810000B2
:1051100090DF0108A2FEFFFF10F1830F3ED018DCE4
:1051200010F1C80F42D00ADC00F580706B3045D01A
:105130000D2841D035283DD08B281FD138E010F103
:10514000AA0F31D010F1970F2CD010F18A0F15D182
:1051500026E010F1680F19D009DC10F1710F1BD097
:1051600010F16D0F16D010F16C0F07D110E010F197
:10517000670F09D010F1650F04D008B110A0704777
:1051800013A0704715A0704719A070471DA0704765
:1051900020A0704725A0704729A070472DA0704718
:1051A00030A0704734A0704738A070473CA07047CB
:1051B0003FA0704744A0704747A070474AA070477F
:1051C000556E6B6E6F776E206572726F72000000A5
:1051D0004E6F206572726F7200000000496E76613A
:1051E0006C696420636861726163746572000000B9
:1051F000496E76616C696420736570617261746F69
:1052000072000000446174612074797065206572D9
:10521000726F7200506172616D65746572206E6F9D
:105220007420616C6C6F7765640000004D69737366
:10523000696E6720706172616D657465720000004F
:10524000556E646566696E65642068656164657243
:1052500000000000496E76616C69642073756666B3
:1052600069780000537566666978206E6F742061F6
:105270006C6C6F7765640000496E76616C696420C0
:10528000737472696E67206461746100457870722E
:10529000657373696F6E206572726F720000000033
:1052A000457865637574696F6E206572726F720000
:1052B000496C6C6567616C20706172616D657465C5
:1052C000722076616C75650053797374656D206525
:1052D00072726F72000000005175657565206F76FF
:1052E0006572666C6F770000496E70757420627528
:1052F00066666572206F76657272756E00000000DA
:105300000022022100F09FBC2DE9FF4F89B08246A8
:10531000DDE91898179F164600240C98002815D030
:10532000A1B1B8F1000F11D0B9F1000F02D0169859
:1053300060B15FB1087810280ED06FF06701504659
:10534000FFF7A3FE01200DB0BDE8F08F29495046BC
:10535000FFF79BFE0120F6E74868401C0690069880
:1053600007908868801E0890402203A906A807F0CD
:105370004CFC6FF0A90B08B100251DE059465046C2
:10538000FFF783FE0120DEE701D1484600E0002060
:10539000CDE90108009706A95046169B0C9A06F025
:1053A00031FC0446200009D1B54204D003A906A867
:1053B00007F002FB28B16D1CB542E5DD012C08D0D9
:1053C0000BE006A807F02BFB08B10224F6E7012446
:1053D000F4E759465046FFF758FE022C08D106A8BC
:1053E00007F01DFB20B9012459465046FFF74DFE3A
:1053F0002046A8E7CAFEFFFF7CB50C461546FBF722
:1054000078FACDE9000105A22946204605F0F6FE0E
:105410002046BDE87C40FAF728BF00002567000061
:105420002DE9F05F0446DDE90CABDDE90A890D46A4
:1054300016461F4698212046FAF700FF2560E662CF
:10544000E765C4F88480C4F88890C4F88CA0C4F8D8
:1054500090B00E98E0600F9860600020A060DDE9D9
:1054600010122046BDE8F05FFFF7FABD2DE9F041CC
:105470000446174601260025D4E90202A846002F5B
:1054800010D063681B1A5B1E9F4216DDC4F80880AB
:1054900082F800806FF4B5712046FFF7F6FD00201A
:1054A000BDE8F08102F80080D4E90221204600F036
:1054B00047FB0646C4F8088031E010443A46FAF744
:1054C00096FEA0683844A060E16801F8008004F10D
:1054D0006407A068421BE0684119384607F048FCA1
:1054E000054494F88000012804D094F864101A2927
:1054F00011D011E02A462046E16800F021FB064663
:10550000A068421BE0684119FAF771FEA068401BD1
:10551000A0600025DDE710B1A068A842D9D83046C8
:10552000BEE700002DE9F8438046089C0846154672
:105530001F46002D15D0A7B19CB12978B1B16A469C
:10554000A968FFF757FC002568B122463846009944
:10555000FAF77FFE611E3846FCF7C8FB3D54BDE8F4
:10556000F8830020FBE73D700020F8E7D5E9020151
:1055700023463A46FFF704FD0646701CA0421AD2A5
:10558000297CD8F85C0007F089FF8046B8F1000F4D
:1055900011D0A21B154609A13846FAF76DFEB61CBC
:1055A000A64204D26A1E41463846FAF765FE3846DE
:1055B000FAF75BFE06463046D1E700002000000007
:1055C000FEB5154606460C461A46002C11D085B18C
:1055D0006946304600F05AFA002809D09DF80010BC
:1055E0000D290CD06FF067013046FFF74EFD00200B
:1055F000FEBD05493046FFF748FD0020FEBD01997C
:10560000216002992960FEBDCAFEFFFF7FB50646F4
:105610000D46002D18D001A9304600F037FA044697
:105620007CB19DF804000A2814D06B460E4A01A9EB
:10563000304600F089F904461CB1009800B1012001
:105640002870204604B070BD08493046FFF71DFDA4
:105650000020F7E76A4601A9304600F00BFA0098EF
:1056600000B101202870ECE7C8DF0108CAFEFFFF87
:10567000FEB5144606460D461A46002D0DD064B1FF
:105680006946304600F002FA002805D023462A4633
:105690006946304600F058F9FEBD03493046FFF731
:1056A000F4FC0020FEBD0000CAFEFFFF2DE9FE4312
:1056B00017460A9A04460E469846002E16D0B8F1B0
:1056C000000F13D06946204600F0E0F900280BD007
:1056D0009DF800100E290FD00F290DD06FF0670133
:1056E0002046FFF7D2FC0020BDE8FE831249204689
:1056F000FFF7CBFC0020F7E70E2903D0222101247D
:1057000000250DE02721FAE7BC420DD2019A125D77
:1057100072556D1C019A125D8A4200D1641C641C92
:10572000029A521EA242EFD8C8F80050BD42DBD206
:1057300000217155D8E70000CAFEFFFFFEB50646FE
:105740000D46002D10D06946304600F09FF9044602
:1057500014B30021684600F058F858B12A4669464B
:10576000304600F033F917E00C493046FFF78DFC66
:105770000020FEBD0121684600F047F830B16FF00F
:1057800089013046FFF781FC002405E06FF06701D6
:105790003046FFF77AFC00242046FEBDCAFEFFFF1C
:1057A000FEB506460D46002D10D06946304600F085
:1057B0006DF9044614B30021684600F026F858B18C
:1057C0002A466946304600F02BF917E00C4930466E
:1057D000FFF75BFC0020FEBD0121684600F015F8D4
:1057E00030B16FF089013046FFF74FFC002405E02F
:1057F0006FF067013046FFF748FC00242046FEBDED
:10580000CAFEFFFF0123FFF70BB90078801F0628AF
:1058100008D2DFE800F00303030703050120704707
:1058200008467047002070472DE9F04114468AB0C1
:10583000074688461A46002C1ED001A9384600F0BB
:1058400025F9064606B3029804900498059003983B
:1058500006909DF80400801F052803D800202074BE
:10586000207001269DF80400801F062819D2DFE869
:1058700000F01316100D0D0D32493846FFF705FCE8
:1058800000200AB0BDE8F0813046FAE70A216174D1
:1058900007E00221617404E01021617401E0082135
:1058A000617404F10805062849D2DFE800F0090F09
:1058B0001534031B2A4601A9384600F087F83FE05B
:1058C0002A4601A9384600F081F839E02A4601A9A4
:1058D000384600F07BF833E02A4601A9384600F04C
:1058E00075F82DE007A904A807F078F807A904A81F
:1058F00007F02AFA07A904A807F0F2F92A4601A935
:10590000384600F063F8DDE908122346384607F010
:105910007AFD064614E007A904A807F015FA07A9BE
:1059200004A807F000F86B46424607A9384600F085
:105930000BF80646012020700098A06000E00026C9
:1059400030469EE7CAFEFFFF2DE9F84F82460E461D
:10595000154698460027002D0DD0B8F1000F0AD04B
:10596000307809280DD06FF067015046FFF78DFBA6
:105970003846BDE8F88F14495046FFF786FB0020F3
:10598000F7E70024A14613E0FAF76FFC0146CDF8D3
:10599000009055F83400D6E9012306F05AFE30B1E4
:1059A00005EBC4004068C8F80000012704E0641C4F
:1059B00055F834000028E7D1002FD9D16FF0DF016E
:1059C0005046FFF762FBD3E7CAFEFFFF7CB51546E2
:1059D000002D08D00A78921F062A1CD2DFE802F0B8
:1059E0000808081B12120D49FFF74FFB00207CBD71
:1059F0006A4600F045F80446DDE90001FAF740FF89
:105A000003C509E04868294607F0BAFC08B101243B
:105A100002E0002400E0002420467CBDCAFEFFFF17
:105A200038B51546002D08D00A78921F062A1BD2D9
:105A3000DFE802F00808081A11110D49FFF725FBED
:105A4000002038BD6A4600F018F804460098FAF7BE
:105A500005FF286009E04868294607F09CFC08B16A
:105A6000012402E0002400E00024204638BD0000AC
:105A7000CAFEFFFF0123FEF74BBF0023FEF748BF1E
:105A80000023FEF789BF0023FEF7CABF2DE9F041CE
:105A900004460D461746002D13D00021284606F077
:105AA000A9FB04F11406304682680168114442687B
:105AB000914211D867B16FF06C012046FFF7E5FA0B
:105AC00008E01E492046FFF7E0FA0020BDE8F0811B
:105AD000092028700020F9E7616B79B1294606F0AA
