:020000040800F2
:1000000030130020CD010008671100083B100008E4
:1000100065110008290B00089D3100080000000050
:10002000000000000000000000000000EB150008C8
:10003000730D000800000000E3010008B516000879
:10004000E7010008E7010008E7010008E7010008F0
:10005000E7010008E7010008E7010008E7010008E0
:10006000E7010008E7010008E7010008E90B0008C4
:10007000FD0B0008E7010008E7010008E7010008A0
:10008000E7010008E7010008E7010008E7010008B0
:10009000E7010008E7010008E7010008E7010008A0
:1000A000E7010008E7010008E7010008E701000890
:1000B000E7010008E701000881170008E7010008D0
:1000C000E7010008E7010008E7010008E701000870
:1000D000E7010008D12C0008992E0008712F0008B4
:1000E000E7010008E7010008E7010008E701000850
:1000F000E7010008E7010008E7010008E701000840
:10010000E7010008E7010008E7010008E70100082F
:10011000E7010008E7010008E7010008E70100081F
:10012000E7010008E7010008E7010008E70100080F
:1001300000F002F800F03AF80AA090E8000C8244BF
:100140008344AAF10107DA4501D100F02FF8AFF29C
:10015000090EBAE80F0013F0010F18BFFB1A43F0A5
:1001600001031847203D0000403D0000103A24BF25
:1001700078C878C1FAD8520724BF30C830C144BF0C
:1001800004680C607047000000230024002500264E
:10019000103A28BF78C1FBD8520728BF30C148BFEA
:1001A0000B6070471FB51FBD10B510BD00F080F883
:1001B0001146FFF7F7FF03F0A7F900F09EF803B42C
:1001C000FFF7F2FF03BC03F068F80000094880471E
:1001D00009480047FEE7FEE7FEE7FEE7FEE7FEE729
:1001E000FEE7FEE7FEE7FEE704480549054A064B41
:1001F0007047000031170008310100083009002065
:1002000030130020300B0020300B002070474FF0DF
:1002100000020429C0F0128010F0030C00F01F80CF
:10022000CCF1040CBCF1020F18BF00F8012BA8BFE1
:1002300020F8022BA1EB0C0100F011B85FEAC17CA1
:1002400024BF00F8012B00F8012B48BF00F8012B58
:10025000704770477047704770474FF0000200B515
:10026000134694469646203922BFA0E80C50A0E8D9
:100270000C50B1F12001BFF4F7AF090728BFA0E887
:100280000C5048BF0CC05DF804EB890028BF40F853
:10029000042B08BF704748BF20F8022B11F0804F95
:1002A00018BF00F8012B704700487047D0080020A5
:1002B0007546FFF7F9FFAE4605006946534620F044
:1002C0000700854618B020B5FFF78EFFBDE8204037
:1002D0004FF000064FF000074FF000084FF0000B02
:1002E00021F00701AC46ACE8C009ACE8C009ACE8B5
:1002F000C009ACE8C0098D46704710B50446AFF39D
:1003000000802046BDE81040FFF759BF08B54FF404
:10031000E060ADF8000010208DF8030002208DF899
:1003200002006946014800F0FFFD08BD00080140D9
:100330002DE9F1412B4C4FF4806681B031462046C7
:1003400000F077FEA5152946204600F074FE00BF98
:1003500000BF00BF00BF3146204600F06CFE00BF6A
:100360002946204600F067FE00BF00BF3146204608
:1003700000F05FFE00208DF800004FF400784FF68B
:10038000FF7721E0BDF8040041460004204602D575
:1003900000F051FE01E000F04CFE2946204600F03E
:1003A00048FE00BF00BF2946204600F044FE00BFC3
:1003B00000BFBDF8040007EA4000ADF804009DF856
:1003C0000000401C8DF800009DF800001028D9D3D3
:1003D0003146204600F02FFE29462046BDE8FC416C
:1003E00000F029BE0008014008B54FF47A7000BF44
:1003F000ADF80000BDF80000002803D0BDF80000F3
:10040000401EF5E708BD000030B587B00121082087
:1004100000F008FF01218C03204600F0F7FE601079
:10042000ADF8140003208DF816001820254D8DF826
:10043000170005A9284600F077FDADF8144005A97E
:10044000284600F071FD6000ADF8140005A92846AB
:1004500000F06AFDA410ADF8144010208DF81700CC
:1004600005A9284600F060FD2146284600F0E3FD7E
:10047000FFF7BAFF2146284600F0DBFD0020ADF86B
:1004800000004FF48271ADF802106110ADF8041055
:10049000ADF808008910ADF80A103821ADF80C103D
:1004A000ADF80600ADF80E000720074CADF81000BF
:1004B0006946204601F07DF80121204601F064F8EC
:1004C00007B030BD000C0140003800402DE9FE436C
:1004D00000258DF80850454E454C06F1C807A6F199
:1004E000100817E09DF80810012001F019F89DF898
:1004F000082028F81200B8F80600627826F81200E2
:10050000B8F80400A17827F811009DF80800401CF5
:100510008DF808009DF808000828E3D36078401C97
:100520006070A078401CA0706178324809291FD9FA
:10053000657002958DF800500CE000BF9DF800102A
:1005400036F81110029A114402919DF80010491CCE
:100550008DF800109DF800100A29EFD302990A22A5
:10056000B1FBF2F1227820F812102178491C217099
:10057000217802291AD9257002958DF800500BE0D8
:100580009DF8001030F81110029A114402919DF864
:100590000010491C8DF800109DF800100329EFD3BE
:1005A00002980321B0FBF1F013490880A07863287A
:1005B0001AD9A57002958DF804500BE09DF804003F
:1005C00037F810000299084402909DF80400401C7E
:1005D0008DF804009DF804006428EFD3029864218C
:1005E000B0FBF1F005490880BDE8FE831807002044
:1005F000A4000020A80800204200002044000020A1
:1006000011B50D4C81B00221204600F0C7FF002833
:10061000F9D0BDF80410204600F0C9FF01212046A2
:1006200000F0BCFF0028F9D0204600F0BEFFADF876
:100630000000BDF800001CBD003800402DE9F0416D
:10064000434D92B0284600F005F90121480200F020
:10065000E9FD0121084600F0CDFD0126DFF8F48018
:10066000ADF8406000248DF8434010A9404600F0EA
:100670005BFC0227ADF840708DF8434010A940465E
:1006800000F052FC4FEA7838404600F0DBFA304880
:1006900069464C3000903048CDE901046420CDE932
:1006A00003048020059040000690800007902020E1
:1006B00008900002CDE90904404600F03DFB01210D
:1006C000404600F0B3FA01220221404600F02CFB24
:1006D00000F07AFA0121284600F0B2F88DF8306077
:1006E0000B948DF831604FF46020CDE90D048DF846
:1006F0003C700BA9284600F0DDF84FF4404000F0B4
:100700006FFD052301220021284600F0F7F805239C
:1007100002220121284600F0F1F80121284600F0CC
:1007200085F8284600F024F9284600F030F92846DC
:1007300000F0B9F80028FAD1284600F0ADF80028FA
:10074000FAD10121284600F018F912B0BDE8F08175
:100750000024014000080140A8000020FCB5002151
:100760008DF804102F4D304805F1C80303F16402E1
:1007700017E000BF9DF80440E4079DF804401AD03C
:10078000E40709D09DF8044035F81460447802EB82
:100790004407641C44703E809DF80440641C8DF83E
:1007A00004409DF80440642CE4D301704170019131
:1007B0008DF8001014E035F81460047803EB44075A
:1007C000641C0470E7E700BF9DF8004033F8144054
:1007D000019D2C4401949DF80040641C8DF800405C
:1007E0009DF80040322CEFD3019C3223B4FBF3F48C
:1007F000448001910AE000BF9DF8001032F81140DA
:100800000199214401919DF80010491C8DF80010B8
:100810009DF800103229EFD30199B1FBF3F18180EB
:10082000FCBD0000A80000203C00002000298168D9
:1008300002D041F0010101E021F001018160704727
:100840000029816802D041F4807101E021F48071B7
:10085000816070470D4910B5884202D101214415CD
:100860000AE00B49884202D10121041504E009493C
:1008700088420AD10121CC03204600F0DFFC20464B
:10088000BDE81040002100F0D9BC10BD002401409B
:1008900000280140003C01400146002089684907CA
:1008A00000D501207047014600208968090700D55E
:1008B0000120704710B542680E4B0C791A400B6846
:1008C00042EA04221343436083680B4A1340D1E990
:1008D000024222434C7943EA44031A438260C26ACB
:1008E000097C22F47002491EC9B242EA0151C16278
:1008F00010BD0000FFFEF0FFFDF7F1FF70B507240B
:1009000009290AD9C568A1F10A0606EB4606B440D2
:10091000A543B3401D43C56007E0056901EB4106EF
:10092000B440A543B3401D4305611F23072A09D2E4
:10093000446B521E02EB820293409C4391400C4355
:10094000446370BD0D2A09D2046BD21F02EB8202F0
:1009500093409C4391400C43046370BDC46A0D3ABC
:1009600002EB820293409C4391400C43C46270BDF1
:10097000816841F00801816070470029816802D0D8
:1009800041F4A00101E021F4A00181607047816879
:1009900041F00401816070472DE9F8435D4CE06847
:1009A0005D4901270026DFF874815D4D884206D934
:1009B000AE8026632021404600F03DFBE762A26B3B
:1009C0000A204FF4FA6112B9E26B012A05D0A36B39
:1009D0004FF47A72012B17D018E06268B2FBF0F086
:1009E00000902068009A50434E4AB0FBF2F000900D
:1009F000A06E009A904248D2A888401CA880A8887F
:100A0000884242D9AE8019E0E36B13B1A36BC3B146
:100A100019E0636800932368B3FBF0F0009B584330
:100A2000B0FBF2F00090A06E009A90422DD2E888C0
:100A3000401CE880E888884227D9EE802663202180
:100A40001FE0E36B1BB1A06B012826D01DE063689B
:100A5000B3FBF0F300932368B3FBF0F0009B584323
:100A6000B0FBF2F00090A06E009A90420DD228895F
:100A7000401C28812889884207D92E8126634FF49B
:100A80000041404600F0D7FAE7622068E16E8842F4
:100A900028D9E06B012817D024E0E06B0128F4D1BD
:100AA000606800902068009B5843B0FBF2F0009013
:100AB000A06E009A9042E8D26889401C68816889DB
:100AC0008842E2D96E81B9E72888401C28802888AE
:100AD000052807D92E8026632021404600F0ABFA76
:100AE0000320E0626068216F884210D9A06B012862
:100AF0000DD16888401C68806888052807D96E80F9
:100B000026632021404600F096FA0420E062BDE80A
:100B1000F8830000F8020020C02709000008014007
:100B200090000020A0860100FEE7000011B586B00D
:100B300000210698CDE900102148D0F888200392C2
:100B4000D0F88C20019C039B059212031B1BB2FB67
:100B5000F3F30293059B0092DDE902325A430192BE
:100B6000DDE900239A4208D21A46009BD21A01926C
:100B70009DF8102042F0010206E0D21A0092019284
:100B80009DF8102022F001028DF810200068029AD2
:100B9000504300909DF81000C007DDE900020CD022
:100BA000904202D20846009101E0801A0090054A66
:100BB000000B9060009107B010BD1044F6E70000F4
:100BC000F8020020C003002008B50B208DF80000BB
:100BD00003208DF801008DF8020001208DF803003C
:100BE000684600F0C1FA08BD0348016841F0010100
:100BF0000160022000F00EB81400002010B5202083
:100C000000F008F80248016841F08001016010BD61
:100C100018000020C10002D502490860704702494F
:100C20004860704704040240000002400029016847
:100C300002D041F0010102E04FF6FE721140016066
:100C40007047000001684FF6FE72114001600021FC
:100C5000016041608160C1603149314A0839904288
:100C600003D1486840F00F0006E02D4A143290424C
:100C700004D1486840F0F00048607047284A2832A4
:100C8000904203D1486840F47060F5E7244A3C3252
:100C9000904203D1486840F47040EDE7204A50325A
:100CA000904203D1486840F47020E5E71C4A643262
:100CB000904203D1486840F47000DDE7184A78326A
:100CC000904203D1486840F07060D5E7154A111F83
:100CD000904203D1086840F00F0006E0114A143238
:100CE000904204D1086840F0F000086070470D4A57
:100CF0002832904203D1086840F47060F5E7094A51
:100D00003C32904203D1086840F47040EDE7054A58
:100D100050329042EAD1086840F47020E5E70000C4
:100D20000800024008040240002A026801D00A4379
:100D300000E08A430260704730B5036847F6F072FE
:100D400093430C6A8A682243D1E904452C43224329
:100D50008C692243CC6922434C6A22438C6A224329
:100D60001A430260CA6842600A6882604968C160CA
:100D700030BD704760220021014800F091BB0000A7
:100D80003802002004490A6822F010020A600A684A
:100D900002430A607047000000200240034A1168C5
:100DA00001F038010143116070470000002002404B
:100DB00060220021014802F019BA00003802002028
:100DC00010B50121084600F039FA0021BDE81040B5
:100DD000012000F033BA0000F8B5214E304600F093
:100DE00049F8204F384600F045F81F4800F042F817
:100DF000FFF7E6FF01211C2000F014FA012108464C
:100E000000F010FA0121194800F0E0F8012118481B
:100E100000F0DCF84FF40760ADF8000010248DF806
:100E2000034003258DF802506946304600F07CF8F7
:100E30008020ADF8000048208DF803006946304658
:100E400000F072F840F20310ADF800008DF8034096
:100E50008DF802506946384600F066F8F8BD00008B
:100E600000080140000C0140001001400004300067
:100E700000023000254910B5884206D10121042026
:100E800000F0DCF9002104203BE02149884206D132
:100E90000121082000F0D2F90021082031E01D498D
:100EA000884206D10121102000F0C8F9002110204D
:100EB00027E01949884206D10121202000F0BEF91F
:100EC000002120201DE01549884206D10121402043
:100ED00000F0B4F90021402013E01149884206D106
:100EE0000121802000F0AAF90021802009E00D49AD
:100EF00088420AD184150121204600F09FF9002183
:100F00002046BDE8104000F099B910BD000801402E
:100F1000000C014000100140001401400018014085
:100F2000001C014000200140F0B5CA78002502F005
:100F30000F03D20601D58A7813430A784FF00F0EBB
:100F400012F0FF0F4FF001021CD004680F8802FA64
:100F500005F63740B74211D14FEA850C0EFA0CF76F
:100F600024EA070703FA0CF43C43CF78282F02D079
:100F7000482F02D002E0466100E006616D1C082D9A
:100F8000E4D304600C88FF2C1ED944685FF000068F
:100F900006F1080702FA07F50F882F40AF420FD17C
:100FA0004FEA860C0EFA0CF7BC4303FA0CF73C43ED
:100FB000CF78282F00D14561CF78482F00D1056127
:100FC000761C082EE4D34460F0BD0000F0B5144C4C
:100FD000002801DAE36900E06368420D120185B27E
:100FE000C0F301579540C0F30346032F05D0C2025A
:100FF0000AD50322B240934307E023F0706263688E
:1010000023F07063636002E0AB4343F0706201B1B0
:101010002A43002801DAE261F0BD6260F0BD000001
:10102000000001400246002092680A4200D00120E0
:1010300070474161704701617047FEE713B582B0A8
:101040004FF6FF71ADF800109DF80C1011B9012199
:101050008DF80C1000244AF2010300BF9DF80C101B
:101060004A1E8DF80C2023D30178BDF80020514092
:10107000ADF800108DF8044014E000BFBDF800107A
:10108000C907BDF800104FEA510104D0ADF80010B7
:10109000BDF800105940ADF800109DF80410491C2F
:1010A0008DF804109DF804100829E7D3401CD5E7FB
:1010B000BDF8000004B010BD02494CF6CC400860F9
:1010C000704700000030004010B545F2555000F068
:1010D00021F8032000F012F8FF2000F015F800F0CE
:1010E00005F8BDE81040FFF7E7BF000002494AF6E7
:1010F000AA200860704700000030004001494860A5
:1011000070470000003000400149886070470000CF
:101110000030004001490860704700000030004086
:1011200070B50D4CA06B0D4D01284FF00201284603
:101130000FD0FFF780FFA06B002809D16068084935
:10114000884205D902212846FFF773FF0120A063DA
:1011500070BDFFF76EFFEEE7F8020020000C0140C3
:10116000400D0300FEE7704770B50F23C478017887
:101170000122F4B1144C2468457804F4E064C4F509
:10118000E064240AC4F10406E3408478B5401C40BE
:101190002C4301F1E021230181F80034007800F0B4
:1011A0001F018A404009800000F1E020C0F80021C2
:1011B00070BD01F01F0082404809800000F1E0206E
:1011C000C0F8802170BD00000CED00E0024908432A
:1011D00002490860704700000000FA050CED00E0CD
:1011E000034A516821F440410143516070470000B7
:1011F00000100240044A0029516901D0014300E077
:10120000814351617047000000100240044A0029E8
:10121000D16901D0014300E08143D16170470000F2
:1012200000100240044A0029916901D0014300E006
:10123000814391617047000000100240044A002978
:10124000D16801D0014300E08143D16070470000C4
:101250000010024010B500F033F84FF480342046FF
:1012600000F0C0F800F006F9144908700878012869
:1012700022D1002000F0ACF8002000F0D7F8A01137
:1012800000F0CAF80220FFF789FD1020FFF77AFD71
:101290004FF4E011204600F0D9F8012000F0D0F81A
:1012A000392000F075F80028FAD0022000F0D8F8B4
:1012B00000F086F80828FBD110BD00004C0000208B
:1012C0000C48016841F00101016041680A4A11407F
:1012D00041600168094A11400160016821F48021E0
:1012E0000160416821F4FE0141604FF41F018160FB
:1012F00070470000001002400000FFF8FFFFF6FEFC
:1013000030B51F494A6812F00C031E4A03D0042B63
:1013100001D0082B21D002604A680F231A4C03EA3F
:101320001212A35C0268DA4042604B68072505EAA6
:101330001323E35C22FA03F383604B6805EAD323AB
:10134000E35CDA40C2604968032303EA9131231F5A
:10135000595CB2FBF1F1016130BD4A684B6802F49F
:1013600070124FF0020413F4803F04EB924202D05B
:101370004B689B0301D5054B00E0024B5A43CAE77B
:101380000010024000127A000400002000093D0015
:101390000246002053090949012B0BD0022B0BD028
:1013A000D1F8241002F01F02012393400B4200D019
:1013B000012070470968F5E7096AF3E70010024069
:1013C0000248406800F00C00704700000010024026
:1013D000034A516821F0F001014351607047000059
:1013E000001002400B490A6822F480320A600A6841
:1013F00022F480220A60B0F5803F07D0B0F5802F3C
:1014000003D1086840F4A02008607047086840F4E1
:101410008030F9E700100240034A516821F4E0618E
:1014200001435160704700000010024003494A68C0
:1014300022F4605242EAC000486070470010024047
:10144000014908667047000000004242034A5368A1
:10145000084323F47C131843506070470010024087
:10146000034A516821F003010143516070470000B5
:101470000010024018B500204FF4A0640090312005
:10148000FFF786FF0099491C0091A14201D0002876
:10149000F5D03120FFF77CFF002800D0012018BDD7
:1014A00017B581B0044601F0D5FFA02001F096FFEA
:1014B00002F006F878B9BDF80800C0B201F08EFF5E
:1014C00001F0FEFF38B901F0C5FFA12001F086FF51
:1014D00001F0F6FFC0B101F0DDFF002004B010BD47
:1014E00001F04AFFBDF800106054BDF80010BDF8CF
:1014F0000C00401E814202D001F0D0FE01E001F05C
:101500001FFFBDF80000401CADF80000BDF8000052
:10151000BDF80C108842E3D301F0BCFF0120DDE7E9
:1015200033B581B00020ADF80000BDF80400BDF86F
:101530000810400340EAC11041F659410843ADF894
:101540000000BDF800004FF6FF7101EA8000ADF821
:1015500000000C4D4FF4805421462846FFF769FDEA
:10156000BDF80000FFF74CF8ADF80000FEF73CFFB7
:1015700021462846FFF75FFDFEF736FFBDF8000065
:101580003EBD0000000C01400029018802D041F05E
:10159000400101E021F04001018070470246002037
:1015A00012890A4200D001207047808970478181EA
:1015B000704730B502884C8802F441530A88CD88C0
:1015C00022438C882C4322430C8922434C8922439A
:1015D0008C892243CC8922431A430280828B22F4D5
:1015E00000628283098A018230BD70470548816CA0
:1015F000054801294FF0400101D0FFF71ABDFFF760
:101600001ABD0000F8020020000801400CB50021BE
:10161000264801910091026842F4803202604FF442
:10162000A063026802F400320092019A521C0192F7
:10163000009A12B9019A9A42F3D10268920333D503
:10164000012100911A490A6842F010020A600A68F2
:1016500022F003020A600A6842F002020A6041684E
:10166000416041684160416841F480614160416886
:1016700021F47C114160416841F4E8114160016846
:1016800041F08071016001688901FCD5416821F059
:1016900003014160416841F0020141604168C1F3CA
:1016A00081010229FAD10CBD00910CBD001002404D
:1016B0000020024010B500F06DF9094909480A6898
:1016C000D30602D503785B1C03700378142B06D96C
:1016D0000023037022F0100008600348037010BD5F
:1016E000180000208E0000208C0000200E484FF4CF
:1016F0007A710068B0FBF1F0B0F1807F12D220F077
:101700007F414FF0E020491E4161084AF02182F8F4
:10171000141D0021816107210161016941F001016E
:1017200001617047FEE70000280000200FE000E0A4
:101730000F4810B5016841F00101016041680D4A90
:101740001140416001680C4A11400160016821F4B8
:1017500080210160416821F4FE0141604FF41F01C6
:101760008160FFF753FF05494FF00060086010BD2E
:10177000001002400000FFF8FFFFF6FE08ED00E059
:1017800010B501211C4800F06DF81C4801684A069C
:1017900002D441F0200101E021F02001016018494C
:1017A0004B6B00221748042B24D10B6B012B21D14A
:1017B000D1F8AC4024B1D1F8AC40012C03D010BD1D
:1017C0004478012C08D08478012CF8D1D1F8A010ED
:1017D0004468A14208D80BE0D1F89C104468A142AB
:1017E00002D84270837005E04168491C416010BD19
:1017F00043708270426010BD000800401800002055
:10180000F8020020200000207FB501210420FFF70E
:10181000FDFC40F6B140ADF8000000200124ADF819
:1018200004400F4DADF80200ADF8060069462846A9
:1018300000F02EF801221146284600F020F81E2064
:101840008DF80C008DF80D408DF80E408DF80F408E
:1018500003A8FFF789FC0121284600F006F87FBDA8
:1018600000080040C943018270470029018802D066
:1018700041F0010101E021F0010101807047002ADF
:10188000828901D00A4300E08A43828170470000C8
:1018900030B502881B4B1C4C98420DD0A0420BD097
:1018A000B0F1804F08D0194DA84205D0184DA8427C
:1018B00002D0184DA84203D122F070054A882A436D
:1018C000154DA84206D0154DA84203D022F440750C
:1018D000CA882A4302808A8882850A8802859842BB
:1018E0000AD0A04208D00E4A904205D00D4A90423C
:1018F00002D00D4A904201D1097A018601218182EC
:1019000030BD0000002C01400034014000040040C4
:1019100000080040000C004000100040001400408F
:1019200000400140004401400048014070B5154CA2
:1019300021884FF44870144D814202D32988814296
:1019400008D2124E0020306320211148FFF773FBAC
:101950000520F062228840F6CA0110208A4202D98E
:101960002A888A4202D80A49103109E0228840F6C2
:10197000FC018A4205D32A888A4202D304491431E1
:10198000086070BD3E00002040000020F8020020EA
:101990000008014003480168002902D00168491E7F
:1019A00001607047480000202DE9F04FFC4C89B0E1
:1019B000E26BA4F16006FB48316A0491B1680391BF
:1019C000F169069171680591B16902910025D6F817
:1019D00000B04FF47A774FF00A0944F62068002AE5
:1019E0005BD082460088009002F0F6F8059902F07C
:1019F00007F9069901F0ACFF02F0CEF820600095DF
:101A0000216841450ED9BAF80000009002F0E4F8D0
:101A1000039902F0F5F8049901F09AFF02F0BCF87E
:101A200020600095A06B00285DD020686168484365
:101A3000E060E068B0FBF7F0E060206842F210710F
:101A400048436168B0FBF1F0A060A06BD64F00285E
:101A50003888009055D002F0BFF8059902F0D0F810
:101A6000069901F075FF02F097F8009060606168D8
:101A700041450DD93888009002F0AEF8039902F084
:101A8000BFF8049901F064FF02F086F800906060EE
:101A9000206BA8B3206898B349E00088009002F05A
:101AA0009BF8594602F0ACF8029901F051FF02F0A0
:101AB00073F820600095A06B216860B1B1FBF9F06C
:101AC00061684843E060E068B0FBF7F0E0602068E0
:101AD0004FF47A71B4E7B1FBF9F16268B2FBF9F047
:101AE0004143E160A5E76168B1FBF9F02168484333
:101AF000E060E068B0FBF7F0E0602068AB499FE78A
:101B000014E002F069F8594602F07AF8029901F0FF
:101B10001FFF02F041F8606000956068012803D95A
:101B2000206B08B1206818B9656001E06560009518
:101B3000626BDFF87CC29A489E4FC830DCF8001018
:101B4000012A1FD0A36B9C4ADFF870E2F3B3D4F8EC
:101B50003480A0F59473B8F1000FD3F858B0D3F8DF
:101B600040A06FD0636B022B6DD0636B032B6BD0E7
:101B7000636B042B69D0626B052A67D0616B062901
:101B800071D0DFE10268E36C9A4203D021F040019A
:101B9000CCF800108A0612D521F02001CCF80010F4
:101BA0000268D4F88430D21A02600268E36C9A4268
:101BB00005D8E26C026041F04001CCF80010E16B06
:101BC0000068009069B10003009000E020E0E16C43
:101BD00041450DD202F000F8316902F011F8B16A06
:101BE0000CE001F0F9FFF16802F00AF8716A05E013
:101BF00001F0F2FF716902F003F8F16A01F0A8FE4A
:101C000001F0CAFF0090B880009509B0BDE8F08FE0
:101C1000D4F834C0624B603BBCF1000FD3F8548061
:101C2000DE6B14D0636B022B20D0636B032B2DD0A3
:101C3000636B042B3CD0626B052A6FD0616B062965
:101C40006DD0AAE0BCE0E5E0F3E006E160E18906E2
:101C50000AD54168E26F114441604168226D9142AA
:101C600002D3216D8AE060E140688AE0E16B0029DF
:101C7000216808D042F210725143626DB1FBF2F15B
:101C8000816080687DE04FF47A72F5E7E16B41B1E5
:101C9000A16D464A51432268B1FBF2F1C160C068B0
:101CA0006FE02268A16DB2FBF9F2404B5943F3E7B4
:101CB000D4F8AC303BB1D4F8AC30012B03D0D4F81D
:101CC000AC30022B69D11278012A04D09EF8002092
:101CD000012A25D061E08906C6D54168D4F8942050
:101CE0009142416809D2D4F8A4201144416041686E
:101CF000D4F8942091420ED2B6E7D4F894209142C1
:101D0000B2D94168D4F8A820891A41604168D4F852
:101D100094209142A8D8D4F894102FE023E02FE02B
:101D20008906A1D54168D4F898209142416809D22A
:101D3000D4F8A420114441604168D4F8982091421D
:101D40000ED291E7D4F8982091428DD94168D4F809
:101D5000A820891A41604168D4F89820914283D81C
:101D6000D4F898100AE08906C6D54168E26F11449C
:101D70004160416882689142BED38168416073E7E7
:101D80000069009001F028FF314601F039FF41461B
:101D900001F0DEFD01F000FF0090009833E7000045
:101DA000F80200204400002042000020A08601002C
:101DB00018000020500000202100002022000020F8
:101DC000890609D54168E26F114441604168226D7E
:101DD000914201D3216D416040680090206D4CF22A
:101DE00050318842009806D201F0F6FE514601F0CB
:101DF00007FF594605E001F0EFFE716C01F000FFAE
:101E0000F16D01F0A5FD01F0C7FE0090206DB0BBA3
:101E1000BD8097E0E16B0029216808D04FF47A7209
:101E20005143626DB1FBF2F1816080687EE0642213
:101E3000F6E7E16B49B1A16D4FF47A725143226824
:101E4000B1FBF2F1C160C06870E02268A16DB2FB25
:101E5000F9F24FF47A735943F2E7D4F8AC303BB15E
:101E6000D4F8AC30012B03D0D4F8AC30022B69D1BC
:101E70001278012A04D09EF80020012A23D061E0C4
:101E8000890643D54168D4F894209142416809D22B
:101E9000D4F8A420114441604168D4F894209142C0
:101EA0000ED233E0D4F8942091422FD94168D4F86F
:101EB000A820891A41604168D4F89420914225D81D
:101EC000D4F894102FE0890620D54168D4F89820E2
:101ED0009142416809D2D4F8A4201144416041687C
:101EE000D4F8982091420ED210E0D4F89820914274
:101EF0000CD94168D4F8A820891A41604168D4F807
:101F00009820914202D8D4F898100CE040680DE077
:101F10008906FBD54168E26F1144416041688268DF
:101F20009142F3D381684160F0E70069009001F0CD
:101F300053FE514601F064FE594601F009FD01F0DF
:101F40002BFE00900098B8800095206D00287FF44B
:101F50005CAEBD8059E600002DE9FF5FC14C2078E2
:101F6000C14DDFF80893C24FC24E4FF0010B4FF046
:101F70000008012802D0207800287DD1607803284D
:101F80007AD1E079A17900EB0120ADF804000621B7
:101F9000B448FFF753F8BDF80410884203D0BDF8E9
:101FA000040000286ED1E078FF286BD2E0786179D8
:101FB0000844FF2866D285F800B003206870607975
:101FC0008000A870404635E09DF80000800713D0DF
:101FD0009DF8000000F0030001281AD09DF80000D1
:101FE00000F003000228E0789DF8001000EB91005B
:101FF00056F8200016D016E0E1789DF8000001EBBD
:10200000900056F82000010E9DF800002844C17091
:102010000DE0E0789DF8001000EB910056F82000EC
:10202000000C00E0000A9DF800102944C8709DF8DB
:102030000000401C8DF80000A8789DF80010884230
:10204000C2D8A878C01CC1B28748FEF7F7FFADF828
:102050000400BDF80400AA78010A8348C01C11548A
:10206000BDF80400AA788049091D5054A878401D85
:1020700089F80000386800E004E040F008003860AB
:1020800000F002F92078012802D0207800287AD1C7
:102090008DF80C806078DFF8E0A1062856D1E07852
:1020A000FF2853D2607A217A00EB0120ADF80000BE
:1020B00008216C48FEF7C2FFBDF80010884202D02C
:1020C000BDF80000F0BB6079217900EB01200090A1
:1020D000E079A17900EB0120ADF80400E0788DF8FB
:1020E0000800BDF80400009900EB01409DF80810BD
:1020F000009046F821002078316C88421AD1404681
:1021000009E000BF9DF80C00205C9DF80C1068549D
:102110009DF80C00401C8DF80C009DF80C000A285E
:10212000F0D30A2189F80010386840F008003860C0
:1021300000F0AAF8DAF8001041F00101CAF8001026
:10214000C82100E002E04748FEF761F860781028F7
:1021500019D1A07904EB8000007AA17904EB810108
:10216000C97900EB0120ADF80000A079072101EB4F
:102170008000C1B23B48FEF761FFBDF80010884205
:102180006DD140462AE06AE09DF8080004EB80002B
:10219000007A9DF8081004EB8101C97900EB012059
:1021A00000909DF8080004EB8000807A9DF80810EC
:1021B00004EB8101497A00EB0120ADF80400BDF881
:1021C0000400009900EB01400090E1789DF80820A0
:1021D000114446F821009DF80800401C8DF80800C5
:1021E000A0799DF808108842CED8F06B012803D062
:1021F00022490878401C08702078012822D185F8EF
:1022000000B0102068701E488178A970C178E9700C
:10221000017929714079687106211A48FEF70EFF8D
:10222000ADF80000BDF80000000AA871BDF800007C
:10223000E871082189F80010386840F0080038601B
:1022400000F022F8DAF80010064841F00101CAF85F
:10225000001004B0C821BDE8F05FFDF7D8BFBDE8AD
:10226000FF9F000040060020780500208D00002020
:1022700014000020F80200201C0000205000002064
:10228000E8030020B0040020F8B500208DF800001D
:102290008DF800000F4C104E104D10E09DF800001E
:1022A000315C204600F076FF8021204600F0DAFE07
:1022B0000028F9D09DF80000401C8DF800009DF822
:1022C000000029788842E9D30548016821F0080117
:1022D0000160F8BD00380140780500208D00002025
:1022E00014000020F8B500208DF800008DF80000E3
:1022F0000F4C104E104D10E09DF80000315C204650
:1023000000F048FF8021204600F0ACFE0028F9D004
:102310009DF80000401C8DF800009DF80000297811
:102320008842E9D30548016821F008010160F8BD41
:1023300000440040B00400208D0000201400002064
:102340002DE9F04FFE4C87B02078DFF8F893DFF8E6
:10235000F8B3DFF8F8A301270026012802D020787F
:1023600000287CD16078032879D1E079A17900EB4D
:102370000120ADF804000621F148FEF75FFEBDF82C
:102380000410884203D0BDF80400002870D1E07822
:10239000FF286DD2E07861790844FF2868D24D4665
:1023A00089F80070032089F801006079800089F8BD
:1023B00002008DF8006033E09DF80000800713D024
:1023C0009DF8000000F00300012816D09DF80000E1
:1023D00000F003000228E0789DF8001000EB910166
:1023E0005AF8210012D012E0E0789DF8001000EBBE
:1023F00091015AF82100000E09E0E0789DF80010E4
:1024000000EB91015AF82100000C00E0000A9DF851
:1024100000102944C8709DF80000401C8DF8000091
:10242000A8789DF800108842C6D8A878C01CC1B210
:10243000C448FEF703FEADF80400BDF80400AA7816
:10244000010AC048C01C1154BDF80400AA78BD4957
:10245000091D5054A878BE49401D087000E007E0EF
:10246000DBF8001041F00801CBF80010FFF73AFF4D
:102470002078A046B74C012803D098F80000002827
:102480007ED18DF80C6098F80100062864D198F888
:102490000300FF2860D298F8090098F8081000EBB4
:1024A0000120ADF800000821A548FEF7C7FDBDF8E2
:1024B0000010884202D0BDF80000E8BB98F8050083
:1024C00098F8041000EB0120019098F8070098F8A4
:1024D000061000EB0120ADF8000098F803008DF81D
:1024E0000800BDF8000001999DF8082000EB0140AC
:1024F000014601904AF8221098F80010DAF84000DE
:10250000814220D18DF80C6048460BE09DF80C10FC
:1025100018F801109DF80C2081549DF80C10491CEE
:102520008DF80C109DF80C100A29EFD388480A2169
:102530000170DBF8001000E00EE041F00801CBF87C
:102540000010FFF7CFFE8448016841F001010160EF
:10255000C8217B48FDF75BFE98F8010010280FD1D9
:10256000DAF8341055467D48DFF8F4A104290BD180
:10257000D5F8AC10012907D1296B012904D100E05D
:10258000B3E08AF800600770696B042914D1D5F8AC
:10259000AC10022910D1296B01290DD19AF8002025
:1025A0005146012A03D00278012A03D004E00E70BC
:1025B000077001E006700F7098F8061008EB8101B3
:1025C000097A98F8062008EB8202D27901EB022101
:1025D000ADF8001098F80600072101EB8000C1B2A9
:1025E0005748FEF72BFDBDF8001088427DD18DF8CD
:1025F000086040462CE000BF9DF8081000EB810108
:10260000097A9DF8082000EB8202D27901EB0221C1
:1026100001919DF8081000EB8101897A9DF808204E
:1026200000EB8202527A01EB0221ADF80010BDF8F6
:102630000010019A01EB02410191C2789DF8083027
:102640001A4445F822109DF80810491C8DF808100E
:1026500081799DF808209142CED83C49C96B012967
:1026600002D02178491C21700178012929D14D46D9
:1026700089F80070102189F80110817889F802101A
:10268000C17889F80310017989F80410407989F834
:10269000050006212B48FEF7D1FCADF80000BDF87F
:1026A0000000000AA871BDF80000E8712848082160
:1026B0000170DBF8001041F00801CBF80010FFF7C3
:1026C00011FE2548016841F0010101601F48416B7E
:1026D000042907D1006B012804D1607810B98AF869
:1026E00000706770C821164800E001E0FDF78FFD1B
:1026F00098F80000454601287ED16878A5287BD14E
:10270000287AE97900EB0120ADF8000007210C4898
:10271000FEF794FCBDF8001088426DD1A878DFF870
:102720004480012826D1B8F80000A060A088A061EC
:102730002879E97800EB01200004697914E00000B1
:10274000E8030020B004002014000020F80200205C
:102750008D000020500000201C00002022000020DE
:10276000210000204400002000EB0120A97908444A
:10277000E060E061A878AA46FE4D022861D1B8F871
:10278000000020618346A088206205909AF804101A
:102790009AF80310A16B9AF8052009049AF806002C
:1027A00001EB02210844606181466062A06801F08B
:1027B00013FA0190584601F00FFA0690019901F0C2
:1027C000EBFA8346E06801F007FA0390484601F00F
:1027D00003FA81460090039901F0DEFA594601F0B0
:1027E00019F901462860069801F00AFA01464846A0
:1027F00001F0D2FAA86100E066E2A06901F0ECF90C
:102800008146059801F0E8F94946039001F0C4FAC1
:102810008146E06901F0E0F901460098834601F045
:10282000BBFA494601F0F6F80146E860039801F06A
:10283000E7F90146584601F0AFFA6862FEF7B8FAC8
:10284000A6709AF80210504603290FD1B8F800106C
:10285000A160A188A1610179C178A16B42790904C5
:1028600001EB022182791144E160E1618078042862
:102870005ED1B8F8000020618346A08820620590F0
:102880009AF804109AF80310A16B9AF8052009042D
:102890009AF8060001EB02210844606181466062FB
:1028A000A06801F099F90190584601F095F9069059
:1028B000019901F071FA8346E06801F08DF9039007
:1028C000484601F089F981460290039901F064FAC3
:1028D000594601F09FF801466860069801F090F9AA
:1028E0000146484601F058FAE861A06901F074F920
:1028F0008146059801F070F94946039001F04CFAC1
:102900008146E06901F068F901460298834601F0CA
:1029100043FA494601F07EF801462861039801F028
:102920006FF90146584601F037FAA862FEF740FAFF
:102930009AF8020005285FD1B8F80000A06281462D
:10294000A08820639AF8041083469AF80310A16BBC
:102950009AF8052009049AF8060001EB02210844C0
:10296000E06280466063206901F036F901904846D4
:1029700001F032F90690019901F00EFA8146606982
:1029800001F02AF90090404601F026F980460390B4
:10299000009901F001FA494601F03CF80146A860AF
:1029A000069801F02DF90146404601F0F5F928623C
:1029B000206A01F011F98046584601F00DF983466E
:1029C000414601F0E9F98046606A01F005F90146E7
:1029D0000398814601F0E0F9414601F01BF80146F9
:1029E0006861584601F00CF90146484601F0D4F9F7
:1029F000E862FEF7DDF9A6709AF802105046DFF89B
:102A00007881062910D1B8F80010A160A188A161D1
:102A10000179C27801EB02214279090401EB02211C
:102A200082791144E160E161807807285FD1B8F8CC
:102A3000000020618346A088206205909AF8041067
:102A40009AF80310A16B9AF8052009049AF8060079
:102A500001EB02210844606181466062A06801F0D8
:102A6000BBF80190584601F0B7F80690019901F0C3
:102A700093F98346E06801F0AFF80490484601F00E
:102A8000ABF881460190049901F086F9594600F0AF
:102A9000C1FF01462863069801F0B2F80146484696
:102AA00001F07AF9A864A06901F096F881460598CA
:102AB00001F092F84946039001F06EF98146E06911
:102AC00001F08AF801460198834601F065F949460C
:102AD00000F0A0FF0146E863039801F091F8014679
:102AE000584601F059F96865FEF762F9A6709AF840
:102AF00002105046082910D1B8F80010A160A18832
:102B0000A1610179C27801EB02214279090401EB4C
:102B1000022182791144E160E1618078092864D161
:102B2000B8F8000020618346A088206205909AF8DA
:102B300004109AF80310A16B9AF8052009049AF87A
:102B4000060001EB02210844606181466062A068D2
:102B500001F042F80190584601F03EF806900199C4
:102B600001F01AF98346E06801F036F80390484610
:102B700004E00000980200204200002001F02CF840
:102B800081460290039901F007F9594600F042FF8F
:102B900001466863069801F033F80146484601F0A3
:102BA000FBF8E864A06901F017F88146059801F088
:102BB00013F84946039001F0EFF88146E06901F00F
:102BC0000BF801460298834601F0E6F8494600F00A
:102BD00021FF01462864039801F012F80146584687
:102BE00001F0DAF8A865FEF7E3F89AF802000A287F
:102BF0005FD1B8F80000A0628146A08820639AF8EF
:102C0000041083469AF80310A16B9AF80520090472
:102C10009AF8060001EB02210844E06280466063F6
:102C2000206900F0D9FF0190484600F0D5FF0690DA
:102C3000019901F0B1F88146606900F0CDFF039081
:102C4000404600F0C9FF80460290039901F0A4F8C5
:102C5000494600F0DFFE0146A863069800F0D0FF69
:102C60000146404601F098F82865206A00F0B4FF5C
:102C70008046584600F0B0FF8346414601F08CF88C
:102C80008046606A00F0A8FF01460298814601F084
:102C900083F8414600F0BEFE01466864584600F0E5
:102CA000AFFF0146484601F077F8E865FEF780F887
:102CB000A6709AF8021050460B2905D1A7708179A9
:102CC000407901EB0020A08007B0BDE8F08F000044
:102CD0002DE9F0412D4C2E4D40F22556206831460D
:102CE00040F010002060284600F0C3F900284AD0C8
:102CF0003146284600F053F9284600F047FA264AA4
:102D0000244D117868542F78244E01230020244943
:102D1000012F02D02D7855B32CE0224FBB626F7883
:102D2000062F24D06F78102F15D06F78032F16D070
:102D30006D78A52D17D01DE010700B70226822F061
:102D40001002226030700A78012A1CD10870BDE898
:102D5000F041FFF701B91578A02DEDD00AE0157804
:102D6000072DE9D006E01578082DE5D002E01578AA
:102D7000082DE1D813785B1C13701378C82B02D987
:102D8000107008703070BDE8F0810000180000205D
:102D900000380140400600208C0000208E000020FA
:102DA00020000020F802002038B54FF4E060FEF764
:102DB0000DFA25208DF8000000258DF80150012422
:102DC0008DF802408DF803406846FEF7CDF92620C5
:102DD0008DF800008DF8015002208DF802008DF86A
:102DE00003406846FEF7C0F927208DF800008DF8F3
:102DF000015003208DF802008DF803406846FEF76D
:102E0000B3F938BD30B585B001212048FEF7FEF991
:102E10000424ADF8104018208DF8130003201C4D39
:102E20008DF8120004A92846FEF77EF80820ADF8B8
:102E300010008DF8134004A92846FEF775F84FF4EA
:102E4000E13000900020ADF80400ADF80600ADF8C8
:102E50000800ADF80C000C200E4CADF80A006946D5
:102E6000204600F03DF9FFF79FFF012240F2255177
:102E7000204600F01DF90121204600F096F840217F
:102E8000204600F089F805B030BD000004000200C3
:102E9000000801400044004070B52F4C2F4D40F217
:102EA00025562068314640F010002060284600F08A
:102EB000E0F800284ED03146284600F070F8284649
:102EC00000F064F92749264B0A7898541E780022AE
:102ED000254D2648012E02D01B7863B32EE05E7884
:102EE000062E28D05E78102E19D05E78032E1AD0C8
:102EF0005B78A52B1BD021E00A70016841F010011E
:102F00000160236823F0100323602A70CA0621D5CC
:102F100021F010010160BDE87040FFF711BA0B7895
:102F2000A02BE9D00AE00B78072BE5D006E00B7860
:102F3000082BE1D002E00B78082BDDD80B785B1C66
:102F40000B700B78C82B05D90A70016821F01001AD
:102F500001602A7070BD000018000020004400408D
:102F6000E80300208C0000208E00002014000020C8
:102F700070B5084D40F225542146284600F079F8F6
:102F8000002805D021462846BDE8704000F007B86B
:102F900070BD000000480040C943018070470A0A24
:102FA00001219140C943018070470029818902D0E5
:102FB00041F4005101E021F400518181704700008B
:102FC00010B586B0012144F20800FEF72BF901216B
:102FD0000846FEF727F901210420FDF7F7FF4020FE
:102FE000ADF8100018208DF8130003201B4C8DF84D
:102FF000120004A92046FDF797FF8020ADF81000CD
:1030000004208DF8130004A92046FDF78DFF4FF42E
:10301000E13000900020ADF80400ADF80600ADF8F6
:103020000800ADF80C000C200D4CADF80A00694604
:10303000204600F055F8FFF7B7FE012240F2255177
:10304000204600F035F801212046FFF7AEFF402171
:103050002046FFF7A1FF06B010BD0000000C0140A4
:10306000003801400246002012880A4200D00120A8
:10307000704730B501F01F0201240025C1F342134F
:1030800004FA02F2012B0FD0022B0FD0838A4FEAF1
:1030900011210088134204FA01F400EA040001D06F
:1030A00000B10125284630BD8389F0E7038AEEE7A9
:1030B00010B5C1F3421301F01F040121A140012BFF
:1030C00007D0022B07D01430002A026805D00A432B
:1030D00004E00C30F8E71030F6E78A43026010BDD8
:1030E00030B50446008A85B00D464CF6FF710840A5
:1030F000E98801432182A1894EF6F3100140A88896
:103100002A8910436A890A431043A081A08A4FF696
:10311000FF410840A9890143A1826846FEF7F0F803
:103120001948844201D1039800E00298A18909045A
:1031300000EBC00101EB0010296801D5490000E057
:103140008900B0FBF1F06422B0FBF2F109010B0938
:103150006FF018056B4300EB8300A3891D044FF04B
:10316000320306D503EBC000B0FBF2F000F007001D
:1031700005E003EB0010B0FBF2F000F00F00084395
:10318000208105B030BD0000003801408088C0F3C8
:1031900008007047C1F3080181807047FEE7000016
:1031A00070B50F4CE06B0F4E4FF4006500282946B8
:1031B000304610D0FDF73DFFE06B00280ED12068AF
:1031C000094988420AD90120E06329463046BDE812
:1031D0007040FDF72EBFFDF72EFFEDE770BD00003C
:1031E000F802002000080140E022020037B584B058
:1031F0000546BDF81400ADF808000024ADF8004005
:1032000041E000BFBDF8000018B1BDF8080040075C
:1032100022D100F03FF9ADF804400CE000F01AF9BB
:10322000A02000F0DBF800F04BF940B1BDF804003D
:10323000401CADF80400BDF804006428EED3BDF8CE
:103240000400B0F57A7F0FD0BDF80800C0B200F0DE
:10325000C5F800F035F938B9BDF80000285C00F079
:10326000BDF800F02DF920B100F014F9002007B0EE
:1032700030BDBDF80800401CADF80800BDF80000E6
:10328000401CADF80000BDF80010BDF818008142E8
:10329000B8D300F0FFF80120E9E7704770B50E4D94
:1032A0004FF4804421462846FDF7C3FE00F03AF86B
:1032B000660031462846FDF7BEFE00F033F8314681
:1032C0002846FDF7B6FE00F02DF821462846BDE859
:1032D0007040FDF7B0BE000000100140F8B50121BC
:1032E0001020FDF787FF4FF48040ADF80000142454
:1032F0000B4E8DF8034002258DF80250694630468A
:10330000FDF712FEA803ADF800008DF803408DF81C
:10331000025069463046FDF707FE00F0BBF8F8BDE5
:103320000010014008B500208DF800009DF8000055
:103330000A2803D29DF80000401CF5E708BD0000F4
:1033400070B50C4C4FF480412046FDF774FEFFF73A
:10335000E9FF4FF4004529462046FDF76CFEFFF7D4
:10336000E1FF29462046FDF764FEBDE87040FFF707
:10337000D9BF0000001001407CB500208DF800008E
:103380008DF804004FF40044134D66101DE040001A
:103390008DF8000021462846FDF74DFEFFF7C2FFDD
:1033A00031462846FDF73EFE20B19DF80000401C46
:1033B0008DF8000021462846FDF73BFEFFF7B2FFDF
:1033C0009DF80400401C8DF804009DF804000828B6
:1033D0009DF80000DBD37CBD0010014071B581B0C9
:1033E00000208DF800004FF48046194C75002AE04B
:1033F0009DF8040031460006204602D5FDF71BFE6D
:1034000001E0FDF716FEFFF78DFF29462046FDF788
:1034100012FEFFF787FF29462046FDF70AFE9DF8BA
:103420000000072803D131462046FDF704FE9DF831
:10343000040040008DF80400FFF774FF9DF80000C1
:10344000401C8DF800009DF800000828D0D37CBDFA
:103450000010014070B50E4D4FF4804421462846BF
:10346000FDF7E9FD660031462846FDF7E4FDFFF76C
:1034700059FF21462846FDF7DCFDFFF753FF314693
:103480002846FDF7D6FDBDE87040FFF74BBF0000B2
:103490000010014070B5094D4FF480442146284684
:1034A000FDF7C7FD61002846FDF7C5FDFFF73AFFB0
:1034B00021462846BDE87040FDF7BDBD0010014023
:1034C000F8B5104C4FF4804529462046FDF7B3FD72
:1034D000FFF728FF6E0031462046FDF7ACFDFFF7F1
:1034E00021FF29462046FDF79DFD00B101208DF802
:1034F000000031462046FDF79CFDFFF713FF9DF8C5
:103500000000F8BD00100140FDF7A4FEFEF7EEF844
:10351000FDF762FCFCF7FAFEFCF776FFFDF78EF88C
:10352000FFF7DCFEFDF726FCFFF74AFDFFF76AFC1C
:10353000FEF76AF9FDF7C8FD194901200864194D25
:10354000194E1A4F1A4C4FF0000800BFFDF7CEFD80
:103550002068C10604D520F010002060FEF7F0FEC0
:103560002878012803D185F80080FEF7F5FC308823
:10357000FCF7DEFEFCF7AAFF387818B9FEF714FA5C
:10358000FDF70AFA2068C10704D020F0010020608E
:10359000FDF7E4F8FEF7CAF900F00CF8D6E70000F2
:1035A000F8020020200000205400002052000020DB
:1035B000140000202DE9F05FDA4C626BDB4DDA4835
:1035C000DB4F2968DB4E21F040014FF0010992B139
:1035D000626B012A626B19D0022A626B1ED0032A29
:1035E00009D0626B042A06D0626B052A24D0626B74
:1035F000062A2CD039E0626B73789A4202D021F00F
:10360000200129600121FDF714FD2EE073789A4214
:1036100002D021F020012960012115E073789A423F
:1036200002D021F0200129600121FDF702FD606D2B
:10363000D8B9C4F8549018E00121FDF7FAFCC4F899
:103640003C904FF40061BC48FDF7F5FC0DE0626B67
:1036500073789A4202D021F0200129600121FDF700
:10366000E8FCA06B88B1B5483861616BA046717009
:10367000206BDFF8CCA2DFF8CCB2002438B1D8F848
:1036800030104046012915D044E1AF48ECE7202135
:10369000A948FDF7D0FC286820F0600028607C6015
:1036A0003470D8F8000038608AF800408BF8004089
:1036B000A6482EE1416B91B1416B01290FD0416BBE
:1036C00002290CD0416B032909D0416B052979D01F
:1036D000416B062974D0416B042972D01AE1C16B89
:1036E000012902D0C16B49B314E10168806F8142A6
:1036F0000ED2C8F8304020218F48FDF79CFC7C603A
:10370000D8F800003860286820F06000286003E0E6
:1037100020218948FDF78DFCD8F80000D8F87410F6
:10372000884202D93078002873D0D8F80000D8F841
:1037300074108842A8D2307880B3EBE00168806FC3
:1037400000EB8000B1EB400F0ED2C8F830402021D2
:103750007948FDF770FC7C60D8F800003860286874
:1037600020F06000286003E020217348FDF761FC31
:10377000D8F80000D8F8741001EB8101B0EB410FCC
:1037800002D93078002844D0D8F80000D8F8741056
:1037900001EB8101B0EB410FCDD3BBE0FFE7C8F8EF
:1037A000304020216448FDF746FC7C60D8F80000DA
:1037B0003860286820F0600028603046A9E001E009
:1037C00018E027E0746050F8881F82685143642233
:1037D00051437160716842F21072B1FBF2F10268FC
:1037E000511A716050F8880C7168884207D370686C
:1037F000FDF79CF920215048FDF71BFC8AE02021B1
:103800004D48FDF718FC7C60286820F060002860B7
:1038100080E064E0C16B012902D0C16B51B379E053
:103820000168806F814212D2C8F83040202142489E
:10383000FDF701FC7C60D8F800003860286820F0B3
:10384000600028608AF800408BF8004003E02021E7
:103850003948FDF7EEFBD8F80000D8F8741088421C
:1038600001D93078D8B3D8F80000D8F8741088425D
:1038700032D34FE00168806F00EB8000B1EB400F66
:1038800012D2C8F8304020212B48FDF7D4FB7C60D1
:10389000D8F800003860286820F0600028608AF8B6
:1038A00000408BF8004003E020212348FDF7C1FBD6
:1038B000D8F80000D8F8741001EB8101B0EB410F8B
:1038C00001D9307858B1D8F80000D8F8741001EB5D
:1038D0008101B0EB410F1DD2307840B11AE0FFE713
:1038E00020211548FDF7A5FB86F8009012E0C8F8E6
:1038F000304020211048FDF79EFB7C60D8F8000086
:103900003860286820F06000286034708AF8004031
:1039100058460470FDF704FCFFF742FCBDE8F05F79
:10392000FDF764BEF8020020000C014018000020E2
:10393000C00300209C0000200008014020BF0200BE
:10394000210000202200002058090300510000201F
:1039500090EA010F48BF81F0004100F12482421A31
:103960003CBF801A89184FEAD0524FF07F4C1CEAB6
:10397000410FA2EBD15318BF9CEA026F00F03B80CD
:103980004FF0004C4CEA00204CEA012121FA03FCE4
:1039900010EB0C0C1ED202F1FF325FEA1C2040EB50
:1039A000C25038BF70471CF07F0F4FEA400C18BF61
:1039B000BCF17F4F38BF7047C3F12003994008BF67
:1039C00020F00100BCF17F4F38BF7047A0F1C0402C
:1039D00000F0DDB94FEA3C00000A40EBC25028BFBE
:1039E0001CF0FF0F4FEA400CE6D018BFBCF17F4F30
:1039F00038BF7047EAE79CEA026F05D010EA5C0F17
:103A000008BF00F00040704710B500F07AF900BF21
:103A100064FBBE3E4FF47F0C1CEAD0121EBF1CEAB2
:103A2000D11392EA0C0F93EA0C0F00F0858090EA14
:103A3000010F48BF42F4807240F4000C41F40000D2
:103A40002CF07F4120F07F4000B58142A2EB0302C1
:103A50000FF2081CACEB504EC0F100009EF800E0E5
:103A60004FEA4E0E00FB0EFC38BF49004FEA2C1CFB
:103A700002F5FA020CFB0EF34FEACE1E4FEA112CB0
:103A80004FEAC1210EEB635E42EB22420EFB0CFCBF
:103A90004FEA1C5300FB03114FEA112C4FEA01318E
:103AA0000EFB0CFC4FEADC4C00FB0C11C14228BFA2
:103AB00009184CEB03335DF804EB10EB410143EBC9
:103AC000C250B2F57C0F38BF704729D512F0F00F05
:103AD0001CBF00F1C04000F00040704700818283AD
:103AE0008485868788898B8C8D8E8F91929395960D
:103AF00097999A9C9D9FA0A2A3A5A7A8AAACAEB097
:103B0000B2B3B5B7B9BCBEC0C2C5C7C9CCCED1D49B
:103B1000D7D9DCDFE2E6E9ECF0F3F7FAFE000000CB
:103B20004FEA400C0CF1807CBCF17E4F28BF7047FF
:103B3000B0F1C04000F02BB990EA010F0CEAD113AC
:103B400048BF42F48072624538BF634507D213F420
:103B50007F0F16D080EA010000F00040704710B5DA
:103B600000F0CFF8097EFC3E00F005B880EA0100C5
:103B700000F00040704780EA010000F0004000F0D3
:103B800006B912F47F0F04BF0248704780EA0100B3
:103B900000F0FDB80000C07FC10DD1F19E0206DB30
:103BA0004FEA002343F0004323FA02F0704700423B
:103BB00007D54FEA4001B1F1FE4F02D24FF00000AD
:103BC000704710B500F09DF849922480002070479E
:103BD0006FEA200070470000B0FA80F310FA03F299
:103BE000C3F19D030AD0D90501EB1220530638BF5B
:103BF000704700F1010008BF20F00100704700008D
:103C00004FF47F0C1CEAD0121EBF1CEAD11392EABB
:103C10000C0F93EA0C0F00F0478090EA010F48BFA9
:103C200042F480724FF0004C4CEA00204CEA012133
:103C300002EB0302A0FB0113A2F50002002918BF4A
:103C400043F001035B0028BF4FEA330342EB2242FB
:103C50005FEA132C4CEBC2502EBFBCEB436FB2F5A6
:103C60007C0F70474FEA036CBCF1004F08BF20F097
:103C70000100B2F57C0F38BF70470BD582F0FF0210
:103C800012F5803FC8BF704700F1C040D8BF00F0B8
:103C90000040704700F5000C5FEA4C0C48BF7047CD
:103CA000B0F1C04000F073B890EA010F0CEAD113F4
:103CB00048BF42F48072624538BF634504D280EA4F
:103CC000010000F00040704710B500F01AF800BF86
:103CD0008900013E00F007B800F009B85FEA410C26
:103CE0005FEA1C6C08D080EA010000F050B85FEA7F
:103CF000400C5FEA1C6CF6D14FF00040A0F580004C
:103D000070470EF1020E2EF0030E5EF8044B2442B3
:103D100004D44FEA4102B2F17F4F11D84FEA400379
:103D2000B3F17F4F0CD80ED14FEAD07CB2F17F4F68
:103D30000CEB4C0C0CF1020C08BF4CEBD17C04E0FA
:103D40004FF0080C01E04FEAD17C0CEB4C0324FA55
:103D500003F404F00704B4F1040C06D20EEB840C57
:103D6000BDE810404CF0010C6047DFE80CF007089C
:103D700002024FF00040A0F5800010BD084642004E
:103D800018BFD2F1807288BF00F0004010BDFF2143
:103D900041EAD050C005704790EA010F48BF81F05A
:103DA00000413FF5DCAD421A04D882F00042A0EB9E
:103DB000020011444FEAD0524FF07F4C1CEA410FF1
:103DC000A2EBD15318BF9CEA026F4AD04FF0004CCF
:103DD0004CEA00204CEA012121FA03FCB0EB0C0C68
:103DE0000FD412F0FE0F36D05FEA4C001DD5001242
:103DF00040EBC25038BF70471CF03F0F18BF7047F0
:103E00000BE0A2F101025FEA1C2040EBC25038BF78
:103E100070471CF07F0F18BF7047C3F12003994013
:103E200014BF401E20F00100704780084FEA1223A3
:103E300008BF7047B0FA80FCA2EB0C02CCF1280C52
:103E400060FA0CF093EA122F04BF00EBC2507047E7
:103E50004FEAC3707047130A5FEADC1008BF70476F
:103E6000F6E79CEA026F04D010EA5C0F08BF00205E
:103E7000704710B5FFF745FF40DFF63E81F0004088
:103E800070470000A43E000800000020A8000000C9
:103E90006C0100084C3F0008A800002088120000B8
:103EA0008801000802040608000000000102030463
:103EB00001020304060708090000000000000000DA
:103EC00000000000000000000000000000A24A0402
:103ED00000000000000000000102030406070809BA
:103EE00000000000000000000000000000000000D2
:103EF00000000000000000000000000000000000C2
:103F000000000000000000000000000000000000B1
:103F100000000000000000000000000000000000A1
:103F20000000000000000000000000000000000091
:103F30000000000000000000000000000000000081
:0C3F400000000000000000000000000075
:0400000508000131BD
:00000001FF
