:020000040800F2
:1000000070110020CD010008452C0008472C000885
:100010004B2C00084F2C0008532C00080000000057
:10002000000000000000000000000000572C000845
:10003000592C000800000000E30100085B2C0008B8
:10004000E7010008E7010008E7010008E7010008F0
:10005000E7010008E7010008E7010008E7010008E0
:10006000E7010008E7010008E7010008BB2F0008CE
:10007000D32F0008E7010008E7010008E7010008A6
:10008000E7010008E7010008E7010008E7010008B0
:10009000E7010008E7010008E7010008E7010008A0
:1000A000E7010008E7010008E7010008E701000890
:1000B000E7010008E7010008892F0008E7010008B0
:1000C000E7010008E7010008E7010008E701000870
:1000D000E7010008972C0008652D00086F2F000825
:1000E000E7010008E7010008E7010008E701000850
:1000F000E7010008E7010008E7010008E701000840
:10010000E7010008E7010008E7010008E70100082F
:10011000E7010008E7010008E7010008E70100081F
:10012000E7010008E7010008E7010008E70100080F
:1001300000F002F800F03AF80AA090E8000C8244BF
:100140008344AAF10107DA4501D100F02FF8AFF29C
:10015000090EBAE80F0013F0010F18BFFB1A43F0A5
:1001600001031847DC8A0000FC8A0000103A24BF13
:1001700078C878C1FAD8520724BF30C830C144BF0C
:1001800004680C607047000000230024002500264E
:10019000103A28BF78C1FBD8520728BF30C148BFEA
:1001A0000B6070471FB51FBD10B510BD08F01AFDDC
:1001B0001146FFF7F7FF02F0FFFC08F038FD03B42B
:1001C000FFF7F2FF03BC07F04BFE00000948804731
:1001D00009480047FEE7FEE7FEE7FEE7FEE7FEE729
:1001E000FEE7FEE7FEE7FEE704480549054A064B41
:1001F00070470000EF300008310100087007002050
:10020000701100207009002070090020314901435D
:10021000314A1160704770B5002100230F22C47865
:1002200004B32D4C246804F4E064C4F5E064210AAE
:10023000C1F10403CA40447804FA03F184781440FD
:1002400021430901254C0678A155047804F01F05C7
:100250000124AC4005786D11AD0005F1E025C5F82D
:10026000004109E0047804F01F050124AC401C4D56
:100270000678761145F8264070BD1A4A0A400243B6
:10028000154B1B1F1A60704739B1134A121D1268B3
:100290000243114B1B1D1A6006E00F4A121D126823
:1002A00082430D4B1B1D1A607047042808D14FF084
:1002B000E021096941F004014FF0E022116107E0FB
:1002C0004FF0E021096921F004014FF0E0221161B3
:1002D000704700000000FA050CED00E000E400E0CB
:1002E00080E100E080FFFF1F10B50446FA48844219
:1002F00008D10121401501F07DF90021601501F0C0
:1003000079F917E0F548844208D10121001501F080
:1003100071F90021201501F06DF90BE0F0488442DD
:1003200008D10121C80301F065F900214FF4004014
:1003300001F060F910BD30B502460020002350687E
:10034000E84C20400D790C6844EA052420435060B5
:100350009068E54C2040D1E902542C434D7944EAA1
:10036000450420439060D06A20F470000C7C641E29
:10037000E4B2234340EA0350D06230BD0021016063
:10038000017141718160C16001210174704721B127
:10039000826842F00102826003E0826822F001027A
:1003A0008260704721B1826842F48072826003E00B
:1003B000826822F480728260704710B50023CBB24D
:1003C0001AB144681C43446002E044689C434460A2
:1003D00010BD816841F0080181607047014600202E
:1003E0008A6802F008020AB1012000E0002070478C
:1003F000816841F0040181607047014600208A68ED
:1004000002F004020AB1012000E00020704721B18F
:10041000826842F4A002826003E0826822F4A002B3
:1004200082607047014600208A6802F480020AB1A7
:10043000012000E00020704710B50A46002100238B
:10044000416821F46041531E41EA4331416010BDCF
:1004500021B1426842F40062426003E0426822F443
:10046000006242607047F0B504460D46002000214E
:10047000092D11DDE068A5F10A0606EB46070726FF
:1004800006FA07F18843A5F10A0606EB460603FAC9
:1004900006F10843E0600CE0206905EB45070726FC
:1004A00006FA07F1884305EB450603FA06F108430F
:1004B0002061072A0FDA606B561E06EB86071F269F
:1004C00006FA07F18843561E06EB860605FA06F182
:1004D0000843606322E00D2A0FDA206BD61F06EB7B
:1004E00086071F2606FA07F18843D61F06EB860605
:1004F00005FA06F10843206310E0E06AA2F10D0658
:1005000006EB86071F2606FA07F18843A2F10D06BF
:1005100006EB860605FA06F10843E062F0BD21B15C
:10052000826842F48012826003E0826822F48012C2
:10053000826070470146C86C80B2704766484C3094
:100540000068704721B1426842F48062426003E073
:10055000426822F480624260704721B1426842F4EE
:100560008052426003E0426822F480524260704749
:100570000A460021816821F4E041114381607047FF
:1005800021B1826842F40042826003E0826822F472
:1005900000428260704721B1826842F40212826098
:1005A00003E0826822F40212826070470146002054
:1005B0008A6802F400120AB1012000E000207047AE
:1005C000F0B504461546002000220026092911DD59
:1005D000E068A1F10A0707EB470C072707FA0CF2BE
:1005E0009043A1F10A0707EB470703FA07F210430C
:1005F000E0600CE0206901EB410C072707FA0CF2E0
:10060000904301EB410703FA07F210432061A06B0E
:10061000C0F30156EF1C06F1010CA7EB0C0707EB2A
:10062000870C1F2707FA0CF29043EF1C06F1010C10
:10063000A7EB0C0707EB870701FA07F21043A0634B
:10064000F0BD10B50A4600210023816B21F4401152
:10065000531E41EA0351816310BD08B50023009386
:100660000090009B0B440093009B1A6008BD08B5E6
:10067000024600200090009201F12800009B1844DF
:1006800000900098006880B208BD0A4600214168C9
:10069000164B1940114341607047416282627047B6
:1006A0000A460021416821F01F0111434160704753
:1006B00040B109490831096841F40001064A08328D
:1006C000116007E004490831096821F40001024A79
:1006D00008321160704700000024014000280140EA
:1006E000003C0140FFFEF0FFFDF7F1FFFFFD3FFF83
:1006F0000246002013680B400BB1012000E00020EF
:100700007047CA430260704770B50246002000235C
:1007100000240B125568CEB205EA060415681D4088
:1007200015B10CB1012000E0002070BD00220A12BA
:10073000D34303607047000001684FF6FE7211401A
:1007400001600021016041608160C1608D49884283
:1007500008D18C490839496841F00F01894A083AA3
:1007600051608AE087491431884208D185490839A7
:10077000496841F0F001834A083A51607DE08149BF
:100780002831884208D17F490839496841F47061AD
:100790007C4A083A516070E07A493C31884208D17D
:1007A00078490839496841F47041764A083A5160FD
:1007B00063E074495031884208D172490839496868
:1007C00041F470216F4A083A516056E06D49643136
:1007D000884208D16B490839496841F47001694A77
:1007E000083A516049E067497831884208D1654943
:1007F0000839496841F07061624A083A51603CE04A
:100800006149884206D1011F096841F00F01021FAA
:10081000116032E05C491431884208D15A49091FFD
:10082000096841F0F001584A121F116025E056494D
:100830002831884208D15449091F096841F4706180
:10084000514A121F116018E04F493C31884208D1CB
:100850004D49091F096841F470414B4A121F11604C
:100860000BE049495031884207D14749091F0968BF
:1008700041F47021444A121F1160704710B50022E4
:10088000026847F6F0739A430C6A8B6823430C693D
:1008900023434C6923438C692343CC6923434C6A2B
:1008A00023438C6A23431A430260CB6843600B687E
:1008B00083604B68C36010BD0021016041608160AE
:1008C000C160016141618161C16101624162816216
:1008D000704721B1026842F00102026004E0026840
:1008E0004FF6FE731A40026070471AB103680B435B
:1008F000036002E003688B43036070474160704708
:100900000146486880B2704701460020002201F08D
:1009100080531BB11C4B083B1A6802E0194B083B83
:100920001A6802EA01030BB1012000E000207047C1
:1009300000F0805119B11449091F086002E0114903
:1009400008394860704701460020002201F08053BA
:100950001BB10D4B083B1A6802E00A4B083B1A68B2
:1009600002EA01030BB1012000E00020704700F013
:10097000805119B10449091F086002E00149083992
:100980004860704708000240080402400146002009
:10099000FE4A106800F03800084310607047FB49B9
:1009A000096821F00801F94A1160114609680143FC
:1009B00011607047F549096821F01001F34A116090
:1009C00011460968014311607047F148EF494860DA
:1009D000F04848607047EE48EC494860ED48486090
:1009E0007047EA48006940F08000E84908617047B4
:1009F000E648006940F08000E4490861704704203F
:100A0000E249C96801F0010109B101200EE0DF49A6
:100A1000C96801F0040109B1022007E0DB49C96897
:100A200001F0100109B1032000E00420704700B577
:100A300002460423FFF7E3FF034603E0FFF7DFFF6F
:100A40000346521E012B01D1002AF7D102B905231A
:100A5000184600BD30B5044604254FF43020FFF79A
:100A6000E6FF0546042D17D1C848006940F0020092
:100A7000C649086108464461006940F040000861C9
:100A80004FF43020FFF7D3FF0546C048006941F618
:100A9000FD710840BD490861284630BD10B50424E9
:100AA0004FF43020FFF7C3FF0446042C16D1B7489B
:100AB000006940F00400B54908610846006940F04B
:100AC000400008614FF43020FFF7B1FF0446AF4803
:100AD000006941F6FB710840AC490861204610BD31
:100AE00000B502460423FFF78AFF034603E0FFF741
:100AF00086FF0346521E012B01D1002AF7D102B90D
:100B00000523184600BD10B504244FF43020FFF72C
:100B1000E7FF0446042C16D19C48006940F004000D
:100B20009A4908610846006940F0400008614FF4A6
:100B30003020FFF7D5FF04469448006941F6FB7169
:100B4000084092490861204610BD00208F49C969BC
:100B500001F0020109B1012000E00020704730B52A
:100B6000A5250424FFF7F1FF00B100254FF4302044
:100B7000FFF75DFF0446042C3AD18548834988601D
:100B8000844888600846006940F0200008610846F3
:100B9000006940F0400008614FF43020FFF747FF44
:100BA0000446042C1BD17948006941F6DF710840E6
:100BB000764908610846006940F0100008617648EF
:100BC0000580E002FFF733FF0446052C10D06F4884
:100BD000006941F6EF7108406C49086108E0052C96
:100BE00006D06A48006941F6EF710840674908611C
:100BF000204630BD78B506460C46042500200090FE
:100C0000E802FFF714FF0546042D24D15F48006970
:100C100040F001005D4908613480E802FFF707FFFA
:100C20000546042D10D1B01C0090200C00990880BE
:100C3000E802FFF7FCFE05465448006941F6FE71E4
:100C400008405249086106E05048006941F6FE71CB
:100C500008404E490861284678BD70B504460D46E7
:100C60000426F002FFF7E3FE0646042E11D14748A2
:100C7000006940F00100454908612580F002FFF756
:100C8000D6FE06464148006941F6FE7108403F49DC
:100C90000861304670BD70B505460E460424E0027A
:100CA000FFF7C5FE0446042C17D139483749886040
:100CB000384888600846006940F0100008612E80BE
:100CC000E002FFF7B4FE0446052C06D02F48006969
:100CD00041F6EF7108402D490861204670BD2DE9AD
:100CE000F04304464FF6FF763746B046B14604253A
:100CF000E443E6B2C4F30727C4F307484FEA146994
:100D0000E802FFF794FE0546042D49D120481F490B
:100D10008860204888600846006940F0100008613B
:100D2000FF2E06D01C4808300680E802FFF77FFE41
:100D30000546042D08D1FF2F06D017480A3007803A
:100D4000E802FFF774FE0546042D0AD1B8F1FF0F43
:100D500007D011480C30A0F80080E802FFF767FECA
:100D60000546042D0AD1B9F1FF0F07D00A480E300D
:100D7000A0F80090E802FFF75AFE0546052D0FD0B7
:100D80000248006941F6EF71084007E00020024088
:100D900023016745AB89EFCD00F8FF1F6649086165
:100DA0002846BDE8F08330B5054604244FF43020D2
:100DB000FFF73DFE0446042C41D160485E4988603F
:100DC0005F4888600846006940F0200008610846D6
:100DD000006940F0400008614FF43020FFF727FE23
:100DE0000446042C22D15448006941F6DF710840C2
:100DF000514908610846006940F0100008611DB1C2
:100E000000205049088002E0A5204E4908804FF498
:100E10003020FFF70CFE0446052C10D04648006930
:100E200041F6EF7108404449086108E0052C06D0FE
:100E30004148006941F6DF7108403F49086120469A
:100E400030BDF0B505460E46174604243B483A49E6
:100E500088603B488860E002FFF7E9FD0446042C07
:100E600019D13548006940F010003349086147F056
:100E7000F800304328433349891C0880E002FFF71B
:100E8000D6FD0446052C06D02B48006941F6EF71CB
:100E90000840294908612046F0BD2748C0698008FC
:100EA00070472548006A704700202349096801F00F
:100EB000200109B1012000E00020704729B11E4A3D
:100EC000126902431C4B1A6104E01B4A12698243F7
:100ED000194B1A61704701460020012908D1164AB2
:100EE000D26902F001020AB1012008E0002006E008
:100EF000114AD2680A400AB1012000E00020704780
:100F00000D49C860704704200B49C96801F0010110
:100F100009B101200EE00849C96801F0040109B1D6
:100F2000022007E00449C96801F0100109B103205B
:100F300000E00420704700000020024023016745C4
:100F4000AB89EFCD00F8FF1F10B50446CC488442B2
:100F500008D10121042000F04DFB0021042000F005
:100F600049FB46E0C748844208D10121082000F02F
:100F700041FB0021082000F03DFB3AE0C2488442DA
:100F800008D10121102000F035FB0021102000F0D5
:100F900031FB2EE0BD48844208D10121202000F021
:100FA00029FB0021202000F025FB22E0B8488442E4
:100FB00008D10121402000F01DFB0021402000F05D
:100FC00019FB16E0B348844208D10121802000F0CB
:100FD00011FB0021802000F00DFB0AE0AE488442A6
:100FE00007D10121801500F005FB0021A01500F0BC
:100FF00001FB10BD10B50121084600F0FBFA0021ED
:10100000012000F0F7FA10BD2DE9F041024600255D
:101010000026002000230024002791F803C00CF0D4
:101020000F0591F803C00CF0100CBCF1000F03D0B9
:1010300091F802C04CEA050591F800C0BCF1000F20
:1010400031D0146800202BE04FF0010C0CFA00F3B3
:10105000B1F800C00CEA03069E4220D183004FF095
:101060000F0C0CFA03F7BC4305FA03FC4CEA04042A
:1010700091F803C0BCF1280F06D14FF0010C0CFA17
:1010800000FCC2F814C00AE091F803C0BCF1480F9C
:1010900005D14FF0010C0CFA00FCC2F810C0401C46
:1010A0000828D1D31460B1F800C0BCF1FF0F34DDC3
:1010B000546800202EE000F1080C4FF0010808FAF7
:1010C0000CF3B1F800C00CEA03069E4221D1830064
:1010D0004FF00F0C0CFA03F7BC4305FA03FC4CEA83
:1010E000040491F803C0BCF1280F05D100F1080CED
:1010F00008FA0CF8C2F8148091F803C0BCF1480F4C
:1011000007D100F1080C4FF0010808FA0CF8C2F8FA
:101110001080401C0828CED35460BDE8F0814FF603
:10112000FF710180022181700421C1707047024665
:10113000002093680B400BB1012000E000207047B5
:101140000146886880B2704702460020D3680B4091
:101150000BB1012000E0002070470146C86880B252
:10116000704701617047416170470AB1016100E059
:1011700041617047C16070474FF480320A43826119
:101180008161826182698269704702460020434B17
:1011900018684FF68073184040EA021008433F4B2E
:1011A000186070473E49C8617047F0B50A46002391
:1011B00000240021002500F00046B6F1004F02D1C6
:1011C000364EF16901E0354E7168C0F3034583B2D4
:1011D00000F44016B6F5401F08D121F070612F4E83
:1011E000766826F070662D4F7E6012E000F480165F
:1011F000B6F5801F06D1032606FA05F4A14341F097
:10120000706106E0460D360103FA06F6B14341F07F
:10121000706122B1460D360103FA06F6314300F043
:101220000046B6F1004F02D11C4EF16101E01B4EA9
:101230007160F0BD30B500228B071C0F0F2303FA3D
:1012400004F2164B08338C1053F824309343134C9C
:1012500008348D1044F8253023468C1053F8243080
:101260008C07240F00FA04F423430C4C08348D102F
:1012700044F8253030BD0A49DC3108607047000071
:1012800000080140000C0140001001400014014022
:1012900000180140001C01400020014000000140F6
:1012A000000020420E49086070470D4948607047B1
:1012B0000B49886070474AF6AA20094908607047C0
:1012C0004CF6CC4006490860704701460020044AAD
:1012D000D2680A400AB1012000E0002070470000F7
:1012E00000300040DF48006840F00100DD49086040
:1012F00008464068DC490840DA494860084600680A
:10130000DA490840D74908600846006820F4802080
:1013100008600846406820F4FE0048604FF41F0053
:1013200088607047CF49096821F48031CD4A116047
:101330001146096821F480211160B0F5803F03D087
:10134000B0F5802F0ED106E0C649096841F480311E
:10135000C44A116007E0C349096841F4A021C14AA9
:10136000116000E000BF00BF704710B501460022C9
:10137000002300204A11012A02D1BA4C236806E05A
:10138000022A02D1B74C236A01E0B64C636A01F02D
:101390001F02012494401C400CB1012000E00020F9
:1013A00010BD38B5002000900024002500BF31207A
:1013B000FFF7DBFF05460098401C00900098B0F551
:1013C000A06F01D0002DF2D03120FFF7CEFF08B181
:1013D000012400E00024204638BD01460020A14A37
:1013E000106820F0F80040EAC10010607047A04982
:1013F00008607047024600209A4B586820F47C1021
:1014000042EA01031843974B5860704798490866B1
:10141000704701460020934A506820F003000843BB
:10142000506070478F48406800F00C0070470146DC
:1014300000208C4A506820F0F0000843506070474C
:1014400001460020874A506820F4E060084350605D
:10145000704701460020834A506820F4605040EAFB
:10146000C1005060704729B17E4A527A02437D4BD9
:101470005A7204E07B4A527A82437A4B5A7270471E
:101480007B49D8310860704701460020754A506892
:1014900020F440400843506070470021714A2032D8
:1014A0001170704A82F82010012802D004280AD155
:1014B00004E001216B4A2032117005E00521694AE0
:1014C0002032117000E000BF00BF7047694908601A
:1014D00070476449096A0143624A1162704765496D
:1014E00044390860704730B50021002200240023F1
:1014F0005C4D6D6805F00C0121B1042905D0082967
:1015000023D105E05C4D056022E05B4D05601FE0E6
:10151000544D6D6805F47012524D6D6805F48034B9
:10152000022505EB92421CB9544D554305600BE072
:101530004C4D6D6805F400351DB1504D55430560A7
:1015400002E04D4D5543056002E04B4D056000BF84
:1015500000BF444D6D6805F0F0010909484D6B5C12
:101560000568DD4045603F4D6D6805F4E061090A9E
:10157000434D6B5C4568DD4085603A4D6D6805F410
:101580006051C90A3E4D6B5C4568DD40C560354D14
:101590006D6805F44041890B3A4D6B5CC568B5FB3D
:1015A000F3F5056130BD29B12E4A526902432D4B36
:1015B0005A6104E02B4A526982432A4B5A617047B0
:1015C00029B1284A92690243264B9A6104E0254AD0
:1015D00092698243234B9A61704729B1214AD269AB
:1015E0000243204BDA6104E01E4AD26982431D4B5C
:1015F000DA61704729B11B4AD2680243194BDA609D
:1016000004E0184AD2688243164BDA60704729B169
:10161000144A12690243134B1A6104E0114A126919
:101620008243104B1A617047124940390860704775
:101630000F49C86470470B49C87170470948406A30
:1016400040F0807007494862704701460020054A13
:1016500092680A400AB1012000E000207047014969
:1016600088727047001002400000FFF8FFFFF6FE8E
:10167000000042428004424200127A0000093D000C
:10168000000000201000002010B50446BE4884422F
:1016900008D101218014FFF7ADFF0021A014FFF74E
:1016A000A9FF16E0B948844208D101210014FFF7D0
:1016B000AEFF00212014FFF7AAFF0AE0B4488442DD
:1016C00007D10121C013FFF7A2FF0021E013FFF7AC
:1016D0009EFF10BD10B50022028802F441520B8813
:1016E0004C8823438C882343CC8823430C89234391
:1016F0004C8923438C892343CC8923431A4302809A
:10170000838B4FF2FF74234083830B8A038210BDC7
:101710002DE9F04F85B005460C464FF00009022731
:101720004FF000084FF0010B0026B246A88B4FF295
:1017300040010840A88302202884B5F81C90A068C6
:10174000022801D100BF38E0A08810B94FF0010B8A
:1017500001E04FF0020B8D48854200D100E000BF50
:101760006846FFF7C0FEDDF800A0E088B0F5007F16
:101770000AD14FEA1A2000EB80004000A168B0FBBC
:10178000F1F0401D86B20BE04FEA4B10BAFBF0F0CF
:1017900000EB80004000A168B0FBF1F0401D86B274
:1017A0000A20B6FBF0F606F00108A6EB0800C0F32D
:1017B0004F074FF6FF7000EA0828022F01DBFF2FCA
:1017C00002DD02274FF00008E08840EA08003843B5
:1017D0002884A088A1890843618808432188084398
:1017E00040F4006040EA0909A5F81C9005B0BDE886
:1017F000F08F0021018041808180C1800181418181
:101800008181C181072101827047002101804180CF
:101810008180C1800221816000218181704721B1D6
:10182000028842F04002028004E002884FF6BF7353
:101830001A400280704721B1828B42F48062828319
:1018400004E0828B4FF6FF331A408283704730B535
:10185000002400230C110125A540ABB21AB18588E4
:101860001D43858002E085889D43858030BD1AB187
:1018700083880B43838002E083888B438380704797
:10188000818170470146888970474FF6FF62914217
:1018900004D0028842F48072028004E002884FF68D
:1018A000FF631A400280704721B1828842F004022F
:1018B000828004E082884FF6FB731A408280704772
:1018C00002884FF2FF731A40028002880A430280A6
:1018D0007047018841F480510180704721B102882E
:1018E00042F40052028004E002884DF6FF731A4071
:1018F0000280704702460020012901D0108B00E0D1
:10190000908A70470146088A7047B1F5804F04D12C
:10191000028842F48042028004E002884BF6FF73A2
:101920001A40028070470246002013890B400BB119
:10193000012000E000207047CA4302817047F0B5E3
:101940000246002000240023002501F00F07012695
:10195000BE40B4B20B1101269E40B3B2968806EA8F
:1019600003051689264016B10DB1012000E00020C4
:10197000F0BD10B5002201F00F040123A3409AB27C
:10198000D343038110BD0000003001400038004007
:10199000003C004010B50446FE48844208D10121B5
:1019A000C014FFF727FE0021E014FFF723FEC4E078
:1019B000B4F1804F08D101210846FFF728FE00212D
:1019C0000120FFF724FEB8E0F348844208D101214A
:1019D0000220FFF71CFE00210220FFF718FEACE0FA
:1019E000EE48844208D101210420FFF710FE0021B7
:1019F0000420FFF70CFEA0E0E948844208D1012151
:101A00000820FFF704FE00210820FFF700FE94E005
:101A1000E448844208D101211020FFF7F8FD00219D
:101A20001020FFF7F4FD88E0DF48844208D101214F
:101A30002020FFF7ECFD00212020FFF7E8FD7CE0EF
:101A4000DA48844208D101214014FFF7D3FD002178
:101A50006014FFF7CFFD70E0D548844209D1012121
:101A6000C804FFF7C7FD00214FF40020FFF7C2FDB7
:101A700063E0D048844209D101210805FFF7BAFD8F
:101A800000214FF48010FFF7B5FD56E0CA488442AC
:101A900009D101214805FFF7ADFD00214FF40010E9
:101AA000FFF7A8FD49E0C548844208D10121402044
:101AB000FFF7ADFD00214020FFF7A9FD3DE0C04844
:101AC000844208D101218020FFF7A1FD0021802060
:101AD000FFF79DFD31E0BB48844208D1012180150C
:101AE000FFF795FD0021A015FFF791FD25E0B64811
:101AF000844209D101210804FFF77CFD00214FF445
:101B00008030FFF777FD18E0B048844209D1012109
:101B10004804FFF76FFD00214FF40030FFF76AFD26
:101B20000BE0AB48844208D101218804FFF762FD35
:101B300000214FF48020FFF75DFD10BD00220288D8
:101B4000944B98420ED0994B98420BD0B0F1804FF5
:101B500008D0914B984205D0904B984202D0904BC0
:101B6000984204D14FF68F731A404B881A438D4B1D
:101B7000984207D08C4B984204D04FF6FF431A404E
:101B8000CB881A4302808B8883850B880385814B21
:101B900098420BD0854B984208D08B4B984205D089
:101BA0008A4B984202D08A4B984201D10B7A038625
:101BB00001238382704770B5002400220023058C26
:101BC0004FF6FE7635400584028C8388048B4FF6F1
:101BD0008F752C40B51E2C400D882C43751E2A4055
:101BE0000D892A434D882A436A4DA8420BD06F4D78
:101BF000A84208D0744DA84205D0744DA84202D026
:101C0000734DA84213D14FF6F7752A404D892A43E8
:101C10004FF6FB752A408D882A434FF6FF652B400F
:101C20004FF6FF552B408D892B43CD892B43838065
:101C30000483CD888586028470BD70B5002400229F
:101C40000023058C4FF6EF7635400584028C83889F
:101C5000048B48F6FF752C404FF6FF452C400D884D
:101C60004FF6FF7606EA05252C434FF6DF752A402E
:101C70000D8906EA05152A434D8806EA05152A430B
:101C8000444DA84202D0494DA8421DD14FF67F7560
:101C90002A404D894FF6FF7606EA05152A434FF68E
:101CA000BF752A408D8806EA05152A434FF6FF3591
:101CB0002B404FF2FF752B408D8906EA85052B439B
:101CC000CD8906EA85052B4383800483CD8805876B
:101CD000028470BD70B5002400220023058C4FF6ED
:101CE000FF6635400584028C8388848B4FF68F75A0
:101CF0002C404FF6FC752C400D882C434FF6FF55B9
:101D00002A400D894FF6FF7606EA05252A434D88BD
:101D100006EA05252A431F4DA84202D0234DA842BA
:101D20001DD14FF2FF752A404D894FF6FF7606EA26
:101D300005252A434FF6FF352A408D8806EA0525FA
:101D40002A434EF6FF752B404DF6FF752B408D89CB
:101D500006EA05152B43CD8906EA05152B4383803A
:101D60008483CD888587028470BD70B500220023EE
:101D70000024058C4EF6FF7635400584038C84885C
:101D8000828B48F6FF752A404FF6FF452A400D88A2
:101D900020E00000002C014000040040000800404A
:101DA000000C0040001000400014004000340140CE
:101DB000004C014000500140005401400018004018
:101DC000001C004000200040004001400044014051
:101DD000004801404FF6FF7606EA05252A434DF6F6
:101DE000FF752B400D8906EA05352B434D8806EA21
:101DF00005352B43FA4DA84202D0FA4DA84208D12E
:101E00004BF6FF752C408D894FF6FF7606EA851557
:101E10002C4384808283CD88A0F84050038470BD19
:101E2000828B4FF2FF331A408283828B4FF6FF730F
:101E300003EA01231A4382837047F0B50C46154626
:101E4000002200210026078C4EF6FF7C07EA0C07D3
:101E50000784828B018C4FF6FF7707EA043640F641
:101E6000FF473A404FF6FF7707EA05273A434FF618
:101E7000FF7707EA03373A43D94FB8420ED0D94F1C
:101E8000B8420BD0B0F1804F08D0D74FB84205D040
:101E9000D64FB84202D0D64FB84206D14DF6FF77A2
:101EA000394046F48057394305E047F6FF5739403B
:101EB00044F48057394382830184F0BD828B4FF60E
:101EC000F3731A408283828B0A4382837047F0B592
:101ED0000C461546002200210026078C4FF6FF6CA9
:101EE00007EA0C070784828B018C4FF6FF7707EA1D
:101EF00004264FF60C773A404FF6FF7707EA0317B0
:101F00002F433A43B64FB8420ED0B64FB8420BD02B
:101F1000B0F1804F08D0B44FB84205D0B34FB842AB
:101F200002D0B34FB84206D14FF6FF57394046F4BE
:101F30008077394305E04FF2FF57394044F480770A
:101F4000394382830184F0BD028B4FF2FF331A4084
:101F50000283028B4FF6FF7303EA01231A430283C5
:101F60007047F0B50C461546002200210026078C6C
:101F70004FF6EF7C07EA0C070784028B018C4FF6C3
:101F8000FF7707EA041640F6FF473A404FF6FF771F
:101F900007EA03373A434FF6FF7707EA05273A4344
:101FA0008F4FB8420ED08F4FB8420BD0B0F1804F58
:101FB00008D08D4FB84205D08C4FB84202D08C4F1C
:101FC000B84206D14FF6DF77394046F01007394363
:101FD00005E04FF65F77394044F01007394302833C
:101FE0000184F0BD028B4FF6F3731A400283028B1B
:101FF0000A4302837047F0B50C46154600220021C3
:10200000068C4FF6FE773E400684028B018C4FF61D
:102010000C7632407E1C06EA03162E433243704E85
:10202000B0420ED06F4EB0420BD0B0F1804F08D00E
:102030006D4EB04205D06D4EB04202D06C4EB042F3
:1020400006D14FF6FD76314044F00106314305E0FC
:102050004FF6F576314044F00106314302830184A6
:10206000F0BD70B505460C465D4885420ED05D4812
:1020700085420BD0B5F1804F08D05B48854205D032
:102080005A48854202D05A48854200D100E000BF3C
:10209000208850B92389A28861882846FFF7ABFFC2
:1020A000E1882846FFF79EFF25E0208804280AD112
:1020B0002389A28861882846FFF753FFE1882846D4
:1020C000FFF742FF17E0208808280AD12389A28859
:1020D00061882846FFF7FBFEE1882846FFF7EEFE01
:1020E00009E02389A28861882846FFF7A6FEE188D7
:1020F0002846FFF795FE70BD2DE9F04105460C46D8
:1021000000260127608808B9022600E00026A08882
:10211000012801D1022700E001272088A0B92389E6
:10212000A28861882846FFF766FFE1882846FFF706
:1021300059FF23893A4631462846FFF712FFE188C6
:102140002846FFF701FF13E02389A288618828460B
:10215000FFF707FFE1882846FFF7F6FE23893A4696
:1021600031462846FFF747FFE1882846FFF73AFF48
:10217000BDE8F0810A884B881A438B881A43CB88C4
:102180001A430B891A434B891A438B891A43A0F8C7
:10219000442070474FF6FF71818000210180C1808B
:1021A0004180017270470021018041808180C1809F
:1021B000018141818181C18170470021018041807D
:1021C000012181800021C1800181704700210180AF
:1021D00041808180C18001814181818170470000FF
:1021E000002C014000340140000400400008004081
:1021F000000C004021B1028842F00102028004E09C
:1022000002884FF6FE731A400280704731B1B0F871
:10221000442042F40042A0F8442005E0B0F84420F5
:10222000C2F30E02A0F8442070471AB183890B4311
:10223000838102E083898B43838170478182704769
:1022400041EA0203A0F8483070471AB183890B4372
:10225000838102E083898B438381704701894FF634
:10226000F8721140018170470A46002101894FF63A
:102270008F73194011430181704730B504460D46F4
:1022800029462046FFF7F0FF208940F00700208113
:1022900030BD2DE9F04104460D4616461F46602D1F
:1022A00006D13B46012231462046FFF75AFE05E0A3
:1022B0003B46012231462046FFF79DFE2946204637
:1022C000FFF7D2FF208940F007002081BDE8F081B0
:1022D00030B50C4600210189C9B24FF6FF7505EAF9
:1022E0000325154325432943018130BD2DE9F041E4
:1022F00005460E4617469846002443463A46314660
:102300002846FFF7E5FF2C894FF6F870044044F0AB
:1023100007044FF68F70044044F070042C81BDE830
:10232000F081F0B504460D4616461F463B46324640
:1023300029462046FFF7CCFF208940F480402081C9
:10234000F0BD0185828270470A46002101884FF660
:102350008F731940114301807047F0B50C46154644
:102360001E460021002200230189028B038C4FF6B8
:10237000F877394021434FF6FC473A4040F20117C5
:102380003A434FF6DD773B404FF6FF7707EA0617F3
:102390002F433B43018102830384F0BD0A460021A1
:1023A000018B4FF68F7319401143018370470A4622
:1023B0000021018B48F6FF7319404FF6FF7303EAC3
:1023C00002231943018370470A460021818B4FF68F
:1023D0008F7319401143818370470A460021818B16
:1023E00048F6FF7319404FF6FF7303EA02231943BF
:1023F0008183704721B1028842F08002028004E0AC
:1024000002884FF67F731A400280704721B182889C
:1024100042F00402828004E082884FF6FB731A4087
:102420008280704721B1828842F00802828004E0F5
:1024300082884FF6F7731A408280704721B18288F4
:1024400042F00102828004E082884FF6FE731A4057
:10245000828070470A460021018B4FF6F7731940BE
:102460001143018370470A460021018B4FF2FF732D
:1024700019404FF6FF7303EA0223194301837047A3
:102480000A460021818B4FF6F7731940114381836F
:1024900070470A460021818B4FF2FF7319404FF6B7
:1024A000FF7303EA02231943818370470A46002120
:1024B000018B4FF6FB7319401143018370470A46A5
:1024C0000021018B4FF6FF3319404FF6FF7303EAEB
:1024D00002231943018370470A460021818B4FF67E
:1024E000FB7319401143818370470A460021818B99
:1024F0004FF6FF3319404FF6FF7303EA02231943E7
:10250000818370470A460021018B4FF67F73194083
:102510001143018370470A460021018BC1F30E016C
:102520004FF6FF7303EA02231943018370470A46FB
:102530000021818B4FF67F731940114381837047CF
:102540000A460021818BC1F30E014FF6FF7303EAA7
:1025500002231943818370470A460021018C4FF6FC
:10256000FD7319401143018470470A460021018C14
:102570004FF6F77319401143018470470A46002152
:10258000018C4FF6DF7319404FF6FF7303EA021315
:102590001943018470470A460021018C4FF67F736E
:1025A00019404FF6FF7303EA021319430184704781
:1025B0000A460021018C4FF6FF5319404FF6FF7376
:1025C00003EA02231943018470470A460021018C63
:1025D0004FF2FF7319404FF6FF7303EA02231943CA
:1025E000018470470A460021018C4DF6FF731940A3
:1025F0004FF6FF7303EA023319430184704730B585
:10260000002301248C40A3B2048C9C430484048CDA
:1026100002FA01F5ADB22C43048430BD30B500237D
:1026200004248C40A3B2048C9C430484048C02FADE
:1026300001F5ADB22C43048430BD70B503460020D3
:1026400000241846183001258D40ACB21D8CA543DE
:102650001D8409B1082909D100EB6100056825F046
:10266000700505600568154305600EE00D1FC5F394
:102670004E052844056825F4E045056005684FF6D9
:10268000FF7606EA02263543056070BD21B1028857
:1026900042F00202028004E002884FF6FD731A4005
:1026A0000280704721B1028842F00402028004E0F7
:1026B00002884FF6FB731A400280704721B182886E
:1026C00042F08002828004E082884FF67F731A40D5
:1026D0008280704702884FF6F7731A4002800288A2
:1026E0000A430280704782884FF68F731A408280B7
:1026F00082880A438280704702894FF6F8731A4035
:10270000028102890A430281704702894FF67F7372
:102710001A40028102890A4302817047818470470E
:102720008185704781867047018770478187704730
:10273000A0F84010704702884FF6FF431A4002800D
:1027400002880A43028070470146888E704701461E
:10275000088F70470146888F70470146B1F84000E6
:1027600070470146888C70470146088D70470246C5
:102770000020138A0B400BB1012000E000207047BD
:10278000CA430282704730B502460020002300246D
:10279000158A05EA0103958905EA010413B10CB114
:1027A000012000E0002030BDCA43028270470000D3
:1027B00010B50446FB48844209D101218803FEF785
:1027C00019FF00214FF48040FEF714FF32E0F64875
:1027D000844209D101214804FEF719FF00214FF47A
:1027E0000030FEF714FF25E0F048844209D10121B2
:1027F0008804FEF70CFF00214FF48020FEF707FF4E
:1028000018E0EB48844209D10121C804FEF7FFFE1D
:1028100000214FF40020FEF7FAFE0BE0E548844269
:1028200008D101210805FEF7F2FE00214FF48010C7
:10283000FEF7EDFE10BD2DE9F04786B005460E46C9
:102840000024A24600BFA1460027B08900B100BF06
:102850002F462C8A4CF6FF700440F08804432C82EB
:10286000AC894EF6F3100440B08831890843718971
:1028700008430443AC81AC8A4FF6FF400440B08962
:102880000443AC8201A8FEF72EFEC648874202D15F
:10289000DDF810A001E0DDF80CA0A88900F40040EC
:1028A00040B10AEBCA0000EB0A1031684900B0FBE6
:1028B000F1F807E00AEBCA0000EB0A103168890062
:1028C000B0FBF1F86420B8FBF0F0040120096421AA
:1028D00001FB1089A88900F4004040B1322000EBD0
:1028E000C900B0FBF1F000F00700044308E032201B
:1028F00000EB09106421B0FBF1F000F00F0004437D
:102900002C8106B0BDE8F0874FF41651016000211C
:102910008180C18001810C2141810021818170472A
:1029200010B502460020108A4FF2FF0318400B88B2
:102930004C8823438C882343CC882343184310823C
:1029400010BD0021018041808180C180704721B18C
:10295000828942F40052828104E082894DF6FF733D
:102960001A4082817047F0B50346002400260025F6
:10297000002040F66A17B94200D100BF1846C1F3E3
:10298000421401F01F06012707FA06F5012C01D1B8
:102990000C3004E0022C01D1103000E014301AB1E8
:1029A00007682F43076002E00768AF430760F0BD88
:1029B0001AB1838A0B43838202E0838A8B4383822A
:1029C0007047028A4FF6F0731A400282028A0A4365
:1029D0000282704782894FF2FF731A408281828996
:1029E0000A438281704721B1828942F002028281CA
:1029F00004E082894FF6FD731A4082817047028A93
:102A00004FF6DF731A400282028A0A43028270473D
:102A100021B1028A42F48042028204E0028A4BF62B
:102A2000FF731A4002827047C1F308028280704728
:102A300001468888C0F308007047818941F0010190
:102A400081817047028BD2B20283028B42EA01225B
:102A500002837047028B02F47F420283028B0A4397
:102A60000283704721B1828A42F02002828204E010
:102A7000828A4FF6DF731A408282704721B1828AC0
:102A800042F01002828204E0828A4FF6EF731A400D
:102A90008282704721B1828A42F00802828204E079
:102AA000828A4FF6F7731A408282704721B1828979
:102AB00042F40042828103E08289C2F30E028281E5
:102AC000704721B1828A42F40062828204E0828AE5
:102AD0004FF2FF731A4082827047828A4FF6FB736F
:102AE0001A408282828A0A438282704721B1828A96
:102AF00042F00202828204E0828A4FF6FD731A409D
:102B00008282704702460020B1F5007F00D100BFED
:102B100013880B400BB1012000E00020704701F446
:102B20000072B2F5007F00D100BFCA430280704737
:102B300070B50246002400230025002040F66A16E6
:102B4000B14200D100BFC1F3421501F01F030126BD
:102B500006FA03F3012D02D19689334006E0022DD7
:102B600002D1168A334001E0968A33400C120126C6
:102B700006FA04F41688344013B10CB1012000E0C9
:102B8000002070BD10B50022002340F66A14A14257
:102B900000D100BF0A1201249440A3B2DC43048098
:102BA00010BD0000003801400044004000480040D3
:102BB000004C00400050004000F0CAFD00F03EFC18
:102BC00003F086F800F0FEFD05F025FE00F020FB86
:102BD00003F0CCF901F018FF04F074FF04F0BDFF1E
:102BE00004F015FF03F0FAF90120124908641FE010
:102BF000FEF761FB1048008800F0F4FD05F0CDFE03
:102C00000E48007818B904F079F905F098F90C48E5
:102C1000007800F0010038B10948006820F0010098
:102C20000749086000F081FB05F056F905F076FBD6
:102C3000DEE700009C0200207C00002061000020F4
:102C400014000020704700BFFEE700BFFEE700BF92
:102C5000FEE700BFFEE77047704710B500F036FC96
:102C6000E2480078C0F3001020B1E1480078401C31
:102C7000DF490870DE48007814280BDD0020DC49AD
:102C80000870DA48006820F01000D8490860002079
:102C9000D849087010BD10B5D448006820F0100065
:102CA0001030D249086040F22551D348FFF740FF69
:102CB000002855D040F22551CF48FFF763FFCE489A
:102CC000FFF7B6FECD49CB4A127888540846007803
:102CD000012817D1C748007808282DDD0020C549F4
:102CE0000870C748006820F010001030C449086020
:102CF000BE48006820F01000BC4908600020BC49B4
:102D0000087010BDBD48BB490978405C0A2813D142
:102D1000B648006820F008000830B4490860002078
:102D2000B4490870B148006820F01000AF4908604D
:102D30000020AF490870E4E7AE480078401CAD4978
:102D4000087008460078C8280ADD00200870AC48E2
:102D5000006820F01000AA4908600020A44908700B
:102D600000BFCEE710B5A148006820F01000103079
:102D70009E49086040F22551A248FFF7D9FE00287D
:102D80007ED040F225519F48FFF7FCFE9D48FFF79B
:102D90004FFE9A49974A12788854084600780128CD
:102DA0006FD108464078062824D192480078082838
:102DB00068DD00208F4908709148006820F01000FD
:102DC00010308F4908608948006820F0100087495A
:102DD000086000208649087089480078C0F3001018
:102DE00038B18748006820F010008549086003F07A
:102DF00042F910BD81484078102824D17D480078E0
:102E0000A0283FD100207B4908707D48006820F051
:102E1000100010307A4908607448006820F01000F3
:102E20007249086000207249087075480078C0F344
:102E3000001038B17248006820F010007049086036
:102E400003F019F9D5E76D484078032828D169487F
:102E50000078072875D10020664908706848006826
:102E600020F010001030664908606048006820F0CB
:102E700010005E49086000205D490870604802E06B
:102E800073E036E05DE00078C0F3001038B15C48D4
:102E9000006820F010005A49086003F0ECF8A8E739
:102EA00056484078A5284CD152480078082848D187
:102EB0000020504908705248006820F0100010307F
:102EC0004F4908604948006820F0100047490860F1
:102ED0000020474908704A480078C0F3001038B114
:102EE0004748006820F010004549086003F0C3F827
:102EF0007FE74248007820BB3E480078082820DD64
:102F000000203C4908703E48006820F01000103056
:102F10003B4908603548006820F0100033490860DC
:102F200000203349087036480078C0F3001038B1EB
:102F30003348006820F010003149086003F09BF826
:102F400057E72C480078401C2A490870084600784A
:102F5000C8280ADD002008702948006820F0100009
:102F60002749086000202249087000BF41E710B5DA
:102F700040F225512448FFF7DBFD20B140F22551F6
:102F80002148FFF7FFFD10BD10B501211F48FFF7D5
:102F90000BFC16480078C0F3801038B9134800685D
:102FA00020F0200020301149086005E00F4800683B
:102FB00020F020000D49086010BD10B510480068D1
:102FC00020F00100401C0E4908600220FDF7CFFCF4
:102FD00010BD10B52020FDF7CAFC0448006820F0A1
:102FE000800080300149086010BD000018000020FA
:102FF0008A00002088000020003801408C03002057
:103000001400002000440040004800400008004038
:103010000CB50020019000906C48006840F48030AE
:103020006A49086000BF6948006800F400300090F9
:103030000198401C0190009818B90198B0F5A06F54
:10304000F1D16248006800F4003010B10120009016
:1030500001E0002000900098012843D15C480068FE
:1030600040F010005A4908600846006820F003004C
:1030700008600846006840F0020008605348406855
:10308000524948600846406848600846406840F435
:10309000806048600846406820F47C10486008461C
:1030A000406840F4E81048600846006840F08070CE
:1030B000086000BF4548006800F000700028F9D0A3
:1030C0004248406820F00300404948600846406894
:1030D00040F00200486000BF3C48406800F00C002F
:1030E0000828F9D10CBD10B5FFF792FF10BD10B53F
:1030F0003648006840F001003449086008464068DE
:10310000344908403149486008460068324908405F
:103110002E4908600846006820F4802008600846B0
:10312000406820F4FE0048604FF41F008860FFF7FD
:10313000DAFF4FF000602949086010BD10B500218A
:1031400000200022214B5B6803F00C0121B104290F
:1031500006D0082928D107E0214B224C236027E024
:103160001F4B204C236023E0184B5B6803F4701066
:10317000164B5B6803F48032022303EB904022B9C4
:10318000194B4343174C23600DE0104B5B6803F46D
:10319000003323B1144B4343124C236003E0104B24
:1031A0004343104C236003E00D4B0E4C236000BFE3
:1031B00000BF064B5B68C3F303130C4CE15C094B87
:1031C0001B68CB40074C236010BD0000001002407C
:1031D000002002400000FFF8FFFFF6FE08ED00E0CF
:1031E00000127A003400002000093D003800002061
:1031F00008B50B208DF8000003208DF801008DF834
:10320000020001208DF803006846FDF704F808BDB0
:1032100000B591B07F48FDF767F801214802FEF73D
:10322000CFF901210846FEF7BEF90120ADF80000F4
:1032300000208DF8030069467748FDF7E5FE02207F
:10324000ADF8000000208DF8030069467248FDF7D4
:10325000DBFE7248FDF770FA6E484C300190704802
:1032600002900020039064200490002005908020AC
:1032700006904000079080000890202009900002EE
:103280000A9000200B9001A96448FDF7F7FA01218C
:103290006248FDF71EFB012202216048FDF725FB75
:1032A000FFF7A6FF01215B48FDF77CF800200C909A
:1032B00001208DF834008DF835004FF460200E9019
:1032C00000200F9002208DF840000CA95148FDF716
:1032D00032F84FF44040FEF7D7F8052301220021D1
:1032E0004C48FDF7C0F80523022201214948FDF7AB
:1032F000BAF801214748FDF74AF84648FDF769F852
:103300004448FDF775F800BF4248FDF767F800280C
:10331000FAD100BF3F48FDF770F80028FAD101212B
:103320003C48FDF774F811B000BD0EB500200190C7
:1033300030E09DF8040000EBD0714910A0EB410192
:1033400069B937499DF8042031F8122035490878C9
:10335000411C344B1970344921F8102015E09DF8B8
:10336000040000EBD0714910A0EB410101290CD100
:103370002B499DF8042031F812202C490878411C73
:103380002A4B19702A4921F810209DF80400401C8E
:10339000C0B201909DF804006428CADB00202149D6
:1033A000087022490870009002900CE01E489DF8B9
:1033B000081030F811000099084400909DF80800AA
:1033C000401CC0B202909DF808003228EEDB32218A
:1033D0000098B0FBF1F0174908800020009002909F
:1033E0000CE013489DF8081030F8110000990844CB
:1033F00000909DF80800401CC0B202909DF80800A3
:103400003228EEDB32210098B0FBF1F00A49088047
:103410000EBD0000002401400008014008000240E9
:10342000AC00002052000020740100205300002056
:10343000D8010020480000204A00002030B528486C
:1034400000684FF47A72B0FBF2F1B1F1807F01D3E2
:1034500001201DE021F07F40401E4FF0E02250612E
:1034600050170F22002807DA13071D0E1D4B00F01E
:103470000F04241F1D5503E013071C0E1A4B1C5488
:1034800000BF00204FF0E022906107201061002073
:1034900008B100BFFEE74FF0E020006940F00100F6
:1034A0004FF0E021086130BD01B510490098086077
:1034B0004FF0E020006940F001004FF0E02108618A
:1034C00000BF0A4800680028FBD108BD0748006813
:1034D00020B106480068401E04490860704700009B
:1034E0003400002018ED00E000E400E0540000206B
:1034F00010B5A02002F05EFD08B9012010BD02F059
:103500005FFC0020FAE717B581B0044602F03CFCEE
:10351000A02002F068FC02F0D2FC00B135E0BDF85A
:103520000810C8B202F05FFC02F0C9FC00B12CE048
:1035300002F02AFCA12002F056FC02F0C0FC00B10F
:1035400023E00020009015E002F08AFCBDF8001096
:103550006054BDF80C00401EBDF80010884202D037
:1035600002F0D1FC01E002F0EAFCBDF80000401CD2
:1035700080B20090BDF80000BDF80C108842E3DB7B
:1035800002F01EFC012004B010BD02F019FC002066
:10359000F9E717B583B00446BDF81000009000208D
:1035A000029041E0BDF8080020B1BDF8000000F035
:1035B000070030BB02F004FC002001900DE002F097
:1035C000E3FBA02002F00FFC02F079FC00B908E058
:1035D000BDF80400401C80B20190BDF804006428CE
:1035E000EDDB00BFBDF80400B0F57A7F00D126E026
:1035F000BDF80010C8B202F0F6FB02F060FC00B1AA
:103600001DE0BDF80810605C02F0EDFB02F057FC15
:1036100000B114E0BDF80000401C80B20090BDF87D
:103620000800401C80B20290BDF80800BDF81410DC
:103630008842B7DB02F0C4FB012006B010BD02F0E7
:10364000BFFB0020F9E7C1B00020409009E0FF2057
:10365000BDF800210DF80200BDF80001401C80B249
:103660004090BDF80001FF28F1DD41B0704703B57F
:1036700083B0BDF80C00019002F0A2FB0020029084
:103680000DE002F081FBA02002F0ADFB02F017FC80
:1036900000B908E0BDF80800401C80B20290BDF8F7
:1036A00008006428EDDB00BFBDF80800B0F57A7FA4
:1036B00000D113E0BDF80410C8B202F094FB02F090
:1036C000FEFB00B10AE09DF8100002F08CFB02F056
:1036D000F6FB00B102E002F073FB00BF02F070FBEA
:1036E00005B000BD01B502F04FFBA02002F07BFB4E
:1036F00002F0E5FB00B11BE09DF8000002F073FB57
:1037000002F0DDFB00B113E002F03EFBA12002F06D
:103710006AFB02F0D4FB00B10AE002F0A1FB0B4906
:10372000087002F00CFC02F04BFB0848007808BD62
:1037300002F046FB0020FAE701B502E00098401EC7
:10374000009000980028F9D108BD00005800002022
:1037500010B5FDF7C7FD4FF48030FDF7E3FDFDF731
:1037600020FE1749087008460078012826D100205D
:10377000FDF75DFE0020FDF76CFE4FF48060FDF765
:103780005FFE0220FDF702F91020FDF713F94FF458
:10379000E0114FF48030FDF72DFE0120FDF736FEDD
:1037A00000BF3920FDF7E1FD0028FAD00220FDF727
:1037B00030FE00BFFDF736FE0828FBD110BD00002B
:1037C0005900002008B54FF4E060ADF8000010206B
:1037D0008DF8030002208DF8020069463048FDF79D
:1037E00013FC08BD01B582B04FF480612C48FDF791
:1037F000BAFC4FF480712A48FDF7B3FC00BF00BF4C
:1038000000BF00BF4FF480612548FDF7AAFC00BF50
:103810004FF480712248FDF7A4FC00BF00BF4FF4B5
:1038200080611F48FDF79FFC0020019029E0BDF852
:10383000080000F4004028B14FF400711848FDF76B
:1038400090FC04E04FF400711548FDF78CFC4FF438
:1038500080711348FDF787FC00BF00BF4FF48071F3
:103860000F48FDF77EFC00BF00BFBDF808004FF613
:10387000FF7101EA400002909DF80400401CC0B2B4
:1038800001909DF804001028D1DB4FF480610448BA
:10389000FDF767FC4FF480710148FDF762FC0EBD37
:1038A0000008014008B5FE480068000E00909DF831
:1038B00000100120FFF7DBFEF9480068C0F3074065
:1038C00000909DF800100220FFF7D1FEF448006838
:1038D000C0F3072000909DF800100320FFF7C7FEFB
:1038E000EF480068C1B20420FFF7C1FEEC48406811
:1038F000000E00909DF800100520FFF7B8FEE84884
:103900004068C0F3074000909DF800100620FFF7C4
:10391000AEFEE3484068C0F3072000909DF8001019
:103920000720FFF7A4FEDE484068C1B20820FFF779
:103930009EFEDB48C068000E00909DF80010092034
:10394000FFF795FED648C068C0F3074000909DF889
:1039500000100A20FFF78BFED148C068C0F3072093
:1039600000909DF800100B20FFF781FECC48C06846
:10397000C1B20C20FFF77BFEFDF79DFCC848006933
:10398000000E00909DF800100D20FFF770FEC44857
:103990000069C0F3074000909DF800100E20FFF76B
:1039A00066FEBF480069C0F3072000909DF8001034
:1039B0000F20FFF75CFEBA480069C1B21020FFF784
:1039C00056FEB8480068000E00909DF800101120C7
:1039D000FFF74DFEB3480068C0F3074000909DF824
:1039E00000101220FFF743FEAE480068C0F3072026
:1039F00000909DF800101320FFF739FEA9480068D9
:103A0000C1B21420FFF733FEA6484068000E0090B4
:103A10009DF800101520FFF72AFEA2484068C0F369
:103A2000074000909DF800101620FFF720FE9D48EB
:103A30004068C0F3072000909DF800101720FFF7A2
:103A400016FE98484068C1B21820FFF710FE95484E
:103A5000C068000E00909DF800101920FFF707FEC7
:103A60009048C068C0F3074000909DF800101A20ED
:103A7000FFF7FDFD8B48C068C0F3072000909DF85C
:103A800000101B20FFF7F3FD8648C068C1B21C2060
:103A9000FFF7EDFD83480069000E00909DF80010CF
:103AA0001D20FFF7E4FD7F480069C0F30740009048
:103AB0009DF800101E20FFF7DAFD7A480069C0F378
:103AC000072000909DF800101F20FFF7D0FD7548DB
:103AD0000069C1B22020FFF7CAFD73480178212098
:103AE000FFF7C5FDFDF7E7FB6D488069000E00900C
:103AF0009DF800102220FFF7BAFD69488069C0F3E5
:103B0000074000909DF800102320FFF7B0FD6448A7
:103B10008069C0F3072000909DF800102420FFF773
:103B2000A6FD5F488069C1B22520FFF7A0FD5C4873
:103B3000C069000E00909DF800102620FFF797FD49
:103B40005748C069C0F3074000909DF80010272037
:103B5000FFF78DFD5248C069C0F3072000909DF823
:103B600000102820FFF783FD4D48C069C1B229200D
:103B7000FFF77DFD4A48406A000E00909DF8001056
:103B80002A20FFF774FD4648406AC0F307400090C2
:103B90009DF800102B20FFF76AFD4148406AC0F3F2
:103BA000072000909DF800102C20FFF760FD3C4896
:103BB000406AC1B22D20FFF75AFDFDF77CFB384863
:103BC000806A000E00909DF800102E20FFF74FFD38
:103BD0003348806AC0F3074000909DF800102F2002
:103BE000FFF745FD2E48806AC0F3072000909DF83E
:103BF00000103020FFF73BFD2948806AC1B2312018
:103C0000FFF735FD27488069000E00909DF80010F1
:103C10003220FFF72CFD23488069C0F30740009055
:103C20009DF800103320FFF722FD1E488069C0F385
:103C3000072000909DF800103420FFF718FD194868
:103C40008069C1B23520FFF712FD1648C069000E29
:103C500000909DF800103620FFF709FD1148C0695B
:103C6000C0F3074000909DF800103720FFF7FFFCDD
:103C70000C48C069C0F3072000909DF80010382060
:103C8000FFF7F5FC0748C069C1B23920FFF7EFFC28
:103C9000FDF711FB0348406A000E009006E00000AB
:103CA0006C0200203C0200207E0000209DF80010E5
:103CB0003A20FFF7DCFCFE48406AC0F30740009062
:103CC0009DF800103B20FFF7D2FCF948406AC0F392
:103CD000072000909DF800103C20FFF7C8FCF44836
:103CE000406AC1B23D20FFF7C2FCF148806A000E75
:103CF00000909DF800103E20FFF7B9FCEC48806A68
:103D0000C0F3074000909DF800103F20FFF7AFFC84
:103D1000E748806AC0F3072000909DF8001040201B
:103D2000FFF7A5FCE248806AC1B24120FFF79FFC83
:103D3000E04841784220FFF79AFCFDF7BCFADD48E5
:103D400081784320FFF793FCDA48C1784420FFF7DD
:103D50008EFCD9488068000E00909DF80010452028
:103D6000FFF785FCD4488068C0F3074000909DF8B9
:103D700000104620FFF77BFCCF488068C0F3072087
:103D800000909DF800104720FFF771FCCA4880683A
:103D9000C1B24820FFF76BFCC7484069000E009095
:103DA0009DF800104920FFF762FCC3484069C0F34A
:103DB000074000909DF800104A20FFF758FCBE48CD
:103DC0004069C0F3072000909DF800104B20FFF7DA
:103DD0004EFCB9484069C1B24C20FFF748FCB448DA
:103DE0008068000E00909DF800104D20FFF73FFC0A
:103DF000AF488068C0F3074000909DF800104E2047
:103E0000FFF735FCAA488068C0F3072000909DF8B2
:103E100000104F20FFF72BFCA5488068C1B250204E
:103E2000FFF725FCA2484069000E00909DF80010A5
:103E30005120FFF71CFC9E484069C0F307400090EA
:103E40009DF800105220FFF712FC99484069C0F31A
:103E5000072000909DF800105320FFF708FC9448BD
:103E60004069C1B25420FFF702FCFDF724FA9248E2
:103E7000006A000E00909DF800105520FFF7F7FB38
:103E80008D48006AC0F3074000909DF8001056204E
:103E9000FFF7EDFB8848006AC0F3072000909DF80B
:103EA00000105720FFF7E3FB8348006AC1B2582097
:103EB000FFF7DDFB8048C06A000E00909DF80010FF
:103EC0005920FFF7D4FB7C48C06AC0F3074000903C
:103ED0009DF800105A20FFF7CAFB7748C06AC0F36C
:103EE000072000909DF800105B20FFF7C0FB724890
:103EF000C06AC1B25C20FFF7BAFBFDF7DCF96C4881
:103F0000006A000E00909DF800105D20FFF7AFFBE7
:103F10006748006AC0F3074000909DF800105E20DB
:103F2000FFF7A5FB6248006AC0F3072000909DF8E8
:103F300000105F20FFF79BFB5D48006AC1B2602064
:103F4000FFF795FB5A48C06A000E00909DF80010DC
:103F50006120FFF78CFB5648C06AC0F30740009011
:103F60009DF800106220FFF782FB5148C06AC0F341
:103F7000072000909DF800106320FFF778FB4C4865
:103F8000C06AC1B26420FFF772FB4A48017965201C
:103F9000FFF76DFB474841796620FFF768FBFDF7A7
:103FA0008AF94648406B000E00909DF8001067208B
:103FB000FFF75DFB4148406BC0F3074000909DF860
:103FC00000106820FFF753FB3C48406BC0F307200C
:103FD00000909DF800106920FFF749FB3748406BBF
:103FE000C1B26A20FFF743FB3448806B000E00909B
:103FF0009DF800106B20FFF73AFB3048806BC0F350
:10400000074000909DF800106C20FFF730FB2B4814
:10401000806BC0F3072000909DF800106D20FFF723
:1040200026FB2648806BC1B26E20FFF720FB234899
:10403000C06B000E00909DF800106F20FFF717FB7B
:104040001E48C06BC0F3074000909DF80010702020
:10405000FFF70DFB1948C06BC0F3072000909DF8D7
:1040600000107120FFF703FB1448C06BC1B272202F
:10407000FFF7FDFA1148006C000E00909DF800104B
:104080007320FFF7F4FA0D48006CC0F3074000906E
:104090009DF800107420FFF7EAFA0848006CC0F39E
:1040A000072000909DF800107520FFF7E0FA07E068
:1040B0003C0200207E0000206C0200209C020020B8
:1040C000FE48006CC1B27620FFF7D1FAFB48006CC5
:1040D000000E00909DF800107320FFF7C8FAF74813
:1040E000006CC0F3074000909DF800107420FFF7AB
:1040F000BEFAF248006CC0F3072000909DF8001053
:104100007520FFF7B4FAED48006CC1B27620FFF7D6
:10411000AEFAEA48806C000E00909DF800107720FF
:10412000FFF7A5FAE548806CC0F3074000909DF8C2
:1041300000107820FFF79BFAE048806CC0F307205E
:1041400000909DF800107920FFF791FADB48806C11
:10415000C1B27A20FFF78BFA08BD10B56B20FFF7CC
:10416000C1FAD64948630846406B000248636C2098
:10417000FFF7B8FAD149496B0844D049486308466B
:10418000406B000248636D20FFF7ACFACB49496BE6
:104190000844CA4948630846406B000248636E20E1
:1041A000FFF7A0FAC549496B0844C44948636F202A
:1041B000FFF798FAC14988630846806B000288635C
:1041C0007020FFF78FFABD49896B0844BB498863AB
:1041D0000846806B000288637120FFF783FAB749B5
:1041E000896B0844B54988630846806B0002886380
:1041F0007220FFF777FAB149896B0844AF498863A9
:104200007320FFF76FFAAD49C8630846C06B000220
:10421000C8637420FFF766FAA849C96B0844A74928
:10422000C8630846C06B0002C8637520FFF75AFADE
:10423000A249C96B0844A149C8630846C06B000283
:10424000C8637620FFF74EFA9C49C96B08449B4926
:10425000C8637720FFF746FA984908640846006C5F
:10426000000208647820FFF73DFA9449096C08447D
:10427000924908640846006C000208647920FFF740
:1042800031FA8E49096C08448C4908640846006C70
:10429000000208647A20FFF725FA8849096C08446F
:1042A000864908647B20FFF71DFA84494864084664
:1042B000406C000248647C20FFF714FA7F49496C87
:1042C00008447E4948640846406C000248647D20EA
:1042D000FFF708FA7949496C084478494864084668
:1042E000406C000248647E20FFF7FCF97349496C7A
:1042F0000844724948647F20FFF7F4F96F498864E5
:104300000846806C000288648020FFF7EBF96B4957
:10431000896C0844694988640846806C0002886496
:104320008120FFF7DFF96549896C08446349886497
:104330000846806C000288648220FFF7D3F95F4949
:10434000896C08445D4988648320FFF7CBF95B4999
:10435000C8640846C06C0002C8648420FFF7C2F934
:104360005649C96C08445549C8640846C06C0002E7
:10437000C8648520FFF7B6F95049C96C08444F4915
:10438000C8640846C06C0002C8648620FFF7AAF91A
:104390004A49C96C08444949C8648720FFF7A2F913
:1043A000464908650846006D000208658820FFF749
:1043B00099F94249096D0844404908650846006D6D
:1043C000000208658920FFF78DF93C49096D084412
:1043D0003A4908650846006D000208658A20FFF723
:1043E00081F93649096D0844344908658B20FFF787
:1043F00079F9324948650846406D000248658C20CD
:10440000FFF770F92D49496D08442C494865084665
:10441000406D000248658D20FFF764F92749496D1A
:104420000844264948650846406D000248658E20CC
:10443000FFF758F92149496D0844204948658F2004
:10444000FFF750F91D4988650846806D00028865B0
:104450009020FFF747F91949896D08441749886585
:104460000846806D000288659120FFF73BF91349EB
:10447000896D0844114988650846806D0002886589
:104480009220FFF72FF90D49896D08440B49886583
:104490009320FFF727F90949C8650846C06D000257
:1044A000C8659420FFF71EF90449C96D0844034903
:1044B000C8650846C06D0002C86501E09C02002086
:1044C0009520FFF70FF9FE49C96D0844FC49C865FE
:1044D0000846C06D0002C8659620FFF703F9F84949
:1044E000C96D0844F649C8659720FFF7FBF8F44901
:1044F00008660846006E000208669820FFF7F2F88A
:10450000EF49096E0844EE4908660846006E00024D
:1045100008669920FFF7E6F8E949096E0844E8497A
:1045200008660846006E000208669A20FFF7DAF86F
:10453000E349096E0844E24908669B20FFF7D2F878
:10454000DF4948660846406E000248669C20FFF737
:10455000C9F8DB49496E0844D94948660846406EA7
:10456000000248669D20FFF7BDF8D549496E084412
:10457000D34948660846406E000248669E20FFF711
:10458000B1F8CF49496E0844CD4948669F20FFF7EE
:10459000A9F8CB4988660846806E00028866A0208C
:1045A000FFF7A0F8C649896E0844C54988660846E1
:1045B000806E00028866A120FFF794F8C049896EDA
:1045C0000844BF4988660846806E00028866A220BB
:1045D000FFF788F8BA49896E0844B9498866A3206C
:1045E000FFF780F8B649C8660846C06E0002C86684
:1045F000A420FFF777F8B249C96E0844B049C866ED
:104600000846C06E0002C866A520FFF76BF8AC49EB
:10461000C96E0844AA49C8660846C06E0002C8664A
:10462000A620FFF75FF8A649C96E0844A449C866EA
:10463000A720FFF757F8A24908670846006F000255
:104640000867A820FFF74EF89D49096F08449C4968
:1046500008670846006F00020867A920FFF742F8C4
:104660009749096F0844964908670846006F000299
:104670000867AA20FFF736F89149096F0844904966
:104680000867AB20FFF72EF88D4948670846406F52
:1046900000024867AC20FFF725F88949496F0844B4
:1046A000874948670846406F00024867AD20FFF71A
:1046B00019F88349496F0844814948670846406FA3
:1046C00000024867AE20FFF70DF87D49496F0844A6
:1046D0007B494867AF20FFF705F8794988670846A6
:1046E000806F00028867B020FEF7FCFF7449896F75
:1046F0000844734988670846806F00028867B120C4
:10470000FEF7F0FF6E49896F08446D4988670846D7
:10471000806F00028867B220FEF7E4FF6849896F66
:10472000084467498867B320FEF7DCFF6449C8671F
:104730000846C06F0002C867B420FEF7D3FF604987
:10474000C96F08445E49C8670846C06F0002C86761
:10475000B520FEF7C7FF5A49C96F08445849C867D2
:104760000846C06F0002C867B620FEF7BBFF544979
:10477000C96F08445249C867B720FEF7B3FF5049D4
:10478000C1F880000846D0F880000002C1F880001F
:10479000B820FEF7A7FF4A49D1F8801008444849DD
:1047A000C1F880000846D0F880000002C1F88000FF
:1047B000B920FEF797FF4249D1F8801008444049DC
:1047C000C1F880000846D0F880000002C1F88000DF
:1047D000BA20FEF787FF3A49D1F8801008443849DB
:1047E000C1F88000BB20FEF77DFF3549C1F8840089
:1047F0000846D0F884000002C1F88400BC20FEF70F
:1048000071FF2F49D1F8841008442D49C1F8840064
:104810000846D0F884000002C1F88400BD20FEF7ED
:1048200061FF2749D1F8841008442549C1F8840064
:104830000846D0F884000002C1F88400BE20FEF7CC
:1048400051FF1F49D1F8841008441D49C1F8840064
:10485000BF20FEF747FF1A49C1F888000846D0F884
:1048600088000002C1F88800C020FEF73BFF144911
:10487000D1F8881008441249C1F888000846D0F8D9
:1048800088000002C1F88800C120FEF72BFF0C4908
:10489000D1F8881008440A49C1F888000846D0F8C1
:1048A00088000002C1F88800C220FEF71BFF0449FF
:1048B000D1F8881008440249C1F88800C32001E0FB
:1048C0009C020020FEF70EFFFE49C1F88C0008464E
:1048D000D0F88C000002C1F88C00C420FEF702FF63
:1048E000F849D1F88C100844F649C1F88C00084604
:1048F000D0F88C000002C1F88C00C520FEF7F2FE53
:10490000F049D1F88C100844EE49C1F88C000846F3
:10491000D0F88C000002C1F88C00C620FEF7E2FE41
:10492000E849D1F88C100844E649C1F88C00C7204A
:10493000FEF7D8FEE349C1F890000846D0F8900091
:104940000002C1F89000C820FEF7CCFEDD49D1F886
:1049500090100844DB49C1F890000846D0F8900058
:104960000002C1F89000C920FEF7BCFED549D1F87D
:1049700090100844D349C1F890000846D0F8900040
:104980000002C1F89000CA20FEF7ACFECD49D1F874
:1049900090100844CB49C1F89000CB20FEF7A2FE4E
:1049A000C849C1F894000846D0F894000002C1F844
:1049B0009400CC20FEF796FEC249D1F8941008442A
:1049C000C049C1F894000846D0F894000002C1F82C
:1049D0009400CD20FEF786FEBA49D1F89410084421
:1049E000B849C1F894000846D0F894000002C1F814
:1049F0009400CE20FEF776FEB249D1F89410084418
:104A0000B049C1F8940010BD10B50120FEF76AFE50
:104A1000AD4908600120FEF765FEAB490860084615
:104A20000068000208600220FEF75CFEA6490968E3
:104A30000844A54908600846006800020860032091
:104A4000FEF750FEA049096808449F4908600846DF
:104A50000068000208600420FEF744FE9A490968D5
:104A60000844994908600520FEF73CFE96494860D5
:104A700008464068000248600620FEF733FE92496F
:104A80004968084490494860084640680002486008
:104A90000720FEF727FE8C49496808448A49486088
:104AA00008464068000248600820FEF71BFE864961
:104AB00049680844844948600920FEF713FE82498A
:104AC000C8600846C0680002C8600A20FEF70AFEF7
:104AD0007D49C96808447C49C8600846C06800022E
:104AE000C8600B20FEF7FEFD7749C9680844764987
:104AF000C8600846C0680002C8600C20FEF7F2FDDE
:104B00007149C96808447049C8600D20FEF7EAFD84
:104B10006D49086108460069000208610E20FEF731
:104B2000E1FD694909690844674908610846006967
:104B3000000208610F20FEF7D5FD634909690844AA
:104B40006149086108460069000208611020FEF70B
:104B5000C9FD5D49096908445B4908611120FEF7F8
:104B6000C1FD5A490860084600680002086012202A
:104B7000FEF7B8FD554909680844544908600846DD
:104B80000068000208601320FEF7ACFD4F49096879
:104B900008444E4908600846006800020860142076
:104BA000FEF7A0FD494909680844484908601520F6
:104BB000FEF798FD45494860084640680002486095
:104BC0001620FEF78FFD4149496808443F49486077
:104BD00008464068000248601720FEF783FD3B4905
:104BE00049680844394948600846406800024860FE
:104BF0001820FEF777FD3549496808443349486075
:104C00001920FEF76FFD3149C8600846C0680002F0
:104C1000C8601A20FEF766FD2C49C96808442B4974
:104C2000C8600846C0680002C8601B20FEF75AFD35
:104C30002649C96808442549C8600846C06800027A
:104C4000C8601C20FEF74EFD2049C96808441F4972
:104C5000C8601D20FEF746FD1C4908610846006932
:104C6000000208611E20FEF73DFD1849096908444D
:104C70001649086108460069000208611F20FEF716
:104C800031FD124909690844104908610846006964
:104C9000000208612020FEF725FD0C49096908443F
:104CA0000A4908612120FEF71DFD094908702220EC
:104CB000FEF718FD04498861084680690002886192
:104CC000232007E09C0200206C0200203C02002010
:104CD0007E000020FEF706FDFE4989690844FD4973
:104CE000886108468069000288612420FEF7FAFC8A
:104CF000F84989690844F7498861084680690002D3
:104D000088612520FEF7EEFCF24989690844F149E3
:104D100088612620FEF7E6FCEE49C8610846C069B6
:104D20000002C8612720FEF7DDFCEA49C969084492
:104D3000E849C8610846C0690002C8612820FEF73A
:104D4000D1FCE449C9690844E249C8610846C06920
:104D50000002C8612920FEF7C5FCDE49C969084484
:104D6000DC49C8612A20FEF7BDFCDA4948620846E2
:104D7000406A000248622B20FEF7B4FCD549496A1C
:104D80000844D44948620846406A000248622C2020
:104D9000FEF7A8FCCF49496A0844CE494862084654
:104DA000406A000248622D20FEF79CFCC949496A0E
:104DB0000844C84948622E20FEF794FCC549886221
:104DC0000846806A000288622F20FEF78BFCC149EA
:104DD000896A0844BF4988620846806A000288627E
:104DE0003020FEF77FFCBB49896A0844B9498862D4
:104DF0000846806A000288623120FEF773FCB549DC
:104E0000896A0844B34988623220FEF76BFCB249D4
:104E1000886108468069000288613320FEF762FCE1
:104E2000AD4989690844AC49886108468069000237
:104E300088613420FEF756FCA74989690844A649D1
:104E4000886108468069000288613520FEF74AFCC7
:104E5000A14989690844A04988613620FEF742FCCF
:104E60009D49C8610846C0690002C8613720FEF745
:104E700039FC9949C96908449749C8610846C0691D
:104E80000002C8613820FEF72DFC9349C969084427
:104E90009149C8610846C0690002C8613920FEF71F
:104EA00021FC8D49C96908448B49C8613A20FEF745
:104EB00019FC894948620846406A000248623B2062
:104EC000FEF710FC8449496A084483494862084651
:104ED000406A000248623C20FEF704FC7E49496AB1
:104EE00008447D4948620846406A000248623D2005
:104EF000FEF7F8FB7849496A0844774948623E2042
:104F0000FEF7F0FB744988620846806A00028862F6
:104F10003F20FEF7E7FB7049896A08446E498862C2
:104F20000846806A000288624020FEF7DBFB6A497F
:104F3000896A0844684988620846806A0002886273
:104F40004120FEF7CFFB6449896A084462498862C0
:104F50004220FEF7C7FB614948704320FEF7C2FBC1
:104F60005E4988704420FEF7BDFB5C49C87045204F
:104F7000FEF7B8FB574988600846806800028860E1
:104F80004620FEF7AFFB53498968084451498860C1
:104F900008468068000288604720FEF7A3FB4D4961
:104FA000896808444B498860084680680002886028
:104FB0004820FEF797FB47498968084445498860BF
:104FC0004920FEF78FFB43494861084640690002CB
:104FD00048614A20FEF786FB3E49496908443D493D
:104FE000486108464069000248614B20FEF77AFBA1
:104FF0003849496908443749486108464069000210
:1050000048614C20FEF76EFB32494969084431493A
:1050100048614D20FEF766FB2F498860084680688E
:10502000000288604E20FEF75DFB2B49896808442A
:105030002949886008468068000288604F20FEF792
:1050400051FB2549896808442349886008468068DF
:10505000000288605020FEF745FB1F49896808441C
:105060001D4988605120FEF73DFB1B4948610846F9
:105070004069000248615220FEF734FB1649496935
:1050800008441549486108464069000248615320B8
:10509000FEF728FB1049496908440F494861084652
:1050A0004069000248615420FEF71CFB0A49496927
:1050B0000844094948615520FEF714FB0549086278
:1050C0000846006A000208625620FEF70BFB014901
:1050D000096A05E06C0200203C0200207E000020EE
:1050E0000844FB4908620846006A0002086257202B
:1050F000FEF7F8FAF649096A0844F54908620846D5
:10510000006A000208625820FEF7ECFAF049096ACA
:105110000844EF4908625920FEF7E4FAEC49C862F6
:105120000846C06A0002C8625A20FEF7DBFAE84966
:10513000C96A0844E649C8620846C06A0002C862F3
:105140005B20FEF7CFFAE249C96A0844E049C86229
:105150000846C06A0002C8625C20FEF7C3FADC4958
:10516000C96A0844DA49C8625D20FEF7BBFAD9492A
:1051700008620846006A000208625E20FEF7B2FA82
:10518000D449096A0844D34908620846006A000203
:1051900008625F20FEF7A6FACE49096A0844CD49A5
:1051A00008620846006A000208626020FEF79AFA68
:1051B000C849096A0844C74908626120FEF792FAA3
:1051C000C449C8620846C06A0002C8626220FEF78D
:1051D00089FAC049C96A0844BE49C8620846C06A1B
:1051E0000002C8626320FEF77DFABA49C96A084422
:1051F000B849C8620846C06A0002C8626420FEF767
:1052000071FAB449C96A0844B249C8626520FEF718
:1052100069FAB14908716620FEF764FAAE4948712F
:10522000FEF79BFFAD48406CB0F5165F04D14FF41C
:105230001650AA49486434E0A848406CB0F5964F2F
:1052400004D14FF49640A54948642AE0A348406C35
:105250004DF6C021884202D1A049486421E09F4810
:10526000406CB0F5614F04D14FF461409B494864F4
:1052700017E09A48406CB0F5E13F04D14FF4E130BB
:10528000964948640DE09548406CB0F5FA3F04D16A
:105290004FF4FA309149486403E04FF416508F49B7
:1052A000486410BD1CB58E48007800F0010000284D
:1052B0007DD08B48006820F001008949086089484A
:1052C000C07800909DF800000D381F2870D2DFE8EC
:1052D00000F01034587FA3C7FDFCFBFAF9F8F7F68D
:1052E000F5F4F3F2F1F0EFEEEDECEBEAE9E8E7E6E6
:1052F000E5007A48406B000E01909DF804106B2089
:10530000FEF7B5F97548406BC0F3074001909DF872
:1053100004106C20FEF7ABF97048406BC0F3072017
:1053200001909DF804106D20FEF7A1F96B48406BC9
:10533000C1B26E20FEF79BF920E26848806B000E38
:1053400001909DF804106F20FEF791F96348806B7F
:10535000C0F3074001909DF804107020FEF787F914
:105360005E48806BC0F3072001909DF80410712007
:10537000FEF77DF95948806BC1B27220FEF777F9CC
:10538000DAE75648C06B000E01909DF804107320B8
:10539000FEF76DF95148C06BC0F3074001909DF8CE
:1053A00004107420FEF763F94C48C06B01E0FDE384
:1053B000FDE3C0F3072001909DF804107520FEF76F
:1053C00056F94648C06BC1B27620FEF750F9B3E7F4
:1053D0004248006C000E01909DF804107720FEF703
:1053E00046F93E48006CC0F3074001909DF8041058
:1053F0007820FEF73CF93948006CC0F30720019093
:105400009DF804107920FEF732F93448006CC1B2DF
:105410007A20FEF72CF98FE73048406C000E01909F
:105420009DF804107B20FEF722F92C48406CC0F355
:10543000074001909DF804107C20FEF718F92748DA
:10544000406CC0F3072001909DF804107D20FEF70A
:105450000EF92248406CC1B27E20FEF708F96BE7D6
:105460001E48806C000E01909DF804107F20FEF70E
:10547000FEF81A48806CC0F3074001909DF80410B4
:105480008020FEF7F4F81548806CC0F307200190E7
:105490009DF804108120FEF7EAF825E0BEE395E3CD
:1054A00069E340E317E3EEE2C5E29CE273E24AE21D
:1054B00021E2F4E1CFE1AAE185E160E13BE116E11F
:1054C000F1E0CCE0A7E082E05DE038E013E000002E
:1054D0006C0200203C0200207E0000209C02002084
:1054E0001C0000208C030020FE48806CC1B282208A
:1054F000FEF7BDF8BBE3FB48C06C000E01909DF8C1
:1055000004108320FEF7B3F8F648C06CC0F30740E0
:1055100001909DF804108420FEF7A9F8F148C06CB2
:10552000C0F3072001909DF804108520FEF79FF836
:10553000EC48C06CC1B28620FEF799F897E3E948C1
:10554000006D000E01909DF804108720FEF78FF883
:10555000E448006DC0F3074001909DF804108820D6
:10556000FEF785F8DF48006DC0F3072001909DF835
:1055700004108920FEF77BF8DA48006DC1B28A205A
:10558000FEF775F873E3D748406D000E01909DF863
:1055900004108B20FEF76BF8D248406DC0F3074033
:1055A00001909DF804108C20FEF761F8CD48406D05
:1055B000C0F3072001909DF804108D20FEF757F8E6
:1055C000C848406DC1B28E20FEF751F84FE3C54880
:1055D000806D000E01909DF804108F20FEF747F8B3
:1055E000C048806DC0F3074001909DF804109020E2
:1055F000FEF73DF8BB48806DC0F3072001909DF891
:1056000004109120FEF733F8B648806DC1B29220A5
:10561000FEF72DF82BE3B348C06D000E01909DF806
:1056200004109320FEF723F8AE48C06DC0F3074086
:1056300001909DF804109420FEF719F8A948C06D58
:10564000C0F3072001909DF804109520FEF70FF895
:10565000A448C06DC1B29620FEF709F807E3A1483F
:10566000006E000E01909DF804109720FDF7FFFFDB
:105670009C48006EC0F3074001909DF804109820EC
:10568000FDF7F5FF9748006EC0F3072001909DF8E5
:1056900004109920FDF7EBFF9248006EC1B29A20EA
:1056A000FDF7E5FFE3E28F48406E000E01909DF8A4
:1056B00004109B20FDF7DBFF8A48406EC0F30740D3
:1056C00001909DF804109C20FDF7D1FF8548406EA5
:1056D000C0F3072001909DF804109D20FDF7C7FF3F
:1056E0008048406EC1B29E20FDF7C1FFBFE27D48F9
:1056F000806E000E01909DF804109F20FDF7B7FF0B
:105700007848806EC0F3074001909DF80410A020F7
:10571000FDF7ADFF7348806EC0F3072001909DF840
:105720000410A120FDF7A3FF6E48806EC1B2A22035
:10573000FDF79DFF9BE26B48C06E000E01909DF847
:105740000410A320FDF793FF6648C06EC0F3074026
:1057500001909DF80410A420FDF789FF6148C06EF8
:10576000C0F3072001909DF80410A520FDF77FFFEE
:105770005C48C06EC1B2A620FDF779FF77E25948B8
:10578000006F000E01909DF80410A720FDF76FFF39
:105790005448006FC0F3074001909DF80410A82002
:1057A000FDF765FF4F48006FC0F3072001909DF89B
:1057B0000410A920FDF75BFF4A48006FC1B2AA2080
:1057C000FDF755FF53E24748406F000E01909DF8EA
:1057D0000410AB20FDF74BFF4248406FC0F3074079
:1057E00001909DF80410AC20FDF741FF3D48406F4B
:1057F000C0F3072001909DF80410AD20FDF737FF9E
:105800003848406FC1B2AE20FDF731FF2FE2354876
:10581000806F000E01909DF80410AF20FDF727FF68
:105820003048806FC0F3074001909DF80410B0200D
:10583000FDF71DFF2B48806FC0F3072001909DF8F6
:105840000410B120FDF713FF2648806FC1B2B220CB
:10585000FDF70DFF0BE22348C06F000E01909DF88D
:105860000410B320FDF703FF1E48C06FC0F30740CC
:1058700001909DF80410B420FDF7F9FE1948C06F9F
:10588000C0F3072001909DF80410B520FDF7EFFE4E
:105890001448C06FC1B2B620FDF7E9FEE7E1114838
:1058A000D0F88000000E01909DF80410B720FDF79D
:1058B000DEFE0C48D0F88000C0F3074001909DF850
:1058C0000410B820FDF7D3FE0648D0F88000C0F3DE
:1058D000072001909DF80410B920FDF7C8FE01488B
:1058E00002E000009C020020D0F88000C1B2BA2083
:1058F000FDF7BDFEBBE1F448D0F88400000E019036
:105900009DF80410BB20FDF7B2FEEF48D0F88400EC
:10591000C0F3074001909DF80410BC20FDF7A7FEDE
:10592000E948D0F88400C0F3072001909DF80410E6
:10593000BD20FDF79CFEE448D0F88400C1B2BE2033
:10594000FDF795FE93E1E048D0F88800000E019045
:105950009DF80410BF20FDF78AFEDB48D0F88800D0
:10596000C0F3074001909DF80410C020FDF77FFEB2
:10597000D548D0F88800C0F3072001909DF80410A6
:10598000C120FDF774FED048D0F88800C1B2C22013
:10599000FDF76DFE6BE1CC48D0F88C00000E019055
:1059A0009DF80410C320FDF762FEC748D0F88C00B4
:1059B000C0F3074001909DF80410C420FDF757FE86
:1059C000C148D0F88C00C0F3072001909DF8041066
:1059D000C520FDF74CFEBC48D0F88C00C1B2C620F3
:1059E000FDF745FE43E1B848D0F89000000E019065
:1059F0009DF80410C720FDF73AFEB348D0F8900098
:105A0000C0F3074001909DF80410C820FDF72FFE59
:105A1000AD48D0F89000C0F3072001909DF8041025
:105A2000C920FDF724FEA848D0F89000C1B2CA20D2
:105A3000FDF71DFE1BE1A448D0F89400000E019074
:105A40009DF80410CB20FDF712FE9F48D0F894007B
:105A5000C0F3074001909DF80410CC20FDF707FE2D
:105A60009948D0F89400C0F3072001909DF80410E5
:105A7000CD20FDF7FCFD9448D0F89400C1B2CE20B3
:105A8000FDF7F5FDF3E09048D0F89800000E019086
:105A90009DF80410CF20FDF7EAFD8B48D0F8980060
:105AA000C0F3074001909DF80410D020FDF7DFFD02
:105AB0008548D0F89800C0F3072001909DF80410A5
:105AC000D120FDF7D4FD8048D0F89800C1B2D22093
:105AD000FDF7CDFDCBE07C48D0F89C00000E019096
