:020000040800F2
:1000000058130020CD010008DB2D00082F2C00081C
:10001000D92D0008F50B0008157800080000000035
:100020000000000000000000000000000F32000887
:100030008F0E000800000000E3010008E532000810
:10004000E7010008E7010008E7010008E7010008F0
:10005000E7010008E7010008E7010008E7010008E0
:10006000E7010008E7010008E7010008E90C0008C3
:10007000FD0C0008E7010008E7010008E70100089F
:10008000E7010008E7010008E7010008E7010008B0
:10009000E7010008E7010008E7010008E7010008A0
:1000A000E7010008E7010008E7010008E701000890
:1000B000E7010008E7010008B5330008E701000880
:1000C000E7010008E7010008E7010008E701000870
:1000D000E7010008C96F0008517200087174000838
:1000E000E7010008E7010008E7010008E701000850
:1000F000E7010008E7010008E7010008E701000840
:10010000E7010008E7010008E7010008E70100082F
:10011000E7010008E7010008E7010008E70100081F
:10012000E7010008E7010008E7010008E70100080F
:1001300000F002F800F03AF80AA090E8000C8244BF
:100140008344AAF10107DA4501D100F02FF8AFF29C
:10015000090EBAE80F0013F0010F18BFFB1A43F0A5
:10016000010318476C8200008C820000103A24BF03
:1001700078C878C1FAD8520724BF30C830C144BF0C
:1001800004680C607047000000230024002500264E
:10019000103A28BF78C1FBD8520728BF30C148BFEA
:1001A0000B6070471FB51FBD10B510BD00F080F883
:1001B0001146FFF7F7FF07F099FC00F09EF803B433
:1001C000FFF7F2FF03BC07F079FB00000948804706
:1001D00009480047FEE7FEE7FEE7FEE7FEE7FEE729
:1001E000FEE7FEE7FEE7FEE704480549054A064B41
:1001F00070470000653300083101000858090020ED
:1002000058130020580B0020580B002070474FF067
:1002100000020429C0F0128010F0030C00F01F80CF
:10022000CCF1040CBCF1020F18BF00F8012BA8BFE1
:1002300020F8022BA1EB0C0100F011B85FEAC17CA1
:1002400024BF00F8012B00F8012B48BF00F8012B58
:10025000704770477047704770474FF0000200B515
:10026000134694469646203922BFA0E80C50A0E8D9
:100270000C50B1F12001BFF4F7AF090728BFA0E887
:100280000C5048BF0CC05DF804EB890028BF40F853
:10029000042B08BF704748BF20F8022B11F0804F95
:1002A00018BF00F8012B704700487047F408002081
:1002B0007546FFF7F9FFAE4605006946534620F044
:1002C0000700854618B020B5FFF78EFFBDE8204037
:1002D0004FF000064FF000074FF000084FF0000B02
:1002E00021F00701AC46ACE8C009ACE8C009ACE8B5
:1002F000C009ACE8C0098D46704710B50446AFF39D
:1003000000802046BDE81040FFF759BF08B54FF404
:10031000E060ADF8000010208DF8030002208DF899
:1003200002006946014802F0F5FB08BD00080140E3
:100330002DE9F14181B02B4D4FF4806739462846B5
:1003400002F071FCAE153146284602F06EFC00BF8B
:1003500000BF00BF00BF3946284602F066FC00BF60
:100360003146284602F061FC00BF00BF39462846EE
:1003700002F059FC002100914FF400784FF6FF7411
:1003800021E0BDF80400000404D54146284602F0EF
:100390004CFC03E04146284602F045FC3146284625
:1003A00002F041FC00BF00BF3146284602F03DFC90
:1003B00000BF00BFBDF8040004EA400001909DF8B2
:1003C0000020521C00929DF800001028D9D3394615
:1003D000284602F02AFC31462846BDE8FC4102F0DE
:1003E00024BC00000008014008B54FF47A7000906A
:1003F00003E0BDF80000401E0090BDF8000000289A
:10040000F7D108BD30B587B00121082002F048FDC2
:1004100001218C03204602F035FD6110ADF8041077
:1004200003218DF8061018218DF80710244D01A91D
:10043000284602F06FFBADF8044001A9284602F0FF
:1004400069FB6000ADF8040001A9284602F062FBD8
:10045000A410ADF8044010208DF8070001A928462B
:1004600002F058FB2146284602F0DFFBFFF7BCFFF5
:100470002146284602F0D7FB0020ADF808004FF4D3
:100480008271ADF80A106110ADF80C10ADF80E00D5
:10049000ADF810008910ADF812103821ADF8141025
:1004A000ADF816000720ADF81800064C02A920464A
:1004B00002F091FE0121204602F076FE07B030BD29
:1004C000000C0140003800402DE9FF410026039652
:1004D000DFF80081404D08F1C807A7F1D80414E007
:1004E0009DF80C10012002F02FFE9DF80C1024F84E
:1004F0001100E088697828F81100A088A97827F809
:1005000011009DF80C00401C03909DF80C00082879
:10051000E6D36878401C6870A878401CA870697899
:1005200064222E4831291BD96E70009602960AE08B
:100530009DF8081038F81110009B194400919DF89F
:100540000810491C02919DF808103229F0D3009937
:100550002B78B1FBF2F120F813102978491C29708F
:100560002978022918D92E70009602960AE09DF883
:10057000081030F81110009B194400919DF80810E4
:10058000491C02919DF808100329F0D3009803211B
:10059000B0FBF1F012490880A878632817D9AE7033
:1005A000009601960AE09DF8040037F810000099C3
:1005B000084400909DF80400401C01909DF8040040
:1005C0006428F0D300980749B0FBF2F00880BDE83A
:1005D000FF8100003C070020A8000020CC0800207C
:1005E000420000204400002011B581B00C4C0221D3
:1005F000204602F0E5FD0028F9D0BDF804102046A1
:1006000002F0E7FD0121204602F0DAFD0028F9D0D2
:10061000204602F0DCFD0090BDF800001CBD00008B
:10062000003800402DE9F04192B0444E304600F0D1
:1006300005F90121480202F033FC0121084602F0CD
:1006400013FC0125ADF8045000248DF80740DFF8B5
:10065000F08001A9404602F05DFA0227ADF804706F
:100660008DF8074001A9404602F054FA4FEA783865
:10067000404600F069FB31484C300290314803900D
:100680000494642005900694802007904000089010
:100690008000099020200A9000020B900C9402A97F
:1006A000404600F0D7FB0121404600F03FFB01220D
:1006B0000221404600F0C4FB00F006FB0121304659
:1006C00000F0B0F80D948DF838508DF839504FF493
:1006D00060200F9010948DF844700DA9304600F002
:1006E000EDF84FF4404002F0B5FB05230122002154
:1006F000304600F007F9052302220121304600F0C0
:1007000001F90121304600F081F8304600F034F95B
:10071000304600F042F93446204600F0C8F8002880
:10072000FAD1204600F0BCF80028FAD10121204679
:1007300000F027F912B0BDE8F0810000002401406C
:1007400000080140AC000020FEB5002501952D4AAF
:100750002D4902F1C80302F5967414E09DF80400D7
:10076000C00719D09DF80400C00708D09DF8040008
:1007700032F810704878461C4E7024F810709DF8BE
:100780000400401C01909DF804006428E6D30D701D
:100790004D700095029514E09DF8040032F8107039
:1007A0000878461C0E7023F81070E8E79DF80800E2
:1007B00033F81000009A104400909DF80800401C87
:1007C00002909DF808003228F0D300983223B0FB45
:1007D000F3F04880009502950AE09DF8080034F88F
:1007E0001000009A104400909DF80800401C0290F0
:1007F0009DF808003228F0D30098B0FBF3F0888011
:10080000FEBD0000AC0000203C000020002904D008
:10081000816841F0010181607047816821F0010128
:1008200081607047002904D0816841F48071816043
:100830007047816821F480718160704710B5154957
:1008400088420AD144150121204602F037FB204698
:10085000BDE81040002102F031BB0F4988420AD1A7
:1008600004150121204602F029FB2046BDE8104076
:10087000002102F023BB094988420AD10121CC039F
:10088000204602F01BFB2046BDE81040002102F08C
:1008900015BB10BD0024014000280140003C014070
:1008A000014600208968490700D5012070470146AC
:1008B00000208968090700D50120704710B54268FB
:1008C0000E4B1A400C790B6842EA04221343436032
:1008D00082680B4B1A40D1E9024323434C7942EA28
:1008E000440213438360C26A22F47002097C491EE9
:1008F000C9B242EA0151C16210BD0000FFFEF0FF23
:10090000FDF7F1FF70B5072609290AD9C568A1F1DD
:100910000A0404EB4404A640B543A3401D43C5604C
:1009200007E0056901EB4104A640B543A3401D4320
:1009300005611F23072A09D2446B521E02EB820273
:1009400093409C4391400C43446370BD0D2A09D2EF
:10095000046BD21F02EB820293409C4391400C43F4
:10096000046370BDC46A0D3A02EB820293409C435B
:1009700091400C43C46270BD816841F00801816000
:100980007047002904D0816841F4A001816070475C
:10099000816821F4A00181607047816841F0040101
:1009A000816070472DE9F843764EF168764801275B
:1009B0000024DFF8D881764D814206D9AC803463BB
:1009C0002021404602F031F9F762B26B0A204FF461
:1009D000FA6112B9F26B012A05D0B36B4FF47A7247
:1009E000012B1FD020E07268B2FBF0F0009030685D
:1009F000009A50430090674A0098B0FBF2F00090D4
:100A0000B06E009A904275D2A888401CA880A88831
:100A100088426FD9AC8034632021404602F005F94A
:100A2000F76267E0F36B13B1B36BF3B11FE0736868
:100A300000933368B3FBF0F0009B5843009000989C
:100A4000B0FBF2F00090B06E009A904252D2E8886B
:100A5000401CE880E88888424CD9EC80346320212F
:100A6000404602F0E2F8F76244E0F36B1BB1B06B72
:100A7000012821D03EE07368B3FBF0F300933368A4
:100A8000B3FBF0F0009B584300900098B0FBF2F0ED
:100A90000090B06E009A90422CD22889401C288188
:100AA0002889884226D92C8134634FF4004140467E
:100AB00002F0BBF8F7621DE0F06B01281AD17068F4
:100AC00000903068009B584300900098B0FBF2F013
:100AD0000090B06E009A90420CD26889401C6881E8
:100AE0006889884206D96C8134632021404602F02F
:100AF0009CF8F7628021404602F08EF8DFF898906B
:100B00004FF4807760B1F4623946484602F08BF8C2
:100B10003068F16E88421DD9F06B01280CD019E0C5
:100B200034632021404602F080F80220F06239460A
:100B3000484602F07AF8EBE72888401C288028888D
:100B4000052807D92C8034632021404602F06DF837
:100B50000320F0627068316F884210D9B06B0128B1
:100B60000DD16888401C68806888052807D96C808A
:100B700034632021404602F058F80420F062BDE8BA
:100B8000F88300001C03002000D43000000801405E
:100B900092000020A0860100000C014013494A6C1D
:100BA0001348002A10D04B6C4FF41652012B0FD073
:100BB0004B6C022B0ED04B6C032B0FD0496C0429CD
:100BC00010D0426006F02ABD4FF496514160F9E71B
:100BD0004260F7E74FF461514160F3E74FF496410B
:100BE0004160EFE74FF4E1314160EBE71C03002087
:100BF00088000020FEE7000011B58AB00A98069030
:100C0000002104912E4AD2F888000590D2F88C0079
:100C1000039003980890089800030890DDE90534D4
:100C20001B1B0993DDE90834B3FBF4F30893089B1D
:100C30000293039B0893089005980790029B0798DE
:100C400058430790DDE9073098420BD2DDE90703EE
:100C5000C01A0790079801909DF8000040F001002D
:100C600000900AE0DDE90703181A0890089801903F
:100C70009DF8000020F00100009010680890029A92
:100C80000898504308909DF80000C0070AD0019AC8
:100C90000898904201D2089108E0019A0898801AB9
:100CA000089003E0019A0898104408900898000BF7
:100CB0000890044A0898906008910BB010BD00009D
:100CC0001C030020E403002008B50B208DF8000071
:100CD00003208DF801008DF8020001208DF803003B
:100CE000684602F07BF808BD0348016841F0010145
:100CF0000160022000F00EB81400002010B5202082
:100D000000F008F80248016841F08001016010BD60
:100D100018000020C10002D502490860704702494E
:100D2000486070470404024000000240002904D0DB
:100D3000016841F001010160704701684FF6FE72E1
:100D4000114001607047000001684FF6FE721140CB
:100D500001600021016041608160C1603649364A0E
:100D60000839904204D1486840F00F00486070474D
:100D7000314A1432904204D1486840F0F000486093
:100D800070472D4A2832904204D1486840F4706080
:100D900048607047284A3C32904204D1486840F489
:100DA000704048607047244A5032904204D14868ED
:100DB00040F47020486070471F4A6432904204D16A
:100DC000486840F47000486070471B4A783290428F
:100DD00004D1486840F0706048607047174A111F9E
:100DE000904204D1086840F00F0008607047134A31
:100DF0001432904204D1086840F0F0000860704757
:100E00000E4A2832904204D1086840F470600860AD
:100E100070470A4A3C32904204D1086840F470405E
:100E200008607047054A50329042FAD1086840F491
:100E3000702008607047000008000240080402406B
:100E4000002A03D002680A430260704702688A439E
:100E50000260704730B5026847F6F0739A430C6A37
:100E60008B682343D1E904452C4323438C692343F6
:100E7000CC6923434C6A23438C6A234313430360A6
:100E8000CA6842600A6882604968C16030BD7047C4
:100E900031B506F0CFFDA02006F090FD06F000FE73
:100EA00070B99DF8000006F089FD06F0F9FD38B92B
:100EB00006F0C0FDA12006F081FD06F0F1FD18B19D
:100EC00006F0D8FD002038BD06F048FD034C207028
:100ED00006F028FD06F0CEFD207838BD4C0000203D
:100EE0002DE9F0410120FFF7D3FFFE4C20600120E7
:100EF000FFF7CEFF20602068000220600220FFF78D
:100F0000C7FF216808442060206800022060032099
:100F1000FFF7BEFF216808442060206800022060BF
:100F20000420FFF7B5FF2168084420600520FFF783
:100F3000AFFF60606068000260600620FFF7A8FFF6
:100F40006168084460606068000260600720FFF725
:100F50009FFF61680844606060680002606008206C
:100F6000FFF796FF6168084460600920FFF790FF73
:100F7000E060E0680002E0600A20FFF789FFE168B6
:100F80000844E060E0680002E0600B20FFF780FFAB
:100F9000E1680844E060E0680002E0600C20FFF7D0
:100FA00077FFE1680844E0600D20FFF771FF2061E2
:100FB0002069000220610E20FFF76AFF21690844C2
:100FC00020612069000220610F20FFF761FF216985
:100FD000084420612069000220611020FFF758FFBB
:100FE0002169084420611120FFF752FFBE4D28609F
:100FF0002868000228601220FFF74AFF2968084489
:1010000028602868000228601320FFF741FF296844
:10101000084428602868000228601420FFF738FF81
:101020002968084428601520FFF732FF6860686867
:10103000000268601620FFF72BFF696808446860AB
:101040006868000268601720FFF722FF696808449B
:1010500068606868000268601820FFF719FF696817
:10106000084468601920FFF713FFE860E868000291
:10107000E8601A20FFF70CFFE9680844E860E868B8
:101080000002E8601B20FFF703FFE9680844E860FE
:10109000E8680002E8601C20FFF7FAFEE9680844EF
:1010A000E8601D20FFF7F4FE28612869000228612E
:1010B0001E20FFF7EDFE2969084428612869000217
:1010C00028611F20FFF7E4FE296908442861286988
:1010D000000228612020FFF7DBFE2969084428610F
:1010E0002120FFF7D5FE814E30702220FFF7D0FE81
:1010F000A061A0690002A0612320FFF7C9FEA169D9
:101100000844A061A0690002A0612420FFF7C0FE8E
:10111000A1690844A061A0690002A0612520FFF731
:10112000B7FEA1690844A0612620FFF7B1FEE06187
:10113000E0690002E0612720FFF7AAFEE1690844A8
:10114000E061E0690002E0612820FFF7A1FEE169AB
:101150000844E061E0690002E0612920FFF798FEA1
:10116000E1690844E0612A20FFF792FE6062606A4C
:10117000000260622B20FFF78BFE616A0844606208
:10118000606A000260622C20FFF782FE616A0844F8
:101190006062606A000260622D20FFF779FE616A7A
:1011A000084460622E20FFF773FEA062A06A00026E
:1011B000A0622F20FFF76CFEA16A0844A062A06A1B
:1011C0000002A0623020FFF763FEA16A0844A0621B
:1011D000A06A0002A0623120FFF75AFEA16A08440B
:1011E000A0623220FFF754FEA861A8690002A8613E
:1011F0003320FFF74DFEA9690844A861A8690002E1
:10120000A8613420FFF744FEA9690844A861A869D1
:101210000002A8613520FFF73BFEA9690844A861D8
:101220003620FFF735FEE861E8690002E861372003
:10123000FFF72EFEE9690844E861E8690002E86109
:101240003820FFF725FEE9690844E861E8690002F3
:10125000E8613920FFF71CFEE9690844E8613A209B
:10126000FFF716FE6862686A000268623B20FFF7BB
:101270000FFE696A08446862686A000268623C207E
:10128000FFF706FE696A08446862686A00026862DD
:101290003D20FFF7FDFD696A084468623E20FFF7C4
:1012A000F7FDA862A86A0002A8623F20FFF7F0FDE0
:1012B000A96A0844A862A86A0002A8624020FFF751
:1012C000E7FDA96A0844A862A86A0002A862412052
:1012D000FFF7DEFDA96A0844A8624220FFF7D8FDA7
:1012E000707005E0A40200203C0200200C030020E6
:1012F0004320FFF7CDFDB0704420FFF7C9FDF0702B
:101300004520FFF7C5FDA060A0680002A060462050
:10131000FFF7BEFDA1680844A060A0680002A060BD
:101320004720FFF7B5FDA1680844A060A06800024F
:10133000A0604820FFF7ACFDA1680844A0604920E8
:10134000FFF7A6FD60616069000260614A20FFF757
:101350009FFD6169084460616069000260614B2023
:10136000FFF796FD61690844606160690002606191
:101370004C20FFF78DFD6169084460614D20FFF747
:1013800087FDA860A8680002A8604E20FFF780FDD6
:10139000A9680844A860A8680002A8604F20FFF769
:1013A00077FDA9680844A860A8680002A8605020DA
:1013B000FFF76EFDA9680844A8605120FFF768FD9B
:1013C00068616869000268615220FFF761FD696920
:1013D000084468616869000268615320FFF758FD9E
:1013E0006969084468616869000268615420FFF710
:1013F0004FFD6969084468615520FFF749FD206287
:10140000206A000220625620FFF742FD216A08444C
:101410002062206A000220625720FFF739FD216A0E
:1014200008442062206A000220625820FFF730FD45
:10143000216A084420625920FFF72AFDE062E06A31
:101440000002E0625A20FFF723FDE16A0844E062EF
:10145000E06A0002E0625B20FFF71AFDE16A0844DF
:10146000E062E06A0002E0625C20FFF711FDE16AE1
:101470000844E0625D20FFF70BFD2862286A000245
:1014800028625E20FFF704FD296A08442862286A62
:10149000000228625F20FFF7FBFC296A08442862EB
:1014A000286A000228626020FFF7F2FC296A0844DB
:1014B00028626120FFF7ECFCE862E86A0002E8625B
:1014C0006220FFF7E5FCE96A0844E862E86A000286
:1014D000E8626320FFF7DCFCE96A0844E862E86A36
:1014E0000002E8626420FFF7D3FCE96A0844E8627E
:1014F0006520FFF7CDFC30716620FFF7C9FC7071E5
:101500007320FFF7C5FCFE4F3864386C0002386466
:101510007420FFF7BDFC396C08443864386C000255
:1015200038647520FFF7B4FC396C08443864386CB3
:10153000000238647620FFF7ABFC396C084438644D
:101540006720FFF7A5FC2863286B0002286368204A
:10155000FFF79EFC296B08442863286B0002286370
:101560006920FFF795FC296B08442863286B00026B
:1015700028636A20FFF78CFC296B084428636B20E2
:10158000FFF786FC6863686B000268636C20FFF7F6
:101590007FFC696B08446863686B000268636D20B8
:1015A000FFF776FC696B08446863686B0002686348
:1015B0006E20FFF76DFC696B084468636F20FFF7CE
:1015C00067FCA863A86B0002A8637020FFF760FCAB
:1015D000A96B0844A863A86B0002A8637120FFF7F9
:1015E00057FCA96B0844A863A86B0002A86372208B
:1015F000FFF74EFCA96B0844A8637720FFF748FC6F
:10160000E863E86B0002E8637820FFF741FCE96BD0
:101610000844E863E86B0002E8637920FFF738FCD0
:10162000E96B0844E863E86B0002E8637A20FFF79F
:101630002FFCE96B0844E8637B20FFF729FC286452
:10164000286C000228647C20FFF722FC296C0844E7
:101650002864286C000228647D20FFF719FC296C9F
:1016600008442864286C000228647E20FFF710FCE0
:10167000296C084428647F20FFF70AFC6864686CC2
:10168000000268648020FFF703FC696C084468640A
:10169000686C000268648120FFF7FAFB696C0844FB
:1016A0006864686C000268648220FFF7F1FB696C73
:1016B000084468648320FFF7EBFBA864A86C000271
:1016C000A8648420FFF7E4FBA96C0844A864A86C14
:1016D0000002A8648520FFF7DBFBA96C0844A8641E
:1016E000A86C0002A8648620FFF7D2FBA96C08440E
:1016F000A8648720FFF7CCFBE864E86C0002E8648C
:101700008820FFF7C5FBE96C0844E864E86C000238
:10171000E8648920FFF7BCFBE96C0844E864E86CE6
:101720000002E8648A20FFF7B3FBE96C0844E86430
:101730008B20FFF7ADFB2063206B000220638C2021
:10174000FFF7A6FB216B08442063206B0002206397
:101750008D20FFF79DFB216B08442063206B000266
:1017600020638E20FFF794FB216B084420638F20B9
:10177000FFF78EFB6063606B000260639020FFF7F1
:1017800087FB616B08446063606B000260639120BB
:10179000FFF77EFB616B08446063606B000260636F
:1017A0009220FFF775FB616B084460639320FFF79D
:1017B0006FFBA063A06B0002A0639420FFF768FB9F
:1017C000A16B0844A063A06B0002A0639520FFF703
:1017D0005FFBA16B0844A063A06B0002A06396208E
:1017E000FFF756FBA16B0844A0639720FFF750FB5F
:1017F000E063E06B0002E0639820FFF749FBE16BD8
:101800000844E063E06B0002E0639920FFF740FBCF
:10181000E16B0844E063E06B0002E0639A20FFF7AD
:1018200037FBE16B0844E0639B20FFF731FB20644A
:10183000206C000220649C20FFF72AFB216C0844E6
:101840002064206C000220649D20FFF721FB216CA6
:1018500008442064206C000220649E20FFF718FBDF
:10186000216C084420649F20FFF712FB6064606CC9
:1018700000026064A020FFF70BFB616C0844606409
:10188000606C00026064A120FFF702FB616C0844F9
:101890006064606C00026064A220FFF7F9FA616C7A
:1018A00008446064A320FFF7F3FAA064A06C000270
:1018B000A064A420FFF7ECFAA16C0844A064A06C1B
:1018C0000002A064A520FFF7E3FAA16C0844A0641D
:1018D000A06C0002A064A620FFF7DAFAA16C08440D
:1018E000A064A720FFF7D4FAE064E06C0002E06493
:1018F000A820FFF7CDFAE16C0844E064E06C01E059
:101900001C0300200002E064A920FFF7C1FAE16C8B
:101910000844E064E06C0002E064AA20FFF7B8FA33
:10192000E16C0844E064AF20FFF7B2FA2865286D47
:1019300000022865B020FFF7ABFA296D084428653E
:10194000286D00022865B120FFF7A2FA296D08442E
:101950002865286D00022865B220FFF799FA296DE5
:1019600008442865B320FFF793FAE865E86D0002A4
:10197000E865B420FFF78CFAE96D0844E865E86D86
:101980000002E865B520FFF783FAE96D0844E865D1
:10199000E86D0002E865B620FFF77AFAE96D0844C1
:1019A000E865B720FFF774FA6865686D000268653E
:1019B000B820FFF76DFA696D08446865686D00022C
:1019C0006865B920FFF764FA696D08446865686D59
:1019D00000026865BA20FFF75BFA696D0844686524
:1019E000BB20FFF755FA2866286E00022866BC2047
:1019F000FFF74EFA296E08442866286E0002286612
:101A0000BD20FFF745FA296E08442866286E0002BB
:101A10002866BE20FFF73CFA296E08442866BF20DE
:101A2000FFF736FAA865A86D0002A865C020FFF789
:101A30002FFAA96D0844A865A86D0002A865C12009
:101A4000FFF726FAA96D0844A865A86D0002A865ED
:101A5000C220FFF71DFAA96D0844A865C320FFF74F
:101A600017FA6866686E00026866C420FFF710FA0D
:101A7000696E08446866686E00026866C520FFF7F4
:101A800007FA696E08446866686E00026866C620D8
:101A9000FFF7FEF9696E08446866C720FFF7F8F99A
:101AA0002065206D00022065C820FFF7F1F9216D47
:101AB00008442065206D00022065C920FFF7E8F981
:101AC000216D08442065206D00022065CA20FFF7C3
:101AD000DFF9216D08442065CB20FFF7D9F9E065D7
:101AE000E06D0002E065CC20FFF7D2F9E16D08441B
:101AF000E065E06D0002E065CD20FFF7C9F9E16D1A
:101B00000844E065E06D0002E065CE20FFF7C0F913
:101B1000E16D0844E065CF20FFF7BAF96065606DBC
:101B200000026065D020FFF7B3F9616D084460657D
:101B3000606D00026065D120FFF7AAF9616D08446D
:101B40006065606D00026065D220FFF7A1F9616DEC
:101B500008446065D320FFF79BF92066206E0002E1
:101B60002066D420FFF794F9216E08442066206E89
:101B700000022066D520FFF78BF9216E084420660D
:101B8000206E00022066D620FFF782F9216E0844FD
:101B90002066D720FFF77CF9A065A06D0002A06544
:101BA000D820FFF775F9A16D0844A065A06D00026B
:101BB000A065D920FFF76CF9A16D0844A065A06D60
:101BC0000002A065DA20FFF763F9A16D0844A06563
:101BD000DB20FFF75DF96066606E00026066DC2066
:101BE000FFF756F9616E08446066606E0002606639
:101BF000DD20FFF74DF9616E08446066606E0002FB
:101C00006066DE20FFF744F9616E08446066AB2031
:101C1000FFF73EF9B071AC20FFF73AF9F071AD2053
:101C2000FFF736F93072AE20FFF732F97072DF201D
:101C3000FFF72EF9B072E020FFF72AF9F072E120E9
:101C4000FFF726F93073BDE8F08103B583B0BDF826
:101C50000C00019005F00EFF002002900BE005F053
:101C6000E9FEA02005F0AAFE05F01AFF38B1BDF884
:101C70000800401C0290BDF808006428EFD3BDF8AE
:101C80000800B0F57A7F10D0BDF80400C0B205F0AE
:101C900095FE05F005FF40B99DF8100005F08EFE99
:101CA00005F0FEFE08B905F0E5FE05B05DF804EBB1
:101CB00005F0E0BE04490A6822F010020A600A68D2
:101CC00002430A607047000000200240034A116886
:101CD00001F038010143116070470000002002400C
:101CE000F8B5FE4C2068000E00909DF80010012011
:101CF000FFF7ABFF2068000C00909DF80010022059
:101D0000FFF7A3FF2068000A00909DF80010032051
:101D1000FFF79BFF2068C1B20420FFF796FF6068C1
:101D2000000E00909DF800100520FFF78EFF606800
:101D3000000C00909DF800100620FFF786FF6068F9
:101D4000000A00909DF800100720FFF77EFF6068F2
:101D5000C1B20820FFF779FFE068000E00909DF8FF
:101D600000100920FFF771FFE068000C00909DF85B
:101D700000100A20FFF769FFE068000A00909DF854
:101D800000100B20FFF761FFE068C1B20C20FFF7E5
:101D90005CFF00F0A1FF2069000E00909DF800108C
:101DA0000D20FFF752FF2069000C00909DF80010F5
:101DB0000E20FFF74AFF2069000A00909DF80010EE
:101DC0000F20FFF742FF2069C1B21020FFF73DFF4F
:101DD000C34D2868000E00909DF800101120FFF7F9
:101DE00034FF2868000C00909DF800101220FFF7C7
:101DF0002CFF2868000A00909DF800101320FFF7C0
:101E000024FF2868C1B21420FFF71FFF6868000E86
:101E100000909DF800101520FFF717FF6868000C70
:101E200000909DF800101620FFF70FFF6868000A69
:101E300000909DF800101720FFF707FF6868C1B2F7
:101E40001820FFF702FFE868000E00909DF80010D0
:101E50001920FFF7FAFEE868000C00909DF80010CA
:101E60001A20FFF7F2FEE868000A00909DF80010C3
:101E70001B20FFF7EAFEE868C1B21C20FFF7E5FE71
:101E80002869000E00909DF800101D20FFF7DDFE70
:101E90002869000C00909DF800101E20FFF7D5FE69
:101EA0002869000A00909DF800101F20FFF7CDFE62
:101EB0002869C1B22020FFF7C8FE8A4E3178212060
:101EC000FFF7C3FE00F008FFA069000E00909DF828
:101ED00000102220FFF7B9FEA069000C00909DF8C9
:101EE00000102320FFF7B1FEA069000A00909DF8C2
:101EF00000102420FFF7A9FEA069C1B22520FFF73A
:101F0000A4FEE069000E00909DF800102620FFF767
:101F10009CFEE069000C00909DF800102720FFF760
:101F200094FEE069000A00909DF800102820FFF759
:101F30008CFEE069C1B22920FFF787FE606A000EBF
:101F400000909DF800102A20FFF77FFE606A000CC9
:101F500000909DF800102B20FFF777FE606A000AC2
:101F600000909DF800102C20FFF76FFE606AC1B250
:101F70002D20FFF76AFE00F0AFFEA06A000E009071
:101F80009DF800102E20FFF760FEA06A000C009064
:101F90009DF800102F20FFF758FEA06A000A00905D
:101FA0009DF800103020FFF750FEA06AC1B231202A
:101FB000FFF74BFEA869000E00909DF8001032203C
:101FC000FFF743FEA869000C00909DF80010332035
:101FD000FFF73BFEA869000A00909DF8001034202E
:101FE000FFF733FEA869C1B23520FFF72EFEE8697E
:101FF000000E00909DF800103620FFF726FEE869DD
:10200000000C00909DF800103720FFF71EFEE869D5
:10201000000A00909DF800103820FFF716FEE869CE
:10202000C1B23920FFF711FE00F056FE686A000EBB
:1020300000909DF800103A20FFF707FE686A000C38
:1020400000909DF800103B20FFF7FFFD686A000A32
:1020500000909DF800103C20FFF7F7FD686AC1B2C0
:102060003D20FFF7F2FDA86A000E00909DF80010D9
:102070003E20FFF7EAFDA86A000C00909DF80010D2
:102080003F20FFF7E2FDA86A000A00909DF80010CB
:102090004020FFF7DAFDA86AC1B24120FFF7D5FD65
:1020A00071784220FFF7D1FD00F016FEB178432091
:1020B000FFF7CBFDF1784420FFF7C7FDA068000EC5
:1020C00000909DF800104520FFF7BFFDA068000CB0
:1020D00000909DF80010462006E00000A4020020B9
:1020E0003C0200200C030020FFF7AFFDA068000AAF
:1020F00000909DF800104720FFF7A7FDA068C1B22F
:102100004820FFF7A2FD6069000E00909DF80010C6
:102110004920FFF79AFD6069000C00909DF80010BF
:102120004A20FFF792FD6069000A00909DF80010B8
:102130004B20FFF78AFD6069C1B24C20FFF785FD97
:10214000A868000E00909DF800104D20FFF77DFD5F
:10215000A868000C00909DF800104E20FFF775FD58
:10216000A868000A00909DF800104F20FFF76DFD51
:10217000A868C1B25020FFF768FD6869000E0090A2
:102180009DF800105120FFF760FD6869000C009079
:102190009DF800105220FFF758FD6869000A009072
:1021A0009DF800105320FFF750FD6869C1B254201C
:1021B000FFF74BFD00F090FD206A000E00909DF8A7
:1021C00000105520FFF741FD206A000C00909DF89B
:1021D00000105620FFF739FD206A000A00909DF894
:1021E00000105720FFF731FD206AC1B25820FFF7D9
:1021F0002CFDE06A000E00909DF800105920FFF7BA
:1022000024FDE06A000C00909DF800105A20FFF7B2
:102210001CFDE06A000A00909DF800105B20FFF7AB
:1022200014FDE06AC1B25C20FFF70FFD00F054FD21
:10223000286A000E00909DF800105D20FFF705FD54
:10224000286A000C00909DF800105E20FFF7FDFC4E
:10225000286A000A00909DF800105F20FFF7F5FC47
:10226000286AC1B26020FFF7F0FCE86A000E009017
:102270009DF800106120FFF7E8FCE86A000C009070
:102280009DF800106220FFF7E0FCE86A000A009069
:102290009DF800106320FFF7D8FCE86AC1B2642003
:1022A000FFF7D3FC31796520FFF7CFFC7179662009
:1022B000FFF7CBFC00F010FD286B000E00909DF89E
:1022C00000106720FFF7C1FC286B000C00909DF800
:1022D00000106820FFF7B9FC286B000A00909DF8F9
:1022E00000106920FFF7B1FC286BC1B26A20FFF72C
:1022F000ACFC686B000E00909DF800106B20FFF79F
:10230000A4FC686B000C00909DF800106C20FFF797
:102310009CFC686B000A00909DF800106D20FFF790
:1023200094FC286BC1B26E20FFF78FFC00F0D4FC48
:10233000A86B000E00909DF800106F20FFF785FC41
:10234000A86B000C00909DF800107020FFF77DFC3A
:10235000A86B000A00909DF800107120FFF775FC33
:10236000A86BC1B27220FFF770FCE86B000E009002
:102370009DF800107720FFF768FCE86B000C0090D8
:102380009DF800107820FFF760FCE86B000A0090D1
:102390009DF800107920FFF758FCE86BC1B27A2055
:1023A000FFF753FC00F098FC286C000E00909DF89D
:1023B00000107B20FFF749FC286C000C00909DF872
:1023C00000107C20FFF741FC286C000A00909DF86B
:1023D00000107D20FFF739FC286CC1B27E20FFF78A
:1023E00034FC686C000E00909DF800107F20FFF711
:1023F0002CFC686C000C00909DF800108020FFF70A
:1024000024FC686C000A00909DF800108120FFF702
:102410001CFC686CC1B28220FFF717FC00F05CFC6A
:10242000A86C000E00909DF800108320FFF70DFCB3
:10243000A86C000C00909DF800108420FFF705FCAC
:10244000A86C000A00909DF800108520FFF7FDFBA6
:10245000A86CC1B28620FFF7F8FBE86C000E009074
:102460009DF800108720FFF7F0FBE86C000C00904F
:102470009DF800108820FFF7E8FBE86C000A009048
:102480009DF800108920FFF7E0FBE86CC1B28A20BC
:10249000FFF7DBFB00F020FC206B000E00909DF8A6
:1024A00000108B20FFF7D1FB206B000C00909DF8F3
:1024B00000108C20FFF7C9FB206B000A00909DF8EC
:1024C00000108D20FFF7C1FB206BC1B28E20FFF7FB
:1024D000BCFB606B000E00909DF800108F20FFF792
:1024E000B4FB606B000C00909DF800109020FFF78B
:1024F000ACFB606B000A00909DF800109120FFF784
:10250000A4FB606BC1B29220FFF79FFB00F0E4FBDD
:10251000A06B000E00909DF800109320FFF795FB34
:10252000A06B000C00909DF800109420FFF78DFB2D
:10253000A06B000A00909DF800109520FFF785FB26
:10254000A06BC1B29620FFF780FBE06B000E0090FD
:102550009DF800109720FFF778FBE06B000C0090CF
:102560009DF800109820FFF770FBE06B000A0090C8
:102570009DF800109920FFF768FBE06BC1B29A202C
:10258000FFF763FB00F0A8FB206C000E00909DF8A5
:1025900000109B20FFF759FB206C000C00909DF869
:1025A00000109C20FFF751FB206C000A00909DF862
:1025B00000109D20FFF749FB206CC1B29E20FFF761
:1025C00044FB606C000E00909DF800109F20FFF708
:1025D0003CFB606C000C00909DF80010A020FFF701
:1025E00034FB606C000A00909DF80010A120FFF7FA
:1025F0002CFB606CC1B2A220FFF727FB00F06CFB44
:10260000A06C000E00909DF80010A320FFF71DFBAA
:10261000A06C000C00909DF80010A420FFF715FBA3
:10262000A06C000A00909DF80010A520FFF70DFB9C
:10263000A06CC1B2A620FFF708FBE06C000E009072
:102640009DF80010A720FFF700FBE06C000C009045
:102650009DF80010A820FFF7F8FAE06C000A00903F
:102660009DF80010A920FFF7F0FAE06CC1B2AA2093
:10267000FFF7EBFA00F030FB286D000E00909DF89C
:102680000010AF20FFF7E1FA286D000C00909DF8D4
:102690000010B020FFF7D9FA286D000A00909DF8CD
:1026A0000010B120FFF7D1FA286DC1B2B220FFF7B8
:1026B000CCFAE86D000E00909DF80010B320FFF7F3
:1026C000C4FAE86D000C00909DF80010B420FFF7EC
:1026D000BCFAE86D000A00909DF80010B520FFF7E5
:1026E000B4FAE86DC1B2B620FFF7AFFA00F0F4FA21
:1026F000686D000E00909DF80010B720FFF7A5FA56
:10270000686D000C00909DF80010B820FFF79DFA4E
:10271000686D000A00909DF80010B920FFF795FA47
:10272000686DC1B2BA20FFF790FA286E000E0090D3
:102730009DF80010BB20FFF788FA286E000C00906F
:102740009DF80010BC20FFF780FA286E000A009068
:102750009DF80010BD20FFF778FA286EC1B2BE20A8
:10276000FFF773FA00F0B8FAA86D000E00909DF81C
:102770000010BF20FFF769FAA86D000C00909DF8CB
:102780000010C020FFF761FAA86D000A00909DF8C4
:102790000010C120FFF759FAA86DC1B2C220FFF79F
:1027A00054FA686E000E00909DF80010C320FFF7E9
:1027B0004CFA686E000C00909DF80010C420FFF7E2
:1027C00044FA686E000A00909DF80010C520FFF7DB
:1027D0003CFA686EC1B2C620FFF737FA00F07CFA07
:1027E000206D000E00909DF80010C720FFF72DFA15
:1027F000206D000C00909DF80010C820FFF725FA0E
:10280000206D000A00909DF80010C920FFF71DFA06
:10281000206DC1B2CA20FFF718FAE06D000E0090DB
:102820009DF80010CB20FFF710FAE06D000C00902F
:102830009DF80010CC20FFF708FAE06D000A009028
:102840009DF80010CD20FFF700FAE06DC1B2CE2058
:10285000FFF7FBF900F040FA606D000E00909DF864
:102860000010CF20FFF7F1F9606D000C00909DF88B
:102870000010D020FFF7E9F9606D000A00909DF884
:102880000010D120FFF7E1F9606DC1B2D220FFF74F
:10289000DCF9206E000E00909DF80010D320FFF7A9
:1028A000D4F9206E000C00909DF80010D420FFF7A2
:1028B000CCF9206E000A00909DF80010D520FFF79B
:1028C000C4F9206EC1B2D620FFF7BFF900F004FAB8
:1028D000A06D000E00909DF80010D720FFF7B5F90D
:1028E000A06D000C00909DF80010D820FFF7ADF906
:1028F000A06D000A00909DF80010D920FFF7A5F9FF
:10290000A06DC1B2DA20FFF7A0F9606E000E009052
:102910009DF80010DB20FFF798F9606E000C009026
:102920009DF80010DC20FFF790F9606E000A00901F
:102930009DF80010DD20FFF788F9606EC1B2DE203F
:10294000FFF783F900F0C8F9B179AB20FFF77DF903
:10295000F179AC20FFF779F9317AAD20FFF775F9FD
:10296000717AAE20FFF771F9B17ADF20FFF76DF9C8
:10297000F17AE020FFF769F9317BE120FFF765F993
:10298000BDE8F84000F0A8B910B50121084600F0F4
:1029900095FA0021BDE81040012000F08FBA000038
:1029A000F8B5214F384600F049F8204E304600F087
:1029B00045F81F4800F042F8FFF7E6FF01211C2010
:1029C00000F06EFA0121084600F06AFA0121194868
:1029D00000F0F4F80121184800F0F0F84FF4076017
:1029E000ADF8000010258DF8035003248DF8024047
:1029F0006946384600F08EF88021ADF80010482175
:102A00008DF803106946384600F084F840F203114F
:102A1000ADF800108DF803508DF80240694630463D
:102A200000F078F8F8BD000000080140000C0140FB
:102A300000100140000430000002300010B52E49A3
:102A4000884209D10121042000F038FA0021BDE8B4
:102A50001040042000F032BA2849884209D10121EF
:102A6000082000F02BFA0021BDE81040082000F0FB
:102A700025BA2349884209D10121102000F01EFA0D
:102A80000021BDE81040102000F018BA1D4988420E
:102A900009D10121202000F011FA0021BDE81040E9
:102AA000202000F00BBA1849884209D101214020AA
:102AB00000F004FA0021BDE81040402000F0FEB90B
:102AC0001249884209D10121802000F0F7F9002144
:102AD000BDE81040802000F0F1B90D4988420AD1CC
:102AE00084150121204600F0E9F92046BDE8104098
:102AF000002100F0E3B910BD00080140000C0140C6
:102B0000001001400014014000180140001C014069
:102B1000002001402DE9F0410022CC7804F00F03A1
:102B2000E40601D58C7823430C784FF00F0714F09E
:102B3000FF0F4FF0010C1CD005680CFA02F40E8850
:102B40002640A64211D1960007FA06F825EA0805A4
:102B500003FA06F848EA0505CE78282E02D0482E5A
:102B600002D002E0446100E00461521C082AE4D370
:102B700005600A88FF2A1ED94568002202F108066E
:102B80000CFA06F40E882640A64210D1960007FAE9
:102B900006F825EA080503FA06F848EA0505CE789E
:102BA000282E00D14461CE78482E00D10461521CF9
:102BB000082AE3D34560BDE8F0810000F0B5154C6C
:102BC000002801DAE36900E06368C0F30346420DC0
:102BD000120185B2C0F301579540032F07D0C202FE
:102BE0000CD50322B240934343F0706209E023F016
:102BF0007062636823F07063636002E0AB4343F08C
:102C0000706201B12A43002801DAE261F0BD62601E
:102C1000F0BD0000000001400246002092680A4218
:102C200000D0012070474161704701617047FEE7A5
:102C300003B582B04FF6FF7101919DF80C10002989
:102C400026D10121039123E00178BDF804205140F1
:102C50000191002100914AF2010214E0BDF8041034
:102C6000C90708D0BDF8041049080191BDF8041047
:102C70005140019103E0BDF80410490801919DF80D
:102C80000010491C00919DF800100829E6D3401C53
:102C90009DF80C104A1E0392D6D2BDF8040004B071
:102CA00000BD000002494CF6CC40086070470000AF
:102CB0000030004010B545F2555000F021F80320D7
:102CC00000F012F8FF2000F015F800F005F8BDE85C
:102CD0001040FFF7E7BF000002494AF6AA2008604B
:102CE0007047000000300040014948607047000014
:102CF000003000400149886070470000003000400B
:102D00000149086070470000003000402DE9F0479D
:102D1000DFF8B080D8F83800DFF8AC90012834D064
:102D200002214846FFF781FF2848007800282AD171
:102D3000D8F83800002826D1D8F804004EF66024D0
:102D40000125234F4FF47A76A04206D90221484646
:102D5000FFF769FFC8F838507E80D8F83400C8B152
:102D6000D8F834101B48022920D0D8F83410032991
:102D700009D1C068A04206D902214846FFF753FF97
:102D8000C8F838507E80BDE8F08702214846FFF73A
:102D90004AFFC9E7D8F85000A042F4D902214846BA
:102DA000FFF741FFC8F838507E80ECE78068A0420A
:102DB000E9D902214846FFF736FFC8F838507E802F
:102DC000E1E700001C030020000C0140520000203D
:102DD000A0000020E4030020FEE7704770B50F2339
:102DE000C27801260178002A1ED0144A126802F423
:102DF000E062C2F5E062120AC2F10404D3404578F1
:102E0000A54082781A402A43120101F1E02181F89D
:102E10000024007800F01F018E404009800000F17E
:102E2000E020C0F8006170BD01F01F008640480935
:102E3000800000F1E020C0F8806170BD0CED00E082
:102E40000249084302490860704700000000FA0583
:102E50000CED00E0034A516821F440410143516008
:102E60007047000000100240054A002903D0516954
:102E700001435161704751698143516170470000BE
:102E800000100240054A002903D0D1690143D161F5
:102E90007047D1698143D161704700000010024042
:102EA000054A002903D091690143916170479169F6
:102EB000814391617047000000100240054A0029DB
:102EC00003D0D1680143D1607047D1688143D1609C
:102ED000704700000010024010B500F033F84FF4C6
:102EE0008034204600F0CEF800F016F9144908703E
:102EF0000878012822D1002000F0BAF8002000F064
:102F0000E7F8A01100F0DAF80220FEF7DFFE10204B
:102F1000FEF7D0FE4FF4E011204600F0E9F8012062
:102F200000F0E0F8392000F083F80028FAD0022001
:102F300000F0E8F800F094F80828FBD110BD00007C
:102F40004D0000200C48016841F00101016041681A
:102F50000A4A114041600168094A11400160016854
:102F600021F480210160416821F4FE0141604FF4A9
:102F70001F01816070470000001002400000FFF850
:102F8000FFFFF6FE10B5264A516801F00C01254BF3
:102F9000002927D0042927D0082927D003605168A9
:102FA00001F0F0010909204B5C5C0168E1404160DF
:102FB000546804F4E064240A1C5D21FA04F484607B
:102FC000546804F46054E40A1B5DD940C16052683F
:102FD00002F44042920B144B1B1F9A5CB1FBF2F1BE
:102FE000016110BD0360DAE70360D8E7516801F4BE
:102FF0007011536803F48033022404EB914133B120
:1030000053689B0307D5094B59430160C7E7074B3A
:1030100059430160C3E7034B59430160BFE7000018
:103020000010024000127A000400002000093D0058
:10303000034600205909094A01290AD002290AD069
:10304000516A03F01F02012393400B4200D001207C
:1030500070471168F5E7116AF3E7000000100240BD
:103060000248406800F00C00704700000010024069
:10307000034A516821F0F00101435160704700009C
:10308000001002400C490A6822F480320A600A6883
:1030900022F480220A60B0F5803F07D0B0F5802F7F
:1030A00003D1086840F4A02008607047086840F425
:1030B000803008607047000000100240034A5168E9
:1030C00021F4E061014351607047000000100240AC
:1030D000034A516821F4605141EAC00050607047D2
:1030E000001002400149086670470000000042429B
:1030F000034B5A6822F47C1208431043586070470F
:1031000000100240034A516821F00301014351605D
:10311000704700000010024018B5002000904FF4E6
:10312000A0643120FFF784FF0099491C00910099A9
:10313000A14201D00028F4D03120FFF779FF08B177
:10314000012018BD002018BD33B583B000200290C7
:10315000BDF80C00BDF81010400340EAC11041F664
:10316000594108430290BDF808004FF6FF7101EA8B
:10317000800002900B4D4FF4805421462846FFF703
:1031800052FDBDF80800FDF72FFA0190FDF72CF96C
:1031900021462846FFF749FDFDF726F9BDF8040052
:1031A00005B030BD000C0140002904D0018841F079
:1031B000400101807047018821F040010180704783
:1031C0000246002012890A4200D0012070478089FF
:1031D00070478181704730B5028802F441530A88F4
:1031E0004C88CD8822438C882C4322430C8922436F
:1031F0004C8922438C892243CC8922431A43028082
:10320000828B22F400628283098A018230BD70477A
:103210000548816C0548012902D04021FFF705BD12
:103220004021FFF700BD00001C0300200008014002
:10323000AFF300800CB5002201920092274801688C
:1032400041F4803101604FF4A063016801F4003162
:1032500000910199491C0191009911B90199994274
:10326000F3D10168890302D50121009100E00092A9
:103270000099012930D11A490A6842F010020A6007
:103280000A6822F003020A600A6842F002020A6039
:103290004168416041684160416841F4806141603A
:1032A000416821F47C114160416841F4E8114160BA
:1032B000016841F08071016001688901FCD54168B5
:1032C00021F003014160416841F002014160416821
:1032D000C1F381010229FAD10CBD000000100240A7
:1032E0000020024010B500F083F9094B0949186825
:1032F000C20602D50A78521C0A700A78FA2A06D940
:1033000000220A7020F0100018600348027010BDFF
:103310001800002091000020900000200F484FF47A
:103320007A710068B0FBF1F04FF0E021B0F1807FDE
:1033300001D301200BE020F07F40401E4861084A85
:10334000F02010700020886107200861002000B183
:10335000FEE7086940F0010008617047280000207E
:1033600023ED00E010B50F48016841F00101016054
:1033700041680D4A1140416001680C4A11400160EA
:10338000016821F480210160416821F4FE0141605F
:103390004FF41F018160FFF74BFF05494FF00060BC
:1033A000086010BD001002400000FFF8FFFFF6FEAD
:1033B00008ED00E010B50121284800F08AF82849FE
:1033C0000868420603D440F02000086002E020F0C4
:1033D0002000086023494B6B0020234A042B02D1B4
:1033E0000B6B012B01D0506010BDD1F8AC40012314
:1033F0007CB1D1F8AC40012CF6D19478012CF3D1FA
:10340000D1F8A0105468A14223D95068401C5060E4
:1034100010BD5478012C0BD09478012CF8D1D1F840
:10342000A0105468A14210D95068401C506010BDD3
:10343000D1F89C105468A14203D95068401C5060D8
:1034400010BD50709370506010BD537090705060FC
:1034500010BD53709070506010BD00000008004017
:10346000180000201C030020200000203EB5012190
:103470000420FFF707FD40F6B140ADF80000002042
:10348000ADF802000121ADF80410ADF80600084CBB
:103490006946204600F036F801221146204600F029
:1034A00027F800F007F80121204600F015F83EBD8E
:1034B0000008004008B51E208DF8000001208DF89E
:1034C00001008DF802008DF803006846FFF786FCC6
:1034D00008BDC94301827047002904D0018841F02A
:1034E000010101807047018821F0010101807047CE
:1034F000002A03D082890A438281704782898A43E5
:103500008281704730B502881B4C1C4DA0420DD003
:10351000A8420BD0B0F1804F08D0194B984205D08B
:10352000184B984202D0184B984203D122F07003F6
:103530004A881A43154B984206D0154B984203D03F
:1035400022F44073CA881A4302808A8882850A88D6
:103550000285A0420AD0A84208D00E4A904205D067
:103560000D4A904202D00D4A904201D1097A01865B
:103570000121818230BD0000002C01400034014057
:103580000004004000080040000C00400010004013
:103590000014004000400140004401400048014048
:1035A00070B5104C2088B0F5167F08D20E4D002063
:1035B000286320210D48FFF738FB0520E8622188A9
:1035C0001020B1F5AF6F03D808491031086070BD05
:1035D000218840F20E629142F9D304491431086007
:1035E00070BD00003E0000201C03002000080140C8
:1035F00003480168002902D00168491E0160704734
:10360000480000202DE9FC5FDFF8E4C3DCF83C3023
:10361000ACF1E007F74807F1D0060A2100254FF486
:103620007A724EF6602BA6F16804002B12D0038844
:10363000038801937B68DDF8048003FB08F30193A2
:103640007378DB0768D06368DDF8048043455CD994
:10365000019566E00388008801903868019B584313
:1036600001903078C0070AD02068019B984201D9A8
:10367000019508E02068019B181A019003E0236877
:103680000198184401900198000B01900198CCF822
:1036900000000195DCF83800D0B1DCF80000DCF85F
:1036A0000430B0FBF1F05843CCF80C00DCF80C000F
:1036B000B0FBF2F0CCF80C00DCF800004FF47A72AA
:1036C0005043DCF80420B0FBF2F0CCF80800F1E045
:1036D000DCF80000DCF80430B0FBF1F0B3FBF1F3F0
:1036E0005843CCF80C00DCF80C00B0FBF2F0CCF83E
:1036F0000C00DCF8000042F210725043DCF80420A9
:10370000B0FBF2F0CCF80800D4E06368DDF8048088
:10371000A8EB0303019304E06368DDF804804344ED
:103720000193019B1B0B0193019BCCF80030DCF84B
:10373000003044F62068434525D903880388019367
:10374000BB68DDF8048003FB08F301933379DB07E2
:103750000DD0A368DDF80480434501D901950BE045
:10376000A368DDF80480A8EB0303019304E0A368D9
:10377000DDF8048043440193019B1B0B0193019BE3
:10378000CCF800300195DCF8003049F6404843455C
:1037900025D90388038801933B6DDDF8048003FB82
:1037A00008F30193B37ADB070DD0236DDDF80480B5
:1037B000434501D901950BE0236DDDF80480A8EBAA
:1037C0000303019304E0236DDDF804804344019377
:1037D000019B1B0B0193019BCCF800300195DCF899
:1037E00000305B4525D90388038801937B6DDDF8A4
:1037F000048003FB08F30193F37ADB070DD0636DBC
:10380000DDF80480434501D901950BE0636DDDF8D7
:103810000480A8EB0303019304E0636DDDF80480EA
:1038200043440193019B1B0B0193019BCCF8003097
:103830000195DCF80030DFF8C08143451FD90388CB
:1038400000880190B86D019B58430190307BC00700
:103850000AD0A06D019B984201D9019508E0A06DA6
:10386000019B181A019003E0A36D01981844019080
:103870000198000B01900198CCF800000195DCF84C
:103880003800E8B3DCF80000DCF804305843CCF82A
:103890000C00DCF80C00B0FBF2F0CCF80C00DCF80B
:1038A000000042F210725043DCF80420B0FBF2F04A
:1038B000CCF80800DCF838905348DFF84081DFF896
:1038C00040A1504B4200B9F1000F36D0B8F800903B
:1038D000B8F80090CDF80490D7F81090DDF804E027
:1038E00009FB0EF9CDF8049096F803905FEAC979C8
:1038F00073D0D4F81090DDF804E0F1456ED900E003
:1039000001E00195EDE0DCF80400DCF80030B0FBEC
:10391000F1F05843CCF80C00DCF80C00B0FBF2F0EE
:10392000CCF80C00DCF80000354A5043DCF80420E9
:10393000B0FBF2F0CCF80800BCE7B8F80090CDF886
:103940000490D7F80C90DDF804E009FB0EF9CDF8EF
:10395000049096F802905FEAC97910D0D4F80C90E0
:10396000DDF804E0F14501D901950FE0D4F80C90A1
:10397000DDF804E0AEEB0909CDF8049006E0D4F8D8
:103980000C90DDF804E0F144CDF80490DDF80490EB
:103990004FEA1939CDF80490DDF80490CCF8049082
:1039A000DCF80490D94542D9B8F80090CDF80490DD
:1039B000D7F83090DDF804E009FB0EF9CDF804905B
:1039C00096F806905FEAC97920D0D4F83090DDF8F7
:1039D00004E0F14503D901951FE07BE071E0D4F8E4
:1039E0003090DDF804E0AEEB0909CDF8049014E066
:1039F0001C03002044000020803801004200002009
:103A0000A0860100C027090040420F00D4F8309082
:103A1000DDF804E0F144CDF80490DDF804904FEABD
:103A20001939CDF80490DDF80490CCF80490DCF856
:103A30000490D14532D9B8F80080CDF80480D7F889
:103A40003480DDF8049008FB09F8CDF8048096F87E
:103A500007805FEAC87810D0D4F83480DDF804908D
:103A6000C84501D901950FE0D4F83480DDF8049001
:103A7000A9EB0808CDF8048006E0D4F83480DDF81E
:103A80000490C844CDF80480DDF804804FEA18386B
:103A9000CDF80480DDF80480CCF804800195DCF8D2
:103AA0000480B8F1010F09D9DCF83080B8F1000FBB
:103AB00004D0DCF80080B8F1000F01D1CCF804503C
:103AC000D1E0D4F81090DDF804E0AEEB0909CDF8B0
:103AD000049006E0D4F81090DDF804E0F144CDF84D
:103AE0000490DDF804904FEA1939CDF80490DDF820
:103AF0000490CCF80490DCF80490994534D9B8F8D7
:103B00000090B8F80090CDF80490D7F81490DDF844
:103B100004E009FB0EF9CDF8049096F805905FEAF1
:103B2000C97910D0D4F81490DDF804E0F14501D93A
:103B300001950FE0D4F81490DDF804E0AEEB09092C
:103B4000CDF8049006E0D4F81490DDF804E0F144D8
:103B5000CDF80490DDF804904FEA1939CDF80490BF
:103B6000DDF80490CCF80490DCF80490814534D959
:103B7000B8F80090B8F80090CDF80490D7F83890D5
:103B8000DDF804E009FB0EF9CDF8049096F80890F2
:103B90005FEAC97910D0D4F83890DDF804E0F14537
:103BA00001D901950FE0D4F83890DDF804E0AEEBD0
:103BB0000909CDF8049006E0D4F83890DDF804E067
:103BC000F144CDF80490DDF804904FEA1939CDF8AE
:103BD0000490DDF80490CCF80490DCF80490914552
:103BE00034D9B8F80090B8F80080CDF80480D7F840
:103BF0003C80DDF8049008FB09F8CDF8048096F8C5
:103C000009805FEAC87810D0D4F83C80DDF80490D1
:103C1000C84501D901950FE0D4F83C80DDF8049047
:103C2000A9EB0808CDF8048006E0D4F83C80DDF864
:103C30000490C844CDF80480DDF804804FEA1838B9
:103C4000CDF80480DDF80480CCF80480DCF8308006
:103C5000B8F1000F04D0DCF80080B8F1000F01D1FA
:103C6000CCF804500195DFF864C4DCF834E0DFF8E8
:103C700060C4DFF85884DFF85C94DCF800C008F119
:103C8000C808BEF1010F25D0DFF840E4DEF838E0C7
:103C9000BEF1000F73D0DFF834A4DAF834B0BBF112
:103CA000000F6DD0DAF834B0BBF1020F69D0DAF84A
:103CB00034B0BBF1030F7CD0DAF834B0BBF1040FA1
:103CC00078D0DAF83400052875D0DAF83400062800
:103CD00072D0FDE3D8F80000DFF8F0A3DAF84C204A
:103CE000904203D0FA482CF040020260F84A106873
:103CF0005FEA806C66D520F020001060DAF83CC0E6
:103D0000BCF1000F05D0DAF83CC0BCF1010F24D0A3
:103D100058E0DAF88410D8F800C0614507D3DAF823
:103D20004C10C8F8001040F0400010604AE0D8F88D
:103D30000010DAF884C0A1EB0C01C8F80010D8F824
:103D40000010DAF84CC061453CD8DAF84C10C8F8DD
:103D5000001040F04000106034E0DAF884C0D8F879
:103D600000B0BCFBF1FCDC450CD3DAF84CC0BCFB6A
:103D7000F1F1C8F8001040F04000106022E00EE1C0
:103D8000FEE3FEE3DAF884C0D8F800B0BCFBF1FC37
:103D9000ABEB0C0CC8F800C0DAF84CC0D8F800B097
:103DA000BCFBF1FCDC450DD3DAF84CC0BCFBF1F1F7
:103DB00003E0E7E3E7E3E7E3E7E3C8F8001040F0F8
:103DC00040001060DAF83C0098B1D8F8000001908B
:103DD000019800030190DAF84C10BF48814244D2A8
:103DE0007078400730D4E0690199884227D901955D
:103DF0002EE0D8F80000019001980003019030787F
:103E000040070AD4A0690199884201D9019508E0C8
:103E1000A0690199081A019003E0A069019908447A
:103E20000190B8690199B1FBF0F001900198400848
:103E300001900198A9F804000195BDE8FC9FE06994
:103E40000199081A019003E0E06901990844019082
:103E5000F8690199B1FBF0F00190019840080190D8
:103E60000198A9F804000195E7E7DAF84C209B498E
:103E7000824222D3DAF84C0088421ED230794007C1
:103E80000AD4206A0199884201D9019508E0206A84
:103E90000199081A019003E0206A019908440190F1
:103EA000386A0199B1FBF0F0019001984008019047
:103EB0000198A9F804000195BFE7DAF84C008842A0
:103EC00022D3DAF84C0098421ED2B07A40070AD4C6
:103ED000E06D0199884201D9019508E0E06D0199F2
:103EE000081A019003E0E06D019908440190F86D13
:103EF0000199B1FBF0F00190019840080190019800
:103F0000A9F80400019598E7DAF84C107448994232
:103F100022D3DAF84C1081421ED2F07A40070AD43C
:103F2000206E0199884201D9019508E0206E01991F
:103F3000081A019003E0206E019908440190386E40
:103F40000199B1FBF0F001900198400801900198AF
:103F5000A9F80400019570E7DAF84C108142ABD360
:103F6000307B40070AD4606E0199884201D90195DF
:103F700008E0606E0199081A019003E0606E0199F3
:103F800008440190786E0199B1FBF0F0019001981E
:103F9000400801900198A9F8040001954DE74B48AD
:103FA000416B79B1416B022978D0416B032976D0FE
:103FB000416B042974D0416B052972D0406B0628EF
:103FC00070D0B3E35FEA8C610DD5D8F80410C26FEE
:103FD0001144C8F80410D8F80410026D914202D3BD
:103FE000016DC8F80410D8F804100191016D59450D
:103FF0001DD2019800030190B07840070AD4606A8E
:104000000199884201D9019508E0606A0199081A6E
:10401000019003E0606A019908440190786A01996F
:10402000B1FBF0F001900198400801907EE3016D32
:10403000594520D3016D51451DD2019800030190CF
:10404000B07940070AD4206C0199884201D90195C2
:1040500008E0206C0199081A019003E0206C019996
:1040600008440190386C0199B1FBF0F0019001987F
:10407000400801905AE3016D5145A2D3016D1948E2
:1040800081429ED8019800030190F07940070FD437
:10409000606C0199884206D901950DE024E0BCE0EE
:1040A00062E1EFE222E3606C0199081A019003E0FB
:1040B000606C019908440190786C0199B1FBF0F0B3
:1040C000019001984008019030E300001C0300209B
:1040D0001800002050000020400D0300801A060048
:1040E00000350C0080A90300C16B69B3016864222C
:1040F0005143426DB1FBF2F1C8F808105FEA8C61E0
:104100000FD5D8F80410C06F0844C8F80400D8F8D8
:104110000400D8F80810884203D3D8F80800C8F87B
:104120000400D8F804000190D8F80800584527D2B8
:10413000019800030190B078400714D4606A019997
:1041400088420BD9019512E00168426D01EB8101B3
:104150004900B1FBF2F1C8F80810CFE7606A019995
:10416000081A019003E0606A019908440190786A96
:104170000199B1FBF0F00190019840080190D5E25F
:10418000D8F80800584521D3D8F8080050451DD26A
:10419000019800030190B07940070AD4206C01997E
:1041A000884201D9019508E0206C0199081A019014
:1041B00003E0206C019908440190386C0199B1FB2F
:1041C000F0F00190019840080190AFE2D8F80800A3
:1041D0005045D4D3D8F80810F7488142CFD8019879
:1041E00000030190F07940070AD4606C019988427D
:1041F00001D9019508E0606C0199081A019003E06B
:10420000606C019908440190786C0199B1FBF0F061
:10421000019001984008019088E2C16B59B3E748CA
:10422000006803F0F5FFE64903F010FF0090E34853
:10423000806D03F0EDFFE24903F008FF009903F001
:1042400005FFE04903F0F8FF03F0C2FFC8F80C00D7
:10425000D8F80C000190D8F80C00584537D20198D6
:1042600000030190B078400724D4606A0199884225
:104270001BD9019522E0D148006803F0C9FFD1495C
:1042800003F0E4FE0090CD48806D03F0C1FFCC49FF
:1042900003F0DCFE009903F0D9FECA4903F0CCFF1D
:1042A00003F096FFC8F80C00D2E7606A0199081A7B
:1042B000019003E0606A019908440190786A0199CD
:1042C000B1FBF0F001900198400801902EE2D8F87F
:1042D0000C00584521D3D8F80C0050451DD2019848
:1042E00000030190B07940070AD4206C01998842FC
:1042F00001D9019508E0206C0199081A019003E0AA
:10430000206C019908440190386C0199B1FBF0F0E0
:10431000019001984008019008E2D8F80C0050453F
:10432000D4D3D8F80C10A44881421CD801980003BB
:104330000190F07940070AD4606C0199884201D954
:10434000019508E0606C0199081A019003E0606C27
:10435000019908440190786C0199B1FBF0F001904B
:10436000019840080190E1E1D0F8AC1039B1D0F8E3
:10437000AC10012903D0D0F8AC10022907D1924922
:104380000978012904D091490978012979D0CDE132
:104390005FEA8C6117D5D8F80410D0F894209142C8
:1043A00011D2D8F80410D0F8A4201144C8F8041091
:1043B000D8F80410D0F89420914229D3D0F8940072
:1043C000C8F8040024E05FEA8C6121D5D8F8041015
:1043D000D0F8942091421BD9D0F8A810D8F8042026
:1043E000914204D3D0F89400C8F8040010E0D8F843
:1043F0000410D0F8A820891AC8F80410D8F80410BE
:10440000D0F89420914203D8D0F89400C8F8040062
:10441000D8F804000190D8F8040058451DD201983E
:1044200000030190B07840070AD4606A019988427D
:1044300001D9019508E0606A0199081A019003E02A
:10444000606A019908440190786A0199B1FBF0F023
:10445000019001984008019068E1D8F8040058459F
:1044600022D3D8F8040050451ED2019800030190D1
:10447000B07940070BD4206C0199884202D901958C
:1044800009E03AE0206C0199081A019003E0206CE1
:10449000019908440190386C0199B1FBF0F001904A
:1044A00001984008019041E1D8F80400504523D319
:1044B000D8F80410404881421ED8019800030190AA
:1044C000F07940070CD4606C0199884203D900E070
:1044D00075E1019508E0606C0199081A019003E00C
:1044E000606C019908440190786C0199B1FBF0F07F
:1044F000019001984008019018E15FEA8C6117D59E
:10450000D8F80410D0F89820914211D2D8F80410AD
:10451000D0F8A4201144C8F80410D8F80410D0F83A
:104520009820914229D3D0F89800C8F8040024E0DC
:104530005FEA8C6121D5D8F80410D0F89820914218
:104540001BD9D0F8A810D8F80420914204D3D0F891
:104550009800C8F8040010E0D8F80410D0F8A8209B
:10456000891AC8F80410D8F80410D0F8982091429D
:1045700003D8D0F89800C8F80400D8F8040005E083
:10458000D9E099E15CE224E3FEE3FEE30190D8F890
:104590000400584529D2019800030190B0784007E3
:1045A00016D4606A0199884201D9019514E0606AC5
:1045B0000199081A01900FE080A903001C03002054
:1045C00000007A4400401C46210000202200002008
:1045D000606A019908440190786A0199B1FBF0F092
:1045E0000190019840080190A0E0D8F804005845D7
:1045F00021D3D8F8040050451DD201980003019042
:10460000B07940070AD4206C0199884201D90195FC
:1046100008E0206C0199081A019003E0206C0199D0
:1046200008440190386C0199B1FBF0F001900198B9
:10463000400801907AE0D8F80400504576D3D8F8C5
:104640000410FE48814271D8019800030190F0796E
:1046500040070AD4606C0199884201D9019508E0AD
:10466000606C0199081A019003E0606C019908449C
:104670000190786C0199B1FBF0F00190019840082D
:10468000019053E05FEA8C610FD5D8F80410C06F39
:104690000844C8F80400D8F80400D8F80810884284
:1046A00003D3D8F80800C8F80400D8F80400019033
:1046B000019800030190B07840070AD4606A01991C
:1046C000884201D9019508E0606A0199081A0190B1
:1046D00003E0606A019908440190786A0199B1FB8E
:1046E000F0F001900198400801901FE0D8F8100008
:1046F0000190019800030190B07840070AD4606AE5
:104700000199884201D9019508E0606A0199081A67
:10471000019003E0606A019908440190786A019968
:10472000B1FBF0F001900198400801900198A9F8C0
:10473000040001950FE45FEA8C6C16D5DAF87CC0B2
:10474000D8F804B0BCFBF1FCDC44C8F804C0DAF8CB
:1047500050C0D8F804B0BCFBF1FCDC4505D8DAF851
:1047600050C0BCFBF1F1C8F80410D8F80410019156
:10477000DAF85010994223D2019800030190F078A2
:1047800040070AD4A06A0199884201D9019508E03E
:10479000A06A0199081A019003E0A06A01990844EF
:1047A0000190B86A0199B1FBF0F0019001984008BE
:1047B0000190DAF85000002801D1A9F80450B5E1C1
:1047C000DAF85010994227D3DAF85010814223D2F8
:1047D000019800030190707940070AD4E06A0199BA
:1047E000884201D9019508E0E06A0199081A019010
:1047F00003E0E06A019908440190F86A0199B1FB6D
:10480000F0F00190019840080190DAF8500000287B
:10481000D5D1A9F8045089E1DAF85010814223D3A8
:10482000019800030190307A40070AD4A06C0199E6
:10483000884201D9019508E0A06C0199081A0190FD
:1048400003E0A06C019908440190B86C0199B1FB98
:10485000F0F00190019840080190DAF8500000282B
:10486000ADD1A9F8045061E1DAF850009042A6D326
:10487000019800030190707A40070AD4E06C019916
:10488000884201D9019508E0E06C0199081A01906D
:1048900003E0E06C019908440190E06C0199B1FBE0
:1048A000F0F00190019840080190DAF850000028DB
:1048B00085D1A9F80450FCE3DAF83C10E9B1DAF844
:1048C0000010DAF854C001EB81014900B1FBFCF1A2
:1048D000C8F80810D8F808100191D8F808109942C3
:1048E0002CD2019800030190F078400713D4A06AFD
:1048F000019988420AD9019511E0DAF80010DAF836
:1049000054C0B1FBFCF1C8F80810E3E7A06A0199B4
:10491000081A019003E0A06A019908440190B86A5E
:104920000199B1FBF0F00190019840080190D8F88E
:104930000800002897D1A9F80450BAE3D8F8081065
:10494000994227D3D8F80810814223D20198000356
:104950000190707940070AD4E06A0199884201D930
:10496000019508E0E06A0199081A019003E0E06A05
:10497000019908440190F86A0199B1FBF0F00190A7
:10498000019840080190D8F80800002893D1A9F8B0
:1049900004508EE3D8F80810814227D3D8F80800D5
:1049A000904223D2019800030190307A40070AD444
:1049B000A06C0199884201D9019508E0A06C019989
:1049C000081A019003E0A06C019908440190B86CAA
:1049D0000199B1FBF0F00190019840080190D8F8DE
:1049E00008000028A9D1A9F8045062E3D8F808000B
:1049F0009042A2D3019800030190707A40070AD434
:104A0000E06C0199884201D9019508E0E06C0199B8
:104A1000081A019003E0E06C019908440190E06CF1
:104A20000199B1FBF0F00190019840080190D8F88D
:104A300008000028ADD1A9F804503AE380A903008A
:104A4000DAF83CC0BCF1000F1ED0DAF858104FF471
:104A50007A7C01FB0CF1DAF800C0B1FBFCF1C8F87C
:104A60000C10D8F80C100191D8F80C10994232D2E1
:104A7000019800030190F078400719D4A06A0199C9
:104A8000884210D9019517E0DAF800C0BCFBF1FCB0
:104A9000DAF858104FF47A7A01FB0AF1B1FBFCF115
:104AA000C8F80C10DDE7A06A0199081A019003E02C
:104AB000A06A019908440190B86A0199B1FBF0F02D
:104AC0000190019840080190D8F80C0000288CD182
:104AD000A9F80450EDE2D8F80C10994227D3D8F881
:104AE0000C10814223D20198000301907079400795
:104AF0000AD4E06A0199884201D9019508E0E06A88
:104B00000199081A019003E0E06A019908440190B4
:104B1000F86A0199B1FBF0F001900198400801900A
:104B2000D8F80C00002801D1A9F80450C1E2D8F847
:104B30000C10814226D3D8F80C00904222D2019862
:104B400000030190307A40070AD4A06C0199884292
:104B500001D9019508E0A06C0199081A019003E0C1
:104B6000A06C019908440190B86C0199B1FBF0F078
:104B70000190019840080190D8F80C0040BBA9F8BA
:104B8000045096E2D8F80C00904221D3019800031B
:104B90000190707A40070AD4E06C0199884201D9EB
:104BA000019508E0E06C0199081A019003E0E06CBF
:104BB000019908440190E06C0199B1FBF0F001907B
:104BC000019840080190D8F80C0008B9A9F80450E1
:104BD0006FE2DAF8ACB0BBF1000F09D0DAF8ACB094
:104BE000BBF1010F04D0DAF8ACB0BBF1020F0DD16C
:104BF000DFF8CCB49BF800B0BBF1010F07D0DFF8B1
:104C0000C4B49BF800B0BBF1010F7DD051E25FEA64
:104C10008C6B1FD5DAF894B0D8F804E0BBFBF1FB3D
:104C2000F34517D9DAF8A4C0D8F804B0BCFBF1FCFE
:104C3000DC44C8F804C0DAF894C0D8F804B0BCFB6F
:104C4000F1FCDC4538D8DAF894C0BCFBF1F1C8F8C7
:104C5000041031E05FEA8C6C2ED5DAF894C0D8F8F5
:104C600004B0BCFBF1FCDC4526D2DAF8A8C0D8F8C9
:104C700004B0BCFBF1FCDC4506D3DAF894C0BCFB05
:104C8000F1F1C8F8041017E0DAF8A8C0D8F804B0B9
:104C9000BCFBF1FCABEB0C0CC8F804C0DAF894C018
:104CA000D8F804B0BCFBF1FCDC4505D3DAF894C0BD
:104CB000BCFBF1F1C8F80410D8F804100191D8F841
:104CC0000410994224D2019800030190F078400723
:104CD0000AD4A06A0199884201D9019508E0A06A26
:104CE0000199081A019003E0A06A01990844019013
:104CF000B86A0199B1FBF0F0019001984008019069
:104D0000D8F8040070BB00E082E0A9F80450D0E1BC
:104D1000D8F80410994226D3D8F80410814222D240
:104D2000019800030190707940070AD4E16A019864
:104D3000814201D9019508E0E06A0199081A0190C1
:104D400003E0E06A019908440190F86A0199B1FB17
:104D5000F0F00190019840080190D8F8040008B9DB
:104D6000A9F80450A5E1D8F80410814229D3D8F855
:104D70000400904225D2019800030190307A400748
:104D80000DD4A06C019901E03EE172E1884201D9A5
:104D9000019508E0A06C0199081A019003E0A06C4D
:104DA000019908440190B86C0199B1FBF0F00190B1
:104DB000019840080190D8F8040040BBA9F80450BD
:104DC00077E1D8F80400904221D3019800030190C4
:104DD000707A40070AD4E06C0199884201D90195A4
:104DE00008E0E06C0199081A019003E0E06C019979
:104DF00008440190E06C0199B1FBF0F0019001983A
:104E000040080190D8F8040008B9A9F8045050E10E
:104E10005FEA8C6B1FD5DAF898B0D8F804E0BBFBDA
:104E2000F1FBF34517D9DAF8A4C0D8F804B0BCFBFD
:104E3000F1FCDC44C8F804C0DAF898C0D8F804B033
:104E4000BCFBF1FCDC4538D8DAF898C0BCFBF1F1CA
:104E5000C8F8041031E05FEA8C6C2ED5DAF898C0FF
:104E6000D8F804B0BCFBF1FCDC4526D2DAF8A8C0C7
:104E7000D8F804B0BCFBF1FCDC4506D3DAF898C0E6
:104E8000BCFBF1F1C8F8041017E0DAF8A8C0D8F8B4
:104E900004B0BCFBF1FCABEB0C0CC8F804C0DAF8B6
:104EA00098C0D8F804B0BCFBF1FCDC4505D3DAF8B7
:104EB00098C0BCFBF1F1C8F80410D8F804100191B7
:104EC000D8F80410994222D2019800030190F0789A
:104ED00040070AD4A06A0199884201D9019508E0E7
:104EE000A06A0199081A019003E0A06A0199084498
:104EF0000190B86A0199B1FBF0F001900198400867
:104F00000190D8F8040060BBA9F80450D1E0D8F8AB
:104F10000410994226D3D8F80410814222D2019875
:104F200000030190707940070AD4E06A0199884231
:104F300001D9019508E0E06A0199081A019003E09F
:104F4000E06A019908440190F86A0199B1FBF0F018
:104F50000190019840080190D8F8040008B9A9F818
:104F60000450A6E0D8F80410814226D3D8F80400F3
:104F7000904222D2019800030190307A40070AD46F
:104F8000A06C0199884201D9019508E0A06C0199B3
:104F9000081A019003E0A06C019908440190B86CD4
:104FA0000199B1FBF0F00190019840080190D8F808
:104FB000040040BBA9F804507BE0D8F804009042FC
:104FC00077D3019800030190707A40070AD4E06C0F
:104FD0000199884201D9019508E0E06C0199081A0D
:104FE000019003E0E06C019908440190E06C0199A4
:104FF000B1FBF0F00190019840080190D8F804004E
:1050000008B9A9F8045054E05FEA8C6010D5D8F8CC
:105010000400DAF87C100844C8F80400D8F804004A
:10502000D8F80810884203D3D8F80800C8F804005C
:10503000D8F804000190019800030190F07840072F
:105040000AD4A06A0199884201D9019508E0A06AB2
:105050000199081A019003E0A06A0199084401909F
:10506000B86A0199B1FBF0F00190019840080190F5
:105070001FE0D8F810000190019800030190F0782B
:1050800040070AD4A06A0199884201D9019508E035
:10509000A06A0199081A019003E0A06A01990844E6
:1050A0000190B86A0199B1FBF0F0019001984008B5
:1050B00001900198A9F804000195BDE8FC9F00004B
:1050C00021000020220000202DE9F04F85B0F14E94
:1050D0003078F14F396CDFF8C483DFF8C4A3DFF810
:1050E000C4930024884213D0307888B1C821304658
:1050F000FBF78DF83078396C88426ED03078002814
:105100006BD005B0C821BDE8F04FE248FBF77FB88F
:1051100070780328EED1F079B17900EB012003908B
:105120000621DC48FDF784FDBDF80C10884203D051
:10513000BDF80C000028DDD1F078FF28DAD2F07835
:1051400071790844FF28D5D2386C88F80000032014
:1051500088F801007079800088F8020004944CE01F
:105160009DF81000800711D09DF8100000F003009A
:10517000012818D09DF8100000F0030002281FD06D
:105180009DF81000C043800728D032E0F0789DF8E9
:10519000101000EB910057F820009DF81010000E41
:1051A0004144C87025E0F0789DF8101000EB9100A4
:1051B00057F820009DF81010000C4144C87018E00A
:1051C000F0789DF8101000EB910057F820009DF842
:1051D0001010000A4144C8700BE039E0F0789DF8E7
:1051E000101000EB910057F820009DF8101041447A
:1051F000C8709DF81000401C049098F802009DF8BB
:1052000010108842ACD898F80200C01CC1B2A34864
:10521000FDF70EFD0390BDF80C0098F80220010A7E
:105220009E48C01C1154BDF80C0098F802209B4900
:10523000091D505498F80200401D8AF80000D9F862
:10524000000040F00800C9F8000000F035F951E70F
:1052500003947078DFF850B2062855D1F078FF2813
:1052600052D2707A317A00EB0120019008218948EE
:10527000FDF7DEFCBDF80410884202D0BDF8040042
:10528000F0BB7079317900EB01200090F079B179B1
:1052900000EB01200290F0780490BDF8080000991E
:1052A00000EB014000909DF81010009847F8210095
:1052B0003078396C88421BD103940AE09DF80C00C9
:1052C000305C9DF80C1008F801009DF80C00401CA3
:1052D00003909DF80C000A28F0D30A208AF80000F9
:1052E000D9F8000040F00800C9F8000000F0E4F828
:1052F000DBF8000040F00100CBF80000C82100E01E
:1053000002E06448FAF783FF7078334610287DD1B5
:10531000796B6648664E0125042908D1D7F8AC1090
:10532000012904D1396B012901D134700570796BE1
:10533000042913D1D7F8AC1002290FD1396B0129F8
:105340000CD132783146012A03D00278012A03D0E9
:1053500004E00C70057001E004700D70987903EBA7
:105360008000007A997903EB8101C97900EB012073
:1053700001909879072101EB8000C1B24548FDF703
:1053800057FCBDF80410884240D104942AE09DF8EF
:10539000100003EB8000007A9DF8101003EB8101F0
:1053A000C97900EB012000909DF8100003EB80000C
:1053B000807A9DF8101003EB8101497A00EB0120FF
:1053C0000290BDF80800009900EB01400090DA78E7
:1053D00000989DF81010114447F821009DF8100026
:1053E000401C049098799DF810108842CFD8F86B33
:1053F000304C012802D02078401C20701878396C7D
:1054000088422CD1386C88F8000000E03EE0102083
:1054100088F80100987888F80200D87888F80300A6
:10542000187988F80400587988F8050006211B4887
:10543000FDF7FEFB0190BDF80400000A88F80600A5
:10544000BDF8040088F8070008208AF80000D9F8A1
:10545000000040F00800C9F8000000F02DF8DBF86B
:10546000000040F00100CBF80000786B042806D162
:10547000386B012803D1607808B93570657005B0C4
:10548000C821BDE8F04F0348FAF7C1BE05B0BDE83A
:10549000F08F0000640600201C0300209C05002003
:1054A00088000020140000201C00002022000020A2
:1054B0002100002050000020F8B50020009000904E
:1054C0000F4C104D104E0FE09DF80000295C204657
:1054D00002F09CF98021204602F0F4F80028F9D06F
:1054E0009DF80000401C00909DF800003178884233
:1054F000EAD30648016821F008010160F8BD000008
:10550000003801409C050020880000201400002085
:10551000F8B50020009000900F4C104D104E0FE099
:105520009DF80000295C204602F070F98021204699
:1055300002F0C8F80028F9D09DF80000401C009047
:105540009DF8000031788842EAD30648016821F0CE
:1055500008010160F8BD000000440040D4040020B0
:1055600088000020140000202DE9F04F85B0F14E96
:105570003078F14F396CDFF8C483DFF8C4A3DFF86B
:10558000C4930024884213D0307888B1C8213046B3
:10559000FAF73DFE3078396C88426ED030780028BA
:1055A0006BD005B0C821BDE8F04FE248FAF72FBE36
:1055B00070780328EED1F079B17900EB01200390E7
:1055C0000621DC48FDF734FBBDF80C10884203D0FF
:1055D000BDF80C000028DDD1F078FF28DAD2F07891
:1055E00071790844FF28D5D2386C88F80000032070
:1055F00088F801007079800088F8020004944CE07B
:105600009DF81000800711D09DF8100000F00300F5
:10561000012818D09DF8100000F0030002281FD0C8
:105620009DF81000C043800728D032E0F0789DF844
:10563000101000EB910057F820009DF81010000E9C
:105640004144C87025E0F0789DF8101000EB9100FF
:1056500057F820009DF81010000C4144C87018E065
:10566000F0789DF8101000EB910057F820009DF89D
:105670001010000A4144C8700BE039E0F0789DF842
:10568000101000EB910057F820009DF810104144D5
:10569000C8709DF81000401C049098F802009DF816
:1056A00010108842ACD898F80200C01CC1B2A348C0
:1056B000FDF7BEFA0390BDF80C0098F80220010A2D
:1056C0009E48C01C1154BDF80C0098F802209B495C
:1056D000091D505498F80200401D8AF80000D9F8BE
:1056E000000040F00800C9F8000000F035F951E76B
:1056F00003947078DFF850B2062855D1F078FF286F
:1057000052D2707A317A00EB012001900821894849
:10571000FDF78EFABDF80410884202D0BDF80400EF
:10572000F0BB7079317900EB01200090F079B1790C
:1057300000EB01200290F0780490BDF80800009979
:1057400000EB014000909DF81010009847F82100F0
:105750003078396C88421BD103940AE09DF80C0024
:10576000305C9DF80C1008F801009DF80C00401CFE
:1057700003909DF80C000A28F0D30A208AF8000054
:10578000D9F8000040F00800C9F8000000F0E4F883
:10579000DBF8000040F00100CBF80000C82100E079
:1057A00002E06448FAF733FD7078334610287DD163
:1057B000796B6648664E0125042908D1D7F8AC10EC
:1057C000012904D1396B012901D134700570796B3D
:1057D000042913D1D7F8AC1002290FD1396B012954
:1057E0000CD132783146012A03D00278012A03D045
:1057F00004E00C70057001E004700D70987903EB03
:105800008000007A997903EB8101C97900EB0120CE
:1058100001909879072101EB8000C1B24548FDF75E
:1058200007FABDF80410884240D104942AE09DF89C
:10583000100003EB8000007A9DF8101003EB81014B
:10584000C97900EB012000909DF8100003EB800067
:10585000807A9DF8101003EB8101497A00EB01205A
:105860000290BDF80800009900EB01400090DA7842
:1058700000989DF81010114447F821009DF8100081
:10588000401C049098799DF810108842CFD8F86B8E
:10589000304C012802D02078401C20701878396CD8
:1058A00088422CD1386C88F8000000E03EE01020DF
:1058B00088F80100987888F80200D87888F8030002
:1058C000187988F80400587988F8050006211B48E3
:1058D000FDF7AEF90190BDF80400000A88F8060053
:1058E000BDF8040088F8070008208AF80000D9F8FD
:1058F000000040F00800C9F8000000F02DF8DBF8C7
:10590000000040F00100CBF80000786B042806D1BD
:10591000386B012803D1607808B93570657005B01F
:10592000C821BDE8F04F0348FAF771BC05B0BDE8E7
:10593000F08F0000640600201C0300209C0500205E
:1059400088000020140000201C00002022000020FD
:105950002100002050000020F8B5002000900090A9
:105960000F4C104D104E0FE09DF80000295C2046B2
:1059700001F04CFF8021204601F0A4FE0028F9D060
:105980009DF80000401C00909DF80000317888428E
:10599000EAD30648016821F008010160F8BD000063
:1059A000004800409C0500208800002014000020D2
:1059B0002DE9F04F85B0DFF8F8B39BF80000FD4DFE
:1059C000FD4FFE4C4FF0010A4FF00008012803D0B4
:1059D0009BF80000002870D19BF8010003286CD1CF
:1059E0009BF807009BF8061000EB012003900621AE
:1059F000EF48FDF71DF9BDF80C10884202D0BDF844
:105A00000C00E8BB9BF80300FF2856D29BF803006C
:105A10009BF805100844FF284FD285F800A003200A
:105A200068709BF805008000A870CDF810801FE01A
:105A30009DF81000800749D09DF8100000F0030089
:105A4000012851D09DF8100000F00300022859D021
:105A50009BF803009DF8101000EB910054F8200013
:105A60009DF810102944C8709DF81000401C049047
:105A7000A8789DF810108842DAD8A878C01C00E0F9
:105A80001BE0C1B2CB48FDF7D3F80390BDF80C0082
:105A9000AA78010AC748C01C1154BDF80C00AA78A6
:105AA000C449091D5054A878C549401D087038687C
:105AB00040F008003860FFF72BFD9BF80000C14E56
:105AC00001282DD09BF8000050B348E19BF803005B
:105AD0009DF8101000EB910054F820009DF8101074
