:020000040800F2
:1000000018130020CD010008FF2700082F26000844
:10001000FD270008710B000835540008000000009F
:10002000000000000000000000000000072C000895
:10003000BF0D000800000000E3010008D12C0008FB
:10004000E7010008E7010008E7010008E7010008F0
:10005000E7010008E7010008E7010008E7010008E0
:10006000E7010008E7010008E7010008350C000877
:10007000490C0008E7010008E7010008E701000853
:10008000E7010008E7010008E7010008E7010008B0
:10009000E7010008E7010008E7010008E7010008A0
:1000A000E7010008E7010008E7010008E701000890
:1000B000E7010008E70100089D2D0008E70100089E
:1000C000E7010008E7010008E7010008E701000870
:1000D000E7010008FD4E0008F9500008055200082D
:1000E000E7010008E7010008E7010008E701000850
:1000F000E7010008E7010008E7010008E701000840
:10010000E7010008E7010008E7010008E70100082F
:10011000E7010008E7010008E7010008E70100081F
:10012000E7010008E7010008E7010008E70100080F
:1001300000F002F800F03AF80AA090E8000C8244BF
:100140008344AAF10107DA4501D100F02FF8AFF29C
:10015000090EBAE80F0013F0010F18BFFB1A43F0A5
:1001600001031847F0590000105A0000103A24BF4C
:1001700078C878C1FAD8520724BF30C830C144BF0C
:1001800004680C607047000000230024002500264E
:10019000103A28BF78C1FBD8520728BF30C148BFEA
:1001A0000B6070471FB51FBD10B510BD00F080F883
:1001B0001146FFF7F7FF05F0A9FA00F09EF803B427
:1001C000FFF7F2FF03BC05F089F9000009488047FA
:1001D00009480047FEE7FEE7FEE7FEE7FEE7FEE729
:1001E000FEE7FEE7FEE7FEE704480549054A064B41
:1001F000704700004D2D000831010008180900204B
:1002000018130020180B0020180B002070474FF027
:1002100000020429C0F0128010F0030C00F01F80CF
:10022000CCF1040CBCF1020F18BF00F8012BA8BFE1
:1002300020F8022BA1EB0C0100F011B85FEAC17CA1
:1002400024BF00F8012B00F8012B48BF00F8012B58
:10025000704770477047704770474FF0000200B515
:10026000134694469646203922BFA0E80C50A0E8D9
:100270000C50B1F12001BFF4F7AF090728BFA0E887
:100280000C5048BF0CC05DF804EB890028BF40F853
:10029000042B08BF704748BF20F8022B11F0804F95
:1002A00018BF00F8012B704700487047B8080020BD
:1002B0007546FFF7F9FFAE4605006946534620F044
:1002C0000700854618B020B5FFF78EFFBDE8204037
:1002D0004FF000064FF000074FF000084FF0000B02
:1002E00021F00701AC46ACE8C009ACE8C009ACE8B5
:1002F000C009ACE8C0098D46704710B50446AFF39D
:1003000000802046BDE81040FFF759BF08B54FF404
:10031000E060ADF8000010208DF8030002208DF899
:1003200002006946014802F0FDF808BD00080140DE
:100330002DE9F1414FF480672B4D81B03E4639469F
:10034000284602F070F9AC152146284602F06DF9F6
:1003500000BF00BF00BF00BF3146284602F065F96C
:1003600000BF2146284602F060F900BF00BF3146B9
:10037000284602F058F900208DF800004FF400786C
:100380004FF6FF7621E0BDF8040041460004284600
:1003900002D502F04AF901E002F045F9214628466B
:1003A00002F041F900BF00BF2146284602F03DF9A6
:1003B00000BF00BFBDF8040006EA4000ADF804002D
:1003C0009DF80000401C8DF800009DF800001028EA
:1003D000D9D33946284602F028F921462846BDE8F7
:1003E000FC4102F022B900000008014008B54FF4BA
:1003F0007A70ADF80000BDF80000002803D0BDF809
:100400000000401EF5E708BD30B587B00121082087
:1004100002F054FA01218C03204602F043FA6010E6
:10042000ADF8140003208DF816001820254D8DF826
:10043000170005A9284602F075F8ADF8144005A983
:10044000284602F06FF86000ADF8140005A92846B0
:1004500002F068F8A410ADF8144010208DF81700D1
:1004600005A9284602F05EF82146284602F0DDF88C
:10047000FFF7BCFF2146284602F0D5F80020ADF872
:1004800000004FF48271ADF802106110ADF8041055
:10049000ADF808008910ADF80A103821ADF80C103D
:1004A000ADF80600ADF80E000720074CADF81000BF
:1004B0006946204602F08BFB0121204602F072FBC8
:1004C00007B030BD000C0140003800402DE9FF416D
:1004D00000248DF80040444E444D06F1C807A6F1B3
:1004E000100817E09DF80010012002F027FB9DF88E
:1004F000002028F81200B8F806006A7826F81200E2
:10050000B8F80400A97827F811009DF80000401CF5
:100510008DF800009DF800000828E3D36878401C9F
:100520006870A878401CA870697864223048312926
:100530001DD96C7000948DF804400BE09DF80410F8
:1005400036F81110009B194400919DF80410491CC5
:100550008DF804109DF804103229EFD300992B7800
:10056000B1FBF2F120F813102978491C2970297881
:1005700002291AD92C7000948DF804400BE09DF8E4
:10058000041030F81110009B194400919DF80410DC
:10059000491C8DF804109DF804100329EFD300982E
:1005A0000321B0FBF1F013490880A878632819D91A
:1005B000AC7000948DF80C400BE09DF80C0037F8FF
:1005C00010000099084400909DF80C00401C8DF824
:1005D0000C009DF80C006428EFD300980649B0FB8E
:1005E000F2F00880BDE8FF8100070020A000002095
:1005F00090080020420000204400002011B50D4C5E
:1006000081B00221204602F0D7FA0028F9D0BDF8C7
:100610000410204602F0D9FA0121204602F0CCFA5B
:100620000028F9D0204602F0CEFAADF80000BDF85F
:1006300000001CBD003800402DE9F041444E92B04E
:10064000304600F005F90121480202F037F9012196
:10065000084602F01BF90125DFF8F880ADF840509C
:1006600000248DF8434010A9404601F05BFF0227AB
:10067000ADF840708DF8434010A9404601F052FF9C
:100680004FEA7838404600F003FB314869464C3069
:1006900000903148CDE901046420CDE903048020B5
:1006A00005904000069080000790202008900002EE
:1006B000CDE90904404600F065FB0121404600F009
:1006C000DBFA01220221404600F054FB00F0A2FABE
:1006D0000121304600F0B2F88DF830500B948DF8BF
:1006E00031504FF46020CDE90D048DF83C700BA91A
:1006F000304600F0DDF84FF4404002F0BDF805232D
:1007000001220021304600F0F7F8052302220121E2
:10071000304600F0F1F80121304600F085F830460F
:1007200000F024F9304600F030F93446204600F05D
:10073000B8F80028FAD1204600F0ACF80028FAD129
:100740000121204600F017F912B0BDE8F081000049
:100750000024014000080140A4000020FCB5002551
:100760008DF800502E4A2F4902F1C80302F5967405
:1007700016E09DF80000C0079DF800001AD0C007E1
:1007800009D09DF8000032F81060487804EB40076B
:10079000401C48703E809DF80000401C8DF8000011
:1007A0009DF800006428E4D30D704D7000958DF81D
:1007B000045013E032F81060087803EB4007401C47
:1007C0000870E7E79DF8040033F81000009A104421
:1007D00000909DF80400401C8DF804009DF8040072
:1007E0003228EFD300983222B0FBF2F04880009517
:1007F0008DF804500BE09DF8040034F81000009BC5
:10080000184400909DF80400401C8DF804009DF8E9
:1008100004003228EFD30098B0FBF2F08880FCBDD2
:10082000A40000203C0000200029816802D041F093
:10083000010101E021F00101816070470029816818
:1008400002D041F4807101E021F480718160704731
:100850000D4910B5884202D1012144150AE00B4927
:10086000884202D10121041504E0094988420AD1D5
:100870000121CC03204602F02DF82046BDE81040AF
:10088000002102F027B810BD0024014000280140DB
:10089000003C0140014600208968490700D501203D
:1008A0007047014600208968090700D5012070477C
:1008B00010B542680E4B0C791A400B6842EA0422CC
:1008C0001343436082680B4B1A40D1E90243234330
:1008D0004C7942EA440213438360C26A097C22F4E1
:1008E0007002491EC9B242EA0151C16210BD000046
:1008F000FFFEF0FFFDF7F1FF70B5072609290AD9C1
:10090000C568A1F10A0404EB4404A640B543A34022
:100910001D43C56007E0056901EB4104A640B543EE
:10092000A3401D4305611F23072A09D2446B521EB1
:1009300002EB820293409C4391400C43446370BDA0
:100940000D2A09D2046BD21F02EB820293409C4312
:1009500091400C43046370BDC46A0D3A02EB8202FD
:1009600093409C4391400C43C46270BD816841F048
:100970000801816070470029816802D041F4A0011C
:1009800001E021F4A00181607047816841F0040119
:10099000816070472DE9F8435D4FF9685D48012695
:1009A0000025DFF874815D4C814206D9A5803D6346
:1009B0002021404601F039FEFE62BA6B0A214FF455
:1009C000FA6012B9FA6B012A05D0BB6B4FF47A7248
:1009D000012B17D018E07A68B2FBF1F10091396869
:1009E000009A51434E4AB1FBF2F10091B96E009A60
:1009F000914248D2A188491CA180A188814242D954
:100A0000A58019E0FB6B13B1BB6BC3B119E07B6828
:100A100000933B68B3FBF1F1009B5943B1FBF2F14A
:100A20000091B96E009A91422DD2E188491CE18073
:100A3000E188814227D9E5803D6320211FE0FB6BDF
:100A40001BB1B96B012926D01DE07B68B3FBF1F324
:100A500000933B68B3FBF1F1009B5943B1FBF2F10A
:100A60000091B96E009A91420DD22189491C2181D1
:100A70002189814207D925813D634FF400414046D9
:100A800001F0D3FDFE623868F96E884228D9F86B10
:100A9000012817D024E0F96B0129F4D1796800917D
:100AA0003968009B5943B1FBF2F10091B96E009A8D
:100AB0009142E8D26189491C618161898142E2D910
:100AC0006581B9E72088401C20802088052807D947
:100AD00025803D632021404601F0A7FD0320F862F8
:100AE0007868396F884210D9B86B01280DD16088B9
:100AF000401C60806088052807D965803D632021FF
:100B0000404601F092FD0420F862BDE8F883000041
:100B1000E0020020C0270900000801408A000020F0
:100B2000A086010010494A6C104882B14B6C4FF40A
:100B30001652012B08D04B6C022B0BD04B6C032BA5
:100B40000BD0496C04290BD0426004F083BB4FF4F6
:100B5000965107E04FF4615104E04FF4964101E0F3
:100B60004FF4E1314160F0E7E00200208000002016
:100B7000FEE7000011B588B000210898234ACDE9AE
:100B80000010D2F888000090D2F88C00DDE9003423
:100B90000390000302901B1B0793B0FBF3F3059334
:100BA000039B0290059B009858430190DDE90130BA
:100BB000984209D21846029BC01A019003909DF8F2
:100BC000100040F0010006E0C01A029003909DF86A
:100BD000100020F001008DF810001068059A5043B5
:100BE00002909DF81000C007DDE902020CD090428F
:100BF00002D20846029101E0801A0290044A000BDA
:100C00009060029109B010BD1044F6E7E0020020A8
:100C1000A803002008B50B208DF8000003208DF8F4
:100C200001008DF8020001208DF80300684601F0F4
:100C3000E7FD08BD0348016841F0010101600220A1
:100C400000F00EB81400002010B5202000F008F8C5
:100C50000248016841F08001016010BD18000020C9
:100C6000C10002D5024908607047024948607047D8
:100C700004040240000002400029016802D041F053
:100C8000010102E04FF6FE72114001607047000062
:100C900001684FF6FE721140016000210160416061
:100CA0008160C1603149314A0839904203D14868B6
:100CB00040F00F0006E02D4A1432904204D14868FB
:100CC00040F0F00048607047284A2832904203D133
:100CD000486840F47060F5E7244A3C32904203D102
:100CE000486840F47040EDE7204A5032904203D10A
:100CF000486840F47020E5E71C4A6432904203D112
:100D0000486840F47000DDE7184A7832904203D119
:100D1000486840F07060D5E7154A111F904203D132
:100D2000086840F00F0006E0114A1432904204D1E6
:100D3000086840F0F000086070470D4A2832904281
:100D400003D1086840F47060F5E7094A3C329042EC
:100D500003D1086840F47040EDE7054A50329042F4
:100D6000EAD1086840F47020E5E70000080002407E
:100D700008040240002A026801D00A4300E08A43C6
:100D80000260704730B5026847F6F0739A430C6A08
:100D90008B682343D1E904452C4323438C692343C7
:100DA000CC6923434C6A23438C6A23431343036077
:100DB000CA6842600A6882604968C16030BD704795
:100DC00031B504F049FCA02004F00AFC04F07AFCE0
:100DD00070B99DF8000004F003FC04F073FC38B90E
:100DE00004F03AFCA12004F0FBFB04F06BFC18B10A
:100DF00004F052FC002038BD04F0C0FB034C20700E
:100E000004F0A0FB04F048FC207838BD4C00002022
:100E10002DE9F0410120FFF7D3FFFE4D28600120AE
:100E2000FFF7CEFF28602868000228600220FFF745
:100E3000C7FF29680844286028680002286003204A
:100E4000FFF7BEFF29680844286028680002286070
:100E50000420FFF7B5FF2968084428600520FFF744
:100E6000AFFF68606868000268600620FFF7A8FFAF
:100E70006968084468606868000268600720FFF7D6
:100E80009FFF69680844686068680002686008201D
:100E9000FFF796FF6968084468600920FFF790FF34
:100EA000E860E8680002E8600A20FFF789FFE96867
:100EB0000844E860E8680002E8600B20FFF780FF64
:100EC000E9680844E860E8680002E8600C20FFF781
:100ED00077FFE9680844E8600D20FFF771FF28619B
:100EE0002869000228610E20FFF76AFF296908447B
:100EF00028612869000228610F20FFF761FF296936
:100F0000084428612869000228611020FFF758FF73
:100F10002969084428611120FFF752FFBE4C206068
:100F20002068000220601220FFF74AFF2168084471
:100F300020602068000220601320FFF741FF216835
:100F4000084420602068000220601420FFF738FF6A
:100F50002168084420601520FFF732FF6060606858
:100F6000000260601620FFF72BFF61680844606094
:100F70006068000260601720FFF722FF6168084484
:100F800060606068000260601820FFF719FF616808
:100F9000084460601920FFF713FFE060E06800027A
:100FA000E0601A20FFF70CFFE1680844E060E068A9
:100FB0000002E0601B20FFF703FFE1680844E060E7
:100FC000E0680002E0601C20FFF7FAFEE1680844D8
:100FD000E0601D20FFF7F4FE20612069000220611F
:100FE0001E20FFF7EDFE2169084420612069000200
:100FF00020611F20FFF7E4FE216908442061206979
:10100000000220612020FFF7DBFE216908442061F7
:101010002120FFF7D5FE814E30702220FFF7D0FE51
:10102000A861A8690002A8612320FFF7C9FEA96989
:101030000844A861A8690002A8612420FFF7C0FE47
:10104000A9690844A861A8690002A8612520FFF7E2
:10105000B7FEA9690844A8612620FFF7B1FEE86140
:10106000E8690002E8612720FFF7AAFEE969084461
:10107000E861E8690002E8612820FFF7A1FEE9695C
:101080000844E861E8690002E8612920FFF798FE5A
:10109000E9690844E8612A20FFF792FE6862686AFD
:1010A000000268622B20FFF78BFE696A08446862C1
:1010B000686A000268622C20FFF782FE696A0844B1
:1010C0006862686A000268622D20FFF779FE696A2B
:1010D000084468622E20FFF773FEA862A86A000227
:1010E000A8622F20FFF76CFEA96A0844A862A86ACC
:1010F0000002A8623020FFF763FEA96A0844A862D4
:10110000A86A0002A8623120FFF75AFEA96A0844C3
:10111000A8623220FFF754FEA061A0690002A0611E
:101120003320FFF74DFEA1690844A061A0690002C9
:10113000A0613420FFF744FEA1690844A061A069C2
:101140000002A0613520FFF73BFEA1690844A061C1
:101150003620FFF735FEE061E0690002E0613720EC
:10116000FFF72EFEE1690844E061E0690002E061FA
:101170003820FFF725FEE1690844E061E0690002DC
:10118000E0613920FFF71CFEE1690844E0613A2084
:10119000FFF716FE6062606A000260623B20FFF7A4
:1011A0000FFE616A08446062606A000260623C206F
:1011B000FFF706FE616A08446062606A00026062CE
:1011C0003D20FFF7FDFD616A084460623E20FFF7A5
:1011D000F7FDA062A06A0002A0623F20FFF7F0FDC9
:1011E000A16A0844A062A06A0002A0624020FFF742
:1011F000E7FDA16A0844A062A06A0002A062412043
:10120000FFF7DEFDA16A0844A0624220FFF7D8FD87
:10121000707005E08402002034020020D402002017
:101220004320FFF7CDFDB0704420FFF7C9FDF070FB
:101230004520FFF7C5FDA860A8680002A860462009
:10124000FFF7BEFDA9680844A860A8680002A8606E
:101250004720FFF7B5FDA9680844A860A868000208
:10126000A8604820FFF7ACFDA9680844A8604920A1
:10127000FFF7A6FD68616869000268614A20FFF710
:101280009FFD6969084468616869000268614B20D4
:10129000FFF796FD69690844686168690002686142
:1012A0004C20FFF78DFD6969084468614D20FFF708
:1012B00087FDA060A0680002A0604E20FFF780FDBF
:1012C000A1680844A060A0680002A0604F20FFF75A
:1012D00077FDA1680844A060A0680002A0605020CB
:1012E000FFF76EFDA1680844A0605120FFF768FD7C
:1012F00060616069000260615220FFF761FD616911
:10130000084460616069000260615320FFF758FD86
:101310006169084460616069000260615420FFF700
:101320004FFD6169084460615520FFF749FD28625F
:10133000286A000228625620FFF742FD296A084405
:101340002862286A000228625720FFF739FD296ABF
:1013500008442862286A000228625820FFF730FDFE
:10136000296A084428625920FFF72AFDE862E86AE2
:101370000002E8625A20FFF723FDE96A0844E862A8
:10138000E86A0002E8625B20FFF71AFDE96A084498
:10139000E862E86A0002E8625C20FFF711FDE96A92
:1013A0000844E8625D20FFF70BFD2062206A00021E
:1013B00020625E20FFF704FD216A08442062206A53
:1013C000000220625F20FFF7FBFC216A08442062D4
:1013D000206A000220626020FFF7F2FC216A0844C4
:1013E00020626120FFF7ECFCE062E06A0002E0624C
:1013F0006220FFF7E5FCE16A0844E062E06A00026F
:10140000E0626320FFF7DCFCE16A0844E062E06A26
:101410000002E0626420FFF7D3FCE16A0844E06266
:101420006520FFF7CDFC30716620FFF7C9FC7071B5
:101430007320FFF7C5FCFE4F3864386C0002386437
:101440007420FFF7BDFC396C08443864386C000226
:1014500038647520FFF7B4FC396C08443864386C84
:10146000000238647620FFF7ABFC396C084438641E
:101470006720FFF7A5FC2063206B00022063682033
:10148000FFF79EFC216B08442063206B0002206361
:101490006920FFF795FC216B08442063206B000254
:1014A00020636A20FFF78CFC216B084420636B20CB
:1014B000FFF786FC6063606B000260636C20FFF7DF
:1014C0007FFC616B08446063606B000260636D20A9
:1014D000FFF776FC616B08446063606B0002606339
:1014E0006E20FFF76DFC616B084460636F20FFF7AF
:1014F00067FCA063A06B0002A0637020FFF760FC94
:10150000A16B0844A063A06B0002A0637120FFF7E9
:1015100057FCA16B0844A063A06B0002A06372207B
:10152000FFF74EFCA16B0844A0637720FFF748FC4F
:10153000E063E06B0002E0637820FFF741FCE16BC1
:101540000844E063E06B0002E0637920FFF738FCB9
:10155000E16B0844E063E06B0002E0637A20FFF790
:101560002FFCE16B0844E0637B20FFF729FC20643B
:10157000206C000220647C20FFF722FC216C0844D0
:101580002064206C000220647D20FFF719FC216C90
:1015900008442064206C000220647E20FFF710FCC9
:1015A000216C084420647F20FFF70AFC6064606CB3
:1015B000000260648020FFF703FC616C08446064F3
:1015C000606C000260648120FFF7FAFB616C0844E4
:1015D0006064606C000260648220FFF7F1FB616C64
:1015E000084460648320FFF7EBFBA064A06C00025A
:1015F000A0648420FFF7E4FBA16C0844A064A06C05
:101600000002A0648520FFF7DBFBA16C0844A06406
:10161000A06C0002A0648620FFF7D2FBA16C0844F6
:10162000A0648720FFF7CCFBE064E06C0002E0647C
:101630008820FFF7C5FBE16C0844E064E06C000221
:10164000E0648920FFF7BCFBE16C0844E064E06CD7
:101650000002E0648A20FFF7B3FBE16C0844E06419
:101660008B20FFF7ADFB2863286B000228638C20DA
:10167000FFF7A6FB296B08442863286B0002286348
:101680008D20FFF79DFB296B08442863286B00021F
:1016900028638E20FFF794FB296B084428638F2072
:1016A000FFF78EFB6863686B000268639020FFF7AA
:1016B00087FB696B08446863686B0002686391206C
:1016C000FFF77EFB696B08446863686B0002686320
:1016D0009220FFF775FB696B084468639320FFF75E
:1016E0006FFBA863A86B0002A8639420FFF768FB58
:1016F000A96B0844A863A86B0002A8639520FFF7B4
:101700005FFBA96B0844A863A86B0002A86396203E
:10171000FFF756FBA96B0844A8639720FFF750FB1F
:10172000E863E86B0002E8639820FFF749FBE96B88
:101730000844E863E86B0002E8639920FFF740FB88
:10174000E96B0844E863E86B0002E8639A20FFF75E
:1017500037FBE96B0844E8639B20FFF731FB286403
:10176000286C000228649C20FFF72AFB296C08449F
:101770002864286C000228649D20FFF721FB296C57
:1017800008442864286C000228649E20FFF718FB98
:10179000296C084428649F20FFF712FB6864686C7A
:1017A00000026864A020FFF70BFB696C08446864C2
:1017B000686C00026864A120FFF702FB696C0844B2
:1017C0006864686C00026864A220FFF7F9FA696C2B
:1017D00008446864A320FFF7F3FAA864A86C000229
:1017E000A864A420FFF7ECFAA96C0844A864A86CCC
:1017F0000002A864A520FFF7E3FAA96C0844A864D6
:10180000A86C0002A864A620FFF7DAFAA96C0844C5
:10181000A864A720FFF7D4FAE864E86C0002E86443
:10182000A820FFF7CDFAE96C0844E864E86C01E011
:10183000E00200200002E864A920FFF7C1FAE96C89
:101840000844E864E86C0002E864AA20FFF7B8FAEC
:10185000E96C0844E864AB20FFF7B2FAB071AC2041
:10186000FFF7AEFAF071AD20FFF7AAFA3072AE20A2
:10187000FFF7A6FA7072BDE8F08103B583B0BDF83A
:101880000C00ADF8040003F007FF00200AE003F0AD
:10189000E3FEA02003F0A4FE03F014FF40B1BDF866
:1018A0000000401CADF80000BDF800006428EED335
:1018B000BDF80000B0F57A7F10D0BDF80400C0B2CA
:1018C00003F08EFE03F0FEFE40B99DF8100003F019
:1018D00087FE03F0F7FE08B903F0DEFE05B05DF801
:1018E00004EB03F0D9BE000004490A6822F010029C
:1018F0000A600A6802430A60704700000020024044
:10190000034A116801F0380101431160704700007B
:1019100000200240F8B5FE4D2868000E8DF800004A
:101920009DF800100120FFF7A8FF2868000C8DF833
:1019300000009DF800100220FFF79FFF2868000AB2
:101940008DF800009DF800100320FFF796FF28682F
:10195000C1B20420FFF791FF6868000E8DF8000007
:101960009DF800100520FFF788FF6868000C8DF8CF
:1019700000009DF800100620FFF77FFF6868000A4E
:101980008DF800009DF800100720FFF776FF6868CB
:10199000C1B20820FFF771FFE868000E8DF8000063
:1019A0009DF800100920FFF768FFE868000C8DF82B
:1019B00000009DF800100A20FFF75FFFE868000AAA
:1019C0008DF800009DF800100B20FFF756FFE86827
:1019D000C1B20C20FFF751FF00F0CEFE2869000EC7
:1019E0008DF800009DF800100D20FFF746FF2869D4
:1019F000000C8DF800009DF800100E20FFF73DFF51
:101A00002869000A8DF800009DF800100F20FFF7EC
:101A100034FF2869C1B21020FFF72FFFBD4C2068AA
:101A2000000E8DF800009DF800101120FFF725FF33
:101A30002068000C8DF800009DF800101220FFF7C0
:101A40001CFF2068000A8DF800009DF8001013208C
:101A5000FFF713FF2068C1B21420FFF70EFF606884
:101A6000000E8DF800009DF800101520FFF705FF0F
:101A70006068000C8DF800009DF800101620FFF73C
:101A8000FCFE6068000A8DF800009DF80010172029
:101A9000FFF7F3FE6068C1B21820FFF7EEFEE068C2
:101AA000000E8DF800009DF800101920FFF7E5FEEC
:101AB000E068000C8DF800009DF800101A20FFF778
:101AC000DCFEE068000A8DF800009DF800101B2085
:101AD000FFF7D3FEE068C1B21C20FFF7CEFE2069FD
:101AE000000E8DF800009DF800101D20FFF7C5FEC8
:101AF0002069000C8DF800009DF800101E20FFF7F3
:101B0000BCFE2069000A8DF800009DF800101F201F
:101B1000FFF7B3FE2069C1B22020FFF7AEFE7E4E74
:101B200031782120FFF7A9FE00F026FEA869000EFB
:101B30008DF800009DF800102220FFF79EFEA86996
:101B4000000C8DF800009DF800102320FFF795FE93
:101B5000A869000A8DF800009DF800102420FFF706
:101B60008CFEA869C1B22520FFF787FEE869000E48
:101B70008DF800009DF800102620FFF77EFEE86932
:101B8000000C8DF800009DF800102720FFF775FE6F
:101B9000E869000A8DF800009DF800102820FFF782
:101BA0006CFEE869C1B22920FFF767FE686A000E83
:101BB0008DF800009DF800102A20FFF75EFE686A8D
:101BC000000C8DF800009DF800102B20FFF755FE4B
:101BD000686A000A8DF800009DF800102C20FFF7BD
:101BE0004CFE686AC1B22D20FFF747FE00F0C4FD2D
:101BF000A86A000E8DF800009DF800102E20FFF757
:101C00003CFEA86A000C8DF800009DF800102F2003
:101C1000FFF733FEA86A000A8DF800009DF8001057
:101C20003020FFF72AFEA86AC1B23120FFF725FE57
:101C3000A069000E8DF800009DF800103220FFF71B
:101C40001CFEA069000C8DF800009DF800103320E8
:101C5000FFF713FEA069000A8DF800009DF8001040
:101C60003420FFF70AFEA069C1B23520FFF705FE58
:101C7000E069000E8DF800009DF800103620FFF797
:101C8000FCFDE069000C8DF800009DF80010372085
:101C9000FFF7F3FDE069000A8DF800009DF80010E1
:101CA0003820FFF7EAFDE069C1B23920FFF7E5FD12
:101CB00000F062FD606A000E8DF800009DF80010D3
:101CC0003A20FFF7DAFD606A000C8DF800009DF8FD
:101CD00000103B20FFF7D1FD606A000A8DF800007C
:101CE0009DF800103C20FFF7C8FD606AC1B23D209E
:101CF000FFF7C3FDA06A000E8DF800009DF80010EC
:101D00003E20FFF7BAFDA06A000C8DF8000005E048
:101D10008402002034020020D40200209DF800102C
:101D20003F20FFF7AAFDA06A000A8DF800009DF889
:101D300000104020FFF7A1FDA06AC1B24120FFF7CB
:101D40009CFD71784220FFF798FD00F015FDB178F9
:101D50004320FFF792FDF1784420FFF78EFDA8683D
:101D6000000E8DF800009DF800104520FFF785FD5E
:101D7000A868000C8DF800009DF800104620FFF7C1
:101D80007CFDA868000A8DF800009DF8001047202F
:101D9000FFF773FDA868C1B24820FFF76EFD6869C0
:101DA000000E8DF800009DF800104920FFF765FD3A
:101DB0006869000C8DF800009DF800104A20FFF7BC
:101DC0005CFD6869000A8DF800009DF800104B204A
:101DD000FFF753FD6869C1B24C20FFF74EFDA068C4
:101DE000000E8DF800009DF800104D20FFF745FD16
:101DF000A068000C8DF800009DF800104E20FFF741
:101E00003CFDA068000A8DF800009DF800104F20EE
:101E1000FFF733FDA068C1B25020FFF72EFD6069C7
:101E2000000E8DF800009DF800105120FFF725FDF1
:101E30006069000C8DF800009DF800105220FFF73B
:101E40001CFD6069000A8DF800009DF80010532009
:101E5000FFF713FD6069C1B25420FFF70EFD00F0DB
:101E60008BFC286A000E8DF800009DF800105520AC
:101E7000FFF703FD286A000C8DF800009DF80010A4
:101E80005620FFF7FAFC286A000A8DF800009DF83A
:101E900000105720FFF7F1FC286AC1B25820FFF765
:101EA000ECFCE86A000E8DF800009DF80010592047
:101EB000FFF7E3FCE86A000C8DF800009DF80010C5
:101EC0005A20FFF7DAFCE86A000A8DF800009DF856
:101ED00000105B20FFF7D1FCE86AC1B25C20FFF77D
:101EE000CCFC00F049FC206A000E8DF800009DF843
:101EF00000105D20FFF7C1FC206A000C8DF8000087
:101F00009DF800105E20FFF7B8FC206A000A8DF8EB
:101F100000009DF800105F20FFF7AFFC206AC1B2FF
:101F20006020FFF7AAFCE06A000E8DF800009DF823
:101F300000106120FFF7A1FCE06A000C8DF80000A2
:101F40009DF800106220FFF798FCE06A000A8DF807
:101F500000009DF800106320FFF78FFCE06AC1B21B
:101F60006420FFF78AFC31796520FFF786FC7179E0
:101F70006620FFF782FC00F0FFFB206B000E8DF85F
:101F800000009DF800106720FFF777FC206B000C25
:101F90008DF800009DF800106820FFF76EFC206BA4
:101FA000000A8DF800009DF800106920FFF765FC1D
:101FB000206BC1B26A20FFF760FC606B000E8DF8E9
:101FC00000009DF800106B20FFF757FC606B000CC1
:101FD0008DF800009DF800106C20FFF74EFC606B40
:101FE000000A8DF800009DF800106D20FFF745FCF9
:101FF000206BC1B26E20FFF740FC00F0BDFBA06B70
:10200000000E8DF800009DF800106F20FFF735FCE2
:10201000A06B000C8DF800009DF800107020FFF7F9
:102020002CFCA06B000A8DF800009DF800107120B8
:10203000FFF723FCA06BC1B27220FFF71EFCE06B20
:10204000000E8DF800009DF800107720FFF715FCBA
:10205000E06B000C8DF800009DF800107820FFF771
:102060000CFCE06B000A8DF800009DF80010792050
:10207000FFF703FCE06BC1B27A20FFF7FEFB00F034
:102080007BFB206C000E8DF800009DF800107B207B
:10209000FFF7F3FB206C000C8DF800009DF800109A
:1020A0007C20FFF7EAFB206C000A8DF800009DF809
:1020B00000107D20FFF7E1FB206CC1B27E20FFF70E
:1020C000DCFB606C000E8DF800009DF800107F2096
:1020D000FFF7D3FB606C000C8DF800009DF800103A
:1020E0008020FFF7CAFB606C000A8DF800009DF8A5
:1020F00000108120FFF7C1FB606CC1B28220FFF7A6
:10210000BCFB00F039FBA06C000E8DF800009DF8C0
:1021100000108320FFF7B1FBA06C000C8DF80000CD
:102120009DF800108420FFF7A8FBA06C000A8DF832
:1021300000009DF800108520FFF79FFBA06CC1B246
:102140008620FFF79AFBE06C000E8DF800009DF8EA
:1021500000108720FFF791FBE06C000C8DF8000069
:102160009DF800108820FFF788FBE06C000A8DF8CE
:1021700000009DF800108920FFF77FFBE06CC1B2E2
:102180008A20FFF77AFB00F0F7FA286B000E8DF833
:1021900000009DF800108B20FFF76FFB286B000CF0
:1021A0008DF800009DF800108C20FFF766FB286B6F
:1021B000000A8DF800009DF800108D20FFF75DFBF0
:1021C000286BC1B28E20FFF758FB686B000E8DF8AC
:1021D00000009DF800108F20FFF74FFB686B000C8C
:1021E0008DF800009DF800109020FFF746FB686B0B
:1021F000000A8DF800009DF800109120FFF73DFBCC
:10220000686BC1B29220FFF738FB00F0B5FAA86BFB
:10221000000E8DF800009DF800109320FFF72DFBB5
:10222000A86B000C8DF800009DF800109420FFF7BB
:1022300024FBA86B000A8DF800009DF80010952083
:10224000FFF71BFBA86BC1B29620FFF716FBE86BEC
:10225000000E8DF800009DF800109720FFF70DFB91
:10226000E86B000C8DF800009DF800109820FFF737
:1022700004FBE86B000A8DF800009DF8001099201F
:10228000FFF7FBFAE86BC1B29A20FFF7F6FA00F00D
:1022900073FA286C000E8DF800009DF800109B204A
:1022A000FFF7EBFA286C000C8DF800009DF8001089
:1022B0009C20FFF7E2FA286C000A8DF800009DF8D8
:1022C00000109D20FFF7D9FA286CC1B29E20FFF7BD
:1022D000D4FA686C000E8DF800009DF800109F2065
:1022E000FFF7CBFA686C000C8DF800009DF8001029
:1022F000A020FFF7C2FA686C000A8DF800009DF874
:102300000010A120FFF7B9FA686CC1B2A220FFF754
:10231000B4FA00F031FAA86C000E8DF800009DF8B8
:102320000010A320FFF7A9FAA86C000C8DF800009C
:102330009DF80010A420FFF7A0FAA86C000A8DF801
:1023400000009DF80010A520FFF797FAA86CC1B215
:10235000A620FFF792FAE86C000E8DF800009DF8B9
:102360000010A720FFF789FAE86C000C8DF8000038
:102370009DF80010A820FFF780FAE86C000A8DF89D
:1023800000009DF80010A920FFF777FAE86CC1B2B1
:10239000AA20FFF772FAB179AB20FFF76EFAF17954
:1023A000AC20FFF76AFA317AAD20FFF766FA717A4E
:1023B000AE20FFF762FABDE8F84000F0DDB910B5D5
:1023C0000121084600F086FA0021BDE810400120F6
:1023D00000F080BAF8B5214E304600F049F8204FA1
:1023E000384600F045F81F4800F042F8FFF7E7FFD5
:1023F00001211C2000F062FA0121084600F05EFA7B
:102400000121194800F0DCF80121184800F0D8F843
:102410004FF40760ADF8000010248DF80340032549
:102420008DF802506946304600F07CF88020ADF807
:10243000000048208DF803006946304600F072F82D
:1024400040F20310ADF800008DF803408DF8025003
:102450006946384600F066F8F8BD00000008014003
:10246000000C014000100140000430000002300068
:10247000254910B5884206D10121042000F02AFA2E
:10248000002104203BE02149884206D10121082097
:1024900000F020FA0021082031E01D49884206D1D1
:1024A0000121102000F016FA0021102027E0194920
:1024B000884206D10121202000F00CFA00212020C2
:1024C0001DE01549884206D10121402000F002FAA2
:1024D0000021402013E01149884206D101218020CB
:1024E00000F0F8F90021802009E00D4988420AD166
:1024F00084150121204600F0EDF900212046BDE8B9
:10250000104000F0E7B910BD00080140000C014088
:10251000001001400014014000180140001C01405F
:1025200000200140F0B5CC78002204F00F03E4064F
:1025300001D58C7823430C784FF00F0C14F0FF0F6B
:102540004FF0010E1BD005680E880EFA02F42640EB
:10255000A64210D196000CFA06F725EA070703FAFF
:1025600006F5CE783D43282E02D0482E02D002E058
:10257000446100E00461521C082AE5D305600A8822
:10258000FF2A1CD94468002202F108060EFA06F55B
:102590000E882E40AE420ED196000CFA06F7BC43D0
:1025A00003FA06F7CE783C43282E00D14561CE7859
:1025B000482E00D10561521C082AE5D34460F0BDC5
:1025C000F0B5144C002801DAE36900E06368450DBA
:1025D0002E0185B2C0F30157B540C0F30342032F6B
:1025E00005D0C6020AD503269640B34307E023F080
:1025F0007062636823F07063636002E0AB4343F092
:10260000706201B12A43002801DAE261F0BD626024
:10261000F0BD0000000001400246002092680A421E
:1026200000D0012070474161704701617047FEE7AB
:1026300013B582B04FF6FF71ADF800109DF80C1085
:1026400011B901218DF80C1000234AF201029DF806
:102650000C104C1E8DF80C4022D30178BDF80040C0
:102660006140ADF800108DF8043013E0BDF80010A3
:10267000C907BDF800104FEA510104D0ADF80010B1
:10268000BDF800105140ADF800109DF80410491C31
:102690008DF804109DF804100829E7D3401CD6E7F4
:1026A000BDF8000004B010BD33B582B04FF6FF7323
:1026B000ADF800309DF80C1011B901218DF80C1007
:1026C00000244AF201029DF80C104D1E8DF80C50AA
:1026D00022D30178BDF800506940ADF800108DF8A4
:1026E000044013E0BDF80010C907BDF800104FEA20
:1026F000510104D0ADF80010BDF800105140ADF804
:1027000000109DF80410491C8DF804109DF8041069
:102710000829E7D3401CD6E7BDF80000000A8DF871
:102720000400BDF8000003EA0020ADF80000BDF889
:1027300000009DF804100844ADF80000BDF800004A
:1027400004B030BD02494CF6CC4008607047000030
:102750000030004010B545F2555000F021F803203C
:1027600000F012F8FF2000F015F800F005F8BDE8C1
:102770001040FFF7E7BF000002494AF6AA200860B0
:102780007047000000300040014948607047000079
:102790000030004001498860704700000030004070
:1027A00001490860704700000030004070B50F4CD0
:1027B000A06B0F4D01284FF00201284613D0FFF700
:1027C00034FF0C48007800280CD1A06B002809D1F8
:1027D00060680949884205D902212846FFF723FF8E
:1027E0000120A06370BDFFF71EFFEAE7E0020020B2
:1027F000000C014052000020B0AD0100FEE7704720
:1028000030B50F23C27801780125F2B1144A12685D
:1028100001F1E02102F4E062C2F5E062120AC2F1C5
:102820000404D3404278A24084781C40144322011F
:1028300081F80024007800F01F018D4040098000DD
:1028400000F1E020C0F8005130BD01F01F008540CC
:102850004809800000F1E020C0F8805130BD000040
:102860000CED00E00249084302490860704700008F
:102870000000FA050CED00E0034A516821F44041E4
:10288000014351607047000000100240044A0029D3
:10289000516901D0014300E081435161704700005C
:1028A00000100240044A0029D16901D0014300E030
:1028B0008143D1617047000000100240044A0029A2
:1028C000916901D0014300E08143916170470000AC
:1028D00000100240044A0029D16801D0014300E001
:1028E0008143D160704700000010024010B500F035
:1028F00033F84FF48034204600F0C2F800F008F9B5
:10290000144908700878012822D1002000F0AEF8A0
:10291000002000F0D9F8A01100F0CCF80220FEF75A
:10292000EFFF1020FEF7E0FF4FF4E011204600F02B
:10293000DBF8012000F0D2F8392000F077F8002809
:10294000FAD0022000F0DAF800F088F80828FBD16D
:1029500010BD00004D0000200C48016841F001014D
:10296000016041680A4A114041600168094A11400A
:102970000160016821F480210160416821F4FE01B9
:1029800041604FF41F018160704700000010024059
:102990000000FFF8FFFFF6FE30B5204A5168204BDB
:1029A00011F00C0103D0042901D0082901D00360E3
:1029B00012E05168536801F470114FF0020413F4EF
:1029C000803F04EB914102D053689B0301D5154B26
:1029D00000E0134B5943016051680F2303EA1111C2
:1029E000114B5C5C0168E14041605468072505EAD1
:1029F00014241C5D21FA04F48460546805EAD4248C
:102A00001B5DD940C1605268032303EA9232064B32
:102A10001B1F9A5CB1FBF2F1016130BD0010024056
:102A200000127A0000093D00040000200346002047
:102A30005909094A01290AD002290AD0516A03F02A
:102A40001F02012393400B4200D001207047116800
:102A5000F5E7116AF3E70000001002400248406801
:102A600000F00C007047000000100240034A51685B
:102A700021F0F00101435160704700000010024056
:102A80000B490A6822F480320A600A6822F4802224
:102A90000A60B0F5803F07D0B0F5802F03D10868F9
:102AA00040F4A02008607047086840F48030F9E7DF
:102AB00000100240034A516821F4E0610143516073
:102AC0007047000000100240034A516821F4605131
:102AD00041EAC0005060704700100240014908669A
:102AE0007047000000004242034B5A68084322F43A
:102AF0007C1210435860704700100240034A51682E
:102B000021F00301014351607047000000100240B2
:102B100018B500204FF4A06400903120FFF786FF25
:102B20000099491C0091A14201D00028F5D0312024
:102B3000FFF77CFF002800D0012018BD33B581B01D
:102B40000020ADF80000BDF80400BDF808104003F7
:102B500040EAC11041F659410843ADF80000BDF804
:102B600000004FF6FF7101EA8000ADF800000C4D47
:102B70004FF4805421462846FFF755FDBDF800006C
:102B8000FDF73CFDADF80000FDF730FC214628467E
:102B9000FFF74BFDFDF72AFCBDF800003EBD00002D
:102BA000000C01400029018802D041F0400101E001
:102BB00021F04001018070470246002012890A423C
:102BC00000D001207047808970478181704730B5FF
:102BD00002884C8802F441530A88CD8822438C88AD
:102BE0002C4322430C8922434C8922438C89224363
:102BF000CC8922431A430280828B22F400628283B2
:102C0000098A018230BD70470548816C0548012959
:102C10004FF0400101D0FFF706BDFFF706BD0000F1
:102C2000E0020020000801400CB500222648009276
:102C30000192016841F4803101604FF4A0630168A2
:102C400001F4003101910099491C0091019911B9D9
:102C500000999942F3D10168890333D5012101918B
:102C60001A490A6842F010020A600A6822F0030258
:102C70000A600A6842F002020A60416841604168E5
:102C80004160416841F480614160416821F47C11F8
:102C90004160416841F4E8114160016841F0807190
:102CA000016001688901FCD5416821F003014160A0
:102CB000416841F0020141604168C1F3810102298C
:102CC000FAD10CBD01920CBD001002400020024060
:102CD00010B500F067F9094B09491868C20602D51A
:102CE0000A78521C0A700A78142A06D900220A703F
:102CF00020F0100018600348027010BD180000207A
:102D000089000020880000200E484FF47A71006886
:102D1000B0FBF1F0B0F1807F12D220F07F414FF094
:102D2000E020491E4161084AF02182F8141D00216B
:102D3000816107210161016941F001010161704771
:102D4000FEE70000280000200FE000E00F4810B56B
:102D5000016841F00101016041680D4A1140416084
:102D600001680C4A11400160016821F48021016072
:102D7000416821F4FE0141604FF41F018160FFF7BB
:102D800053FF05494FF00060086010BD001002407D
:102D90000000FFF8FFFFF6FE08ED00E010B501218E
:102DA0001C4800F06DF81C490868420602D440F047
:102DB000200001E020F02000086018494B6B002043
:102DC000174A042B23D10B6B012B20D1D1F8AC4037
:102DD00024B1D1F8AC40012C03D010BD5478012CA3
:102DE00008D09478012CF8D1D1F8A0105468A142F1
:102DF00008D80AE0D1F89C105468A14202D850705B
:102E0000937004E05068401C01E053709070506073
:102E100010BD00000008004018000020E002002063
:102E2000200000207FB501210420FFF73BFD40F684
:102E3000B140ADF8000000200124ADF804400F4D72
:102E4000ADF80200ADF806006946284600F02EF8FD
:102E500001221146284600F020F81E208DF80C00B3
:102E60008DF80D408DF80E408DF80F4003A8FFF748
:102E7000C7FC0121284600F006F87FBD000800408D
:102E8000C943018270470029018802D041F0010145
:102E900001E021F0010101807047002A828901D000
:102EA0000A4300E08A4382817047000030B50288FF
:102EB0001B4C1C4DA0420DD0A8420BD0B0F1804F4E
:102EC00008D0194B984205D0184B984202D0184BA5
:102ED000984203D122F070034A881A43154B984256
:102EE00006D0154B984203D022F44073CA881A4387
:102EF00002808A8882850A880285A0420AD0A84278
:102F000008D00E4A904205D00D4A904202D00D4A98
:102F1000904201D1097A01860121818230BD0000F1
:102F2000002C014000340140000400400008004033
:102F3000000C004000100040001400400040014020
:102F4000004401400048014070B5124C2088B0F5A3
:102F5000487F04D310480088B0F5967F08D20F4D03
:102F60000020286320210E48FFF75FFB0520E86260
:102F7000218840F26C721020914202D80849103129
:102F800006E0218840F60202914202D3044914313E
:102F9000086070BD3E00002040000020E0020020DC
:102FA0000008014003480168002902D00168491E59
:102FB00001607047480000202DE9F84FFE4CE66B99
:102FC000DFF8F8C30021A4F1AC03002E03F1A00246
:102FD000BCF800604FF47A754FF00A09A2F1500076
:102FE000BCF8006000960DD05E68009F7E4300969E
:102FF0005678F6074668009F63D0BE4236D90E4623
:10300000009136E01E68009F7E4300961678F60712
:103010000668009F1FD0BE4202D90E46009102E012
:103020000668BE1B0096360B0096AE4200D2009199
:10303000009E26600091A66B276876B1B7FBF9F673
:1030400067687E43E660E668B6FBF5F5E5602568EF
:103050004FF47A764FE03E44E4E7B7FBF9F7D4F853
:1030600004C0BCFBF9F67743E7603DE04668BE1B51
:103070000096360B40F6B8380096464500D20091CF
:10308000009E2660266842F21077BE4200D2216080
:103090000091276844F62066B7421FD9BCF800604B
:1030A000BCF8006000969E68009F7E4300961679EB
:1030B000F6078668009F46D0BE4204D90E460091AE
:1030C00004E03E44D4E78668BE1B0096360B0096AB
:1030D000464500D20091009E26600091A66B8EB3FB
:1030E000266867687E43E660E668B6FBF5F5E5604E
:1030F000256842F2107675436668B5FBF6F5A56063
:10310000AD4CA76BAE4E4CF25034002FAD4D37880E
:1031100047F2305B4FEA840E4FEAC40A22D0378868
:1031200000971F69DDF800C007FB0CF70097D77800
:10313000FF070769DDF800C073D0674572D90F46F5
:1031400000918AE001E03E44BFE76768B7FBF9F60B
:1031500027687E43E660E668B6FBF5F5E56025681E
:10316000994EC8E70097DF68DDF800C007FB0CF751
:1031700000979778FF07C768DDF800C02CD0674537
:1031800002D90F46009103E0C768ACEB0707009730
:103190003F0BBC460097884FC7F804C0D7F804809F
:1031A000D84527D9B6F800C0CDF800C0D3F830C054
:1031B000DDF800800CFB08FCCDF800C092F806C0DA
:1031C0005FEACC7CD0F830C0DDF800802BD0C4455D
:1031D00004D98C46009107E06744D8E7D0F830C0A6
:1031E000A8EB0C0CCDF800C04FEA1C3CCDF800C099
:1031F000C7F804C0D7F804C0A4451DD93688009686
:103200005E6BDDF800C006FB0CF60096D679F6077B
:10321000466BDDF800C018D0664506D90E46009111
:1032200007E040E015E0C444DCE7466BACEB060683
:103230000096360B00967E6000917E68012E06D9BE
:103240003E6B26B13E6816B194E06644F0E77960C3
:1032500090E00769ACEB070700973F0BBC4600976F
:10326000554FC7F804C0D7F80480F04529D9B6F8FF
:1032700000C0B6F800C0CDF800C0D3F814C0DDF827
:1032800000800CFB08FCCDF800C092F805C05FEA96
:10329000CC7CD0F814C0DDF8008032D0C44504D90D
:1032A0008C46009107E06744D6E7D0F814C0A8EB3D
:1032B0000C0CCDF800C04FEA1C3CCDF800C0C7F89C
:1032C00004C0D7F804C0AC4529D9B6F800C0B6F898
:1032D00000C0CDF800C0D3F838C0DDF800800CFB8A
:1032E00008FCCDF800C092F808C05FEACC7CD0F8AA
:1032F00038C0DDF800802BD0C44504D98C4600913D
:1033000007E0C444D5E7D0F838C0A8EB0C0CCDF8E2
:1033100000C04FEA1C3CCDF800C0C7F804C0D7F885
:103320000480D0451DD9B6F800C036880096DE6B03
:10333000DDF800C006FB0CF60096567AF607C66B61
:10334000DDF800C012D0664504D90E46009105E0B4
:10335000C444DCE7C66BACEB06060096360B009661
:103360007E603E6B26B13E6816B102E06644F4E72B
:1033700079600091104ED6F83480144E144FD6F870
:1033800000C00D4EC836B8F1010F32D0DFF82880EA
:10339000D8F83880B8F1000F7ED0DFF81CB0DBF829
:1033A0003440002C79D0DBF834805C46B8F1020F51
:1033B00074D0D4F834800DE0E002002044000020F6
:1033C00042000020E0930400A086010018000020C5
:1033D00050000020B8F1030F73D0D4F83480B8F156
:1033E000040F6FD0656B052D6DD0646B062C6BD010
:1033F000C8E23468F94DD5F84C80444504D0F84C07
:103400002CF0400CC4F800C0DFF8D4C3DCF8004056
:103410005FEA84683CD524F02004E246CCF8004002
:10342000D5F83CC0BCF1000F05D0D5F83CC0BCF1CC
:10343000010F11D02CE0D6F800C0D5F88480ACEB99
:10344000080CC6F800C0D6F800C0D5F84C80C445BA
:103450001ED8D5F84CC015E0D5F88480B8FBF9FC2F
:10346000D6F80080A8EB0C0CC6F800C0D5F84C804C
:10347000B8FBF9FCD6F80080C44509D3D5F84C80D8
:10348000B8FBF9FCC6F800C044F04004CAF800409C
:10349000EC6B002C346802E04AE0A9E105E24FEA57
:1034A0000434009411D0ED6C44F62064A54225D27A
:1034B000527852071ED4C269009CA24215D90091CD
:1034C00016E047E28EE2B0E3D2E31278520709D465
:1034D0008269A24201D9009102E08069201A00901D
:1034E000986918E080692044F9E7C069201A0090C3
:1034F000D86910E0C069009A1044F8E712795207C1
:1035000012D4026A009CA24201D9009102E0006A32
:10351000201A0090186A009AB2FBF0F04008009060
:10352000B8800091BDE8F88F006A009A1044F0E777
:10353000DFF8A882D8F83450DFF8A8A2B5B1454624
:10354000D8F83480B8F1020F5AD0D5F83480B8F1E9
:10355000030F6DD0D5F83480B8F1040F7BD06C6BBD
:10356000052C79D06C6B062C77D047E05FEA8C6530
:103570000CD57568D8F87CC0654475607568D8F856
:1035800050C0654502D3D8F85050756075680095F5
:103590004546C3E0009C1AE1406A201A01E0406AF7
:1035A00020440090586A24E0D5F850C0DC457CD314
:1035B0002E6DA64279D2009C240300949279520782
:1035C00074D5006C204401E0006C201A0090186C47
:1035D0000FE02D6D554511D8009C24030094D2793D
:1035E00052077CD5406C204401E0406C201A0090CA
:1035F000586C009AB2FBF0F04008009000988FE7FA
:10360000D5F83CC0BCF1000FD5F800C00DD042F297
:1036100010780CFB08FCD5F85480BCFBF8FCC6F80D
:1036200008C0B6680096360377E04FF47A78F0E782
:10363000AE46ED6B002D754610D0D5F858C0DFF8BA
:10364000A4812D680CFB08FCBCFBF5F5F560F56862
:103650000095754662E00DE0A2E0B6E0D5F8008086
:10366000AD6DB8FBF9FCDFF87C8105FB08F5B5FB17
:10367000FCF5EBE7D5F8AC80B8F1000F09D0D5F830
:10368000AC80B8F1010F04D0D5F8AC80B8F1020FCE
:10369000B4D1DFF8548198F80080B8F1010F0DD053
:1036A000DFF8488198F8008001E043E03CE0B8F1A1
:1036B000010FA3D15FEA8C6C47D42DE05FEA8C6CDC
:1036C0002AD5D6F804C0D5F89480C445D6F804C0ED
:1036D0000DD2D5F8A480C444C6F804C000E02EE0A2
:1036E000D6F804C0D5F89480C44512D214E0D5F8B9
:1036F0009480C44510D9D6F804C0D5F8A880ACEBA6
:10370000080CC6F804C0D6F804C0D5F89480C445A7
:1037100002D8D5F894C040E076680096D5F850C03D
:10372000DC45BFF441AF35E7026CA2427FF64CAFF7
:1037300000914CE72E6DA642BFF44BAF5EE7426CA2
:10374000A2427FF652AF009152E7D6F804C0D5F8F6
:103750009880C445D6F804C00BD2D5F8A480C444E0
:10376000C6F804C0D6F804C0D5F89880C44512D273
:10377000D2E7D5F89880C445CED9D6F804C0D5F89C
:10378000A880ACEB080CC6F804C0D6F804C0D5F885
:103790009880C445C0D8D5F898C0C6F804C0BBE727
:1037A0005FEA8C6409D57468ED6F2C4474607468AA
:1037B000B568AC4201D3B4687460746806E0426ACC
:1037C000A2427FF6E9AE0091ECE63469009424034E
:1037D000009492785207F2D5E1E60000E002002062
:1037E00018000020A08601002100002022000020F7
:1037F0005FEA8C6416D5DBF87C40DA46C846B4FB39
:10380000F8F4D6F804C064447460DBF85040D6F88D
:1038100004C0B4FBF9F4644504D8DAF85040B4FBB2
:10382000F9F4746074680094DBF850C05C46F445A9
:103830000DD2009D2D030095D278520775D4826A6F
:10384000AA425ED9009100E00090986A15E0D4F891
:1038500050C0F44515D3266DAE4212D2009D2D0303
:1038600000955279520771D4C26AAA4201D90091D7
:1038700002E0C26AA81A0090D86A009AB2FBF0F07F
:103880004FE1266DAE427DD3009D2D030095127A47
:10389000520707D4826CAA4275D9009100E00090CB
:1038A000986CEAE7826C5019F9E7E46BD946002C72
:1038B000DBF800C04C4621D04FF47A78646D0CFBE5
:1038C00008FCBCFBF4F4B460B4680094D9F850C0B0
:1038D0004C46F445ADD3D4F850C0F44514D3266D0E
:1038E000AE4211D2009D2D030095527952072DD47E
:1038F000C26AAA42BBD8C06A281ABCE74FF0640863
:10390000DCE7806A281A9FE7266DAE427ED3266DDB
:1039100056457BD2009D2D030095127A520776D42E
:10392000826CAA4202D9009103E04FE1806C281A10
:1039300000909A6C65E1009B1B030093527A52073A
:10394000C26C7DD49A427CD9009101E0CDE0009216
:10395000C06C92E7E46B002C5C4620D0D4F858C0D1
:103960004FF47A7824680CFB08FCBCFBF4F4F46098
:10397000F4680094DBF850C05C46F4451BD2009D0F
:103980002D0301E046E043E10095D27852077CD454
:10399000826AAA423FF656AF826AA81A54E7D4F860
:1039A0000080A46DB8FBF9FC4FF47A7804FB08F4AE
:1039B000B4FBFCF4DBE7D4F850C0F44502D3266D29
:1039C000AE428FD3266DAE4220D3266D56451DD212
:1039D000009D2D030095127A52077FF55BAF806C36
:1039E00028445CE7D4F8AC404CB1DBF8AC805C46D2
:1039F000B8F1010F03D0D4F8AC40022C0AD1AD4C81
:103A00002478012C07D0AC4C247801E003E16FE06E
:103A1000012C70D040E15FEA8C6440D5DBF894C0A3
:103A20004C46BCFBF4FCD6F80480C44515D9DBF841
:103A3000A4C0D946BCFBF4FCD6F80480C44401E021
:103A4000F1E0EDE0C6F804C0DBF894C0D6F80480DD
:103A5000BCFBF4FCC4451DD921E0DBF894C0D6F8CA
:103A60000480BCFBF4FCC44519D2DBF8A8C0D946DD
:103A7000BCFBF4FCD6F80480A8EB0C0CC6F804C020
:103A8000DBF894C0BCFBF4FC00E02BE0D6F804802B
:103A9000C44504D3D9F894C0BCFBF4F474607468D2
:103AA0000094DBF850C05C46F445FFF468AFD4F8EE
:103AB00050C0F44503D3266DAE42FFF413AF266D1C
:103AC000AE4219D3266D564516D2009D2D030095A2
:103AD000127A52070CD4826CAA423FF624AF826C51
:103AE000A81A25E7826A5019AEE6C06A2844C2E6E1
:103AF000806C28441CE71AE0256D554554D3009B83
:103B00001B030093527A5207C26C08D49A4201D91F
:103B1000009102E0C26C9A1A0092C26C71E01A44E1
:103B2000FAE740080090206DF0BBB980B4E05FEA8E
:103B30008C643DD5DBF898C04C46BCFBF4FCD6F851
:103B40000480D946C445DC4611D9DCF8A4C0D6F8B7
:103B50000480BCFBF4FCC444C6F804C0D9F898C087
:103B6000D6F80480BCFBF4FCC4451AD920E0DCF88C
:103B700098C0D6F80480BCFBF4FCC44518D2D9F830
:103B8000A8C0D6F80480BCFBF4FCA8EB0C0CC6F86B
:103B900004C0D9F898C0D6F80480BCFBF4FCC44536
:103BA00006D3D9F898C000E076E0BCFBF4F474606A
:103BB00074680094DBF850C05C46F44509D2009D5F
:103BC0002D030095D27852077FF5E2AE806A284433
:103BD0003AE6D4F850C0F445FFF4F4AE266DAE4298
:103BE000BFF4F0AE009D2D030095527952070CD41E
:103BF000C26AAA4201D9009102E0C06A281A009064
:103C0000DA6A0098B0FBF2F08BE7C06A2844F6E766
:103C1000806C281A43E6256D5545BFF48CAE3BE019
:103C2000C26C9A1A93E61A4491E65FEA8C6509D54C
:103C30007568E46F2C4474607468B568AC4201D355
:103C4000B4687460746824030094D27852070CD46A
:103C5000826AA24201D9009102E0806A201A009093
:103C60009A6A0098B0FBF2F014E0806A2044F6E70C
:103C7000346924030094D278520717D4826AA2428E
:103C800001D9009102E0806A201A0090986A009A97
:103C9000B2FBF0F0400800900098B8800091DBF88B
:103CA000500000287FF43EACB9803BE4806A204499
:103CB000EBE7000021000020220000202DE9FE4F4C
:103CC000CD4D2878CD4C216CCD4EDFF83893CE4FBA
:103CD0004FF00008884202D0287800287ED168780A
:103CE00003287BD1E879A97900EB0120ADF8040025
:103CF0000621C148FEF7D8FCBDF80410884203D065
:103D0000BDF8040000287BD1E878FF2878D2E87855
:103D100069790844FF2873D2206C307003207070DA
:103D200068794000B070404642E09DF8000000F025
:103D3000030002280FD09DF80000C043800714D074
:103D40009DF8000080071AD09DF8000000F00300E5
:103D500001281ED029E0E8789DF80010400800EB0B
:103D6000910054F82000000E1BE0E8789DF8001048
:103D7000400800EB910054F82000000C11E0E878B6
:103D80009DF80010400800EB910054F82000000A54
:103D900007E0E8789DF80010400800EB910054F827
:103DA00020009DF800103144C8709DF80000401CB0
:103DB0008DF80000B0789DF800108842B5D8B07832
:103DC000C01CC1B28E48FEF76FFCADF80400BDF810
:103DD0000400B278010A8A48C01C00E010E01154C7
:103DE000BDF80400B2788649091D5054B078401DD2
:103DF00089F80000386840F00800386000F00AF9DF
:103E00002878216C884202D0287800287ED18DF84D
:103E100008806878DFF8F4B14FF0080A06285AD114
:103E2000E878FF2857D2687A297A00EB0120ADF8AC
:103E3000040008217048FEF737FCBDF804108842E2
:103E400002D0BDF80400E8BB6879297900EB0120B5
:103E50000190E87840088DF80000E878C00710D09D
:103E6000E878C00707D09DF8000004EB80000168E7
:103E7000019A114401602878216C88421FD1404684
:103E80000FE001989DF80010000444F82100F2E7CB
:103E90009DF80800285C9DF8081070549DF80800F3
:103EA000401C8DF808009DF808000A28F0D389F816
:103EB00000A0386840F00800386000F0ABF8DBF88C
:103EC000001000E007E041F00101CBF80010C8212C
:103ED0004948FCF79CF96878102817D1A87905EBB8
:103EE0004000007AA97905EB4101C97900EB012076
:103EF000ADF80400A979072000EB8100C1B23E486B
:103F0000FEF7D2FBBDF80410884200E071E070D1EA
:103F100040462EE09DF8000005EB4000007A9DF839
:103F2000001005EB4101C97900EB012001909DF8DB
:103F30000000C0070DD0E8789DF80010400800EBA5
:103F4000510004EB80000168019A01EB024101601D
:103F50000CE09DF80000C00708D1E97801989DF8B1
:103F60000020490801EB520144F821009DF80000AF
:103F7000401C8DF8000068799DF800108842C9D86F
:103F8000E06B012803D022480178491C0170287891
:103F9000216C884220D1206C307010207070A8787D
:103FA000B070E878F0702879307168797071062106
:103FB0001348FEF779FBADF80400BDF80400000AD1
:103FC000B071BDF80400F07189F800A0386840F0C5
:103FD0000800386000F01EF8DBF80010064841F0D9
:103FE0000101CBF8001003B0C821BDE8F04FFCF789
:103FF0000EB9BDE8FE8F000028060020E002002078
:104000006005002080000020140000201C0000201B
:1040100050000020F8B500208DF800008DF8000059
:104020000F4C104D104E10E09DF80000295C20460A
:1040300001F0FCF98021204601F060F90028F9D058
:104040009DF80000401C8DF800009DF800003178BC
:104050008842E9D30548016821F008010160F8BDF4
:10406000003801406005002080000020140000207E
:10407000F8B500208DF800008DF800000F4C104DB1
:10408000104E10E09DF80000295C204601F0CEF9AA
:104090008021204601F032F90028F9D09DF8000077
:1040A000401C8DF800009DF8000031788842E9D36B
:1040B0000548016821F008010160F8BD0044004096
:1040C0009804002080000020140000202DE9FF5FEC
:1040D000FE4E3078DFF8F8B3FE4D4FF0010A4FF096
:1040E0000008012802D0307800287DD1707803289C
:1040F0007AD1F179B07901EB0020ADF80400062106
:10410000F248FEF795FABDF80410884203D0BDF8D6
:10411000040000286ED1F078FF286BD2F078717916
:104120000844FF2866D25C468BF800A003208BF879
:104130000100707980008BF80200404631E09DF864
:104140000000800713D09DF8000000F00300012854
:1041500016D09DF8000000F003000228F0789DF8CA
:10416000001000EB910055F8200012D012E0F0781A
:104170009DF8001000EB910055F82000000E09E0BA
:10418000F0789DF8001000EB910055F82000000C2D
:1041900000E0000A9DF800102144C8709DF800005E
:1041A000401C8DF80000A0789DF800108842C6D809
:1041B000A078C01CC1B2C648FEF73AFAADF80400B8
:1041C000BDF80400A278010AC148C01C1154BDF812
:1041D0000400A278BE49091D5054A078BE49401D74
:1041E0000870BE48016800E004E041F00801016089
:1041F000FFF73EFF3078B146B94C012803D099F85B
:10420000000000287ED146468DF80C8099F8010008
:104210004F46062857D1F878FF2854D2787A397A51
:1042200000EB0120ADF800000821A848FEF700FAD5
:10423000BDF80010884202D0BDF80000F0BB7879CC
:10424000397900EB01200090F879B97900EB012071
:10425000ADF80800F8788DF80400BDF80800009962
:1042600000EB01409DF80410009045F821003878DB
:10427000296C88421CD18DF80C6058460AE09DF8E4
:104280000C10795C9DF80C2081549DF80C10491C91
:104290008DF80C109DF80C100A29F0D38E480A21D5
:1042A00001708E48016841F008010160FFF7E0FEEF
:1042B0008C48016841F00101016000E003E0C82181
:1042C0008248FBF7A4FF787810281BD1696B8648D9
:1042D00004290AD1D5F8AC10012906D1296B01298E
:1042E00003D182490E7080F800A0696B042917D1B0
:1042F000D5F8AC10022913D1296B012910D17B49C3
:104300000A7800E0A0E0012A03D00278012A04D054
:1043100006E00E7080F800A002E0067081F800A0B0
:10432000B87907EB8000007AB97907EB8101C97988
:1043300000EB0120ADF80000B879072101EB800007
:10434000C1B26248FEF774F9BDF8001088427BD113
:104350008DF804602BE09DF8040007EB8000007AE4
:104360009DF8041007EB8101C97900EB0120009052
:104370009DF8040007EB8000807A9DF8041007EB9D
:104380008101497A00EB0120ADF80800BDF8080072
:10439000009900EB01400090F9789DF80420114449
:1043A00045F821009DF80400401C8DF80400B87900
:1043B0009DF804108842CED8E86B012802D02078FE
:1043C000401C20703878012828D15E468BF800A068
:1043D00010208BF80100B8788BF80200F8788BF881
:1043E000030038798BF8040078798BF805000621F2
:1043F0003748FEF71DF9ADF80000BDF80000000ACF
:10440000B071BDF80000F0713348082101703348E5
:10441000016841F008010160FFF72AFE3148016898
:1044200041F001010160686B042809D1286B012863
:1044300006D1607820B92D4981F800A084F801A048
:10444000C8212248FBF7E3FE99F800004D460128F9
:104450007ED16878A528FBD1287AE97900EB012084
:10446000ADF8000007211948FEF7E2F8BDF800108A
:104470008842EDD1A878DFF87890012811D1B9F8F9
:104480000000A061A088E0612879E97800EB0120B4
:104490002062206A6979000400EB0120A9790844B0
:1044A0002062A878AB460B4FAC3F07F1500606F1EF
:1044B000500502287ED1B9F800006062A088A06291
:1044C0009BF804109BF8032014E00000D0030020A8
:1044D00098040020E002002080000020140000204A
:1044E000500000201C00002022000020210000209D
:1044F0004400002001EB0221E162E16A9BF8052003
:1045000009049BF8060001EB02210844E062E06A1E
:104510000290216A401A00030290606AA169401A61
:104520000390DDE90201B0FBF1F002903860E06A2F
:1045300000030290606A0190386801994843019035
:10454000DDE9011088420AD208460299401A00E0CB
:10455000FEE301903060287840F0010005E0401A49
:1045600002903060287820F001002870E06A029004
:10457000216A401A00030290A06AE169401A4000D3
:104580000390DDE90201B0FBF1F00290B861E06A4E
:1045900000030290B8690190A16A4843400001906D
:1045A000DDE9011088420AD208460299401A0190BA
:1045B000B06100E00EE0287840F0040005E0401A09
:1045C0000290B061287820F004002870FDF7A2F96D
:1045D00084F802809BF80200594603280FD1B9F8ED
:1045E0000000A060A08820610879C878206A4A7914
:1045F000000400EB02208A791044E0606061887852
:10460000042870D1B9F800006062A088A0629BF80D
:1046100004109BF8032001EB0221E162E16A9BF8A0
:10462000052009049BF8060001EB02210844E06222
:10463000E06A0290216A401A00030290606AA16950
:10464000401A0390DDE90201B0FBF1F002907860BE
:10465000E06A00030290606A01907868019948431B
:104660000190DDE90110884206D2081A01907060BD
:10467000687840F0010005E0401A029070606878A8
:1046800020F001006870E06A0290216A401A00037D
:104690000290A06AE169401A40000390DDE902013E
:1046A000B0FBF1F00290F861E06A00030290F86953
:1046B0000190A16A484340000190DDE90110884261
:1046C00008D208460299401A0190F061687840F0DB
:1046D000040005E0401A0290F061687820F00400C0
:1046E0006870FDF717F99BF80200052878D1C4F827
:1046F0001880C4F81C80C4F82080B9F80000A061BC
:10470000A088E0619BF804109BF8032001EB0221D4
:104710002162216A9BF8052009049BF8060001EB41
:10472000022108442062206A0290E16A401A0003D4
:104730000290A069616A401A0390DDE90201B0FBB2
:10474000F1F00290B860206A00030290A069019025
:10475000B868019948430190DDE90110884206D20A
:10476000081A0190B060287940F0010007E0014686
:104770000198081A0290B060287920F00100287191
:10478000206A0290E16A401A00030290E069A16A7F
:10479000401A40000390DDE90201B0FBF1F0029005
:1047A0003862206A00030290386A0190E169484348
:1047B00040000190DDE90110884206D2081A0190FC
:1047C0003062287940F0040005E0401A029030621F
:1047D000287920F004002871FDF79CF884F8028005
:1047E0009BF802105846DFF81097062911D1B9F846
:1047F0000010A161A188E1610179C27801EB022179
:104800002162216A4279090401EB02218279114473
:1048100021628078072874D1B9F800006062A0880E
:10482000A0629BF804109BF8032001EB0221E162D7
:10483000E16A9BF8052009049BF8060001EB0221C0
:104840000844E062E06A0290216A401A0003029084
:10485000606AA169401A0390DDE90201B0FBF1F042
:104860000290F860E06A00030290606A0190F868C4
:10487000019948430190DDE90110884206D2081AE7
:104880000190F060A87840F0010007E0014601982F
:10489000081A0290F060A87820F00100A870E06A81
:1048A0000290216A401A00030290A06AE169401A4E
:1048B00040000390DDE90201B0FBF1F00290786264
:1048C000E06A00030290786A0190A16A48434000C0
:1048D0000190DDE90110884208D208460299401A89
:1048E00001907062A87840F0040005E0401A029040
:1048F0007062A87820F00400A870FDF70BF884F827
:1049000002809BF80200082873D1B9F800006062A9
:10491000A088A0629BF804109BF8032001EB022101
:10492000E162E16A9BF8052009049BF8060001EBAF
:1049300002210844E062E06A0290216A401A000302
:104940000290606AA169401A0390DDE90201B0FBA0
:10495000F1F002903863E06A00030290606A01900F
:10496000386B0199484302990190814206D2401A5E
:1049700001903063A87940F0010007E008460199F2
:10498000401A02903063A87920F00100A871E06A13
:104990000290216A401A00030290A06AE169401A5D
:1049A00040000390DDE90201B0FBF1F002903864B1
:1049B000E06A00030290386C0190A16A484340000D
:1049C0000190DDE90110884208D208460299401A98
:1049D00001903064A87940F0040005E0401A02908C
:1049E0003064A87920F00400A871FCF793FF84F8E4
:1049F00002809BF80200092875D1B9F800006062B6
:104A0000A088A0629BF804109BF8032001EB022110
:104A1000E162E16A9BF8052009049BF8060001EBBE
:104A200002210844E062E06A0290216A401A000311
:104A30000290606AA169401A0390DDE90201B0FBAF
:104A4000F1F002907863E06A00030290606A0190DE
:104A5000786B0199484302990190814208D201463E
:104A60000298081A01907063E87940F0010007E0AD
:104A700008460199401A02907063E87920F001001D
:104A8000E871E06A0290216A401A00030290A06A6D
:104A9000E169401A40000390DDE90201B0FBF1F04A
:104AA00002907864E06A00030290786C0190A16A39
:104AB000484340000190DDE90110884208D20846D1
:104AC0000299401A01907064E87940F0040005E012
:104AD000401A02907064E87920F00400E871FCF755
:104AE00019FF84F802809BF8021058460A2911D158
:104AF000B9F80010A161A188E1610179C27801EBE8
:104B000002212162216A4279090401EB02218279A2
:104B10001144216280780B2872D1B9F800006062DC
:104B2000A088A0629BF804109BF8032001EB0221EF
:104B3000E162E16A9BF8052009049BF8060001EB9D
:104B400002210844E062E06A0290216A401A0003F0
:104B50000290606AA169401A0390DDE90201B0FB8E
:104B6000F1F002903861E06A00030290606A0190FF
:104B70003869019948430190DDE90110884208D263
:104B800008460299401A01903061E87840F001002F
:104B900005E0401A02903061E87820F00100E870EA
:104BA000E06A0290216A401A00030290A06AE1695B
:104BB000401A40000390DDE90201B0FBF1F00290E1
:104BC000B862E06A00030290B86A0190A16A4843A3
:104BD00040000190DDE90110884208D208460299A0
:104BE000401A0190B062E87840F0040005E0401AF5
:104BF0000290B062E87820F00400E870FCF78AFECA
:104C00009BF802000C2874D1B9F80000A061A088BC
:104C1000E0619BF804109BF8032001EB0221216264
:104C2000216A9BF8052009049BF8060001EB02218C
:104C300008442062206A0290E16A401A0003029050
:104C4000A069616A401A0390DDE90201B0FBF1F04E
:104C500002907861206A00030290A069019078694F
:104C6000019948430190DDE90110884208D20846C5
:104C70000299401A01907061687940F0010005E0E6
:104C8000401A02907061687920F001006871206A12
:104C90000290E16A401A00030290E069A16A401A9A
:104CA00040000390DDE90201B0FBF1F00290F862F0
:104CB000206A00030290F86A0190E16948434000CD
:104CC0000190DDE90110884208D208460299401A95
:104CD0000190F062687940F0040005E0401A02900B
:104CE000F062687920F004006871FCF713FE84F824
:104CF00002809BF802000D2876D1B9F80000A0616F
:104D0000A088E0619BF804109BF8032001EB0221CE
:104D10002162216A9BF8052009049BF8060001EB3B
:104D2000022108442062206A0290E16A401A0003CE
:104D30000290A069616A401A0390DDE90201B0FBAC
:104D4000F1F00290B863206A00030290A06900E0CD
:104D5000CFE00190B86B019948430190DDE9011063
:104D6000884208D208460299401A0190B063287A16
:104D700040F0010005E0401A0290B063287A20F06C
:104D800001002872206A0290E16A401A0003029032
:104D9000E069A16A401A40000390DDE90201B0FB1E
:104DA000F1F00290B864206A00030290B86C0190A0
:104DB000E169484340000190DDE90110884208D2D2
:104DC00008460299401A0190B064287A40F0040025
:104DD00005E0401A0290B064287A20F0040028729E
:104DE000FCF798FD84F802809BF802000E2874D12D
:104DF000B9F80000A061A088E0619BF804109BF85E
:104E0000032001EB02212162216A9BF8052009049D
:104E10009BF8060001EB022108442062206A029000
:104E2000E16A401A00030290A069616A401A039087
:104E3000DDE90201B0FBF1F00290F863206A0003A3
:104E40000290A0690190F86B019948430190DDE957
:104E50000110884208D208460299401A0190F06376
:104E6000687A40F0010005E0401A0290F063687A29
:104E700020F001006872206A0290E16A401A000383
:104E80000290E069A16A401A40000390DDE9020146
:104E9000B0FBF1F00290F864206A00030290F86C15
:104EA0000190E169484340000190DDE9011088422A
:104EB00008D208460299401A0190F064687A40F0DE
:104EC000040005E0401A0290F064687A20F00400C3
:104ED0006872FCF71FFD84F802809BF802105846A8
:104EE0000F2906D184F802A08179407901EB0020D6
:104EF000A080BDE8FF9F0000420000202DE9F041A6
:104F00003A4C3B4D40F225562068314640F01000A7
:104F10002060284600F0F9F9002864D03146284680
:104F200000F087F9284600F07DFA3349314E0A78BF
:104F3000B05496F800C0314FD7F840E0304B01250F
:104F40000020304AF44540D1BD627778062F09D061
:104F50007778102F1AD07778032F20D07678A52E67
:104F60002FD037E00E78062E34D9087015702168DE
:104F700021F01001216018701178012933D11070CF
:104F8000FEF79CFEBDE8F04100F082BA0F78072FD3
:104F900020D9B6790F780836BE42E6D01AE00E78EE
:104FA000072E17D108701570216821F010012160BB
:104FB00018701178012916D11070BDE8F041FEF784
:104FC0007DBE0E78082EEDD004E0367816B90E7846
:104FD000082EE7D80C78641C0C700C78C82C02D909
:104FE000087010701870BDE8F081000018000020F3
:104FF000003801402806002088000020E002002040
:10500000890000202000002038B54FF4E060FDF753
:1050100029FC25208DF8000000258DF80150012481
:105020008DF802408DF803406846FDF7E9FB262025
:105030008DF800008DF8015002208DF802008DF8E7
:1050400003406846FDF7DCFB27208DF800008DF853
:10505000015003208DF802008DF803406846FDF7EB
:10506000CFFB38BD30B585B001212048FDF71AFCD3
:105070000424ADF8104018208DF8130003201C4DB7
:105080008DF8120004A92846FDF74CFA0821ADF866
:1050900010108DF8134004A92846FDF743FA4FF489
:1050A000E13000900020ADF80400ADF80600ADF846
:1050B0000800ADF80C000C200E4CADF80A00694653
:1050C000204600F059F9FFF79FFF012240F22551D9
:1050D000204600F039F90121204600F0B0F84021C7
:1050E000204600F0A3F805B030BD00000400020027
:1050F000000801400044004070B53C4C3C4D40F27B
:1051000025562068314640F010002060284600F007
:10511000FCF8002869D03146284600F08AF8284675
:1051200000F080F93449334E0A78B05430780023C7
:10513000324D334A012802D03078E8B349E0707824
:10514000062809D07078102820D07078032821D044
:105150007078A52836D03CE00878082839D90B703B
:10516000106840F010001060216821F010012160EB
:105170002B70C10639D520F010001060FEF7A6FF95
:10518000FBF7D0FCBDE8704000F082B90878A02899
:10519000E5D01EE0087807281BD10B70106840F09E
:1051A00010001060216821F0100121602B70C106F1
:1051B0001BD520F0100000E008E01060BDE8704052
:1051C000FEF784BF08780828E7D002E008780828AE
:1051D000E3D80878401C08700878C82805D90B70F7
:1051E000106820F0100010602B7070BD18000020B7
:1051F00000440040D00300208800002089000020E7
:105200001400002070B5084D40F225542146284670
:1052100000F07BF8002805D021462846BDE8704004
:1052200000F007B870BD000000480040C94301808D
:1052300070470A0A01219140C94301807047002943
:10524000818902D041F4005101E021F400518181B3
:105250007047000010B586B0012144F20800FDF748
:105260002DFB01210846FDF729FB01210420FDF754
:10527000A7F94020ADF8100018208DF81300032086
:105280001B4C8DF8120004A92046FDF74BF9802134
:10529000ADF8101004218DF8131004A92046FDF775
:1052A00041F91448406800900020ADF80400ADF8C2
:1052B0000600ADF80800ADF80C000C200E4CADF85F
:1052C0000A006946204600F057F8FFF79DFE0122CC
:1052D00040F22551204600F037F801212046FFF723
:1052E000AEFF40212046FFF7A1FF06B010BD000031
:1052F000000C0140800000200038014002460020E0
:1053000012880A4200D00120704770B501F01F05D5
:1053100001260024C1F3421306FA05F2012B0FD037
:10532000022B0FD0838A4FEA11210088134206FA1C
:1053300001F600EA060001D000B10124204670BD4C
:105340008389F0E7038AEEE710B5C1F3421301F059
:105350001F040121A140012B07D0022B07D01430DC
:10536000002A026805D00A4304E00C30F8E7103048
:10537000F6E78A43026010BD30B50446008A85B066
:105380000D464CF6FF710840E98801432182A0894F
:105390004EF6F3110840A9882A8911436A8902430D
:1053A0001143A181A08A4FF6FF410840A98901431A
:1053B000A1826846FDF7F0FA1948844201D10398AA
:1053C00000E00298A189090400EBC00101EB001084
:1053D000296801D5490000E08900B0FBF1F06422A2
:1053E000B0FBF2F109010B096FF018056B4300EBFC
:1053F0008300A3891D044FF0320306D503EBC000E0
:10540000B0FBF2F000F0070005E003EB0010B0FB8A
:10541000F2F000F00F000843208105B030BD00001D
:10542000003801408088C0F308007047C1F30801CC
:1054300081807047FEE7000070B5114CE06B114EA3
:105440004FF4006500282946304614D0FDF7EBF8EC
:105450000D480078002811D1E06B00280ED120689B
:105460000A4988420AD90120E06329463046BDE84E
:105470007040FDF7D8B8FDF7D8F8E9E770BD000037
:10548000E00200200008014052000020E0930400E8
:1054900038B5114C206C000E8DF800009DF80010FE
:1054A0007320FCF7EAF9206C000C8DF800009DF8E1
:1054B00000107420FCF7E1F9206C000A8DF8000060
:1054C0009DF800107520FCF7D8F9206CBDE8384035
:1054D000C1B27620FCF7D1B9E0020020704700008D
:1054E000F8B501211020FDF7D1F94FF48040ADF857
:1054F000000014240B4E8DF8034002258DF8025055
:1055000069463046FDF70EF8A803ADF800008DF8A7
:1055100003408DF8025069463046FDF703F800F06D
:10552000BBF8F8BD0010014008B500208DF8000060
:105530009DF800000A2803D29DF80000401CF5E702
:1055400008BD000070B50C4C4FF480412046FDF7BB
:105550006CF8FFF7E9FF4FF4004529462046FDF7B8
:1055600064F8FFF7E1FF29462046FDF75CF8BDE847
:105570007040FFF7D9BF0000001001407CB500204B
:105580008DF800008DF804004FF40045134C6E10A8
:105590001DE040008DF8000029462046FDF745F843
:1055A000FFF7C2FF31462046FDF736F820B19DF8DF
:1055B0000000401C8DF8000029462046FDF733F816
:1055C000FFF7B2FF9DF80400401C8DF804009DF821
:1055D000040008289DF80000DBD37CBD00100140CA
:1055E00071B581B000208DF800004FF48046194C51
:1055F00075002AE09DF8040031460006204602D5D9
:10560000FDF713F801E0FDF70EF8FFF78DFF2946CF
:105610002046FDF70AF8FFF787FF29462046FDF7E9
:1056200002F89DF80010072903D131462046FCF707
:10563000FCFF9DF8040040008DF80400FFF774FFA4
:105640009DF80020521C8DF800209DF800000828CD
:10565000D0D37CBD0010014070B50E4D4FF4804496
:1056600021462846FCF7E1FF660031462846FCF754
:10567000DCFFFFF759FF21462846FCF7D4FFFFF770
:1056800053FF31462846FCF7CEFFBDE87040FFF7D8
:105690004BBF00000010014070B5094D4FF480442D
:1056A00021462846FCF7BFFF61002846FCF7BDFFF6
:1056B000FFF73AFF21462846BDE87040FCF7B5BF2A
:1056C00000100140F8B5104C4FF48046314620469A
:1056D000FCF7ABFFFFF728FF750029462046FCF7D3
:1056E000A4FFFFF721FF31462046FCF795FF00B1EC
:1056F00001208DF8000029462046FCF794FFFFF7B3
:1057000013FF9DF80000F8BD00100140FDF7EEF812
:10571000FDF7FAFAFCF75EFEFAF7F8FDFAF774FE09
:10572000FAF78AFFFFF7DCFEFBF772FBFFF792FD4B
:10573000FFF798FCFDF776FBFDF70CF819490120FF
:1057400008640026184D194FDFF86480194CFDF7E6
:1057500013F82068C10606D520F010002060FEF77F
:10576000B5FCFBF7DFF92878012802D12E70FEF78F
:10577000A5FA3888FAF7DCFDFAF7A8FE98F80000D9
:1057800018B9FDF719FCFBF705F92068C10704D02B
:1057900020F001002060FAF7E1FFFDF7D5FB00F0F3
:1057A0000BF8D4E7E0020020200000205400002085
:1057B00052000020140000202DE9F05FDA4F7A6BD0
:1057C000DB4CDA48DB4D2168DB4E21F040014FF025
:1057D000010992B17A6B012A7A6B19D0022A7A6B8D
:1057E0001ED0032A09D07A6B042A06D07A6B052AC8
:1057F00024D07A6B062A2CD039E07A6B73789A42DF
:1058000002D021F0200121600121FCF70CFF2EE0E5
:1058100073789A4202D021F020012160012115E025
:1058200073789A4202D021F0200121600121FCF717
:10583000FAFE786DD8B9C7F8549018E00121FCF74A
:10584000F2FEC7F83C904FF40061BC48FCF7EDFE57
:105850000DE07A6B73789A4202D021F0200121602A
:105860000121FCF7E0FEB86B88B1B5482861796B7F
:10587000B8467170386BDFF8CCA2DFF8CCB20027E5
:1058800038B1D8F830104046012915D044E1AF486E
:10589000ECE72021A948FCF7C8FE206820F0600052
:1058A00020606F603770D8F8000028608AF80070B8
:1058B0008BF80070A6482EE1416B91B1416B012934
:1058C0000FD0416B02290CD0416B032909D0416BE9
:1058D000052979D0416B062974D0416B042972D017
:1058E0001AE1C16B012902D0C16B49B314E101680F
:1058F000806F81420ED2C8F8307020218F48FCF7AB
:1059000094FE6F60D8F800002860206820F06000E6
:10591000206003E020218948FCF785FED8F80000CC
:10592000D8F87410884202D93078002873D0D8F89B
:105930000000D8F874108842A8D2307880B3EBE029
:105940000168806F00EB8000B1EB400F0ED2C8F809
:10595000307020217948FCF768FE6F60D8F80000AD
:105960002860206820F06000206003E02021734858
:10597000FCF759FED8F80010D8F8740000EB80004E
:10598000B1EB400F02D93078002844D0D8F800108D
:10599000D8F8740000EB8000B1EB400FCDD3BBE032
:1059A000FFE7C8F8307020216448FCF73EFE6F60C6
:1059B000D8F800002860206820F0600020603046A1
:1059C000A9E001E018E027E0776050F8881F8268BE
:1059D0005143642251437160716842F21072B1FB0D
:1059E000F2F10268511A716050F8880C71688842AF
:1059F00007D37068FBF7BEF820215048FCF713FE70
:105A00008AE020214D48FCF710FE6F60206820F0EE
:105A10006000206080E064E0C16B012902D0C16BAE
:105A200051B379E00168806F814212D2C8F83070BA
:105A300020214248FCF7F9FD6F60D8F8000028608B
:105A4000206820F0600020608AF800708BF80070F9
:105A500003E020213948FCF7E6FDD8F80000D8F82B
:105A60007410884201D93078D8B3D8F80000D8F83B
:105A70007410884232D34FE00168806F00EB8000E1
:105A8000B1EB400F12D2C8F8307020212B48FCF740
:105A9000CCFD6F60D8F800002860206820F060001E
:105AA00020608AF800708BF8007003E02021234802
:105AB000FCF7B9FDD8F80010D8F8740000EB8000AE
:105AC000B1EB400F01D9307858B1D8F80010D8F8B0
:105AD000740000EB8000B1EB400F1DD2307840B174
