:020000040800F2
:10000000D00E0020F9010008D9220008DB220008E8
:10001000DD220008DF220008E122000800000000C5
:10002000000000000000000000000000E3220008C3
:10003000E5220008000000000F020008E722000887
:10004000130200081302000813020008130200083C
:10005000130200081302000813020008130200082C
:10006000130200081302000813020008032400080A
:1000700013240008130200081302000813020008EA
:1000800013020008130200081302000813020008FC
:1000900013020008130200081302000813020008EC
:1000A00013020008130200081302000813020008DC
:1000B0001302000813020008E323000813020008DB
:1000C00013020008130200081302000813020008BC
:1000D00013020008132300089F230008C12300080F
:1000E000130200081302000813020008130200089C
:1000F000130200081302000813020008130200088C
:10010000130200081302000813020008130200087B
:10011000130200081302000813020008130200086B
:10012000130200081302000813020008130200085B
:1001300000F002F800F050F80AA090E8000C8244A9
:100140008344AAF10107DA4501D100F045F8AFF286
:10015000090EBAE80F0013F0010F18BFFB1A43F0A5
:100160000103184770C0000090C00000103A24BF7F
:1001700078C878C1FAD8520724BF30C830C144BF0C
:1001800004680C607047000000230024002500264E
:10019000103A28BF78C1FBD8520728BF30C148BFEA
:1001A0000B60704766290BF0C98764290AF0EA835F
:1001B000002070471FB50AF0C1FF04000020002195
:1001C0000BF09AFD401C6060002000210BF07EFDCA
:1001D000E0601FBD10B510BD0BF018F91146FFF718
:1001E000E9FF02F02FF80BF044F903B4FFF7F2FF38
:1001F00003BC05F0DDFD00000948804709480047C1
:10020000FEE7FEE7FEE7FEE7FEE7FEE7FEE7FEE7C6
:10021000FEE7FEE704480549054A064B7047000023
:10022000ED24000831010008D0040020D00E002089
:10023000D0060020D006002028490843284908603D
:10024000704730B50F23C27801780125F2B1244AF6
:10025000126801F1E02102F4E062C2F5E062120AE4
:10026000C2F10404D3404278A24084781C40144375
:10027000220181F80024007800F01F018D40400920
:10028000800000F1E020C0F8005130BD01F01F00F7
:1002900085404809800000F1E020C0F8805130BD61
:1002A000104A114001430E48001F016070470C4A7C
:1002B000121D0029116801D0014300E08143116043
:1002C00070474FF0E0210428086903D020F00400B3
:1002D0000861704740F00400FAE700000000FA05EA
:1002E0000CED00E080FFFF1FC54910B5884202D128
:1002F000012144150AE0C349884202D101210415B5
:1003000004E0C14988420AD10121CC03204600F013
:1003100016FF2046BDE81040002100F010BF10BDC0
:1003200010B54268B94B0C791A400B6842EA0422B6
:10033000134343608268B64B1A40D1E9024323431A
:100340004C7942EA440213438360C26A097C22F476
:100350007002491EC9B242EA0151C16210BD0021BA
:100360000160017141718160C160012101747047B8
:100370000029816802D041F0010101E021F0010172
:10038000816070470029816802D041F4807101E0EA
:1003900021F4807181607047002A4268C9B201D09F
:1003A0000A4300E08A4342607047816841F00801D7
:1003B00081607047014600208968090700D5012047
:1003C0007047816841F00401816070470146002058
:1003D0008968490700D5012070470029816802D04B
:1003E00041F4A00101E021F4A001816070470146C1
:1003F00000208968490200D5012070474268491EE3
:1004000022F4604242EA413141607047002941686C
:1004100002D041F4006101E021F4006141607047C5
:1004200070B5072609290AD9C568A1F10A0404EBA9
:100430004404A640B543A3401D43C56007E00569D9
:1004400001EB4104A640B543A3401D4305611F23B2
:10045000072A09D2446B521E02EB820293409C434E
:1004600091400C43446370BD0D2A09D2046BD21F26
:1004700002EB820293409C4391400C43046370BDA5
:10048000C46A0D3A02EB820293409C4391400C43B4
:10049000C46270BD0029816802D041F4801101E07E
:1004A00021F4801181607047C06C80B2704754485D
:1004B0004C30006870470029416802D041F48061E7
:1004C00001E021F48061416070470029416802D059
:1004D00041F4805101E021F480514160704782680D
:1004E00022F4E0420A43826070470029816802D00A
:1004F00041F4004101E021F400418160704700298E
:10050000816802D041F4021101E021F402118160FE
:100510007047014600208968890200D50120704794
:1005200070B5072609290AD9C568A1F10A0404EBA8
:100530004404A640B543A3401D43C56007E00569D8
:1005400001EB4104A640B543A3401D430561836B05
:10055000C3F30154121B921C02EB82021F2494402D
:10056000A34391400B43836370BD826B491E22F409
:10057000401242EA01518163704708B50844009077
:10058000026008BD08B5084428300090006880B2B9
:1005900008BD42681F4B1A400A43426070474162DF
:1005A00082627047426822F01F020A43426070472D
:1005B000134908310028086802D040F4000001E027
:1005C00020F40000086070470246002012680A42CA
:1005D00000D001207047C9430160704710B5024642
:1005E000002054680B0AC9B20C401168194202D0AD
:1005F000002C00D0012010BD6FEA1121016070476E
:100600000024014000280140003C0140FFFEF0FFB3
:10061000FDF7F1FFFFFD3FFF01684FF6FE7211404D
:1006200001600021016041608160C1606A496A4ADD
:100630000839904203D1486840F00F0006E0664A4E
:100640001432904204D1486840F0F000486070478E
:10065000614A2832904203D1486840F47060F5E75F
:100660005D4A3C32904203D1486840F47040EDE767
:10067000594A5032904203D1486840F47020E5E76F
:10068000554A6432904203D1486840F47000DDE777
:10069000514A7832904203D1486840F07060D5E703
:1006A0004E4A111F904203D1086840F00F0006E047
:1006B0004A4A1432904204D1086840F0F0000860C1
:1006C0007047464A2832904203D1086840F470606F
:1006D000F5E7424A3C32904203D1086840F470404A
:1006E000EDE73E4A50329042EAD1086840F470206B
:1006F000E5E730B5026847F6F0739A430C6A8B68F9
:100700002343D1E904452C4323438C692343CC691B
:1007100023434C6A23438C6A234313430360CA6810
:1007200042600A6882604968C16030BD0021016092
:1007300041608160C160016141618161C1610162AB
:100740004162816270470029016802D041F00101D5
:1007500002E04FF6FE72114001607047002A026805
:1007600001D00A4300E08A4302607047416070474D
:10077000406880B2704702460020D10002D5174978
:10078000083901E0144908390968114200D00120F4
:100790007047C10003D51149091F086070470E4911
:1007A00008394860704702460020D10002D50B4945
:1007B000083901E0084908390968114200D00120D0
:1007C0007047C10003D50549091F086070470249F9
:1007D00008394860704700000800024008040240E1
:1007E000FD4A116801F03801014311607047FA4970
:1007F0000A6822F008020A600A6802430A60704729
:10080000F5490A6822F010020A600A6802430A6089
:100810007047F148F1494160F14941607047EE4845
:10082000EE494160EE4941607047EB48016941F093
:10083000800101617047E848016941F08001016170
:100840007047E5490420CA68D20701D001207047EB
:10085000CA68520701D502207047C968C906FBD58E
:100860000320704700B50346FFF7EBFF02E0FFF7F8
:10087000E8FF5B1E012803D0002B00D1052000BD3E
:10088000002BF4D1FAE770B505464FF43026304618
:10089000FFF7E8FF042811D1CF4C206940F0020097
:1008A00020616561206940F0400020613046FFF71B
:1008B000D9FF216941F6FD721140216170BD30B54B
:1008C0004FF430252846FFF7CDFF042810D1C24C45
:1008D000206940F004002061206940F04000206160
:1008E0002846FFF7BFFF216941F6FB7211402161E5
:1008F00030BD00B50346FFF7A4FF02E0FFF7A1FFFC
:100900005B1E012803D0002B00D1052000BD002B69
:10091000F4D1FAE730B54FF430252846FFF7E9FF68
:10092000042810D1AC4C206940F0040020612069FB
:1009300040F0400020612846FFF7DBFF216941F6C7
:10094000FB721140216130BDA3490020C9698907AC
:1009500000D50120704770B5A525FFF7F5FF00B160
:1009600000254FF430263046FFF77CFF042827D1BE
:10097000994C9A48A0609A48A060206940F02000F5
:100980002061206940F0400020613046FFF76AFF97
:1009900041F6EF7604280ED1206941F6DF71084058
:1009A0002061206940F0100020618E4805804FF4DE
:1009B0000050FFF757FF052802D02169314021611F
:1009C00070BDF8B5064600204FF4005C00900D465F
:1009D0006046FFF747FF042816D17F4C206940F09E
:1009E0000100206135806046FFF73CFF41F6FE774D
:1009F000042806D1B61C280C009630806046FFF70C
:100A000031FF216939402161F8BDF0B506464FF448
:100A100000570D463846FFF725FF04280CD16E4CD1
:100A2000206940F00100206135803846FFF71AFF49
:100A30002169BA1E11402161F0BDF0B506464FF4A0
:100A400000570D463846FFF70DFF042813D1624CBE
:100A50006248A0606248A060206940F010002061F8
:100A600035803846FFF7FEFE052804D0216941F69F
:100A7000EF7211402161F0BD2DE9F041C043C7B2D2
:100A8000C0F30726C0F30745040E4FF40058404654
:100A9000FFF7E8FE04283CD1DFF83CC14F49CCF811
:100AA00008104F49CCF80810DCF8101041F0100184
:100AB000CCF81010FF2F07D04A4808300780404676
:100AC000FFF7D0FE04281BD1FF2E07D045480A307F
:100AD00006804046FFF7C6FE042811D1FF2D07D03F
:100AE00040480C3005804046FFF7BCFE042807D183
:100AF000FF2C07D03B480E3004804046FFF7B2FE83
:100B0000052806D0DCF8101041F6EF721140CCF841
:100B10001010BDE8F08170B505464FF43026304620
:100B2000FFF7A0FE042818D12B4C2C48A0602C48BD
:100B3000A060206940F020002061206940F0400062
:100B400020613046FFF78EFE41F6DF71042805D0A4
:100B5000052802D022690A40226170BD2069084040
:100B60002061206940F0100020611E480DB1002175
:100B700000E0A52101803046FFF774FE0528ECD087
:100B8000216941F6EF721140216170BDF0B5124C40
:100B90000746124816460D46A0601148A0604FF463
:100BA000005C6046FFF75EFE042814D1206940F027
:100BB0001000206135430B493D43891C45F0F80086
:100BC00008806046FFF74EFE052804D0216941F6F3
:100BD000EF7211402161F0BD002002402301674502
:100BE000AB89EFCD00F8FF1F1C48C0698008704733
:100BF0001A48006A7047194900200968890600D51B
:100C000001207047154A0029116901D0014300E015
:100C100081431161704701460020104A012903D029
:100C2000D2680A4203D17047D169C907FBD00120BD
:100C300070470A49C860704708490420CA68D2074B
:100C400001D001207047CA68520701D502207047C1
:100C5000C968C906FBD50320704700000020024088
:100C60008F4910B5884206D10121042000F067FAAF
:100C7000002104203BE08B49884206D10121082055
:100C800000F05DFA0021082031E08749884206D152
:100C90000121102000F053FA0021102027E08349A1
:100CA000884206D10121202000F049FA00212020AD
:100CB0001DE07F49884206D10121402000F03FFA23
:100CC0000021402013E07B49884206D10121802089
:100CD00000F035FA0021802009E0774988420AD1E6
:100CE00084150121204600F02AFA00212046BDE8A3
:100CF000104000F024BA10BD10B50121084600F0E4
:100D00001EFA0021BDE81040012000F018BAF0B52D
:100D1000CC78002204F00F03E40601D58C7823433D
:100D20000C784FF00F0C14F0FF0F4FF0010E1BD09A
:100D300005680E880EFA02F42640A64210D19600ED
:100D40000CFA06F725EA070703FA06F5CE783D43C5
:100D5000282E02D0482E02D002E0446100E0046157
:100D6000521C082AE5D305600A88FF2A1CD944686A
:100D7000002202F108060EFA06F50E882E40AE4259
:100D80000ED196000CFA06F7BC4303FA06F7CE78AC
:100D90003C43282E00D14561CE78482E00D1056114
:100DA000521C082AE5D34460F0BD4FF6FF71018064
:100DB000022181700421C1707047024600209268B0
:100DC0000A4200D001207047806880B27047024616
:100DD0000020D2680A4200D001207047C06880B26B
:100DE000704701617047416170470AB10161704706
:100DF00041617047C160704741F480328261816116
:100E000082618169806970472C4B10B51A684FF672
:100E10008074224042EA00100843186010BD28493F
:100E2000C8617047F0B5254C002801DAE36900E09D
:100E30006368450D2E0185B2C0F30157B540C0F37C
:100E40000342032F05D0C6020AD503269640B343BA
:100E500007E023F07062636823F07063636002E070
:100E6000AB4343F0706201B12A43002801DAE2612A
:100E7000F0BD6260F0BD10B58A0721F003040F4990
:100E8000120F21440F238C6893409C438C608B6825
:100E9000904003438B6010BD0949C1F8DC007047E6
:100EA00000080140000C0140001001400014014006
:100EB00000180140001C01400020014000000140DA
:100EC000000020420D49086070470C494860704797
:100ED0000A498860704709494AF6AA2008607047A5
:100EE00006494CF6CC4008607047044A0146002091
:100EF000D2680A4200D00120704700000030004054
:100F0000A548016841F0010101604168A34A114010
:100F100041600168A24A11400160016821F480210A
:100F20000160416821F4FE0141604FF41F018160BE
:100F3000704799490A6822F480320A600A6822F4EC
:100F400080220A60B0F5803F07D0B0F5802F03D132
:100F5000086840F4A02008607047086840F48030BA
:100F6000F9E70346002059098B4A01290AD00229D2
:100F70000AD0516A03F01F02012393400B4200D0B4
:100F8000012070471168F5E7116AF3E718B50020F2
:100F90004FF4A06400903120FFF7E3FF0099491C53
:100FA0000091A14201D00028F5D03120FFF7D9FFF0
:100FB000002800D0012018BD774A116821F0F801FF
:100FC00041EAC00010607047764908607047724B74
:100FD0005A68084322F47C121043586070477149E4
:100FE000086670476C4A516821F003010143516063
:100FF00070476948406800F00C007047664A5168C5
:1010000021F0F001014351607047634A516821F4B7
:10101000E0610143516070475F4A516821F46051BB
:1010200041EAC000506070475B4A0029517A01D004
:10103000014300E08143517270475A49C1F8D8001A
:101040007047554A516821F440410143516070474F
:101050005149002281F8202081F82020012802D067
:10106000042802D1052081F8200070474E4908600D
:10107000704749490A6A02430A6270474A4944393B
:101080000860704730B5444A5168484B11F00C0174
:1010900003D0042901D0082901D0036012E051686F
:1010A000536801F470114FF0020413F4803F04EB15
:1010B000914102D053689B0301D53D4B00E03B4B6F
:1010C0005943016051680F2303EA1111394B5C5CED
:1010D0000168E14041605468072505EA14241C5D5D
:1010E00021FA04F48460546805EAD4241B5DD940D5
:1010F000C1605268032303EA92322E4B1B1F9A5C95
:10110000B1FBF2F1016130BD234A0029516901D0E0
:10111000014300E08143516170471F4A00299169F2
:1011200001D0014300E08143916170471A4A0029D0
:10113000D16901D0014300E08143D1617047164A73
:101140000029D16801D0014300E08143D16070479C
:10115000114A0029116901D0014300E08143116166
:10116000704711494039086070470E49C86470479C
:101170000949C87170470848416A41F0807141626D
:101180007047054A0146002092680A4200D00120BB
:101190007047014988727047001002400000FFF854
:1011A000FFFFF6FE000042428004424200127A0035
:1011B00000093D0004000020994910B588420AD179
:1011C000841401212046FFF7BAFF2046BDE81040F5
:1011D0000021FFF7B4BF9349884202D101210414D2
:1011E00004E0914988420AD10121C4132046FFF747
:1011F000AFFF2046BDE810400021FFF7A9BF10BD9A
:1012000030B502884C8802F441530A88CD882243C5
:101210008C882C4322430C8922434C8922438C899D
:101220002243CC8922431A430280828B22F400623B
:101230008283098A018230BDF0B505460C46022042
:101240000021AA8B85B001264FF240031A40AA83E1
:101250002884AF8BA268022A21D0A08800B1022680
:101260006846FFF70FFFE1880098B1F5007F2CD0AA
:101270007101B0FBF1F000EB8000A1684000B0FB11
:10128000F1F0401D80B20A21B0FBF1F000F0010145
:10129000401A4FF6FF72C0F34F0002EA0121821E8E
:1012A000FE2A01D302200021E288084302432A8457
:1012B00020886188A2890843A188114308433843E4
:1012C00040F40060A88305B0F0BD000AD3E7002118
:1012D000018041808180C180018141818181C18102
:1012E0000721018270470021018041808180C180F7
:1012F00002228260818170470029018802D041F07A
:10130000400101E021F04001018070470029818BFC
:1013100002D041F4806101E021F480618183704753
:10132000090901238B40002A828899B201D00A431F
:1013300000E08A4382807047002A828801D00A43F5
:1013400000E08A43828070478181704780897047BE
:10135000A1F57E420188FF3A02D041F4807101E09C
:1013600021F48071018070470029818802D041F00A
:10137000040101E021F0040181807047028822F419
:101380000062028002880A4302807047018841F4AB
:101390008051018070470029018802D041F400513A
:1013A00001E021F4005101807047012901D0008B38
:1013B0007047808A7047008A7047B1F5804F018876
:1013C00003D021F480410180704741F48041FAE765
:1013D0000246002012890A4200D001207047C9430A
:1013E0000181704730B501F00F030125024605FA6F
:1013F00003F40020A3B2090905FA01F49188A4B20C
:10140000128921401A4202D0002900D0012030BDAB
:1014100001F00F0201219140C94301817047000092
:101420000030014000380040003C0040F94910B550
:10143000884202D10121C41486E0B0F1804F09D066
:10144000F54988420DD101210220FFF781FE0021DC
:10145000022064E001210846FFF77AFE0021012006
:101460005DE0EE49884206D101210420FFF770FEBD
:101470000021042053E0EA49884206D101210820D6
:10148000FFF766FE0021082049E0E649884206D1C0
:1014900001211020FFF75CFE002110203FE0E2490F
:1014A000884206D101212020FFF752FE0021202092
:1014B00035E0DE49884202D10121441444E0DC4990
:1014C000884202D10121CC043EE0DA49884202D1AF
:1014D00001210C0538E0D849884202D101214C0590
:1014E00032E0D649884206D101214020FFF730FE84
:1014F0000021402013E0D249884206D101218020FA
:10150000FFF726FE0021802009E0CE4988420AD15B
:10151000841501212046FFF71BFE00212046BDE86F
:101520001040FFF715BEC849884202D101210C04C2
:101530000AE0C649884202D101214C0404E0C449B2
:1015400088420AD101218C042046FFF7F8FD20468D
:10155000BDE810400021FFF7F2BD10BD30B5028894
:10156000AC4CB24DA0420DD0A8420BD0B0F1804F90
:1015700008D0A94B984205D0A84B984202D0A84B5E
:10158000984203D122F070034A881A43A54B98422F
:1015900006D0A54B984203D022F44073CA881A4360
:1015A00002808A8882850A880285A0420AD0A842E1
:1015B00008D0A54A904205D0A44A904202D0A44A3D
:1015C000904201D1097A01860121818230BD30B576
:1015D000028C22F001020284028C8388048B22F0A8
:1015E000020224F073050C882C430D8915434A88A8
:1015F0002A43884DA8420BD08C4DA84208D0924D6A
:10160000A84205D0914DA84202D0914DA8420DD1DB
:1016100022F008054A8923F440732A4322F0040586
:101620008A882A438D891D43CB892B438380048379
:10163000C9888186028430BD70B5028C22F0100208
:101640000284028C8388048B0D8824F4E6464FF6CE
:10165000FF7404EA052535430E8922F0200204EACE
:10166000061616434A8804EA02123243694EB04213
:1016700002D06E4EB04215D122F080064A8923F482
:10168000406304EA0212324322F040068A8804EAE8
:10169000021232438E8904EA86061E43CB8904EA8D
:1016A0008303334383800583C9880187028470BD27
:1016B00070B5028C22F480720284028C8388848B41
:1016C0000D8824F0730425430E894FF6FF7422F42D
:1016D000007204EA062616434A8804EA02223243CC
:1016E0004C4EB04202D0514EB04215D122F40066A9
:1016F0004A8923F4405304EA0222324322F48066EA
:101700008A8804EA022232438E8904EA06161E43BE
:10171000CB8904EA0313334383808583C988818797
:10172000028470BD70B5028C22F480520284058C54
:101730008288838B0C8823F4E6464FF6FF7303EA16
:101740000424344325F400560D8903EA0535354356
:101750004E8803EA06362E432E4DA84202D0334D62
:10176000A84205D122F480458A8903EA82122A43DD
:1017700082808483C988A0F84010068470BD828B63
:1017800022F440628283828B4FF6FF7303EA0121C9
:101790000A4382837047828B22F00C028283828B01
:1017A0000A4382837047028B22F440620283028BD9
:1017B0004FF6FF7303EA01210A4302837047F0B535
:1017C000048C24F010040484078B048C4FF6FF75FE
:1017D00027F4734705EA03333B4305EA02221A4321
:1017E0000C4B05EA011698420ED0104B98420BD0D4
:1017F000B0F1804F08D0084B984205D0074B984273
:1018000002D0074B984225D124F02001314341F00A
:10181000100124E0002C01400004004000080040BA
:10182000000C004000100040001400400034014053
:10183000004C01400050014000540140001800409D
:10184000001C0040002000400040014000440140D6
:101850000048014024F0A0030B4343F01001028331
:101860000184F0BD028B22F00C020283028B0A433A
:101870000283704770B5048C24F001040484058B46
:10188000048C4FF6FF7606EA0313134325F0F305A5
:10189000F84A2B4390420ED0F74A90420BD0B0F159
:1018A000804F08D0F54A904205D0F54A904202D0C8
:1018B000F44A904202D124F0020201E024F00A022C
:1018C0000A4342F001010383018470BD2DE9F84F02
:1018D0000D4604460888E74FDFF89CC3DFF89C8379
:1018E000DFF89C934988AA882B894FF0804A48B337
:1018F00004282FD04FF6FF760828934632D0208C4C
:101900009E4620F480502084A38B208C06EA01326E
:10191000009223F4734306EA0B221A4306EA0E33BD
:101920001343BC420AD0644508D0544506D0444510
:1019300004D04C4502D0D34A944242D120F4005006
:10194000009940E02046FFF795FFE9882046BDE872
:10195000F84F87E72046FFF732FFE9882046BDE8C9
:10196000F84F20E7208C20F480702084B4F81CE02D
:10197000208C06EA031306EA01222EF0F30E43EA56
:101980000B0343EA0E030092BC420AD0644508D020
:10199000544506D0444504D04C4502D0B94A94423F
:1019A00003D120F40070009901E020F42060084386
:1019B00040F48070A3832084E9882046BDE8F84F76
:1019C000E9E620F40240084340F48050A3832084D9
:1019D000E9882046BDE8F84FD1E62DE9F0410C46F4
:1019E000002649880746012501B90226A288012A56
:1019F00000D10225208823890028384610D0FFF71F
:101A0000DEFEE1883846FFF7CEFE23892A463146BE
:101A10003846FFF72FFFE1883846BDE8F04121E75F
:101A2000FFF728FFE1883846FFF71CFF23892A4685
:101A300031463846FFF7C3FEE1883846BDE8F0413D
:101A4000B1E610B50A884B88CC881A438B882343AB
:101A50001A430B891A434B8989891A430A43A0F810
:101A6000442010BD4FF6FF71818000210180C180AC
:101A70004180017270470021018041808180C180D6
:101A8000018141818181C1817047002101804180B4
:101A900001228280C1800181704700210180418044
:101AA0008180C18001814181818170470029018845
:101AB00002D041F0010101E021F0010101807047F5
:101AC000002930F8441F02D041F4004101E0C1F385
:101AD0000E0101807047002A828901D00A4300E08C
:101AE0008A4382817047818270471143A0F8481071
:101AF0007047002A828901D00A4300E08A4382812C
:101B00007047018921F0070101817047028922F0A5
:101B100070020A430281704700B50346FFF7F6FFE3
:101B2000188940F00700188100BD70B516460D46B3
:101B3000602904464FF0010231460AD0FFF79AFEB1
:101B400029462046FFF7E2FF208940F00700208168
:101B500070BDFFF734FEF3E730B504894FF6FF752B
:101B600005EA03231343E4B20B432343038130BD4F
:101B700010B50446FFF7F0FF208940F07700208180
:101B800010BD10B50446FFF7E7FF208940F4804000
:101B9000208110BD018582827047028822F0700288
:101BA0000A430280704770B50589048B068C25F0C6
:101BB00007050D434FF6FC410C4040F201110C4368
:101BC0004FF6FF7101EA031126F02206114331435B
:101BD00005810483018470BD028B22F070020A43E8
:101BE00002837047028B4FF6FF7322F4E04203EA50
:101BF0000121114301837047828B22F070020A4356
:101C000082837047828B4FF6FF7322F4E04203EA2F
:101C100001211143818370470029018802D041F0DE
:101C2000800101E021F08001018070470029818856
:101C300002D041F0040101E021F0040181807047ED
:101C40000029818802D041F0080101E021F008015B
:101C5000818070470029818802D041F0010101E0B4
:101C600021F0010181807047028B22F008020A43B3
:101C700002837047002C0140003401400004004002
:101C800000080040000C0040028B4FF6FF7322F466
:101C9000006203EA012111430183EAE7828B22F00B
:101CA00008020A438283E4E7828B4FF6FF7322F433
:101CB000006203EA012111438183DAE7028B22F0FB
:101CC00004020A430283D4E7028B4FF6FF7322F427
:101CD000806203EA012111430183CAE7828B22F06B
:101CE00004020A438283C4E7828B4FF6FF7322F417
:101CF000806203EA012111438183BAE7028B22F05B
:101D000080020A430283B4E7028B4FF6FF73C2F3EB
:101D10000E0203EA012111430183AAE7828B22F01C
:101D200080020A438283A4E7828B4FF6FF73C2F3DB
:101D30000E0203EA0121114381839AE7028C22F00B
:101D400002020A43028494E7028C22F008020A434A
:101D500002848EE7028C4FF6FF7322F0200203EA22
:101D600001111143018484E7028C4FF6FF7322F0C6
:101D7000800203EA0111114301847AE7028C4FF6D5
:101D8000FF7322F4007203EA01211143018470E71A
:101D9000028C4FF6FF7322F4006203EA0121114323
:101DA000018466E7028C4FF6FF7322F4005203EAC7
:101DB0000131114301845CE710B50123048C8B4091
:101DC0009C430484038C8A401343038410BD10B5E4
:101DD0000423048C8B409C430484038C8A4013436B
:101DE000038410BD30B50124058C00F118038C402C
:101DF000A543058489B108290FD0091FC1F34E00FE
:101E00001844016821F4E041016001684FF6FF7356
:101E100003EA02221143016030BD03EB5100016867
:101E200021F0700101600168F4E70029018802D007
:101E300041F0020101E021F00201018019E70029CF
:101E4000018802D041F0040101E021F00401018089
:101E50000FE70029818802D041F0800101E021F0E4
:101E60008001818005E7028822F008020280028852
:101E70000A430280FDE6828822F070028280828816
:101E80000A438280F5E6028922F007020281028974
:101E90000A430281EDE6028922F080020281028972
:101EA0000A430281E5E68184E3E68185E1E68186F5
:101EB000DFE60187DDE68187DBE6A0F84010D8E6A3
:101EC000028822F44072028002880A430280D0E62F
:101ED000808ECEE6008FCCE6808FCAE6B0F8400058
:101EE000C7E6808CC5E6008DC3E602460020128A54
:101EF0000A4200D00120BCE6C9430182B9E602468D
:101F00000020138A92890B4202EA010202D0002AC1
:101F100000D00120ADE6C9430182AAE6C44910B54C
:101F200088420AD101218C032046FFF708F9204698
:101F3000BDE810400021FFF702B9BE49884202D136
:101F400001214C0410E0BC49884202D101218C04DB
:101F50000AE0BA49884202D10121CC0404E0B84920
:101F600088420AD101210C052046FFF7F1F82046EE
:101F7000BDE810400021FFF7EBB810BD30B50446B6
:101F8000008A85B00D464CF6FF710840E988014390
:101F90002182A0894EF6F3110840A9882A891143AD
:101FA0006A8902431143A181A08A4FF6FF4108408C
:101FB000A9890143A1826846FFF764F89C488442DE
:101FC00001D1039800E00298A189090400EBC00147
:101FD00001EB0010296801D5490000E08900B0FB41
:101FE000F1F06422B0FBF2F109010B096FF0180562
:101FF0006B4300EB8300A3891D044FF0320306D529
:1020000003EBC000B0FBF2F000F0070005E003EBCB
:102010000010B0FBF2F000F00F000843208105B083
:1020200030BD4FF41651016000218180C1800181D3
:102030000C2242818181704710B5028A4FF2FF0362
:102040001A400B884C8823438C88C9880C4323434F
:102050001343038210BD0021018041808180C18033
:1020600070470029818902D041F4005101E021F438
:1020700000518181704710B5C1F3421301F01F0474
:102080000121A140012B07D0022B07D01430002AD8
:10209000026805D00A4304E00C30F8E71030F6E798
:1020A0008A43026010BD002A828A01D00A4300E000
:1020B0008A4382827047028A22F00F020282028AD9
:1020C0000A4302827047828922F4006282818289F7
:1020D0000A43828170470029818902D041F00201C0
:1020E00001E021F0020181817047028A22F0200282
:1020F0000282028A0A43028270470029018A02D0C2
:1021000041F4804101E021F4804101827047C1F334
:102110000801818070478088C0F30800704781897A
:1021200041F0010181817047028BD2B20283028BA0
:1021300042EA012101837047028B02F47F4202834D
:10214000028B0A43028370470029818A02D041F042
:10215000200101E021F02001818270470029818A5D
:1021600002D041F0100101E021F01001818270479E
:102170000029818A02D041F0080101E021F0080124
:10218000818270470029818902D041F4004101E039
:10219000C1F30E01818170470029818A02D041F488
:1021A000006101E021F4006181827047828A22F09F
:1021B00004028282828A0A43828270470029818ACD
:1021C00002D041F0020101E021F00201818270475A
:1021D0000246002012880A4200D001207047C943FD
:1021E0000180704770B501F01F0501260024C1F37E
:1021F000421306FA05F2012B0FD0022B0FD0838A6F
:102200004FEA11210088134206FA01F600EA06009F
:1022100001D000B10124204670BD8389F0E7038A14
:10222000EEE70A0A01219140C9430180704700008E
:10223000003801400044004000480040004C00408D
:102240000050004000F002FC00F0C6FB02F052FA21
:1022500000F032FC08F0A6FA00F0B4F902F08BFBB3
:1022600001F0DBFA03F02EFC03F0CAFB02F0C8FB1E
:10227000164D174E174CFEF72EFE2068C10608D5E6
:1022800020F01000206002F009FC03F015FD04F0BE
:1022900063F808F09BF901F0F3FD288800F01CFCBE
:1022A00008F039FB307818B903F0C6F803F0E2FD06
:1022B0002068C10704D020F00100206000F00DFA72
:1022C00003F0ACFD03F040FFD5E700004E00002016
:1022D0004C000020140000207047FEE7FEE7FEE7F8
:1022E000FEE77047704710B500F0A1FB4E4B4F4919
:1022F0001868C20602D50A78521C0A700A781E2A8B
:1023000006D900220A7020F01000186048480270B8
:1023100010BD70B5444C474D40F2255620683146FB
:1023200040F0100020602846FFF75CFF002835D001
:1023300031462846FFF775FF2846FFF7ECFE3C497B
:102340003D4B0A7898541E7800203C4D374A012EA8
:1023500004D00E789B5D0A2B0CD013E00B78082B71
:1023600010D90870296841F010012960216821F016
:10237000100105E02368087023F0100343F0080102
:1023800021600AE00B785B1C0B700B78C82B05D919
:102390000870296821F010012960107070BD70B5B7
:1023A000274D40F2255421462846FFF71BFF002801
:1023B00005D021462846BDE87040FFF732BF70BD0A
:1023C00070B5204D40F2255421462846FFF70AFFFC
:1023D000002805D021462846BDE87040FFF721BF00
:1023E00070BD10B501211848FFF795FD0E4908682A
:1023F000420602D440F0200001E020F020000860F6
:1024000010BD0E48016841F0010101600220FEF795
:10241000D8B910B52020FEF7D4F90348016841F07F
:102420008001016010BD0000180000207200002033
:1024300070000020003801407003002014000020CC
:102440000044004000480040000800400CB5002255
:102450004C4800920192016841F4803101604FF4D0
:10246000A063016801F4003101910099491C0091B9
:10247000019911B900999942F3D10168890333D5C3
:102480000121019140490A6842F010020A600A687D
:1024900022F003020A600A6842F002020A60416800
:1024A000416041684160416841F480614160416838
:1024B00021F47C114160416841F4E81141600168F8
:1024C00041F08071016001688901FCD5416821F00B
:1024D00003014160416841F0020141604168C1F37C
:1024E00081010229FAD10CBD01920CBD254810B51D
:1024F000016841F0010101604168244A11404160D6
:102500000168234A11400160016821F480210160C3
:10251000416821F4FE0141604FF41F018160FFF723
:1025200095FF1C494FF00060086010BD154A10B5BA
:102530005068194B10F00C01184803D0042901D041
:10254000082901D0036012E05168536801F470114A
:102550004FF0020413F4803F04EB914102D0536822
:102560009B0301D50E4B00E00B4B594301605168B2
:102570000A4AC1F30311121D515C0268CA4002608D
:1025800010BD000000100240002002400000FFF8D3
:10259000FFFFF6FE08ED00E000127A0020000020A8
:1025A00000093D0008B50B208DF8000003208DF8D0
:1025B00001008DF8020001208DF803006846FDF748
:1025C00040FE08BD2DE9F041754E92B03046FDF752
:1025D0008BFE01214802FEF7A0FD01210846FEF70F
:1025E00093FD0125DFF8BC81ADF8405000248DF843
:1025F000434010A94046FEF78AFB0227ADF8407021
:102600008DF8434010A94046FEF781FB4FEA783829
:102610004046FEF701F8624869464C300090624837
:10262000CDE901046420CDE9030480200590400039
:10263000069080000790202008900002CDE9090450
:102640004046FEF756F801214046FEF77CF801228D
:1026500002214046FEF782F8FFF7A4FF0121304631
:10266000FDF790FE8DF830500B948DF831504FF4FB
:102670006020CDE90D048DF83C700BA93046FDF7C4
:102680004FFE4FF44040FEF7DCFC05230122002101
:102690003046FDF7C5FE0523022201213046FDF735
:1026A000BFFE01213046FDF763FE3046FDF77DFE9B
:1026B0003046FDF786FE34462046FDF77BFE0028B7
:1026C000FAD12046FDF782FE0028FAD101212046EA
:1026D000FDF783FE12B0BDE8F081FCB500258DF852
:1026E0000050314A314902F1C80302F5967416E0F0
:1026F0009DF80000C0079DF800001AD0C00709D05F
:102700009DF8000032F81060487804EB4007401C48
:1027100048703E809DF80000401C8DF800009DF838
:1027200000006428E4D30D704D7000958DF80450BE
:1027300013E032F81060087803EB4007401C087083
:10274000E7E79DF8040033F81000009A1044009069
:102750009DF80400401C8DF804009DF80400322808
:10276000EFD300983222B0FBF2F0488000958DF84C
:1027700004500BE09DF8040034F81000009B18444E
:1027800000909DF80400401C8DF804009DF80400A2
:102790003228EFD30098B0FBF2F08880FCBD000037
:1027A0000024014000080140900000203400002077
:1027B00010B5A02002F001F918B102F006F80020CF
:1027C00010BD012010BD17B581B0044601F0E0FF37
:1027D000A02002F00EF802F076F878B9BDF80800F3
:1027E000C0B202F006F802F06EF838B901F0D0FF7E
:1027F000A12001F0FEFF02F066F8C0B101F0E5FF94
:10280000002004B010BD02F02EF8BDF80010605496
:10281000BDF80010BDF80C00401E814202D002F04D
:1028200074F801E002F08EF8BDF80000401CADF82D
:102830000000BDF80000BDF80C108842E3D301F0A1
:10284000C4FF0120DDE737B584B00546BDF81400AC
:10285000ADF808000024ADF8004040E0BDF80000ED
:1028600018B1BDF80800400722D101F0AEFFADF865
:1028700004400CE001F08CFFA02001F0BAFF02F050
:1028800022F840B1BDF80400401CADF80400BDF8CA
:1028900004006428EED3BDF80400B0F57A7F0FD0B1
:1028A000BDF80800C0B201F0A4FF02F00CF838B97E
:1028B000BDF80000285C01F09CFF02F004F820B194
:1028C00001F083FF002007B030BDBDF80800401CB8
:1028D000ADF80800BDF80000401CADF80000BDF8E0
:1028E0000000BDF818108842B8D301F06EFF012037
:1028F000E9E7C1B00020ADF80001FF216A4607E01A
:10290000BDF800011154BDF80001401CADF80001F4
:10291000BDF80001FF28F3D941B0704703B583B07B
:10292000BDF80C00ADF8040001F04FFF00200AE0F4
:1029300001F02EFFA02001F05CFF01F0C4FF40B1C8
:10294000BDF80000401CADF80000BDF80000642890
:10295000EED3BDF80000B0F57A7F10D0BDF80400CA
:10296000C0B201F046FF01F0AEFF40B99DF8100083
:1029700001F03FFF01F0A7FF08B901F026FF05B005
:102980005DF804EB01F021BF31B501F001FFA0209B
:1029900001F02FFF01F097FF70B99DF8000001F0E2
:1029A00028FF01F090FF38B901F0F2FEA12001F0FC
:1029B00020FF01F088FF18B101F007FF002038BDAB
:1029C00001F051FF034C207001F0BCFF01F0FDFE4F
:1029D000207838BD3E00002019484FF47A71006815
:1029E000B0FBF1F0B0F1807F12D220F07F414FF0C8
:1029F000E020491E4161134AF02182F8141D002194
:102A0000816107210161016941F0010101617047A4
:102A1000FEE701B50C48009901604FF0E0210A691A
:102A200042F001020A6101680029FCD108BD064894
:102A30000168002902D00168491E0160704700004A
:102A4000200000200FE000E04000002010B5FEF75D
:102A500057FA4FF480342046FEF76BFAFEF796FAE9
:102A6000144908700878012822D10020FEF7C6FA20
:102A70000020FEF7D1FAA011FEF7C7FA0220FDF7F9
:102A8000AFFE1020FDF7BCFE4FF4E0112046FEF72C
:102A90009EFA0120FEF7A3FA3920FEF762FA002819
:102AA000FAD00220FEF79EFAFEF7A3FA0828FBD11F
:102AB00010BD00004400002008B54FF4E060ADF800
:102AC000000010208DF8030002208DF802006946F6
:102AD0002F48FEF71CF908BD2DE9F1414FF480673E
:102AE0002B4D81B03E4639462846FEF77CF9AC15A1
:102AF00021462846FEF775F900BF00BF00BF00BFA2
:102B000031462846FEF76DF900BF21462846FEF7FC
:102B100068F900BF00BF31462846FEF764F900207F
:102B20008DF800004FF400784FF6FF7621E0BDF8F5
:102B3000040041460004284602D5FEF752F901E0A0
:102B4000FEF751F921462846FEF74DF900BF00BFB8
:102B500021462846FEF745F900BF00BFBDF8040036
:102B600006EA4000ADF804009DF80000401C8DF816
:102B700000009DF800001028D9D339462846FEF7FA
:102B800030F921462846BDE8FC41FEF72AB900008D
:102B900000080140F8B5FE4C2068000E8DF80000DA
:102BA0009DF800100120FFF7B9FE2068000C8DF899
:102BB00000009DF800100220FFF7B0FE2068000A18
:102BC0008DF800009DF800100320FFF7A7FE206895
:102BD000C1B20420FFF7A2FE6068000E8DF800006D
:102BE0009DF800100520FFF799FE6068000C8DF835
:102BF00000009DF800100620FFF790FE6068000AB4
:102C00008DF800009DF800100720FFF787FE606830
:102C1000C1B20820FFF782FEE068000E8DF80000C8
:102C20009DF800100920FFF779FEE068000C8DF890
:102C300000009DF800100A20FFF770FEE068000A0F
:102C40008DF800009DF800100B20FFF767FEE0688C
:102C5000C1B20C20FFF762FEFEF73DF92069000EBD
:102C60008DF800009DF800100D20FFF757FE206939
:102C7000000C8DF800009DF800100E20FFF74EFEAE
:102C80002069000A8DF800009DF800100F20FFF762
:102C900045FE2069C1B21020FFF740FEBD4D2868F7
:102CA000000E8DF800009DF800101120FFF736FE91
:102CB0002868000C8DF800009DF800101220FFF726
:102CC0002DFE2868000A8DF800009DF800101320E2
:102CD000FFF724FE2868C1B21420FFF71FFE6868C2
:102CE000000E8DF800009DF800101520FFF716FE6D
:102CF0006868000C8DF800009DF800101620FFF7A2
:102D00000DFE6868000A8DF800009DF8001017207D
:102D1000FFF704FE6868C1B21820FFF7FFFDE868FE
:102D2000000E8DF800009DF800101920FFF7F6FD49
:102D3000E868000C8DF800009DF800101A20FFF7DD
:102D4000EDFDE868000A8DF800009DF800101B20DA
:102D5000FFF7E4FDE868C1B21C20FFF7DFFD28693A
:102D6000000E8DF800009DF800101D20FFF7D6FD25
:102D70002869000C8DF800009DF800101E20FFF758
:102D8000CDFD2869000A8DF800009DF800101F2075
:102D9000FFF7C4FD2869C1B22020FFF7BFFD7E4EBA
:102DA00031782120FFF7BAFDFEF795F8A069000EF3
:102DB0008DF800009DF800102220FFF7AFFDA069FC
:102DC000000C8DF800009DF800102320FFF7A6FDF1
:102DD000A069000A8DF800009DF800102420FFF77C
:102DE0009DFDA069C1B22520FFF798FDE069000EA6
:102DF0008DF800009DF800102620FFF78FFDE06998
:102E0000000C8DF800009DF800102720FFF786FDCC
:102E1000E069000A8DF800009DF800102820FFF7F7
:102E20007DFDE069C1B22920FFF778FD606A000EE0
:102E30008DF800009DF800102A20FFF76FFD606AF2
:102E4000000C8DF800009DF800102B20FFF766FDA8
:102E5000606A000A8DF800009DF800102C20FFF732
:102E60005DFD606AC1B22D20FFF758FDFEF733F813
:102E7000A06A000E8DF800009DF800102E20FFF7CC
:102E80004DFDA06A000C8DF800009DF800102F2069
:102E9000FFF744FDA06A000A8DF800009DF80010BD
:102EA0003020FFF73BFDA06AC1B23120FFF736FDAD
:102EB000A869000E8DF800009DF800103220FFF781
:102EC0002DFDA869000C8DF800009DF8001033203E
:102ED000FFF724FDA869000A8DF800009DF8001096
:102EE0003420FFF71BFDA869C1B23520FFF716FD9E
:102EF000E869000E8DF800009DF800103620FFF7FD
:102F00000DFDE869000C8DF800009DF800103720D9
:102F1000FFF704FDE869000A8DF800009DF8001035
:102F20003820FFF7FBFCE869C1B23920FFF7F6FC57
:102F3000FDF7D1FF686A000E8DF800009DF80010C3
:102F40003A20FFF7EBFC686A000C8DF800009DF852
:102F500000103B20FFF7E2FC686A000A8DF80000D1
:102F60009DF800103C20FFF7D9FC686AC1B23D20F3
:102F7000FFF7D4FCA86A000E8DF800009DF8001041
:102F80003E20FFF7CBFCA86A000C8DF8000005E09E
:102F90005002002020020020680000209DF8001050
:102FA0003F20FFF7BBFCA86A000A8DF800009DF8DF
:102FB00000104020FFF7B2FCA86AC1B24120FFF721
:102FC000ADFC71784220FFF7A9FCFDF784FFB178D2
:102FD0004320FFF7A3FCF1784420FFF79FFCA06893
:102FE000000E8DF800009DF800104520FFF796FCBC
:102FF000A068000C8DF800009DF800104620FFF737
:103000008DFCA068000A8DF800009DF80010472094
:10301000FFF784FCA068C1B24820FFF77FFC60691D
:10302000000E8DF800009DF800104920FFF776FC97
:103030006069000C8DF800009DF800104A20FFF731
:103040006DFC6069000A8DF800009DF800104B20AF
:10305000FFF764FC6069C1B24C20FFF75FFCA86811
:10306000000E8DF800009DF800104D20FFF756FC73
:10307000A868000C8DF800009DF800104E20FFF7A6
:103080004DFCA868000A8DF800009DF800104F2044
:10309000FFF744FCA868C1B25020FFF73FFC686905
:1030A000000E8DF800009DF800105120FFF736FC4F
:1030B0006869000C8DF800009DF800105220FFF7A1
:1030C0002DFC6869000A8DF800009DF8001053205F
:1030D000FFF724FC6869C1B25420FFF71FFCFDF71D
:1030E000FAFE206A000E8DF800009DF800105520B1
:1030F000FFF714FC206A000C8DF800009DF800100A
:103100005620FFF70BFC206A000A8DF800009DF89E
:1031100000105720FFF702FC206AC1B25820FFF7C9
:10312000FDFBE06A000E8DF800009DF800105920AC
:10313000FFF7F4FBE06A000C8DF800009DF800102A
:103140005A20FFF7EBFBE06A000A8DF800009DF8BB
:1031500000105B20FFF7E2FBE06AC1B25C20FFF7E2
:10316000DDFBFDF7B8FE286A000E8DF800009DF823
:1031700000105D20FFF7D2FB286A000C8DF80000DC
:103180009DF800105E20FFF7C9FB286A000A8DF841
:1031900000009DF800105F20FFF7C0FB286AC1B255
:1031A0006020FFF7BBFBE86A000E8DF800009DF879
:1031B00000106120FFF7B2FBE86A000C8DF80000F8
:1031C0009DF800106220FFF7A9FBE86A000A8DF85D
:1031D00000009DF800106320FFF7A0FBE86AC1B271
:1031E0006420FFF79BFB31796520FFF797FB71792E
:1031F0006620FFF793FBBDE8F840FDF76CBE10B505
:103200006B20FFF7C1FBFE4C44F8340F206800022E
:1032100020606C20FFF7B8FB21680844206020681C
:10322000000220606D20FFF7AFFB2168084420609A
:103230002068000220606E20FFF7A6FB216808448A
:1032400020606F20FFF7A0FB606060680002606094
:103250007020FFF799FB61680844606060680002B5
:1032600060607120FFF790FB6168084460606068EF
:10327000000260607220FFF787FB616808446060AD
:103280007320FFF781FBA060A0680002A06074209B
:10329000FFF77AFBA1680844A060A0680002A06064
:1032A0007520FFF771FBA1680844A060A0680002C8
:1032B000A0607620FFF768FBA1680844A060772033
:1032C000FFF762FBE060E0680002E0607820FFF753
:1032D0005BFBE1680844E060E0680002E0607920A0
:1032E000FFF752FBE1680844E060E0680002E0603C
:1032F0007A20FFF749FBE1680844E0607B20FFF794
:1033000043FB20612069000220617C20FFF73CFB29
:103310002169084420612069000220617D20FFF7B7
:1033200033FB2169084420612069000220617E206E
:10333000FFF72AFB2169084420617F20FFF724FB67
:1033400060616069000260618020FFF71DFB6169B8
:10335000084460616069000260618120FFF714FB2E
:103360006169084460616069000260618220FFF762
:103370000BFB6169084460618320FFF705FBA061D6
:10338000A0690002A0618420FFF7FEFAA169084449
:10339000A061A0690002A0618520FFF7F5FAA1698C
:1033A0000844A061A0690002A0618620FFF7ECFA42
:1033B000A1690844A0618720FFF7E6FAE061E069AF
:1033C0000002E0618820FFF7DFFAE1690844E0616C
:1033D000E0690002E0618920FFF7D6FAE16908445C
:1033E000E061E0690002E0618A20FFF7CDFAE1695F
:1033F0000844E0618B20FFF7C7FA2062206A0002D0
:1034000020628C20FFF7C0FA216A08442062206AFB
:10341000000220628D20FFF7B7FA216A084420627B
:10342000206A000220628E20FFF7AEFA216A08446B
:1034300020628F20FFF7A8FA6062606A0002606273
:103440009020FFF7A1FA616A08446062606A000296
:1034500060629120FFF798FA616A08446062606ACE
:10346000000260629220FFF78FFA616A084460628E
:103470009320FFF789FAA062A06A0002A06294205C
:10348000FFF782FAA16A0844A062A06A0002A06263
:103490009520FFF779FAA16A0844A062A06A0002A9
:1034A000A0629620FFF770FAA16A0844A0629720F4
:1034B000FFF76AFAE062E06A0002E0629820FFF734
:1034C00063FAE16A0844E062E06A0002E06299207F
:1034D000FFF75AFAE16A0844E062E06A0002E0623B
:1034E0009A20FFF751FAE16A0844E0629B20FFF757
:1034F0004BFA2063206B000220639C20FFF744FA04
:10350000216B08442063206B000220639D20FFF79D
:103510003BFA216B08442063206B000220639E204D
:10352000FFF732FA216B084420639F20FFF72CFA43
:103530006063606B00026063A020FFF725FA616B97
:1035400008446063606B00026063A120FFF71CFA0F
:10355000616B08446063606B00026063A220FFF748
:1035600013FA616B08446063A320FFF70DFAA063B0
:10357000A06B0002A063A420FFF706FAA16B084429
:10358000A063A06B0002A063A520FFF7FDF9A16B6B
:103590000844A063A06B0002A063A620FFF7F4F923
:1035A000A16B0844A063A720FFF7EEF9E063E06B8E
:1035B0000002E063A820FFF7E7F9E16B0844E0634D
:1035C000E06B0002E063A920FFF7DEF9E16B08443D
:1035D000E063E06B0002E063AA20FFF7D5F9E16B3E
:1035E0000844E063AB20FFF7CFF92064206C0002B1
:1035F0002064AC20FFF7C8F9216C0844206401E086
:1036000080020020206C00022064AD20FFF7BCF98E
:10361000216C08442064206C00022064AE20FFF777
:10362000B3F9216C08442064AF20FFF7ADF9606462
:10363000606C00026064B020FFF7A6F9616C08447A
:103640006064606C00026064B120FFF79DF9616CFA
:1036500008446064606C00026064B220FFF794F973
:10366000616C08446064B320FFF78EF9A064A06C1D
:103670000002A064B420FFF787F9A16C0844A0649D
:10368000A06C0002A064B520FFF77EF9A16C08448D
:10369000A064A06C0002A064B620FFF775F9A16CCD
:1036A0000844A064B720FFF76FF9E064E06C000203
:1036B000E064B820FFF768F9E16C0844E064E06C6E
:1036C0000002E064B920FFF75FF9E16C0844E064B0
:1036D000E06C0002E064BA20FFF756F9E16C0844A0
:1036E000E064BB20FFF750F92065206D00022065E3
:1036F000BC20FFF749F9216D08442065206D0002C8
:103700002065BD20FFF740F9216D08442065206D3C
:1037100000022065BE20FFF737F9216D08442065BF
:10372000BF20FFF731F96065606D00026065C02061
:10373000FFF72AF9616D08446065606D00026065FD
:10374000C120FFF721F9616D08446065606D0002DA
:103750006065C220FFF718F9616D08446065C320F9
:10376000FFF712F9A065A06D0002A065C420FFF765
:103770000BF9A16D0844A065A06D0002A065C520ED
:10378000FFF702F9A16D0844A065A06D0002A065D5
:10379000C620FFF7F9F8A16D0844A065C720FFF720
:1037A000F3F8E065E06D0002E065C820FFF7ECF893
:1037B000E16D0844E065E06D0002E065C920FFF7B7
:1037C000E3F8E16D0844E065E06D0002E065CA20C1
:1037D000FFF7DAF8E16D0844E065CB20FFF7D4F895
:1037E0002066206E00022066CC20FFF7CDF8216E07
:1037F00008442066206E00022066CD20FFF7C4F842
:10380000216E08442066206E00022066CE20FFF75D
:10381000BBF8216E0844206610BD70B50120FFF78B
:10382000B3F8FE4D28600120FFF7AEF82860286845
:10383000000228600220FFF7A7F8296808442860E2
:103840002868000228600320FFF79EF829680844D2
:1038500028602868000228600420FFF795F829688E
:10386000084428600520FFF78FF868606868000248
:1038700068600620FFF788F869680844686068682F
:10388000000268600720FFF77FF8696808446860F5
:103890006868000268600820FFF776F869680844E5
:1038A00068600920FFF770F8E860E8680002E860E7
:1038B0000A20FFF769F8E9680844E860E868000250
:1038C000E8600B20FFF760F8E9680844E860E86802
:1038D0000002E8600C20FFF757F8E9680844E86048
:1038E0000D20FFF751F828612869000228610E2099
:1038F000FFF74AF82969084428612869000228610D
:103900000F20FFF741F8296908442861286900025F
:1039100028611020FFF738F8296908442861112030
:10392000FFF732F8BE4C20602068000220601220B1
:10393000FFF72AF821680844206020680002206010
:103940001320FFF721F82168084420602068000256
:1039500020601420FFF718F8216808442060152023
:10396000FFF712F860606068000260601620FFF7E1
:103970000BF86168084460606068000260601720AE
:10398000FFF702F8616808446060606800026060E8
:103990001820FEF7F9FF6168084460601920FEF7FF
:1039A000F3FFE060E0680002E0601A20FEF7ECFF41
:1039B000E1680844E060E0680002E0601B20FEF778
:1039C000E3FFE1680844E060E0680002E0601C207A
:1039D000FEF7DAFFE1680844E0601D20FEF7D4FF3F
:1039E00020612069000220611E20FEF7CDFF2169C1
:1039F000084420612069000220611F20FEF7C4FFF7
:103A00002169084420612069000220612020FEF71E
:103A1000BBFF2169084420612120FEF7B5FF814EDC
:103A200030702220FEF7B0FFA861A8690002A861EB
:103A30002320FEF7A9FFA9690844A861A86900022C
:103A4000A8612420FEF7A0FFA9690844A861A8691D
:103A50000002A8612520FEF797FFA9690844A86124
:103A60002620FEF791FFE861E8690002E86127205F
:103A7000FEF78AFFE9690844E861E8690002E86145
:103A80002820FEF781FFE9690844E861E86900023F
:103A9000E8612920FEF778FFE9690844E8612A20F7
:103AA000FEF772FF6862686A000268622B20FEF708
:103AB0006BFF696A08446862686A000268622C20C9
:103AC000FEF762FF696A08446862686A0002686219
:103AD0002D20FEF759FF696A084468622E20FEF720
:103AE00053FFA862A86A0002A8622F20FEF74CFFCD
:103AF000A96A0844A862A86A0002A8623020FEF7FA
:103B000043FFA96A0844A862A86A0002A86231209B
:103B1000FEF73AFFA96A0844A8623220FEF734FF94
:103B2000A061A0690002A0613320FEF72DFFA1690A
:103B30000844A061A0690002A0613420FEF724FFC0
:103B4000A1690844A061A0690002A0613520FEF7C8
:103B50001BFFA1690844A0613620FEF715FFE06154
:103B6000E0690002E0613720FEF70EFFE1690844DA
:103B7000E061E0690002E0613820FEF705FFE169DD
:103B80000844E061E0690002E0613920FEF7FCFED4
:103B9000E1690844E0613A20FEF7F6FE6062606A7F
:103BA000000260623B20FEF7EFFE616A084460623B
:103BB000606A000260623C20FEF7E6FE616A08442B
:103BC0006062606A000260623D20FEF7DDFE616AAD
:103BD000084460623E20FEF7D7FEA062A06A0002A1
:103BE000A0623F20FEF7D0FEA16A0844A062A06A4E
:103BF0000002A0624020FEF7C7FEA16A0844A0624E
:103C0000A06A0002A0624120FEF7BEFEA16A08443D
:103C1000A0624220FEF7B8FE707005E0500200205E
:103C200020020020680000204320FEF7ADFEB070A7
:103C30004420FEF7A9FEF0704520FEF7A5FEA8601F
:103C4000A8680002A8604620FEF79EFEA968084406
:103C5000A860A8680002A8604720FEF795FEA96842
:103C60000844A860A8680002A8604820FEF78CFEFF
:103C7000A9680844A8604920FEF786FE6861686963
:103C8000000268614A20FEF77FFE696908446861A6
:103C90006869000268614B20FEF776FE6969084496
:103CA00068616869000268614C20FEF76DFE696911
:103CB000084468614D20FEF767FEA060A06800021E
:103CC000A0604E20FEF760FEA1680844A060A068D6
:103CD0000002A0604F20FEF757FEA1680844A060D4
:103CE000A0680002A0605020FEF74EFEA1680844C4
:103CF000A0605120FEF748FE6061606900026061CB
:103D00005220FEF741FE616908446061606900026B
:103D100060615320FEF738FE6169084460616069A4
:103D2000000260615420FEF72FFE61690844606163
:103D30005520FEF729FE2862286A000228625620D4
:103D4000FEF722FE296A08442862286A00022862D7
:103D50005720FEF719FE296A08442862286A0002E3
:103D600028625820FEF710FE296A0844286259206C
:103D7000FEF70AFEE862E86A0002E8625A20FEF7EF
:103D800003FEE96A0844E862E86A0002E8625B2030
:103D9000FEF7FAFDE96A0844E862E86A0002E862B0
:103DA0005C20FEF7F1FDE96A0844E8625D20FEF759
:103DB000EBFD2062206A000220625E20FEF7E4FD37
:103DC000216A08442062206A000220625F20FEF718
:103DD000DBFD216A08442062206A00022062602024
:103DE000FEF7D2FD216A084420626120FEF7CCFD77
:103DF000E062E06A0002E0626220FEF7C5FDE16A6F
:103E00000844E062E06A0002E0626320FEF7BCFD65
:103E1000E16A0844E062E06A0002E0626420FEF7C2
:103E2000B3FDE16A0844E0626520FEF7ADFD307144
:103E30006620FEF7A9FD7071FFF7E1F9F948426CC1
:103E40004FF416518A4201D1416470BD436C4FF466
:103E50009642934212D0436C4DF6C02293420DD04D
:103E6000436C4FF46142934208D0436C520093423A
:103E700004D0436C4FF4FA329342E5D1426470BDF2
:103E800038B5E9490868C2077BD020F00100086016
:103E9000E64800788DF800009DF80000E14C0D38F0
:103EA0001F286ED2DFE800F0102F4E6E8DACCBFCD9
:103EB000FBFAF9F8F7F6F5F4F3F2F1F0EFEEEDECCA
:103EC000EBEAE9E8E7E6E500606B000E8DF800003C
:103ED0009DF800106B20FEF721FD606B000C8DF843
:103EE00000009DF800106C20FEF718FD606B000AC2
:103EF0008DF800009DF800106D20FEF70FFD606B3F
:103F0000C1B26E20CDE3A06B000E8DF800009DF8CD
:103F100000106F20FEF702FDA06B000C8DF8000072
:103F20009DF800107020FEF7F9FCA06B000A8DF8D8
:103F300000009DF800107120FEF7F0FCA06BC1B2EC
:103F40007220AEE3E06B000E8DF800009DF80010CB
:103F50007320FEF7E3FCE06B000C8DF800009DF889
:103F600000107420FEF7DAFCE06B000A8DF8000008
:103F70009DF800107520FEF7D1FCE06BC1B27620F1
:103F80008FE392E3206C000E8DF800009DF8001086
:103F90007720FEF7C3FC206C000C8DF800009DF824
:103FA00000107820FEF7BAFC206C000A8DF80000A3
:103FB0009DF800107920FEF7B1FC206CC1B27A2088
:103FC0006FE3606C000E8DF800009DF800107B2000
:103FD000FEF7A4FC606C000C8DF800009DF800104A
:103FE0007C20FEF79BFC606C000A8DF800009DF8B9
:103FF00000107D20FEF792FC606CC1B27E2050E381
:10400000A06C000E8DF800009DF800107F20FEF7D8
:1040100085FCA06C000C8DF800009DF8001080203D
:10402000FEF77CFCA06C000A8DF800009DF80010E3
:104030008120FEF773FCA06CC1B2822031E3E06CFA
:10404000000E8DF800009DF800108320FEF766FC3E
:10405000E06C000C8DF800009DF800108420FEF745
:104060005DFCE06C000A8DF800009DF800108520D2
:1040700017E0F7E2D6E2B5E294E273E252E231E20F
:1040800010E2EFE1CEE1ADE18CE16CE14CE12CE13D
:104090000CE1ECE0CCE0A5E085E065E045E025E062
:1040A00005E0FEF73BFCE06CC1B28620F9E2206D32
:1040B000000E8DF800009DF800108720FEF72EFC02
:1040C000206D000C8DF800009DF800108820FEF790
:1040D00025FC206D000A8DF800009DF80010892055
:1040E000FEF71CFC206DC1B28A20DAE2606D000E82
:1040F0008DF800009DF800108B20FEF70FFC606D1E
:10410000000C8DF800009DF800108C20FEF706FCD6
:10411000606D000A8DF800009DF800108D20FEF7FC
:10412000FDFB606DC1B28E20BBE2A06D000E8DF86C
:1041300000009DF800108F20FEF7F0FBA06D000C32
:104140008DF800009DF800109020FEF7E7FBA06DB1
:10415000000A8DF800009DF800109120FEF7DEFBAC
:10416000A06DC1B292209CE2E06D000E8DF80000BF
:104170009DF800109320FEF7D1FBE06D000C8DF848
:1041800000009DF800109420FEF7C8FBE06D000AC7
:104190008DF800009DF800109520FEF7BFFBE06D44
:1041A000C1B296207DE2206E000E8DF800009DF8D1
:1041B00000109720FEF7B2FB206E000C8DF8000077
:1041C0009DF800109820FEF7A9FB206E000A8DF8DC
:1041D00000009DF800109920FEF7A0FB206EC1B2F0
:1041E0009A205EE2606E000E8DF800009DF80010CF
:1041F0009B20FEF793FB606E000C8DF800009DF88D
:1042000000109C20FEF78AFB606E000A8DF800000B
:104210009DF800109D20FEF781FB606EC1B29E20CC
:104220003FE20000800200201C0000208C000020E3
:10423000A06E000E8DF800009DF800109F20FEF784
:104240006DFBA06E000C8DF800009DF80010A02002
:10425000FEF764FBA06E000A8DF800009DF80010C8
:10426000A120FEF75BFBA06EC1B2A22019E2E06EB6
:10427000000E8DF800009DF80010A320FEF74EFB05
:10428000E06E000C8DF800009DF80010A420FEF7F1
:1042900045FBE06E000A8DF800009DF80010A52097
:1042A000FEF73CFBE06EC1B2A620FAE1206F000EE3
:1042B0008DF800009DF80010A720FEF72FFB206F5F
:1042C000000C8DF800009DF80010A820FEF726FBDA
:1042D000206F000A8DF800009DF80010A920FEF75D
:1042E0001DFB206FC1B2AA20DBE1606F000E8DF8CC
:1042F00000009DF80010AB20FEF710FB606F000C73
:104300008DF800009DF80010AC20FEF707FB606FF1
:10431000000A8DF800009DF80010AD20FEF7FEFAAF
:10432000606FC1B2AE20BCE1A06F000E8DF800003E
:104330009DF80010AF20FEF7F1FAA06F000C8DF889
:1043400000009DF80010B020FEF7E8FAA06F000A08
:104350008DF800009DF80010B120FEF7DFFAA06F85
:10436000C1B2B2209DE1E06F000E8DF800009DF813
:104370000010B320FEF7D2FAE06F000C8DF80000B9
:104380009DF80010B420FEF7C9FAE06F000A8DF81E
:1043900000009DF80010B520FEF7C0FAE06FC1B232
:1043A000B6207EE154F8800F000E8DF800009DF8D5
:1043B0000010B720FEF7B2FA2068000C8DF800005C
:1043C0009DF80010B820FEF7A9FA2068000A8DF8C1
:1043D00000009DF80010B920FEF7A0FA2068C1B2D5
:1043E000BA205EE154F8840F000E8DF800009DF8AD
:1043F0000010BB20FEF792FA2068000C8DF8000038
:104400009DF80010BC20FEF789FA2068000A8DF89C
:1044100000009DF80010BD20FEF780FA2068C1B2B0
:10442000BE203EE154F8880F000E8DF800009DF884
:104430000010BF20FEF772FA2068000C8DF8000013
:104440009DF80010C020FEF769FA2068000A8DF878
:1044500000009DF80010C120FEF760FA2068C1B28C
:10446000C2201EE154F88C0F000E8DF800009DF85C
:104470000010C320FEF752FA2068000C8DF80000EF
:104480009DF80010C420FEF749FA2068000A8DF854
:1044900000009DF80010C520FEF740FA2068C1B268
:1044A000C620FEE054F8900F000E8DF800009DF835
:1044B0000010C720FEF732FA2068000C8DF80000CB
:1044C0009DF80010C820FEF729FA2068000A8DF830
:1044D00000009DF80010C920FEF720FA2068C1B244
:1044E000CA20DEE054F8940F000E8DF800009DF80D
:1044F0000010CB20FEF712FA2068000C8DF80000A7
:104500009DF80010CC20FEF709FA2068000A8DF80B
:1045100000009DF80010CD20FEF700FA2068C1B21F
:10452000CE20BEE054F8980F000E8DF800009DF8E4
:104530000010CF20FEF7F2F92068000C8DF8000083
:104540009DF80010D020FEF7E9F92068000A8DF8E8
:1045500000009DF80010D120FEF7E0F92068C1B2FC
:10456000D2209EE054F89C0F000E8DF800009DF8BC
:104570000010D320FEF7D2F92068000C8DF800005F
:104580009DF80010D420FEF7C9F92068000A8DF8C4
:1045900000009DF80010D520FEF7C0F92068C1B2D8
:1045A000D6207EE054F8A00F000E8DF800009DF894
:1045B0000010D720FEF7B2F92068000C8DF800003B
:1045C0009DF80010D820FEF7A9F92068000A8DF8A0
:1045D00000009DF80010D920FEF7A0F92068C1B2B4
:1045E000DA205EE054F8A40F000E8DF800009DF86C
:1045F0000010DB20FEF792F92068000C8DF8000017
:104600009DF80010DC20FEF789F92068000A8DF87B
:1046100000009DF80010DD20FEF780F92068C1B28F
:10462000DE203EE054F8A80F000E8DF800009DF843
:104630000010DF20FEF772F92068000C8DF80000F2
:104640009DF80010E020FEF769F92068000A8DF857
:1046500000009DF80010E120FEF760F92068C1B26B
:10466000E2201EE054F8AC0F000E8DF800009DF81B
:104670000010E320FEF752F92068000C8DF80000CE
:104680009DF80010E420FEF749F92068000A8DF833
:1046900000009DF80010E520FEF740F92068C1B247
:1046A000E620BDE83840FEF739B938BD10B57220B4
:1046B000FEF76AF90E4C206020680002206073202B
:1046C000FEF762F92168084420602068000220603B
:1046D0007420FEF759F92168084420602068000220
:1046E00020607520FEF750F921680844206010BD55
:1046F00048000020F8B5214E3046FCF7B1FA204FB3
:104700003846FCF7ADFA1F48FCF7AAFAFCF7F4FAB2
:1047100001211C20FCF701FD01210846FCF7FDFCEE
:1047200001211948FCF77EFB01211848FCF77AFBB0
:104730004FF40760ADF8000010248DF80340032506
:104740008DF8025069463046FCF7E1FA8020ADF85A
:10475000000048208DF8030069463046FCF7D7FA80
:1047600040F20310ADF800008DF803408DF80250C0
:1047700069463846FCF7CBFAF8BD00000008014056
:10478000000C014000100140000430000002300025
:1047900070B59A4D4FF4804421462846FCF721FB22
:1047A000660031462846FCF71CFB00F019F921464B
:1047B0002846FCF718FB00F013F931462846FCF7B1
:1047C00012FBBDE8704000F00BB970B58B4D4FF493
:1047D000804421462846FCF706FB61002846FCF78A
:1047E00000FB00F0FDF821462846BDE87040FCF7CC
:1047F000F8BA71B581B000208DF800004FF4804602
:104800007E4C75002AE09DF80400314600062046E3
:1048100002D5FCF7E6FA01E0FCF7E5FA00F0E0F873
:1048200029462046FCF7DDFA00F0DAF82946204652
:10483000FCF7D9FA9DF80010072903D1314620462C
:10484000FCF7CFFA9DF8040040008DF8040000F05A
:10485000C7F89DF80020521C8DF800209DF800003C
:104860000828D0D37CBD7CB500208DF800008DF8E1
:1048700004004FF40045614C6E101DE040008DF8BF
:10488000000029462046FCF7ACFA00F0A9F83146B2
:104890002046FCF792FA20B19DF80000401C8DF8EC
:1048A000000029462046FCF79EFA00F099F89DF892
:1048B0000400401C8DF804009DF8040008289DF8B1
:1048C0000000DBD37CBDF8B54C4C4FF4804631463C
:1048D0002046FCF786FA00F083F87500294620464A
:1048E000FCF77FFA00F07CF831462046FCF765FAC9
:1048F00000B101208DF8000029462046FCF773FA2C
:1049000000F06EF89DF80000F8BD70B53B4D4FF417
:10491000804421462846FCF766FA00F061F86600FC
:1049200031462846FCF75DFA00F05AF83146284631
:10493000FCF759FA00F054F821462846BDE87040CB
:10494000FCF74FBA70B52D4C4FF480412046FCF770
:1049500048FA00F045F84FF4004529462046FCF798
:1049600040FA00F03DF829462046FCF73CFABDE845
:10497000704000F035B8F8B501211020FCF7C4FBF9
:104980004FF48040ADF8000014241C4E8DF8034015
:1049900002258DF8025069463046FCF7B8F9A803A5
:1049A000ADF800008DF803408DF80250694630469E
:1049B000FCF7ADF9FFF709FFF8BD01B582B0FFF7CD
:1049C000DAFFFFF7E5FE9DF80800FFF712FFFFF79B
:1049D0007AFF8DF80000FFF7F8FE9DF800000EBD8D
:1049E00008B500208DF800009DF800000A2803D2C9
:1049F0009DF80000401CF5E708BD000000100140D4
:104A000010B545F25550FCF75DFA0320FCF75DFA4E
:104A1000FF20FCF75DFAFCF75EFABDE81040FCF7FA
:104A20005FBA000013B582B04FF6FF71ADF8001009
:104A30009DF80C1011B901218DF80C1000234AF2D9
:104A400001029DF80C104C1E8DF80C4022D3017809
:104A5000BDF800406140ADF800108DF8043013E05F
:104A6000BDF80010C907BDF800104FEA510104D08D
:104A7000ADF80010BDF800105140ADF800109DF8E1
:104A80000410491C8DF804109DF804100829E7D380
:104A9000401CD6E7BDF8000004B010BD2DE9FF476B
:104AA000FD4C2078FD4E316CFD4DDFF8F8A3FE4F34
:104AB0004FF00009884202D0207800287BD160782E
:104AC000032878D1E079A17900EB0120ADF804004A
:104AD0000621F148FFF7A6FFBDF80410884203D075
:104AE000BDF80400002866D1E078FF2863D2E078A2
:104AF00061790844FF285ED2306C2870032068700A
:104B000060798000A870484631E09DF80000800779
:104B100013D09DF8000000F00300012816D09DF886
:104B2000000000F003000228E0789DF8001000EB80
:104B3000910056F8200012D012E0E0789DF80010A5
:104B400000EB910056F82000000E09E0E0789DF897
:104B5000001000EB910056F82000000C00E0000A65
:104B60009DF800102944C8709DF80000401C8DF885
:104B70000000A8789DF800108842C6D8A878C01C0C
:104B8000C1B2C748FFF74EFFADF80400BDF80400FE
:104B9000AA78010AC248C01C1154BDF80400AA78C2
:104BA000BF49091D5054A878401D8AF80000386894
:104BB00040F0080038602078316C884202D02078BC
:104BC00000287DD1CC468DF80C906078062848D11D
:104BD000E078FF2845D2607A217A00EB0120ADF819
:104BE00000000821AC48FFF71DFFBDF80010884207
:104BF00002D0BDF80000A0BB6079217900EB012054
:104C00000090E079A17900EB0120ADF80800E07890
:104C10008DF80400BDF80800009900EB01409DF8F4
:104C20000410009046F821002078316C884218D199
:104C30008DF80CC00AE09DF80C00205C9DF80C106B
:104C400068549DF80C00401C8DF80C009DF80C0079
:104C50000A28F0D30A218AF80010386840F00800CA
:104C600038606078102879D1A079A04604EB8000E4
:104C7000007AA17904EB8101C97900EB0120ADF83C
:104C80000000A079072101EB8000C1B28248FFF744
:104C9000C9FEBDF80010884260D18DF804C02EE036
:104CA0009DF8040008EB8000007A9DF8041008EBE2
:104CB0008101C97900EB012000909DF8040000E01B
:104CC0004CE008EB8000807A9DF8041008EB81012D
:104CD000497A00EB0120ADF80800BDF80800009902
:104CE00000EB0140009098F803109DF80420114457
:104CF00046F821009DF80400401C8DF8040098F847
:104D000006009DF804108842CAD898F80000316C5B
:104D1000884223D1306C28701020687098F8020007
:104D2000A87098F80300E87098F80400287198F8C3
:104D30000500687106215A48FFF774FEADF80000BF
:104D4000BDF80000000AA871BDF80000E871082154
:104D50008AF80010386840F0080038602078012890
:104D60007ED1A078A5287BD1607A217A00EB012042
:104D7000ADF8000008214848FFF754FEBDF80010C8
:104D800088426DD16078DFF82481494E012811D125
:104D9000B8F8000070607088B0602079E17800EBAE
:104DA0000120F060F0686179000400EB0120A17936
:104DB0000844F0606078A246384F3D4C603F1C3498
:104DC00007F13005022875D1B8F80000306170880D
:104DD00070619AF804109AF8032001EB0221B16186
:104DE000B1699AF8052009049AF8060001EB02213E
:104DF0000844B061B0690290F168401A0003029063
:104E000030697168401A0390DDE90201B0FBF1F0EE
:104E100002903860B06900030290306901903868F0
:104E2000019948430190DDE90110884208D2084603
:104E30000299401A01902860207840F0010005E0B6
:104E4000401A02902860207820F001002070B0699C
:104E50000290F168401A000302907069B16800E0A6
:104E6000E8E2401A40000390DDE90201B0FBF1F0F6
:104E70000290B861B06900030290B869019071694D
:104E8000484340000190DDE90110884218D20846ED
:104E90000299401A01900EE0700300208002002069
:104EA0003804002071000020140000203C00002085
:104EB0004C0000200FE0A861207840F0040005E0DD
:104EC000401A0290A861207820F004002070FDF7BD
:104ED00061FE86F800909AF8011050460C2911D115
:104EE000B8F8001071607188B1600179C27801EB87
:104EF0000221F160F1684279090401EB0221827913
:104F00001144F1604078042872D1B8F80000306193
:104F1000708870619AF804109AF8032001EB02215E
:104F2000B161B1699AF8052009049AF8060001EB0D
:104F300002210844B061B0690290F168401A000390
:104F4000029030697168401A0390DDE90201B0FBFC
:104F5000F1F002907860B06900030290306901902E
:104F60007868019948430190DDE90110884208D230
:104F700008460299401A01906860607840F001008C
:104F800005E0401A02906860607820F001006070CF
:104F9000B0690290F168401A000302907069B1682C
:104FA000401A40000390DDE90201B0FBF1F00290ED
:104FB000F861B06900030290F86901907169484393
:104FC00040000190DDE90110884206D2081A0190E4
:104FD000E861607840F0040007E001460198081A93
:104FE0000290E861607820F004006070FDF7D2FD67
:104FF0009AF8010005287AD1C6F80490C6F80890FE
:10500000C6F80C90B8F8000070607088B0609AF82C
:1050100004109AF8032001EB0221F160F1689AF87C
:10502000052009049AF8060001EB02210844F0600B
:10503000F0680290B169401A00030290716830690B
:10504000081A02990390B1FBF0F00290B860F06882
:105050000003029070680190B8680199484301907C
:10506000DDE90110884208D208460299401A0190F1
:10507000A860207940F0010005E0401A0290A86085
:10508000207920F001002071F0680290B169401A87
:1050900000030290B0687169401A40000390DDE996
:1050A0000201B0FBF1F002903862F0680003029058
:1050B000386A0190B168484340000190DDE9011071
:1050C000884209D208460299401A01902862207944
:1050D00040F0040006E00AE0401A029028622079BD
:1050E00020F004002071FDF755FD86F800909AF835
:1050F00001105046DFF83C87062911D1B8F800109E
:1051000071607188B1600179C27801EB0221F160B0
:10511000F1684279090401EB022182791144F160BE
:105120004078072874D1B8F8000030617088706149
:105130009AF804109AF8032001EB0221B161B169D9
:105140009AF8052009049AF8060001EB02210844A8
:10515000B061B0690290F168401A000302903069B2
:105160007168401A0390DDE90201B0FBF1F0029092
:10517000F860B0690003029030690190F868019905
:1051800048430190DDE90110884206D2081A0190D7
:10519000E860A07840F0010007E001460198081A95
:1051A0000290E860A07820F00100A070B069029041
:1051B000F168401A000302907069B168401A40001B
:1051C0000390DDE90201B0FBF1F002907862B06972
:1051D00000030290786A0190716948434000019091
:1051E000DDE90110884208D208460299401A019070
:1051F0006862A07840F0040005E0401A02906862FE
:10520000A07820F00400A070FDF7C4FC86F80090A0
:105210009AF801105046082911D1B8F800107160B1
:105220007188B1600179C27801EB0221F160F16807
:105230004279090401EB022182791144F16040783E
:10524000092872D1B8F800003061708870619AF84E
:1052500004109AF8032001EB0221B161B1699AF8B8
:10526000052009049AF8060001EB02210844B06108
:10527000B0690290F168401A0003029030697168C9
:10528000401A0390DDE90201B0FBF1F002903861B1
:10529000B069000302903069019038690199484370
:1052A0000190DDE90110884208D208460299401AAF
:1052B00001902861E07840F0010005E0401A02907A
:1052C0002861E07820F00100E070B0690290F16898
:1052D000401A000302907069B168401A40000390C0
:1052E000DDE90201B0FBF1F00290B862B0690003A1
:1052F0000290B86A01907169484340000190DDE96D
:105300000110884208D208460299401A0190A8620A
:10531000E07840F0040005E0401A0290A862E078CE
:1053200020F00400E070FDF735FC9AF801000A282F
:1053300074D1B8F8000070607088B0609AF80410FA
:105340009AF8032001EB0221F160F1689AF8052038
:1053500009049AF8060001EB02210844F060F068A5
:105360000290B169401A0003029070683169401AD6
:105370000390DDE90201B0FBF1F002907861F06882
:105380000003029070680190786901994843019088
:10539000DDE90110884208D208460299401A0190BE
:1053A0006861607940F0010005E0401A0290686190
:1053B000607920F001006071F0680290B169401AD4
:1053C00000030290B0687169401A40000390DDE963
:1053D0000201B0FBF1F00290F862F0680003029065
:1053E000F86A0190B168484340000190DDE901107E
:1053F000884208D208460299401A0190E862607912
:1054000040F0040005E0401A0290E862607920F064
:1054100004006071FDF7BEFB86F800909AF8011059
:1054200050460B2906D1012131708179407901EB79
:1054300000207080BDE8FF872DE9F847FE4DEF6B37
:10544000DFF8F8830A240021002FA5F16002FC4B4D
:10545000B8F800704FF064094FF47A7644F6206A89
:1054600002F13000009710D05768DDF800C007FB4C
:105470000CF700975F78FF074768DDF800C061D040
:1054800067453BD90F4600913CE01768DDF800C046
:1054900007FB0CF700971F78FF070768DDF800C0CF
:1054A00025D0674502D90F46009103E00768ACEBB1
:1054B000070700973F0B0097042F00D20091009F31
:1054C0002F600091AF6B002F2F68B7FBF4F710D05F
:1054D000D5F804C0BCFBF4FC07FB0CF7EF60EF68E9
:1054E000B7FBF6F6EE602E684FF47A7749E0674432
:1054F000DFE7D5F80480B8FBF9FC38E04768ACEB8F
:10550000070700973F0B0097042F00D20091009FE0
:105510002F600091D5F800C0D44521D9B8F80070AB
:1055200000979768DDF800C007FB0CF700971F791C
:10553000FF078768DDF800C03ED0674504D90F46F5
:10554000009105E06744DCE78768ACEB070700974C
:105550003F0B0097042F00D20091009F2F60009115
:10556000AF6B5FB36F68D5F800C0B7FBF4F707FB0C
:105570000CF7EF60EF68B7FBF6F6EE602E6842F2CC
:1055800010777E436F68B6FBF7F6AE60AE6BDFF860
:10559000A4C2002EBCF8006000961FD01669009FC0
:1055A0007E430096DE78F6070669009F50D0BE4223
:1055B00034D90E46009134E06744C8E7D5F804C0FA
:1055C000BCFBF9F7D5F800C007FB0CF7EF60EF68FC
:1055D000B7FBF6F6EE602E689A4FD2E7D668009FCA
:1055E0007E4300969E78F607C668009F12D0BE42A2
:1055F00002D90E46009102E0C668BE1B0096360B2B
:105600006E6000916E68012E06D92E6B26B12E6851
:1056100016B12EE03E44F1E769602AE00669BE1B40
:105620000096360B00966E606F68574518D9BCF827
:10563000006000965669009F7E4300965E79F607EB
:105640004669009F11D0BE4204D90E46009104E085
:105650003E44E5E74669BE1B0096360B00966E6039
:105660002E6B26B12E6816B102E03E44F4E7696065
:105670000091D5F83480DFF8D0916F4F704EC83765
:105680001C3ED9F800C0B8F1010F1AD0D5F8388007
:10569000B8F1000FD5F8348070D0B8F1000F6ED09B
:1056A000D5F83480B8F1020F6AD0D5F83480B8F15B
:1056B000030F73D06C6B052C71D06C6B062C6FD004
:1056C0005AE13C68D5F84C80444503D02CF0400C9E
:1056D000C9F800C0D9F800405FEA846819D524F001
:1056E0002004C9F80040D7F800C0D5F88480ACEB9E
:1056F000080CC7F800C0D7F800C0D5F84C80C445E6
:1057000007D8D5F84CC0C7F800C044F04004C9F829
:105710000040EC6B002C3C684FEA043400940BD042
:10572000ED6C554521D25B785B071AD4C369009CA8
:10573000A34211D9009112E01B785B0709D4836959
:10574000A34201D9009102E08069201A009090697B
:105750001BE080692044F9E7C069201A0090D069F5
:1057600013E0C069009B1844F8E71B795B0718D465
:10577000036A009CA34204D9009105E015E09AE079
:10578000DCE0006A201A0090106A009AB2FBF0F088
:105790004008009070800091BDE8F887F5E016E1C0
:1057A00026E1006A009B1844EDE7B8F1000F11D024
:1057B000D5F83480B8F1020F28D0D5F83480B8F18C
:1057C000030F48D06C6B052C61D06C6B062C6DD030
:1057D0000098DFE75FEA8C6466D57C68D5F87CC00A
:1057E00064447C607C68D5F850C064455CD32C6D03
:1057F00059E0436AA3425BD9009100E00090506AEF
:10580000009AB2FBF0F040080090C3E7EC6B002C6C
:105810002C681DD042F2107C6D6D04FB0CF4B4FBBF
:10582000F5F4BC60BC68240300949B785B07E0D56A
:10583000406A0BE03A000020800200203C0000207B
:1058400068000020A0860100180000202044D5E751
:105850004FF47A7CE0E7D5F83CC0BCF1000F0AD0E9
:10586000AC6DDFF898C12D6804FB0CF4B4FBF5F4C3
:10587000FC60FC68D7E7D5F800C0AD6DBCFBF4F464
:10588000DFF878C105FB0CF5B5FBF4F4F0E75FEA4F
:105890008C6409D57C68ED6F2C447C607C68BD68A5
:1058A000AC4201D3BC687C607C68BCE73C69BAE769
:1058B000406A201AA2E75FEA8C640BD57C68D5F8B1
:1058C0007CC064447C607C68D5F850C0644501D3DA
:1058D0002C6D7C607C6800942C6D4CF25037BC427F
:1058E000009C4FEA043400940FD2DB785B0709D4A4
:1058F000836AA34201D9009102E0806A201A0090D5
:10590000906A0EE0806A2044F9E75B795B0710D467
:10591000C36AA34201D9009102E0C06A201A009034
:10592000D06A009AB2FBF0F040080090286D18B1E0
:1059300022E0C06A2044F2E771801DE0EC6B002C8D
:105940002C680AD04FF47A7C04FB0CF4D5F854C0D0
:10595000B4FBFCF4BC60BC6827E04FF0640CF3E7D8
:10596000836AA34246D9009100E00090906A009AB1
:10597000B2FBF0F040080090009870800091286D14
:1059800000287FF409AF718006E7D5F83CC0BCF170
:10599000000F12D0AC6D42F2107C04FB0CF4D5F871
:1059A00000C0B4FBFCF4FC60FC6824030094DB78CA
:1059B0005B07D5D5806A2044D7E7D5F800C0BCFB8B
:1059C000F4FCAC6D42F2107804FB08F4E9E75FEAFE
:1059D0008C640BD57C68D5F87CC064447C607C68A2
:1059E000D7F808C0644501D3BC687C607C68DCE7FC
:1059F0003C69DAE7806A201AB7E70000A086010058
:105A00001FB501210420FBF791FB4FF4FA60ADF8BC
:105A100000000020ADF80400124CADF80200ADF813
:105A200006008DF8080069462046FBF797FD012225
:105A300011462046FCF74FF8FF212046FCF735FAC7
:105A40001E208DF80C0001218DF80D108DF80E1020
:105A50008DF80F1003A8FAF7F4FB01212046FCF79C
:105A600025F81FBD0008004038B54FF4E060FAF794
:105A7000E3FB25208DF8000000258DF8015001245E
:105A80008DF802408DF803406846FAF7DAFB2620CD
:105A90008DF800008DF8015002208DF802008DF87D
:105AA00003406846FAF7CDFB27208DF800008DF8FB
:105AB000015003208DF802008DF803406846FAF784
:105AC000C0FB38BD10B586B0012144F20800FBF7D9
:105AD00024FB01210846FBF720FB01210420FBF7F2
