:020000040800F2
:10000000A815002031020008B7580008BF540008A6
:10001000A9580008652E0008F5BA00080000000085
:10002000000000000000000000000000D771000880
:100030001D3700080000000047020008AD720008EC
:100040004B0200084B0200084B0200084B0200085C
:100050004B0200084B0200084B0200084B0200084C
:100060004B0200084B0200084B020008A9310008AF
:10007000BD3100084B0200084B0200084B0200088B
:100080004B0200084B0200084B0200084B0200081C
:100090004B0200084B0200084B0200084B0200080C
:1000A0004B0200084B0200084B0200084B020008FC
:1000B0004B0200084B020008757500084B0200084F
:1000C0004B0200084B0200084B0200084B020008DC
:1000D0004B0200085DB2000831B5000851B70008B6
:1000E0004B0200084B0200084B0200084B020008BC
:1000F0004B0200084B0200084B0200084B020008AC
:100100004B0200084B0200084B0200084B0200089B
:100110004B0200084B0200084B0200084B0200088B
:100120004B0200084B0200084B0200084B0200087B
:1001300000F002F800F06DF80AA090E8000C82448C
:100140008344AAF10107DA4501D100F062F8AFF269
:10015000090EBAE80F0013F0010F18BFFB1A43F0A5
:100160000103184744F3000064F300000A444FF011
:10017000000C10F8013B13F0070408BF10F8014B06
:100180001D1108BF10F8015B641E05D010F8016B4B
:10019000641E01F8016BF9D113F0080F1EBF10F8AF
:1001A000014BAD1C0C1B09D16D1E58BF01F801CBD2
:1001B000FAD505E014F8016B01F8016B6D1EF9D555
:1001C0009142D6D37047000000230024002500266A
:1001D000103A28BF78C1FBD8520728BF30C148BFAA
:1001E0000B60704767290EF0CC81002070471FB567
:1001F00000F002FB0400002000210DF06DFD401C0A
:100200006060002000210DF07DFDE0601FBD10B595
:1002100010BD01F07FF81146FFF7E9FF0CF0ECF993
:1002200001F024FB03B4FFF7F2FF03BC0BF03AFE2E
:100230000948804709480047FEE7FEE7FEE7FEE77A
:10024000FEE7FEE7FEE7FEE7FEE7FEE704480549B6
:10025000054A064B704700002D7300083101000865
:10026000A80B0020A8150020A80D0020A80D002034
:100270007047000010B500F0BFFA001D10BD00BFB0
:1002800059DA00000FB41CB50C0007AA009001D089
:100290002044401E074B7B4469460190069800F0BD
:1002A000D4FC002C03D06946002000F0E1FC1CBC0B
:1002B0005DF814FBE10900002DE9F0474FF0000A5A
:1002C00089460446C0F820A02046E16888470028F7
:1002D00076D0252806D0D4E901219047206A401C19
:1002E0002062F1E7E168204600268847C4F81CA098
:1002F00005460027C4F818A02A2D09D028460BF07F
:10030000CAFD38B304EB8708303DC8F8185019E02F
:1003100059F8041B204604EB87029161E168884785
:10032000012F054618D1E069002820DA26F02006C2
:100330001DE0D8F8180000EB800005EB40003038D5
:10034000C8F818002046E168884705460BF0A3FD71
:100350000028EED1012F0AD02E2D08D12046E168C9
:1003600088477F1C0546022F46F02006C4DBA069A3
:10037000002803DA404246F00106A061F00701D0F0
:1003800026F010066C2D0AD0682D08D04C2D39D0DF
:100390006A2D35D0742D35D07A2D33D016E0E16832
:1003A0002F4620468847B84205460AD16C2F27D0F1
:1003B0004FF48060E168064320468847054605E023
:1003C00027E06C2F1AD04FF4807006430DB3A5F1CF
:1003D0004100192802D8203546F400664A462946CD
:1003E000204626604E46FFF7FDFE80B101280BD067
:1003F000F61D26F0070000F1080965E74020E4E754
:100400008020D7E70020D5E706F104095CE72846FD
:1004100061E7206ABDE8F0872DE9F04791460F4675
:1004200080460446002614F8015B2DB1FFF722FF39
:100430000068405DC007F6D12B2D02D02D2D18D0BD
:10044000641E4A463946204600F01FFC27B1396831
:10045000A14201D1C7F800804FF0020471050BD50D
:100460004042002803DD00F0CBF90460A007BDE89E
:10047000F08746F48066E4E70028F8DA00F0C0F977
:1004800004606FF00040F2E72DE9F05F93460F46FD
:1004900080460446002600F0B3F9D0F8009082466A
:1004A00014F8015B2DB1FFF7E5FE0068405DC00761
:1004B000F6D12B2D02D02D2D1AD0641E0021CAF8A2
:1004C00000105A463946204600F0DFFB014627B1AE
:1004D0003868A04201D1C7F80080DAF8000002288D
:1004E00009D0CAF80090700505D54842BDE8F09FD4
:1004F00046F48066E2E70846F8E700F074BC00F0D6
:10050000BABC10B5431E13F8014F002CFBD105E017
:1005100011F8014B002C03F8014B03D0521EF7D207
:100520000021197010BD2DE9F041054690460E4698
:100530000020044600E0641C44450BD2285D00F016
:1005400063F90746305D00F05FF9381A02D1295D82
:100550000029F0D1BDE8F08110B5431C02E010F88D
:10056000011B71B18107FAD14FF0013202C88C1A18
:100570008C4314EAC211F9D0C01A0A0603D0C01E77
:1005800010BDC01A10BD0A0401D0801E10BD0902A2
:10059000FCD0401E10BD032A40F2308010F0030C46
:1005A00000F0158011F8013BBCF1020F624498BFC6
:1005B00011F801CB00F8013B38BF11F8013BA2F163
:1005C000040298BF00F801CB38BF00F8013B11F0DE
:1005D000030300F06780083AC0F0088051F8043B3C
:1005E000083A51F804CBA0E80810F5E7121D5CBFEB
:1005F00051F8043B40F8043BAFF30080D20724BF1E
:1006000011F8013B11F801CB48BF11F8012B24BFB1
:1006100000F8013B00F801CB48BF00F8012B704700
:10062000431A28BF9A427FF6B6AF032A10441144FA
:1006300040F2268010F0030F1EBF11F8013D521E3C
:1006400000F8013D10F0030F7FF4F6AF11F0030343
:1006500000F06284083AC0F00B8051F8043D083A7B
:1006600051F804CD40F8043D40F804CDFFF7F3BF46
:10067000121D5CBF51F8043D40F8043DAFF300800B
:10068000D20724BF11F8013D11F801CD48BF11F880
:10069000012C24BF00F8013D00F801CD48BF00F84F
:1006A000012C704710B5203AC0F00B80B1E818500B
:1006B000203AA0E81850B1E81850A0E81850BFF44C
:1006C000F5AF5FEA027C24BFB1E81850A0E81850EB
:1006D00044BF18C918C0BDE810405FEA827C24BF3F
:1006E00051F8043B40F8043B08BF7047D20728BFCD
:1006F00031F8023B48BF11F8012B28BF20F8023B1C
:1007000048BF00F8012B70474FF000020429C0F0E9
:10071000128010F0030C00F01B80CCF1040CBCF133
:10072000020F18BF00F8012BA8BF20F8022BA1EB85
:100730000C0100F00DB85FEAC17C24BF00F8012B6A
:1007400000F8012B48BF00F8012B70474FF0000262
:1007500000B5134694469646203922BFA0E80C50B7
:10076000A0E80C50B1F12001BFF4F7AF090728BF92
:10077000A0E80C5048BF0CC05DF804EB890028BF0E
:1007800040F8042B08BF704748BF20F8022B11F037
:10079000804F18BF00F8012B704710B5044610F0C9
:1007A000030F08BF11F0030F40F015804FF0013E1A
:1007B000121FC0F20E8051F8043BA3EB0E0C2CEA82
:1007C000030C1CEACE1C08BF40F8043BF0D0A1F19A
:1007D000040102F10402521E08DB11F8013B002B58
:1007E00000F8013BF7D11146FFF78EFF204610BD00
:1007F000704770477047704700487047680B00208B
:1008000000487047480B002010B50446FFF732FD42
:100810000068005DC00602D504F1200010BD20462E
:1008200010BD70472DE9FF4F0C461E464FF0FF37B5
:100830008BB0D2E90001DDF860800A908A46C1F3EE
:100840000A5505B93D46002108464FF00000BAF1AF
:10085000000F00F4400005DA00EB80004FF4400187
:1008600001EA50004FEA9059B9F1010F00DDB94695
:100870000A9850EA4A000ED044F61050A5F2FF350F
:1008800045432F14B8F1000F1ED07542291E1EDDFE
:10089000C9F100021CE0B8F1010F4FF0000001D0D7
:1008A000302103E0F24305E02154401CB042FBDB61
:1008B00030460022002121540B99C1F80880C1E97B
:1008C00000200FB0BDE8F08FBD1B6D1CDEE74A466F
:1008D00000DA694206A800F06BFC06AB93E807005B
:1008E00003AB83E8070050460A9901F006FA8DE849
:1008F0000700A0F500501F3800900398002D0ADD76
:1009000042F21F014A460844002303A903906846A7
:1009100001F0B2FC09E0A0F500504A461F38002360
:1009200003A90390684601F0D1FC8DE8070000049C
:10093000000C03D04FF0FF30410800E01046B8F142
:10094000000F03D00022009215461EE0751E05D44C
:1009500000F010FB303262556D1EF9D5B34601220E
:10096000084302D000227F1C04E02078302801D107
:1009700000227F1E002A099784D01DE0112D07DA7E
:1009800000F0F8FA303262556D1C50EA0102F5D1E0
:10099000084302D00098C8B10EE00021681E05E0AF
:1009A000235C625C63542254401E491C8142F7DB85
:1009B000AB46A81B401E0990002004F80B000B98C2
:1009C000099AC0F80880C0E9002B7AE711264FF099
:1009D000000857E72DE9F04F88460446D21D22F063
:1009E000070191B0D1E90001CDE90A010BF0BEF990
:1009F00002460B98C00F01D02D2007E02068810728
:100A000001D52B2002E0202101EAC000032A099031
:100A100001D0072A05DB03464146204600F0F8FADC
:100A20000BE12078800601D5E06900E00620B8F1EE
:100A3000650F814606D0B8F1660F18D0B8F1670F80
:100A400070D131E00020B9F1110F009001DB1123CA
:100A500001E009F101030AAA01A90CA8FFF7E2FECF
:100A6000DDE90C70002609F10105834647E001200D
:100A70004B4600904FF000470AAA01A90CA8FFF7C7
:100A8000D1FEDDE90DB00C995D46002610B909F1E3
:100A900001000D18B9EB050003D4C0F1FF3609F1D0
:100AA0000105A5EB09002BE0B9F1010F01DA4FF0C8
:100AB00001090020B9F1110F0090484601DD112312
:100AC00000E003460AAA01A90CA8FFF7ABFEDDE986
:100AD0000C704D4600268346207800070AD4AB45AB
:100AE00000DA5D4601A8012D04DD411911F8011C51
:100AF000302907D04F4502DA17F1040F04DA01203C
:100B000082460FE06D1EEEE7002F02DCED1B3E4437
:100B100003E0781CA84200DD7D1CB81B00F1010A2F
:100B20004FF000472078000703D4AA4501DB4FF0BF
:100B3000FF3A0021B7F1004F0DF143088DF8431043
:100B400024D002202B23002F01DA7F422D230A21FB
:100B5000021EA0F1010000DC5FB197FBF1FC97FBE6
:100B6000F1F201FB1C7C17460CF1300C08F801CDAA
:100B7000EEE7A8F1010003702188090501D54521A0
:100B800000E06521A0F1010800F8011C09980FA9F7
:100B9000A1EB0807FF1D00B10120411901EBEA702C
:100BA000A1693844081A401EA0612078C00602D40A
:100BB0002046AFF30080099828B1D4E9012190477D
:100BC000206A401C20622078C00622D52046AFF360
:100BD00000801EE0002E04DBB34502DD01A8805D2D
:100BE00000E03020D4E901219047206A401C2062B7
:100BF000761CAAF101005FEA000A0AD1FFF7FCFDAA
:100C0000C0680168405CD4E901219047206A401C1B
:100C10002062281EA5F10105DCDC07E0D4E90121F2
:100C200018F8010B9047206A401C2062381EA7F17B
:100C30000107F3DC2046AFF30080032011B041E64A
:100C400001694A1C02610878704700B58FB0CDE990
:100C500001310021059105497944CDE90310114680
:100C60006846FFF729FB0FB000BD0000E5FFFFFF5E
:100C70000A6802F8010B0A607047D1E900239A4222
:100C800002D2531C0B60107070472DE9F05F824652
:100C900015468B4600270AF10104B9460078302832
:100CA00001D09DB113E014F8010B0127782803D07F
:100CB000582801D045B10AE00DB1102D07D1002709
:100CC00014F8010B102502E0082500E00A25002693
:100CD000B0460EE005FB080005FB06F101271FFAF0
:100CE00080F801EB1046B6F5803F00D3B94614F802
:100CF000010B294600F0CCF90028EBDABBF1000F1C
:100D000005D00FB1641E00E05446CBF80040B9F1A5
:100D1000000F06D0FFF774FD02210160C81EBDE878
:100D2000F09F48EA0640FAE70FB4002300B589B007
:100D30000CA900910B99CB60214B7B440693214B6E
:100D40007B44079304236FF00042CDE901321E4A31
:100D50007A446B460892024600200DF074FC09B0FC
:100D60005DF814FB70B506464FF0FF3015460C4693
:100D7000324686B00091CDE9010169460020049019
:100D800004A8FFF7D1FF02460498211825B108B145
:100D9000084600E020462860049800280DD0002A6C
:100DA00002DD0098884208D03246081B694600944C
:100DB000CDE9010404A8FFF7B7FF06B070BD00003D
:100DC0006F03000087030000AB0200007CB50546FE
:100DD00000236846CDE90033FFF7C4FF6946284683
:100DE0000AF0E8FF7CBD2DE9F04791460E468046AB
:100DF0000446002514F8017B2FB1FFF73BFA006889
:100E0000C05DC007F6D12B2F02D02D2F1ED0641E3F
:100E10004A463146204600F069F926B13268A242BE
:100E200001D1C6F800804FF002046A0518D50023EE
:100E3000D0EB030563EB01025D1B934109DB00234B
:100E4000D0EB030063EB0101BDE8F08745F480655A
:100E5000DEE7FFF7D5FC046000204FF00041F3E728
:100E6000021E71F10002EFDAFFF7CAFC04604FF0D6
:100E7000FF304108E8E72DE9F05F93460F468046D2
:100E800004460026FFF7BCFCD0F80090824614F818
:100E9000015B2DB1FFF7EEF90068405DC007F6D1A8
:100EA0002B2D02D02D2D1FD0641E0021CAF800105A
:100EB0005A463946204600F019F9024627B13868EB
:100EC000A04201D1C7F80080DAF8000002280ED055
:100ED000CAF8009070050AD500200346D2EB000046
:100EE00063EB0101BDE8F09F46F48066DDE7104644
:100EF000F8E7431A28BF9A427FF6D4AB104410F0AB
:100F0000030F11441EBF11F8013D521E00F8013DB0
:100F100010F0030F7FF4F6AF103AC0F00A8010B55E
:100F200031E91850103A20E91850BFF4F9AFBDE884
:100F30001040530724BF31E9081020E9081044BFCE
:100F400051F8043D40F8043D12F0030F08BF70470C
:100F5000D20728BF31F8023D48BF11F8012C28BF45
:100F600020F8023D48BF00F8012C70470048704748
:100F7000480B002030B5B0F10A024FEA900E71F133
:100F800000034EEA817EB0EB0E0061EB91014FEA67
:100F9000101E4EEA017E10EB0E0041EB11114FEADC
:100FA000102E4EEA016E10EB0E0041EB11214FEABC
:100FB000104E4EEA014E10EB0E0041EB114140186D
:100FC00041F100014FEAD00040EA41704FEAD101FF
:100FD00010EB80054FEA810444EA907444EB01046D
:100FE0006D1944EB0404521BA3414FF0000348BFAA
:100FF0000A3200D530BD401C41F1000130BD10B5B2
:101000000446FFF737F90068005D00F0010010BDED
:101010002DE9F0411F46044603260168072A01F422
:10102000006004DB08B116A505E016A503E008B1D1
:1010300015A500E015A521F010002060A069C01ED4
:10104000A0610FB1401EA0612046AFF300804FB1F8
:10105000D4E9012138469047206A401C2062C01C18
:10106000206206E0206AFAE7D4E9012115F8010BB5
:101070009047761EF8D22046AFF30080BDE8F0819D
:101080004E414E006E616E00494E4600696E66002C
:101090003A2800D2303820F02002412A01D3A2F1B0
:1010A0003700884201D34FF0FF307047426842B1A9
:1010B000016811F8013B23B1521EC0E90012184625
:1010C00070470121C160881E704742685AB1C368E9
:1010D000016843B983688B4205D0491E521CC0E9A0
:1010E0000012002070474FF0FF3070472DE9F74F96
:1010F0004FF000091546CA46009C14F8010B302831
:1011000001D0ADB115E014F8010B4FF001097828BA
:1011100003D0582801D04DB10BE00DB1102D08D1EE
:101120004FF0000914F8010B102502E0082500E03B
:101130000A2500274FEAE57B3E46B84616E0A5FBA8
:1011400007234FF0010905FB08000BFB0731030CD7
:1011500005FB0616D7181FFA80F846F10006381E60
:1011600076F5803000D3CA4614F8010B2946FFF704
:101170008FFF0028E3DA019838B1B9F1000F01D0F0
:10118000641E00E0009C01980460BAF1000F08D0D2
:10119000FFF736FB02210160C81E014603B0BDE81F
:1011A000F08F310441EA174148EA0740F6E70000B2
:1011B0002DE9F047814616468AB0354878440DC877
:1011C0008DE80D0032487844801C03AC0DC884E8DB
:1011D0000D0041F69B300844372190FBF1F290FB63
:1011E000F1F5A5F1800501FB12041B3C02D5644218
:1011F000012000E00020DFF898A080460027FA4494
:10120000AAF1BE0A0EE0E0070AD03246684607EBB4
:10121000470101230AEB810101F058F88DE807002E
:1012200064107F1C002CEED1194F7F44AE3F19E0B3
:10123000E80715D007EB04100DF1180A90E80E002E
:101240008AE80E00C068F04201D198190890324631
:10125000012306A903A801F039F803AB83E80700CE
:101260006D10641C002DE3D14FF001033246694636
:10127000B8F1000F03A802D000F0FEFF01E001F07A
:1012800025F8C9E90001C9F808200AB0BDE8F087CF
:101290002CDC00004FF0013C50F8042B51F8043BCB
:1012A0009A4221D1A2EB0C03934313EACC1317D13A
:1012B00050F8042B51F8043B9A4215D1A2EB0C03D1
:1012C000934313EACC130BD150F8042B51F8043B91
:1012D0009A4209D1A2EB0C03934313EACC13DBD05F
:1012E0004FF00000704700BFD01A01BAB1FA81F187
:1012F00001F0180122FA01F0CB40C1F12001DBB26C
:10130000C0B2C01A2CFA01F3D11A914311EAC311E9
:10131000E6D170477546FFF729FEAE4605006946DF
:10132000534620F00700854618B020B5FEF78EFF23
:10133000BDE820404FF000064FF000074FF00008D6
:101340004FF0000B21F00701AC46ACE8C009ACE857
:10135000C009ACE8C009ACE8C0098D46704710B5BB
:10136000FFF74EFA006810BD10B50446FFF748FAC3
:10137000046010BD2DE9FF4F06468BB00878FF28AA
:1013800006D0491C2D2805D000244FF0000908E0A4
:1013900000200CE00124F8E709EB8903491C00EB6D
:1013A00043090878FF28F7D114B1C9F1000081463C
:1013B000107800252C46AA4629462D2801D02B2836
:1013C00004D1521C2D2813D0002082468B46107861
:1013D000FF280FD04FF0000C0A21521CA5FB01780A
:1013E00004FB018105FB0C11C5194BEB0104EEE771
:1013F0000120EAE7002108464FF00000BAF1000F93
:1014000002D000EB80004008C0F38157012F01DDBE
:101410004FF0FF370E9955EA040009EB01080BD095
:101420004FF0020918F5FA7F16DA4FEACA70002F5A
:10143000706008DD012007E04FEACA70C6E900B01D
:101440000FB0BDE8F08F00203060FFF7D9F9C0F889
:1014500000901821084616E0B8F5FA7F18DD002F35
:1014600002DAF748784401E0F6487844D0E9001001
:10147000C6E9001040EACA707060FFF7C1F9C0F811
:101480000090142108460FB0BDE8F04F0DF076B87B
:10149000002108464FF00000B8F10001099002DA7F
:1014A000C7F1000200E03A4601DAC8F1000106A8DF
:1014B000FFF77EFE06AB93E8070003AB83E8070067
:1014C00044F23E005BEA04010090584604D144F225
:1014D0001E012C465D460091210C0904014306D1F2
:1014E0000099240444EA15442D041039009104F0B5
:1014F0007F41014306D10099240244EA15642D027C
:101500000839009104F07041014306D1009924018B
:1015100044EA15742D01091F009104F04041014374
:1015200006D10099A40044EA9574AD00891E00918B
:1015300004F00041084304D100986D196441401E35
:1015400000904FF001033A466846B8F1000FCDE92C
:10155000014503A902DD00F0CEFE01E000F0A1FE8E
:10156000BAF1000F04460D4601D084F0004400217A
:1015700008464FF00000099940F2FF77484010F00C
:101580000C0F07D124F00040284303D0C4F30A50C5
:10159000B84212D1FFF734F9C0F80090C4F30A50F2
:1015A000B8420AD1A8487844D0E90010C6E9001032
:1015B00004F000410843706042E7C6E900543FE789
:1015C0002DE9FF4F1F464FF0000A4FF0FF38454608
:1015D00091B0D7E90146CDF83CA0FFF70DF9C068FE
:1015E0000168405C1090B96912986D1C8847396A8F
:1015F000814688470028F6D1B9F1FF3F0AD0002E76
:1016000024F4D06411DDB9F12B0F08D0B9F12D0FFE
:101610000BD102E0404615B013E744F48064B96989
:1016200012986D1C8847761E8146600504A901D575
:101630002D2000E02B20002E01F1010B0DF13008D0
:101640008DF810003FDDB9F1690F08D0B9F1490FED
:1016500005D0B9F16E0F02D0B9F14E0F1CD13B4647
:1016600001A8009580E85002DDE912126FF0020037
:101670000CF0EDFFC11CCED10EE0B96912986D1CC3
:10168000884781461398761E44F4007405600F98CD
:10169000401C002E0F9016DDB9F1300FEDD0B9F1DE
:1016A000780F02D0B9F1580F0DD10F9801280AD147
:1016B0003B46CDE90054DDE91212001F02960CF002
:1016C000C4FFC11CA7D1109989453ED144F08004C4
:1016D00006E01399681CAAF1010A44F4007408603A
:1016E000B9696D1C1298761E884730288146F0D063
:1016F0002BE01099894505D1200603D4761E44F0CD
:10170000800418E048460AF0C6FB08B3761E0DF1C7
:1017100023018B4544F4007408D2A9F130000BF882
:10172000010B200607D5AAF1010003E0200602D430
:101730000AF101008246A00502D51399681C0860D1
:10174000B96912986D1C88478146002ED1DC53E0A0
:10175000002E51DDB9F1650F02D0B9F1450F4BD123
:10176000A00549D5B9696D1C1298761E24F4407401
:101770008847002E81460CDD2B2804D0B9F12D0FAF
:1017800007D144F48074B96912986D1C8847761E9D
:101790008146E00501D52D2100E02B2108F8011B31
:1017A000CDF8008021E0761E0DF13901884544F422
:1017B00000740CD2A9F1300010F0FF0088F800008E
:1017C00002D10099884509D908F1010806E0E00531
:1017D00001D51E4801E042F20F708246B9691298A5
:1017E0006D1C8847814613980560002E04DD48462D
:1017F0000AF051FB0028D6D1F96912988847FF20DA
:1018000053468BF8000088F8000000200A900B90E7
:1018100004AA0CA90AA8FFF7ADFDA00502D46FF039
:101820000100F8E614F0240F12D0E0071CD138684C
:10183000DDE90A12031D3B600068C0E9001213E0F5
:1018400068E000005AE000001EDF0000F1D8FFFF52
:101850000AA968460AF0AEFAE00705D13868009A8E
:10186000011D3960006802602846D4E610B50446C0
:10187000AFF300802046BDE81040FEF7D3BC000067
:101880002DE9FF4F1F464FF03C0987B04FF0004253
:10189000DDE9141001F10108DDF858A002EA40501A
:1018A0000390002005908346054604460490B969DC
:1018B000461E08988847AAF1010A0290BAF1000F63
:1018C0003BDD02982E2815D01021FFF7E1FB002800
:1018D0002EDB4FF0010B0599014317D0B9F1000F32
:1018E0000BDB4A46C11700F0F5F905430C43A9F19B
:1018F000040905E0012004900BE008B145F0010562
:1019000001200590049820B9361D02E0049800B12A
:10191000361FB969089808F101088847BBF1000F24
:10192000AAF1010A0290C9D00999C1F80080C5E75F
:101930000298702808D0502806D0F969089888477E
:10194000BBF1000F14D04FE0002002900120BBF14A
:10195000000F049009D0B969089808F10108884778
:10196000AAF10109B9F1000F07DCF9690898884765
:101970006FF001000BB0BDE8F08F2B2804D02D28AC
:101980000CD14FF0FF300490B969089808F10108B4
:101990008847A9F10109B9F1000FE6DD411CE4D047
:1019A0000A21FFF775FB0028DFDB029908F1010827
:1019B00001EB810100EB41000290B969089888476A
:1019C0000A21FFF765FB099AA9F10109B9F1000F96
:1019D000C2F8008001DD0028E7DAF9690898884735
:1019E0000499029800FB016655EA040004D004F053
:1019F0004041090002D006E0039898E0A40044EAC0
:101A00009574AD00B61E04F00041080002D16D19B6
:101A10006441761E159810F0240F03D04FF00B0987
:101A20005C4803E04FF028096FF07D008246564580
:101A300007DAAAEB06018944B9F1410F01DD4FF045
:101A4000410901200021A9F1010200F043F90246F9
:101A500028400B462140084301D0012100E000212D
:101A6000501E029143F1FF3128402140084301D02C
:101A7000012000E000200299834651EA0B014FD07B
:101A8000002108464FF00000039900F4400039B1EE
:101A900000EB80004FF4400100EBD07001EA6000E1
:101AA0008015012802DD4FF0FF3000E013D0401C0C
:101AB00036D0029860B3BBF1000F0CD14A4601202A
:101AC000002100F007F928402140084301D00120FF
:101AD00000E00020E0B101204A46002100F0FAF8C1
:101AE000034640190A4661412D1A8C4111D3B9F1C0
:101AF000400F09DD159810F0240F02D0AAF134062A
:101B000003E0AAF1170600E0761C00254FF0004420
:101B100006E05B1E42F1FF3220EA030521EA0204DF
:101B2000CAF10100B04206DA1B490398084301904C
:101B3000002000900EE0039AC4F3D321E80A0A4380
:101B4000164940EA44500A433146CDE9000268464E
:101B50000AF096F9159810F0240F0BD01598C007CD
:101B600015D13868DDE90012031D3B600068C0E94B
:101B700000120CE002A869460AF01CF91598C0078B
:101B800005D13868029A011D39600068026040463C
:101B9000F0E6000002FCFFFF0000F07F0000F03FD5
:101BA0002DE9FF4F92461D4685B04FF00041DDE91B
:101BB000124BDDE914727F1E01EA4B50414940F09F
:101BC000FF4940EA0108002122F020004928049141
:101BD00002D04E2828D04CE03BA0012607C88DE853
:101BE0000700A9690698641C88477F1E014606D431
:101BF0001DF8060018B121F0200181420BD0E969DF
:101C000006988847032E34D0082E32D06FF001009A
:101C100009B0BDE8F08F761C032E01D0082EE0D16C
:101C2000601CCAF80000DCE7A9690698641C8847B4
:101C30007F1E2AD420F02000412826D1A9690698C9
:101C4000641C88477F1E20D420F020004E281CD121
:101C5000A9690698641C88477F1E48F4002849F447
:101C60008009CAF8004001D4282806D0E9690698FE
:101C700088475FEACB7012D022E0A9690698641CFD
:101C800088477F1E01D4002803DAE969069888474F
:101C9000BCE72928F1D1641CCAF80040E9E71BF031
:101CA000240F07D028680499031D2B600068C0E941
:101CB000001805E02868021D2A600068C0F800903E
:101CC0002046A5E70000F07F494E46494E49545949
:101CD00000000000B2F120030AD5C2F1200301FA8E
:101CE00002F120FA03F300FA02F041EA030170471F
:101CF00000FA03F14FF0000070475FEA400C08BFA4
:101D000091F0000F4FEA8C234FEAC12243EA515170
:101D10004FEA1C5018BF00F5F0404FEA300018BFE2
:101D200041F000415FEA6C5C00F02980BCF1FF3FAC
:101D300008BF40F080407047130C06BF12044FF0FC
:101D4000100C4FF0000C130E04BF12020CF1080C23
:101D5000130F04BF12010CF1040C930F04BF920087
:101D60000CF1020CD30F04BF52000CF1010C114610
:101D70004FF00002A0F11F00A0EB0C00704711F023
:101D8000004F08BF704731F000413FF4D5AF0B0C56
:101D900006BF09044FF0100C4FF0000C0B0E04BFEF
:101DA00009020CF1080C0B0F04BF09010CF1040C23
:101DB0008B0F04BF89000CF1020CCB0F04BF49004C
:101DC0000CF1010CCCF12003A0EB0C0022FA03F380
:101DD00002FA0CF241EA030100F10100704720F021
:101DE0007F4C80EA030023F07F47ACEB070303F549
:101DF0007C5300F0004003F1FF032DE980494FEAD6
:101E0000154B09B44FEA144325EA0B4E24EA034864
:101E10000FF2042606EB132749083E785FEA3202E8
:101E200003FB0667C7F5000707FB06F64FEA5437C2
:101E30004FEAD64606F1020607FB066CCCF1005CC1
:101E40004FEA1C472CEA074C07FB06F40CFB06F58F
:101E500004EB15464FEA961634BF00204FF00040C1
:101E60004FEAD13706FB07FC4FEA1C4C0CFB0BF783
:101E7000D21B03FB0CF761EB07010CFB0EF7B0EB79
:101E8000074072EB17420CFB08F734BFA2EB074286
:101E9000B2EB074261EB17414FEA0C444FEA91075E
:101EA00006FB07FC4FEA1C4C0CFB0BF7B0EBC740E2
:101EB00072EB573203FB0CF734BFA2EBC742B2EB15
:101EC000C74261EB57310CFB0EF7B0EBC70072EB6A
:101ED00057720CFB08F734BFA2EBC702B2EBC70284
:101EE00061EB5771039F4FEA816141EA921104EB64
:101EF000CC044FEAD1374FEA826206FB07FC42EA84
:101F000090124FEA80604FEA1C4C0CFB0BF7D21B7F
:101F100003FB0CF761EB07010CFB0EF7B0EB07407E
:101F200072EB17420CFB08F734BFA2EB0742B2EB8F
:101F3000074261EB17414FEA8C554FEA910704EBDA
:101F40009C2406FB07FC4FEA1C4C0CFB0BF7B0EB88
:101F5000C74072EB573203FB0CF734BFA2EBC7420A
:101F6000B2EBC74261EB57310CFB0EF7B0EBC70089
:101F700072EB57720CFB08F734BFA2EBC702B2EB4F
:101F8000C70261EB577115EB4C254FEA816141EABD
:101F900092114FEA82624FEAD13742EA901206FB71
:101FA00007FC44F100044FEA80604FEA1C4C0CFB34
:101FB0000BF7D21B03FB0CF761EB07010CFB0EF7D1
:101FC000B0EB074072EB17420CFB08F734BFA2EBF3
:101FD0000742B2EB074261EB174115EB1C154FEAC4
:101FE000813141EA92414FEA823242EA90424FEA1D
:101FF00080304FEA0C7644F1000448EA03434EEA8D
:102000000B484FF0000EB2EB080C71EB030724BF36
:10201000624639464EEB0E0E4FF0000B001852414F
:1020200049414BEB0B0BB2EB080C71EB03077BF157
:10203000000B24BF624639464EEB0E0E4FF0000BEC
:102040000018524149414BEB0B0BB2EB080C71EB02
:1020500003077BF1000B24BF624639464EEB0E0EA0
:1020600051EA020718BF46F0010616EB0E7655F14D
:10207000000254F1000103D5BDE88901BDE80088E4
:10208000BDE88901BDE80048B619524141EB0101A4
:10209000A3F10103704780807F7E7D7C7B7A797815
:1020A000777676757473727171706F6E6E6D6C6C1D
:1020B0006B6A6A69686867666665646463636261BF
:1020C0006160605F5F5E5E5D5D5C5C5B5B5A5A5940
:1020D00059585857575656555555545453535252AC
:1020E0005251515050504F4F4F4E4E4D4D4D4C4C04
:1020F0004C4B4B4B4A4A4A4949494848484747474D
:102100004746464645454544444444434343434289
:10211000424242414141000046EA0646A3F570535F
:102120004FEA164646EA42564FEAD22242EA415266
:1021300010B54FEAD121A3F1010300F02FF820F0F0
:10214000004000F1020C00F0004701EB0050114686
:10215000BCF5006F40EA070000D210BDBAF1000FD5
:102160000AD01CB503B44FF004004FF004014FF047
:1021700000000FBCBDE810404FF00001BBF1010FA3
:10218000B9BF04484FF0FF310348002140EA07007F
:1021900010BD00BFFFFFEF7F0000F07F002B9C46CB
:1021A00030D477002BD01CB54FEA370703B44FF07B
:1021B00010004FF01001BAF1000F06D0BCF1000F73
:1021C000DCBF40F0080040F008014FF000000FBCF9
:1021D000BDE810400BF1010BBBF1010F08BF5FEA36
:1021E000170722BF12F1010211F101014FF0004166
:1021F00043F1000300F0004043EA00007047F9D3C8
:102200005708D0E746EA064613F1400F4FEA164654
:102210001FDD13F1200FDFBF16430A4600212033D4
:102220005B42BED0C3F1200746EA064602FA07F732
:102230004FEA164646EA0706C3F1200722FA03F2E0
:1022400001FA07F721FA03F14FF0000342EA07020F
:10225000A7E746EA020646EA06464FEA164646EA77
:102260000106BCBF46EA0646360C4FF000034FF0AD
:1022700000024FF0000194E72DE9804C9A46934606
:1022800070B491E8380007C831EA400C48BF34EA1E
:10229000430C03D5FFF7A3FDFFF780FFF0BCBDE8BB
:1022A000008C2DE9804C9A46934670B491E8380032
:1022B00007C831EA400C48BF34EA430C03D5FFF7A6
:1022C0008EFDFFF729FFF0BCBDE8008C2DE9804CA6
:1022D0009A46934670B491E8380007C810F0804FD2
:1022E00008BF13F0804F03D100F01AF8FFF756FF34
:1022F000F0BCBDE8008C2DE9804C9A46934670B442
:1023000091E8380007C810F0804F08BF13F0804FE5
:1023100003D100F005F8FFF7FFFEF0BCBDE8008C2C
:1023200020F07F4780EA030023F07F4C07EB0C038B
:10233000A3F57C5300F00040A3F1FE0392F0000FE0
:1023400000F0B38095F0000F00F077802DE901498F
:102350004FEA11404FEA144621EA004800FB06FC10
:1023600024EA064708FB06F607FB08F800FB07F718
:1023700018EB06484CEB164C4FEA124B18EB07488B
:102380004FEA15464CEB174022EA0B4E0BFB06FCBE
:1023900025EA06470EFB06F607FB0EFE0BFB07F7CA
:1023A0001EEB064E4CEB164C4FF000061EEB074E94
:1023B0004CEB174B18EB0B0840F1000018EB0E0B21
:1023C00058EB000840F100008F1A4FF000013CBFAD
:1023D000C943661B14BFB5EB040C00213CBFC943C5
:1023E000F61B4FEA17444EEA8E0E27EA04454FEAE1
:1023F0001C4704FB07622CEA074C05FB07F70CFBA4
:1024000005F604FB0CFC16EB074642EB174216EBF5
:102410000C4642EB1C421BEB060658EB0202414104
:1024200046EA9E0601D5BDE80189B619524141EB45
:102430000101A3F10103BDE801894FEA14454FEA08
:10244000114724EA054621EA074C05FB07F406FB81
:1024500007F70CFB06F105FB0CFC11EB074144EB05
:1024600017444FEA124711EB0C4144EB1C4422EA9B
:10247000074C05FB07F206FB07F70CFB06F605FB0E
:102480000CFC16EB074642EB174216EB0C4642EBF0
:102490001C456A1854F1000148BF7047B6195241F3
:1024A00041EB0101A3F10103704795F0000F37D014
:1024B0004FEA11424FEA144721EA024624EA074C48
:1024C00002FB07F106FB07F70CFB06F402FB0CFC12
:1024D00014EB074441EB17414FEA154714EB0C444A
:1024E00041EB1C4125EA074C02FB07F506FB07F709
:1024F0000CFB06F602FB0CFC16EB074645EB1745FA
:1025000016EB0C4645EB1C42121951F1000148BF75
:102510007047B619524141EB0101A3F10103704725
:102520004FEA14454FEA114724EA054621EA074CD1
:1025300005FB07F106FB07F70CFB06F24FF0000660
:1025400005FB0CFC12EB074241EB174112EB0C426E
:1025500051EB1C4148BF7047921841EB0101A3F1B8
:102560000103704708B54FF4E060ADF8000010209B
:102570008DF8030002208DF802006946014802F040
:1025800011FF08BD000801402DE9F14181B02B4D3C
:102590004FF480673946284602F08DFFAE1531466C
:1025A000284602F08AFF00BF00BF00BF00BF3946C7
:1025B000284602F082FF00BF3146284602F07DFF28
:1025C00000BF00BF3946284602F075FF0021009188
:1025D0004FF400784FF6FF7421E0BDF804000004CA
:1025E00004D54146284602F068FF03E041462846EC
:1025F00002F061FF3146284602F05DFF00BF00BFD8
:102600003146284602F059FF00BF00BFBDF8040064
:1026100004EA400001909DF80020521C00929DF8B1
:1026200000001028D9D33946284602F046FF31462B
:102630002846BDE8FC4102F040BF00000008014010
:1026400008B54FF47A70009003E0BDF80000401E1A
:102650000090BDF800000028F7D108BD30B587B064
:102660000121082003F08EFA01218C03204603F09B
:102670007BFA6110ADF8041003218DF806101821C3
:102680008DF80710244D01A9284602F08BFEADF805
:10269000044001A9284602F085FE6000ADF8040060
:1026A00001A9284602F07EFEA410ADF804401020D7
:1026B0008DF8070001A9284602F074FE214628463D
:1026C00002F0FBFEFFF7BCFF2146284602F0F3FEB6
:1026D0000020ADF808004FF48271ADF80A106110C7
:1026E000ADF80C10ADF80E00ADF810008910ADF883
:1026F00012103821ADF81410ADF816000720ADF80F
:102700001800064C02A9204604F049FD012120468C
:1027100004F02EFD07B030BD000C01400038004031
:102720002DE9FF4100260396DFF80081404D08F1B6
:10273000C807A7F1D80414E09DF80C10012004F09C
:10274000E7FC9DF80C1024F81100E088697828F85F
:102750001100A088A97827F811009DF80C00401CF2
:1027600003909DF80C000828E6D36878401C687038
:10277000A878401CA870697864222E4831291BD99A
:102780006E70009602960AE09DF8081038F8111055
:10279000009B194400919DF80810491C02919DF876
:1027A00008103229F0D300992B78B1FBF2F120F810
:1027B00013102978491C29702978022918D92E70FC
:1027C000009602960AE09DF8081030F81110009B60
:1027D000194400919DF80810491C02919DF80810B9
:1027E0000329F0D300980321B0FBF1F012490880CF
:1027F000A878632817D9AE70009601960AE09DF874
:10280000040037F810000099084400909DF8040077
:10281000401C01909DF804006428F0D300980749FB
:10282000B0FBF2F00880BDE8FF810000D407002073
:10283000AC00002064090020460000204800002071
:1028400011B581B00C4C0221204604F09DFC0028FB
:10285000F9D0BDF80410204604F09FFC0121204669
:1028600004F092FC0028F9D0204604F094FC00907B
:10287000BDF800001CBD0000003800402DE9F0410B
:1028800092B0444E304600F005F90121480203F0B1
:1028900079F90121084603F059F90125ADF80450F2
:1028A00000248DF80740DFF8F08001A9404602F0CF
:1028B00079FD0227ADF804708DF8074001A9404664
:1028C00002F070FD4FEA7838404600F09DFC314838
:1028D0004C30029031480390049464200590069493
:1028E00080200790400008908000099020200A90E6
:1028F00000020B900C9402A9404600F00BFD012150
:10290000404600F073FC01220221404600F0F8FC32
:1029100000F03AFC0121304600F0B0F80D948DF83B
:1029200038508DF839504FF460200F9010948DF886
:1029300044700DA9304600F0EDF84FF4404003F02C
:10294000FBF8052301220021304600F007F905239A
:1029500002220121304600F001F90121304600F049
:1029600081F8304600F034F9304600F042F9344640
:10297000204600F0C8F80028FAD1204600F0BCF844
:102980000028FAD10121204600F027F912B0BDE855
:10299000F0810000002401400008014044010020B3
:1029A000FEB5002501952D4A2D4902F1C80302F517
:1029B000967414E09DF80400C00719D09DF8040037
:1029C000C00708D09DF8040032F810704878461C03
:1029D0004E7024F810709DF80400401C01909DF882
:1029E00004006428E6D30D704D700095029514E044
:1029F0009DF8040032F810700878461C0E7023F819
:102A00001070E8E79DF8080033F81000009A1044B1
:102A100000909DF80800401C02909DF808003228A4
:102A2000F0D300983223B0FBF3F048800095029574
:102A30000AE09DF8080034F81000009A1044009055
:102A40009DF80800401C02909DF808003228F0D341
:102A50000098B0FBF3F08880FEBD00004401002028
:102A600040000020002904D0816841F0010181600C
:102A70007047816821F0010181607047002904D00E
:102A8000816841F4807181607047816821F48071B0
:102A90008160704710B5154988420AD1441501215B
:102AA000204603F07DF82046BDE81040002103F0E9
:102AB00077B80F4988420AD104150121204603F056
:102AC0006FF82046BDE81040002103F069B80949BD
:102AD00088420AD10121CC03204603F061F8204648
:102AE000BDE81040002103F05BB810BD0024014098
:102AF00000280140003C0140014600208968490748
:102B000000D501207047014600208968090700D5DB
:102B10000120704710B542680E4B1A400C790B68C3
:102B200042EA04221343436082680B4B1A40D1E906
:102B3000024323434C7942EA440213438360C26A4E
:102B400022F47002097C491EC9B242EA0151C162F5
:102B500010BD0000FFFEF0FFFDF7F1FF70B5072686
:102B600009290AD9C568A1F10A0404EB4404A64066
:102B7000B543A3401D43C56007E0056901EB41046F
:102B8000A640B543A3401D4305611F23072A09D270
:102B9000446B521E02EB820293409C4391400C43D3
:102BA000446370BD0D2A09D2046BD21F02EB82026E
:102BB00093409C4391400C43046370BDC46A0D3A3A
:102BC00002EB820293409C4391400C43C46270BD6F
:102BD000816841F0080181607047002904D0816854
:102BE00041F4A00181607047816821F4A0018160F7
:102BF0007047816841F00401816070472DE9F84316
:102C0000764EF168764801270024DFF8D881764DAA
:102C1000814206D9AC8034632021404602F04DFC4D
:102C2000F762B26B0A204FF4FA6112B9F26B012A13
:102C300005D0B36B4FF47A72012B1FD020E072687D
:102C4000B2FBF0F000903068009A50430090674A61
:102C50000098B0FBF2F00090B06E009A904275D2EE
:102C6000A888401CA880A88888426FD9AC803463AB
:102C70002021404602F021FCF76267E0F36B13B1BC
:102C8000B36BF3B11FE0736800933368B3FBF0F0EC
:102C9000009B584300900098B0FBF2F00090B06E9B
:102CA000009A904252D2E888401CE880E888884226
:102CB0004CD9EC8034632021404602F0FEFBF762E1
:102CC00044E0F36B1BB1B06B012821D03EE0736888
:102CD000B3FBF0F300933368B3FBF0F0009B584371
:102CE00000900098B0FBF2F00090B06E009A904215
:102CF0002CD22889401C28812889884226D92C81F9
:102D000034634FF40041404602F0D7FBF7621DE008
:102D1000F06B01281AD1706800903068009B58430E
:102D200000900098B0FBF2F00090B06E009A9042D4
:102D30000CD26889401C68816889884206D96C81F8
:102D400034632021404602F0B8FBF7628021404600
:102D500002F0AAFBDFF898904FF4807760B1F4623C
:102D60003946484602F0A7FB3068F16E88421DD90B
:102D7000F06B01280CD019E034632021404602F0AA
:102D80009CFB0220F0623946484602F096FBEBE7D6
:102D90002888401C28802888052807D92C8034637F
:102DA0002021404602F089FB0320F0627068316FF9
:102DB000884210D9B06B01280DD16888401C68800A
:102DC0006888052807D96C8034632021404602F0CA
:102DD00074FB0420F062BDE8F8830000B403002017
:102DE000801A06000008014096000020A08601001D
:102DF000000C01400246002004E01378002B03D0B1
:102E0000401C521C8842F8D37047000013494A6C9A
:102E10001348002A10D04B6C4FF41652012B0FD0E0
:102E20004B6C022B0ED04B6C032B0FD0496C04293A
:102E300010D0426008F062BD4FF496514160F9E74E
:102E40004260F7E74FF461514160F3E74FF4964178
:102E50004160EFE74FF4E1314160EBE7B40300205C
:102E60008C000020FEE7000010B504460648006D07
:102E70000BF0A4FA05490BF0BFF90146204604F017
:102E8000ABF8012010BD0000B403002000401C4638
:102E900038B5044600226946204603F0D9FC70B1DB
:102EA000084900980BF09EFA0BF068FA064908658D
:102EB00002220649204603F0E3FF012038BD4FF00F
:102EC000FF3038BD00401C46B403002082E60008F5
:102ED00010B504460648806D0BF070FA05490BF0FA
:102EE0008BF90146204604F077F8012010BD000060
:102EF000B403002000007A4410B504460648006F71
:102F00000BF05CFA05490BF077F90146204604F016
:102F100063F8012010BD0000B403002000007A44D3
:102F200038B5044600226946204603F091FC70B192
:102F3000084900980BF056FA0BF020FA064908678A
:102F400002220649204603F09BFF012038BD4FF0C6
:102F5000FF3038BD00007A44B403002082E6000848
:102F600038B5044600226946204603F071FC70B172
:102F7000084900980BF036FA0BF000FA064988650C
:102F800002220649204603F07BFF012038BD4FF0A6
:102F9000FF3038BD00007A44B403002082E6000808
:102FA00010B504460648406D0BF008FA05490BF0D1
:102FB00023F90146204604F00FF8012010BD00005F
:102FC000B403002000007A4438B504460022694664
:102FD000204603F03DFC70B1084900980BF002FA5E
:102FE0000BF0CCF90649486502220649204603F059
:102FF00047FF012038BD4FF0FF3038BD00007A4454
:10300000B403002082E6000810B504460D48C16BE9
:1030100000290BD040680BF0D1F90B490BF0ECF80C
:103020000146204603F0D8FF012010BD40680BF098
:10303000C5F906490BF0E0F80146204603F0CCFF45
:10304000F2E70000B403002000007A4400401C4670
:1030500010B504460648C06C0BF0B0F905490BF0FA
:10306000CBF80146204603F0B7FF012010BD000059
:10307000B403002000401C4638B5044600226946CF
:10308000204603F0E5FB70B1084900980BF0AAF95F
:103090000BF074F90649C86402220649204603F081
:1030A000EFFE012038BD4FF0FF3038BD00401C4618
:1030B000B403002082E6000811B58AB00A98069091
:1030C000002104912E4AD2F888000590D2F88C0095
:1030D000039003980890089800030890DDE90534F0
:1030E0001B1B0993DDE90834B3FBF4F30893089B39
:1030F0000293039B0893089005980790029B0798FA
:1031000058430790DDE9073098420BD2DDE9070309
:10311000C01A0790079801909DF8000040F0010048
:1031200000900AE0DDE90703181A0890089801905A
:103130009DF8000020F00100009010680890029AAD
:103140000898504308909DF80000C0070AD0019AE3
:103150000898904201D2089108E0019A0898801AD4
:10316000089003E0019A0898104408900898000B12
:103170000890044A0898906008910BB010BD0000B8
:10318000B40300207C04002008B50B208DF800005B
:1031900003208DF801008DF8020001208DF8030056
:1031A000684602F089FB08BD0348016841F001014F
:1031B0000160022000F00EB81400002010B520209D
:1031C00000F008F80248016841F08001016010BD7C
:1031D00018000020C10002D502490860704702496A
:1031E000486070470404024000000240002904D0F7
:1031F000016841F001010160704701684FF6FE72FD
:10320000114001607047000001684FF6FE721140E6
:1032100001600021016041608160C1603649364A29
:103220000839904204D1486840F00F004860704768
:10323000314A1432904204D1486840F0F0004860AE
:1032400070472D4A2832904204D1486840F470609B
:1032500048607047284A3C32904204D1486840F4A4
:10326000704048607047244A5032904204D1486808
:1032700040F47020486070471F4A6432904204D185
:10328000486840F47000486070471B4A78329042AA
:1032900004D1486840F0706048607047174A111FB9
:1032A000904204D1086840F00F0008607047134A4C
:1032B0001432904204D1086840F0F0000860704772
:1032C0000E4A2832904204D1086840F470600860C9
:1032D00070470A4A3C32904204D1086840F470407A
:1032E00008607047054A50329042FAD1086840F4AD
:1032F0007020086070470000080002400804024087
:10330000002A03D002680A430260704702688A43B9
:103310000260704730B5026847F6F0739A430C6A52
:103320008B682343D1E904452C4323438C69234311
:10333000CC6923434C6A23438C6A234313430360C1
:10334000CA6842600A6882604968C16030BD1FB5C2
:103350000446012202A9204603F048FA38B10022AF
:103360006946204603F042FA012004B010BD4FF038
:10337000FF30FAE730B593B0054600230CAA104998
:10338000284603F0A9FA002306AA0D49284603F0AF
:10339000A3FA0F2402AB0CAA09492846009403F0B3
:1033A00019F902AB06AA06492846009403F012F95F
:1033B00000221346284603F077FD13B0012030BDEC
:1033C00020ED000810B504460648D0F89C000AF02D
:1033D000F5FF05490AF010FF0146204603F0FCFD09
:1033E000012010BDB40300200000204138B5044680
:1033F00000226946204603F02BFA78B1094900986B
:103400000AF0F0FF0AF0BAFF0749C1F89C00022257
:103410000649204603F034FD012038BD4FF0FF304F
:1034200038BD000000002041B403002082E60008FF
:1034300010B504460648D0F894000AF0BFFF0549CD
:103440000AF0DAFE0146204603F0C6FD012010BD59
:10345000B403002000401C4638B5044600226946EB
:10346000204603F0F5F978B1094900980AF0BAFF4F
:103470000AF084FF0749C1F8940002220649204659
:1034800003F0FEFC012038BD4FF0FF3038BD0000D6
:1034900000401C46B403002082E6000810B5044634
:1034A0000648D0F8A0000AF089FF05490AF0A4FEFA
:1034B0000146204603F090FD012010BDB40300201A
:1034C0000000204138B5044600226946204603F03A
:1034D000BFF978B1094900980AF084FF0AF04EFF5D
:1034E0000749C1F8A00002220649204603F0C8FCA3
:1034F000012038BD4FF0FF3038BD000000002041F2
:10350000B403002082E6000810B504460648D0F84F
:1035100098000AF053FF05490AF06EFE0146204666
:1035200003F05AFD012010BDB403002000401C46EA
:1035300038B5044600226946204603F089F978B17F
:10354000094900980AF04EFF0AF018FF0749C1F830
:10355000980002220649204603F092FC012038BD63
:103560004FF0FF3038BD000000401C46B40300207F
:1035700082E6000838B504460649D1F8AC106A4620
:10358000054802F08FFC04222046009903F078FCE5
:10359000012038BDB40300201001002038B50446D6
:1035A00001236A460949204603F0BAF850B1084998
:1035B0000098C1F8AC0002220649204603F060FCE6
:1035C000012038BD4FF0FF3038BD00001001002051
:1035D000B403002082E6000810B504460648D0F87F
:1035E000A8000AF0EBFE05490AF006FE0146204657
:1035F00003F0F2FC012010BDB403002000401C4683
:1036000038B5044600226946204603F021F978B116
:10361000094900980AF0E6FE0AF0B0FE0749C1F831
:10362000A80002220649204603F02AFC012038BDEA
:103630004FF0FF3038BD000000401C46B4030020AE
:1036400082E6000810B504460648D0F8A4000AF047
:10365000B5FE05490AF0D0FD0146204603F0BCFC4A
:10366000012010BDB403002000401C4610B50446E4
:103670000648D0F8A4000AF0A1FE05490AF0BCFDF6
:103680000146204603F0A8FC012010BDB403002031
:1036900000401C4638B5044600226946204603F027
:1036A000D7F878B1094900980AF09CFE0AF066FE46
:1036B0000749C1F8A40002220649204603F0E0FBB6
:1036C000012038BD4FF0FF3038BD000000401C46DF
:1036D000B403002082E6000838B50446002269469B
:1036E000204603F0B5F878B1094900980AF07AFE4F
:1036F0000AF044FE07490860486002220649204655
:1037000003F0BEFB012038BD4FF0FF3038BD000094
:1037100000401C465804002082E600087047000064
:1037200031B508F047FEA02008F008FE08F078FE4A
:1037300070B99DF8000008F001FE08F071FE38B97C
:1037400008F038FEA12008F0F9FD08F069FE18B174
:1037500008F050FE002038BD08F0C0FD034C20707A
:1037600008F0A0FD08F046FE207838BD500000208B
:103770002DE9F0410120FFF7D3FFFE4C206001202E
:10378000FFF7CEFF20602068000220600220FFF7D4
:10379000C7FF2168084420602068000220600320E1
:1037A000FFF7BEFF21680844206020680002206007
:1037B0000420FFF7B5FF2168084420600520FFF7CB
:1037C000AFFF60606068000260600620FFF7A8FF3E
:1037D0006168084460606068000260600720FFF76D
:1037E0009FFF6168084460606068000260600820B4
:1037F000FFF796FF6168084460600920FFF790FFBB
:10380000E060E0680002E0600A20FFF789FFE168FD
:103810000844E060E0680002E0600B20FFF780FFF2
:10382000E1680844E060E0680002E0600C20FFF717
:1038300077FFE1680844E0600D20FFF771FF206129
:103840002069000220610E20FFF76AFF2169084409
:1038500020612069000220610F20FFF761FF2169CC
:10386000084420612069000220611020FFF758FF02
:103870002169084420611120FFF752FFBE4D2860E6
:103880002868000228601220FFF74AFF29680844D0
:1038900028602868000228601320FFF741FF29688C
:1038A000084428602868000228601420FFF738FFC9
:1038B0002968084428601520FFF732FF68606868AF
:1038C000000268601620FFF72BFF696808446860F3
:1038D0006868000268601720FFF722FF69680844E3
:1038E00068606868000268601820FFF719FF69685F
:1038F000084468601920FFF713FFE860E8680002D9
:10390000E8601A20FFF70CFFE9680844E860E868FF
:103910000002E8601B20FFF703FFE9680844E86045
:10392000E8680002E8601C20FFF7FAFEE968084436
:10393000E8601D20FFF7F4FE286128690002286175
:103940001E20FFF7EDFE296908442861286900025E
:1039500028611F20FFF7E4FE2969084428612869CF
:10396000000228612020FFF7DBFE29690844286156
:103970002120FFF7D5FE814E30702220FFF7D0FEC8
:10398000A061A0690002A0612320FFF7C9FEA16920
:103990000844A061A0690002A0612420FFF7C0FED6
:1039A000A1690844A061A0690002A0612520FFF779
:1039B000B7FEA1690844A0612620FFF7B1FEE061CF
:1039C000E0690002E0612720FFF7AAFEE1690844F0
:1039D000E061E0690002E0612820FFF7A1FEE169F3
:1039E0000844E061E0690002E0612920FFF798FEE9
:1039F000E1690844E0612A20FFF792FE6062606A94
:103A0000000260622B20FFF78BFE616A084460624F
:103A1000606A000260622C20FFF782FE616A08443F
:103A20006062606A000260622D20FFF779FE616AC1
:103A3000084460622E20FFF773FEA062A06A0002B5
:103A4000A0622F20FFF76CFEA16A0844A062A06A62
:103A50000002A0623020FFF763FEA16A0844A06262
:103A6000A06A0002A0623120FFF75AFEA16A084452
:103A7000A0623220FFF754FEA861A8690002A86185
:103A80003320FFF74DFEA9690844A861A869000228
:103A9000A8613420FFF744FEA9690844A861A86919
:103AA0000002A8613520FFF73BFEA9690844A86120
:103AB0003620FFF735FEE861E8690002E86137204B
:103AC000FFF72EFEE9690844E861E8690002E86151
:103AD0003820FFF725FEE9690844E861E86900023B
:103AE000E8613920FFF71CFEE9690844E8613A20E3
:103AF000FFF716FE6862686A000268623B20FFF703
:103B00000FFE696A08446862686A000268623C20C5
:103B1000FFF706FE696A08446862686A0002686224
:103B20003D20FFF7FDFD696A084468623E20FFF70B
:103B3000F7FDA862A86A0002A8623F20FFF7F0FD27
:103B4000A96A0844A862A86A0002A8624020FFF798
:103B5000E7FDA96A0844A862A86A0002A862412099
:103B6000FFF7DEFDA96A0844A8624220FFF7D8FDEE
:103B7000707005E03C030020D4020020A403002064
:103B80004320FFF7CDFDB0704420FFF7C9FDF07072
:103B90004520FFF7C5FDA060A0680002A060462098
:103BA000FFF7BEFDA1680844A060A0680002A06005
:103BB0004720FFF7B5FDA1680844A060A068000297
:103BC000A0604820FFF7ACFDA1680844A060492030
:103BD000FFF7A6FD60616069000260614A20FFF79F
:103BE0009FFD6169084460616069000260614B206B
:103BF000FFF796FD616908446061606900026061D9
:103C00004C20FFF78DFD6169084460614D20FFF78E
:103C100087FDA860A8680002A8604E20FFF780FD1D
:103C2000A9680844A860A8680002A8604F20FFF7B0
:103C300077FDA9680844A860A8680002A860502021
:103C4000FFF76EFDA9680844A8605120FFF768FDE2
:103C500068616869000268615220FFF761FD696967
:103C6000084468616869000268615320FFF758FDE5
:103C70006969084468616869000268615420FFF757
:103C80004FFD6969084468615520FFF749FD2062CE
:103C9000206A000220625620FFF742FD216A084494
:103CA0002062206A000220625720FFF739FD216A56
:103CB00008442062206A000220625820FFF730FD8D
:103CC000216A084420625920FFF72AFDE062E06A79
:103CD0000002E0625A20FFF723FDE16A0844E06237
:103CE000E06A0002E0625B20FFF71AFDE16A084427
:103CF000E062E06A0002E0625C20FFF711FDE16A29
:103D00000844E0625D20FFF70BFD2862286A00028C
:103D100028625E20FFF704FD296A08442862286AA9
:103D2000000228625F20FFF7FBFC296A0844286232
:103D3000286A000228626020FFF7F2FC296A084422
:103D400028626120FFF7ECFCE862E86A0002E862A2
:103D50006220FFF7E5FCE96A0844E862E86A0002CD
:103D6000E8626320FFF7DCFCE96A0844E862E86A7D
:103D70000002E8626420FFF7D3FCE96A0844E862C5
:103D80006520FFF7CDFC30716620FFF7C9FC70712C
:103D90007320FFF7C5FCFE4F3864386C00023864AE
:103DA0007420FFF7BDFC396C08443864386C00029D
:103DB00038647520FFF7B4FC396C08443864386CFB
:103DC000000238647620FFF7ABFC396C0844386495
:103DD0006720FFF7A5FC2863286B00022863682092
:103DE000FFF79EFC296B08442863286B00022863B8
:103DF0006920FFF795FC296B08442863286B0002B3
:103E000028636A20FFF78CFC296B084428636B2029
:103E1000FFF786FC6863686B000268636C20FFF73D
:103E20007FFC696B08446863686B000268636D20FF
:103E3000FFF776FC696B08446863686B000268638F
:103E40006E20FFF76DFC696B084468636F20FFF715
:103E500067FCA863A86B0002A8637020FFF760FCF2
:103E6000A96B0844A863A86B0002A8637120FFF740
:103E700057FCA96B0844A863A86B0002A8637220D2
:103E8000FFF74EFCA96B0844A8637720FFF748FCB6
:103E9000E863E86B0002E8637820FFF741FCE96B18
:103EA0000844E863E86B0002E8637920FFF738FC18
:103EB000E96B0844E863E86B0002E8637A20FFF7E7
:103EC0002FFCE96B0844E8637B20FFF729FC28649A
:103ED000286C000228647C20FFF722FC296C08442F
:103EE0002864286C000228647D20FFF719FC296CE7
:103EF00008442864286C000228647E20FFF710FC28
:103F0000296C084428647F20FFF70AFC6864686C09
:103F1000000268648020FFF703FC696C0844686451
:103F2000686C000268648120FFF7FAFB696C084442
:103F30006864686C000268648220FFF7F1FB696CBA
:103F4000084468648320FFF7EBFBA864A86C0002B8
:103F5000A8648420FFF7E4FBA96C0844A864A86C5B
:103F60000002A8648520FFF7DBFBA96C0844A86465
:103F7000A86C0002A8648620FFF7D2FBA96C084455
:103F8000A8648720FFF7CCFBE864E86C0002E864D3
:103F90008820FFF7C5FBE96C0844E864E86C000280
:103FA000E8648920FFF7BCFBE96C0844E864E86C2E
:103FB0000002E8648A20FFF7B3FBE96C0844E86478
:103FC0008B20FFF7ADFB2063206B000220638C2069
:103FD000FFF7A6FB216B08442063206B00022063DF
:103FE0008D20FFF79DFB216B08442063206B0002AE
:103FF00020638E20FFF794FB216B084420638F2001
:10400000FFF78EFB6063606B000260639020FFF738
:1040100087FB616B08446063606B00026063912002
:10402000FFF77EFB616B08446063606B00026063B6
:104030009220FFF775FB616B084460639320FFF7E4
:104040006FFBA063A06B0002A0639420FFF768FBE6
:10405000A16B0844A063A06B0002A0639520FFF74A
:104060005FFBA16B0844A063A06B0002A0639620D5
:10407000FFF756FBA16B0844A0639720FFF750FBA6
:10408000E063E06B0002E0639820FFF749FBE16B1F
:104090000844E063E06B0002E0639920FFF740FB17
:1040A000E16B0844E063E06B0002E0639A20FFF7F5
:1040B00037FBE16B0844E0639B20FFF731FB206492
:1040C000206C000220649C20FFF72AFB216C08442E
:1040D0002064206C000220649D20FFF721FB216CEE
:1040E00008442064206C000220649E20FFF718FB27
:1040F000216C084420649F20FFF712FB6064606C11
:1041000000026064A020FFF70BFB616C0844606450
:10411000606C00026064A120FFF702FB616C084440
:104120006064606C00026064A220FFF7F9FA616CC1
:1041300008446064A320FFF7F3FAA064A06C0002B7
:10414000A064A420FFF7ECFAA16C0844A064A06C62
:104150000002A064A520FFF7E3FAA16C0844A06464
:10416000A06C0002A064A620FFF7DAFAA16C084454
:10417000A064A720FFF7D4FAE064E06C0002E064DA
:10418000A820FFF7CDFAE16C0844E064E06C01E0A0
:10419000B40300200002E064A920FFF7C1FAE16C3B
:1041A0000844E064E06C0002E064AA20FFF7B8FA7B
:1041B000E16C0844E064AF20FFF7B2FA2865286D8F
:1041C00000022865B020FFF7ABFA296D0844286586
:1041D000286D00022865B120FFF7A2FA296D084476
:1041E0002865286D00022865B220FFF799FA296D2D
:1041F00008442865B320FFF793FAE865E86D0002EC
:10420000E865B420FFF78CFAE96D0844E865E86DCD
:104210000002E865B520FFF783FAE96D0844E86518
:10422000E86D0002E865B620FFF77AFAE96D084408
:10423000E865B720FFF774FA6865686D0002686585
:10424000B820FFF76DFA696D08446865686D000273
:104250006865B920FFF764FA696D08446865686DA0
:1042600000026865BA20FFF75BFA696D084468656B
:10427000BB20FFF755FA2866286E00022866BC208E
:10428000FFF74EFA296E08442866286E0002286659
:10429000BD20FFF745FA296E08442866286E000203
:1042A0002866BE20FFF73CFA296E08442866BF2026
:1042B000FFF736FAA865A86D0002A865C020FFF7D1
:1042C0002FFAA96D0844A865A86D0002A865C12051
:1042D000FFF726FAA96D0844A865A86D0002A86535
:1042E000C220FFF71DFAA96D0844A865C320FFF797
:1042F00017FA6866686E00026866C420FFF710FA55
:10430000696E08446866686E00026866C520FFF73B
:1043100007FA696E08446866686E00026866C6201F
:10432000FFF7FEF9696E08446866C720FFF7F8F9E1
:104330002065206D00022065C820FFF7F1F9216D8E
:1043400008442065206D00022065C920FFF7E8F9C8
:10435000216D08442065206D00022065CA20FFF70A
:10436000DFF9216D08442065CB20FFF7D9F9E0651E
:10437000E06D0002E065CC20FFF7D2F9E16D084462
:10438000E065E06D0002E065CD20FFF7C9F9E16D61
:104390000844E065E06D0002E065CE20FFF7C0F95B
:1043A000E16D0844E065CF20FFF7BAF96065606D04
:1043B00000026065D020FFF7B3F9616D08446065C5
:1043C000606D00026065D120FFF7AAF9616D0844B5
:1043D0006065606D00026065D220FFF7A1F9616D34
:1043E00008446065D320FFF79BF92066206E000229
:1043F0002066D420FFF794F9216E08442066206ED1
:1044000000022066D520FFF78BF9216E0844206654
:10441000206E00022066D620FFF782F9216E084444
:104420002066D720FFF77CF9A065A06D0002A0658B
:10443000D820FFF775F9A16D0844A065A06D0002B2
:10444000A065D920FFF76CF9A16D0844A065A06DA7
:104450000002A065DA20FFF763F9A16D0844A065AA
:10446000DB20FFF75DF96066606E00026066DC20AD
:10447000FFF756F9616E08446066606E0002606680
:10448000DD20FFF74DF9616E08446066606E000242
:104490006066DE20FFF744F9616E08446066AB2079
:1044A000FFF73EF9B071AC20FFF73AF9F071AD209B
:1044B000FFF736F93072AE20FFF732F97072DF2065
:1044C000FFF72EF9B072E020FFF72AF9F072E12031
:1044D000FFF726F93073BDE8F08103B583B0BDF86E
:1044E0000C00019007F086FF002002900BE007F01F
:1044F00061FFA02007F022FF07F092FF38B1BDF85E
:104500000800401C0290BDF808006428EFD3BDF8F5
:104510000800B0F57A7F10D0BDF80400C0B207F0F3
:104520000DFF07F07DFF40B99DF8100007F006FF72
:1045300007F076FF08B907F05DFF05B05DF804EB02
:1045400007F058BF04490A6822F010020A600A689E
:1045500002430A607047000000200240034A1168CD
:1045600001F0380101431160704700000020024053
:10457000F8B5FE4C2068000E00909DF80010012058
:10458000FFF7ABFF2068000C00909DF800100220A0
:10459000FFF7A3FF2068000A00909DF80010032099
:1045A000FFF79BFF2068C1B20420FFF796FF606809
:1045B000000E00909DF800100520FFF78EFF606848
:1045C000000C00909DF800100620FFF786FF606841
:1045D000000A00909DF800100720FFF77EFF60683A
:1045E000C1B20820FFF779FFE068000E00909DF847
:1045F00000100920FFF771FFE068000C00909DF8A3
:1046000000100A20FFF769FFE068000A00909DF89B
:1046100000100B20FFF761FFE068C1B20C20FFF72C
:104620005CFF01F091F82069000E00909DF80010E9
:104630000D20FFF752FF2069000C00909DF800103C
:104640000E20FFF74AFF2069000A00909DF8001035
:104650000F20FFF742FF2069C1B21020FFF73DFF96
:10466000C34D2868000E00909DF800101120FFF740
:1046700034FF2868000C00909DF800101220FFF70E
:104680002CFF2868000A00909DF800101320FFF707
:1046900024FF2868C1B21420FFF71FFF6868000ECE
:1046A00000909DF800101520FFF717FF6868000CB8
:1046B00000909DF800101620FFF70FFF6868000AB1
:1046C00000909DF800101720FFF707FF6868C1B23F
:1046D0001820FFF702FFE868000E00909DF8001018
:1046E0001920FFF7FAFEE868000C00909DF8001012
:1046F0001A20FFF7F2FEE868000A00909DF800100B
:104700001B20FFF7EAFEE868C1B21C20FFF7E5FEB8
:104710002869000E00909DF800101D20FFF7DDFEB7
:104720002869000C00909DF800101E20FFF7D5FEB0
:104730002869000A00909DF800101F20FFF7CDFEA9
:104740002869C1B22020FFF7C8FE8A4E31782120A7
:10475000FFF7C3FE00F0F8FFA069000E00909DF87F
:1047600000102220FFF7B9FEA069000C00909DF810
:1047700000102320FFF7B1FEA069000A00909DF809
:1047800000102420FFF7A9FEA069C1B22520FFF781
:10479000A4FEE069000E00909DF800102620FFF7AF
:1047A0009CFEE069000C00909DF800102720FFF7A8
:1047B00094FEE069000A00909DF800102820FFF7A1
:1047C0008CFEE069C1B22920FFF787FE606A000E07
:1047D00000909DF800102A20FFF77FFE606A000C11
:1047E00000909DF800102B20FFF777FE606A000A0A
:1047F00000909DF800102C20FFF76FFE606AC1B298
:104800002D20FFF76AFE00F09FFFA06A000E0090C7
:104810009DF800102E20FFF760FEA06A000C0090AB
:104820009DF800102F20FFF758FEA06A000A0090A4
:104830009DF800103020FFF750FEA06AC1B2312071
:10484000FFF74BFEA869000E00909DF80010322083
:10485000FFF743FEA869000C00909DF8001033207C
:10486000FFF73BFEA869000A00909DF80010342075
:10487000FFF733FEA869C1B23520FFF72EFEE869C5
:10488000000E00909DF800103620FFF726FEE86924
:10489000000C00909DF800103720FFF71EFEE8691D
:1048A000000A00909DF800103820FFF716FEE86916
:1048B000C1B23920FFF711FE00F046FF686A000E12
:1048C00000909DF800103A20FFF707FE686A000C80
:1048D00000909DF800103B20FFF7FFFD686A000A7A
:1048E00000909DF800103C20FFF7F7FD686AC1B208
:1048F0003D20FFF7F2FDA86A000E00909DF8001021
:104900003E20FFF7EAFDA86A000C00909DF8001019
:104910003F20FFF7E2FDA86A000A00909DF8001012
:104920004020FFF7DAFDA86AC1B24120FFF7D5FDAC
:1049300071784220FFF7D1FD00F006FFB1784320E7
:10494000FFF7CBFDF1784420FFF7C7FDA068000E0C
:1049500000909DF800104520FFF7BFFDA068000CF7
:1049600000909DF80010462006E000003C03002067
:10497000D4020020A4030020FFF7AFFDA068000AC6
:1049800000909DF800104720FFF7A7FDA068C1B276
:104990004820FFF7A2FD6069000E00909DF800100E
:1049A0004920FFF79AFD6069000C00909DF8001007
:1049B0004A20FFF792FD6069000A00909DF8001000
:1049C0004B20FFF78AFD6069C1B24C20FFF785FDDF
:1049D000A868000E00909DF800104D20FFF77DFDA7
:1049E000A868000C00909DF800104E20FFF775FDA0
:1049F000A868000A00909DF800104F20FFF76DFD99
:104A0000A868C1B25020FFF768FD6869000E0090E9
:104A10009DF800105120FFF760FD6869000C0090C0
:104A20009DF800105220FFF758FD6869000A0090B9
:104A30009DF800105320FFF750FD6869C1B2542063
:104A4000FFF74BFD00F080FE206A000E00909DF8FD
:104A500000105520FFF741FD206A000C00909DF8E2
:104A600000105620FFF739FD206A000A00909DF8DB
:104A700000105720FFF731FD206AC1B25820FFF720
:104A80002CFDE06A000E00909DF800105920FFF701
:104A900024FDE06A000C00909DF800105A20FFF7FA
:104AA0001CFDE06A000A00909DF800105B20FFF7F3
:104AB00014FDE06AC1B25C20FFF70FFD00F044FE78
:104AC000286A000E00909DF800105D20FFF705FD9C
:104AD000286A000C00909DF800105E20FFF7FDFC96
:104AE000286A000A00909DF800105F20FFF7F5FC8F
:104AF000286AC1B26020FFF7F0FCE86A000E00905F
:104B00009DF800106120FFF7E8FCE86A000C0090B7
:104B10009DF800106220FFF7E0FCE86A000A0090B0
:104B20009DF800106320FFF7D8FCE86AC1B264204A
:104B3000FFF7D3FC31796520FFF7CFFC7179662050
:104B4000FFF7CBFC00F000FE286B000E00909DF8F4
:104B500000106720FFF7C1FC286B000C00909DF847
:104B600000106820FFF7B9FC286B000A00909DF840
:104B700000106920FFF7B1FC286BC1B26A20FFF773
:104B8000ACFC686B000E00909DF800106B20FFF7E6
:104B9000A4FC686B000C00909DF800106C20FFF7DF
:104BA0009CFC686B000A00909DF800106D20FFF7D8
:104BB00094FC286BC1B26E20FFF78FFC00F0C4FD9F
:104BC000A86B000E00909DF800106F20FFF785FC89
:104BD000A86B000C00909DF800107020FFF77DFC82
:104BE000A86B000A00909DF800107120FFF775FC7B
:104BF000A86BC1B27220FFF770FCE86B000E00904A
:104C00009DF800107720FFF768FCE86B000C00901F
:104C10009DF800107820FFF760FCE86B000A009018
:104C20009DF800107920FFF758FCE86BC1B27A209C
:104C3000FFF753FC00F088FD286C000E00909DF8F3
:104C400000107B20FFF749FC286C000C00909DF8B9
:104C500000107C20FFF741FC286C000A00909DF8B2
:104C600000107D20FFF739FC286CC1B27E20FFF7D1
:104C700034FC686C000E00909DF800107F20FFF758
:104C80002CFC686C000C00909DF800108020FFF751
:104C900024FC686C000A00909DF800108120FFF74A
:104CA0001CFC686CC1B28220FFF717FC00F04CFDC1
:104CB000A86C000E00909DF800108320FFF70DFCFB
:104CC000A86C000C00909DF800108420FFF705FCF4
:104CD000A86C000A00909DF800108520FFF7FDFBEE
:104CE000A86CC1B28620FFF7F8FBE86C000E0090BC
:104CF0009DF800108720FFF7F0FBE86C000C009097
:104D00009DF800108820FFF7E8FBE86C000A00908F
:104D10009DF800108920FFF7E0FBE86CC1B28A2003
:104D2000FFF7DBFB00F010FD206B000E00909DF8FC
:104D300000108B20FFF7D1FB206B000C00909DF83A
:104D400000108C20FFF7C9FB206B000A00909DF833
:104D500000108D20FFF7C1FB206BC1B28E20FFF742
:104D6000BCFB606B000E00909DF800108F20FFF7D9
:104D7000B4FB606B000C00909DF800109020FFF7D2
:104D8000ACFB606B000A00909DF800109120FFF7CB
:104D9000A4FB606BC1B29220FFF79FFB00F0D4FC34
:104DA000A06B000E00909DF800109320FFF795FB7C
:104DB000A06B000C00909DF800109420FFF78DFB75
:104DC000A06B000A00909DF800109520FFF785FB6E
:104DD000A06BC1B29620FFF780FBE06B000E009045
:104DE0009DF800109720FFF778FBE06B000C009017
:104DF0009DF800109820FFF770FBE06B000A009010
:104E00009DF800109920FFF768FBE06BC1B29A2073
:104E1000FFF763FB00F098FC206C000E00909DF8FB
:104E200000109B20FFF759FB206C000C00909DF8B0
:104E300000109C20FFF751FB206C000A00909DF8A9
:104E400000109D20FFF749FB206CC1B29E20FFF7A8
:104E500044FB606C000E00909DF800109F20FFF74F
:104E60003CFB606C000C00909DF80010A020FFF748
:104E700034FB606C000A00909DF80010A120FFF741
:104E80002CFB606CC1B2A220FFF727FB00F05CFC9A
:104E9000A06C000E00909DF80010A320FFF71DFBF2
:104EA000A06C000C00909DF80010A420FFF715FBEB
:104EB000A06C000A00909DF80010A520FFF70DFBE4
:104EC000A06CC1B2A620FFF708FBE06C000E0090BA
:104ED0009DF80010A720FFF700FBE06C000C00908D
:104EE0009DF80010A820FFF7F8FAE06C000A009087
:104EF0009DF80010A920FFF7F0FAE06CC1B2AA20DB
:104F0000FFF7EBFA00F020FC286D000E00909DF8F2
:104F10000010AF20FFF7E1FA286D000C00909DF81B
:104F20000010B020FFF7D9FA286D000A00909DF814
:104F30000010B120FFF7D1FA286DC1B2B220FFF7FF
:104F4000CCFAE86D000E00909DF80010B320FFF73A
:104F5000C4FAE86D000C00909DF80010B420FFF733
:104F6000BCFAE86D000A00909DF80010B520FFF72C
:104F7000B4FAE86DC1B2B620FFF7AFFA00F0E4FB77
:104F8000686D000E00909DF80010B720FFF7A5FA9D
:104F9000686D000C00909DF80010B820FFF79DFA96
:104FA000686D000A00909DF80010B920FFF795FA8F
:104FB000686DC1B2BA20FFF790FA286E000E00901B
:104FC0009DF80010BB20FFF788FA286E000C0090B7
:104FD0009DF80010BC20FFF780FA286E000A0090B0
:104FE0009DF80010BD20FFF778FA286EC1B2BE20F0
:104FF000FFF773FA00F0A8FBA86D000E00909DF873
:105000000010BF20FFF769FAA86D000C00909DF812
:105010000010C020FFF761FAA86D000A00909DF80B
:105020000010C120FFF759FAA86DC1B2C220FFF7E6
:1050300054FA686E000E00909DF80010C320FFF730
:105040004CFA686E000C00909DF80010C420FFF729
:1050500044FA686E000A00909DF80010C520FFF722
:105060003CFA686EC1B2C620FFF737FA00F06CFB5D
:10507000206D000E00909DF80010C720FFF72DFA5C
:10508000206D000C00909DF80010C820FFF725FA55
:10509000206D000A00909DF80010C920FFF71DFA4E
:1050A000206DC1B2CA20FFF718FAE06D000E009023
:1050B0009DF80010CB20FFF710FAE06D000C009077
:1050C0009DF80010CC20FFF708FAE06D000A009070
:1050D0009DF80010CD20FFF700FAE06DC1B2CE20A0
:1050E000FFF7FBF900F030FB606D000E00909DF8BB
:1050F0000010CF20FFF7F1F9606D000C00909DF8D3
:105100000010D020FFF7E9F9606D000A00909DF8CB
:105110000010D120FFF7E1F9606DC1B2D220FFF796
:10512000DCF9206E000E00909DF80010D320FFF7F0
:10513000D4F9206E000C00909DF80010D420FFF7E9
:10514000CCF9206E000A00909DF80010D520FFF7E2
:10515000C4F9206EC1B2D620FFF7BFF900F0F4FA0F
:10516000A06D000E00909DF80010D720FFF7B5F954
:10517000A06D000C00909DF80010D820FFF7ADF94D
:10518000A06D000A00909DF80010D920FFF7A5F946
:10519000A06DC1B2DA20FFF7A0F9606E000E00909A
:1051A0009DF80010DB20FFF798F9606E000C00906E
:1051B0009DF80010DC20FFF790F9606E000A009067
:1051C0009DF80010DD20FFF788F9606EC1B2DE2087
:1051D000FFF783F900F0B8FAB179AB20FFF77DF95A
:1051E000F179AC20FFF779F9317AAD20FFF775F945
:1051F000717AAE20FFF771F9B17ADF20FFF76DF910
:10520000F17AE020FFF769F9317BE120FFF765F9DA
:10521000BDE8F84000F098BA10B50121084600F04A
:10522000BFFC0021BDE81040012000F0B9BC000027
:10523000F8B5214F384600F049F8204E304600F0CE
:1052400045F81F4800F042F8FFF7E6FF01211C2057
:1052500000F098FC0121084600F094FC0121194857
:1052600000F0F4F80121184800F0F0F84FF407605E
:10527000ADF8000010258DF8035003248DF802408E
:105280006946384600F08EF88021ADF800104821BC
:105290008DF803106946384600F084F840F2031197
:1052A000ADF800108DF803508DF802406946304685
:1052B00000F078F8F8BD000000080140000C014043
:1052C00000100140000430000002300010B52E49EB
:1052D000884209D10121042000F062FC0021BDE8D0
:1052E0001040042000F05CBC2849884209D101210B
:1052F000082000F055FC0021BDE81040082000F017
:105300004FBC2349884209D10121102000F048FCFC
:105310000021BDE81040102000F042BC1D49884229
:1053200009D10121202000F03BFC0021BDE8104004
:10533000202000F035BC1849884209D101214020C5
:1053400000F02EFC0021BDE81040402000F028BCF9
:105350001249884209D10121802000F021FC00215E
:10536000BDE81040802000F01BBC0D4988420AD1E6
:1053700084150121204600F013FC2046BDE81040B2
:10538000002100F00DBC10BD00080140000C0140E0
:10539000001001400014014000180140001C0140B1
:1053A000002001402DE9F0410022CC7804F00F03E9
:1053B000E40601D58C7823430C784FF00F0714F0E6
:1053C000FF0F4FF0010C1CD005680CFA02F40E8898
:1053D0002640A64211D1960007FA06F825EA0805EC
:1053E00003FA06F848EA0505CE78282E02D0482EA2
:1053F00002D002E0446100E00461521C082AE4D3B8
:1054000005600A88FF2A1ED94568002202F10806B5
:105410000CFA06F40E882640A64210D1960007FA30
:1054200006F825EA080503FA06F848EA0505CE78E5
:10543000282E00D14461CE78482E00D10461521C40
:10544000082AE3D34560BDE8F0810000F0B5154CB3
:10545000002801DAE36900E06368C0F30346420D07
:10546000120185B2C0F301579540032F07D0C20245
:105470000CD50322B240934343F0706209E023F05D
:105480007062636823F07063636002E0AB4343F0D3
:10549000706201B12A43002801DAE261F0BD626066
:1054A000F0BD0000000001400246002092680A4260
:1054B00000D0012070474161704701617047FEE7ED
:1054C00003B582B04FF6FF7101919DF80C100029D1
:1054D00026D10121039123E00178BDF80420514039
:1054E0000191002100914AF2010214E0BDF804107C
:1054F000C90708D0BDF8041049080191BDF804108F
:105500005140019103E0BDF80410490801919DF854
:105510000010491C00919DF800100829E6D3401C9A
:105520009DF80C104A1E0392D6D2BDF8040004B0B8
:1055300000BD000010B504460448006B08F03EFFB3
:105540000146204601F048FD012010BDB4030020B3
:1055500038B5044600226946204601F0ECFA48B10D
:1055600006490098086302220549204601F088FC9C
:10557000012038BD4FF0FF3038BD0000B4030020DB
:1055800082E6000810B504460448806B08F016FF58
:105590000146204601F020FD012010BDB40300208B
:1055A00038B5044600226946204601F0C4FA48B1E5
:1055B00006490098886302220549204601F060FCF4
:1055C000012038BD4FF0FF3038BD0000B40300208B
:1055D00082E6000810B504460648D0F8800008F0BE
:1055E000EDFE054908F008FE0146204601F0F4FCF6
:1055F000012010BDB403002000401C4638B504460D
:1056000000226946204601F023F978B10949009843
:1056100008F0E8FE08F0B2FE0749C1F88000022257
:105620000649204601F02CFC012038BD4FF0FF3028
:1056300038BD000000401C46B403002082E600088C
:1056400010B504460648C06F08F0B8FE054908F0DA
:10565000D3FD0146204601F0BFFC012010BD000033
:10566000B403002000401C4610B504460648C06F35
:1056700008F0A4FE054908F0BFFD0146204601F0F0
:10568000ABFC012010BD0000B403002000401C460C
:1056900038B5044600226946204601F0D9F870B1B9
:1056A0000849009808F09EFE08F068FE0649C867A1
:1056B00002220649204601F0E3FB012038BD4FF0ED
:1056C000FF3038BD00401C46B403002082E60008CD
:1056D00038B5044600226946204601F0B9F880B189
:1056E0000949009808F07EFE08F048FE0749C8679F
:1056F000C1F8800002220649204601F0C1FB0120CA
:1057000038BD4FF0FF3038BD00401C46B4030020C8
:1057100082E6000802494CF6CC4008607047000061
:105720000030004010B545F2555000F021F803203C
:1057300000F012F8FF2000F015F800F005F8BDE8C1
:105740001040FFF7E7BF000002494AF6AA200860B0
:105750007047000000300040014948607047000079
:105760000030004001498860704700000030004070
:105770000149086070470000003000402DE9F04703
:10578000DFF8B080D8F83800DFF8AC90012834D0CA
:1057900002214846FFF791FE2848007800282AD1C8
:1057A000D8F83800002826D1D8F804004EF6602436
:1057B0000125234F4FF47A76A04206D902214846AC
:1057C000FFF779FEC8F838507E80D8F83400C8B1A9
:1057D000D8F834101B48022920D0D8F834100329F7
:1057E00009D1C068A04206D902214846FFF763FEEE
:1057F000C8F838507E80BDE8F08702214846FFF7A0
:105800005AFEC9E7D8F85000A042F4D90221484610
:10581000FFF751FEC8F838507E80ECE78068A04260
:10582000E9D902214846FFF746FEC8F838507E8085
:10583000E1E70000B4030020000C01405600002006
:10584000A40000207C04002038B504460649496BBA
:105850006A46064800F026FB04222046009901F023
:105860000FFB012038BD0000B4030020D000002051
:1058700038B5044601236A460849204600F050FF27
:1058800048B107490098486302220649204601F0C2
:10589000F7FA012038BD4FF0FF3038BDD0000020AE
:1058A000B403002082E60008FEE710B5082101F0ED
:1058B000ABFB012010BD704770B50F23C2780126E5
:1058C0000178002A1ED0144A126802F4E062C2F580
:1058D000E062120AC2F10404D3404578A540827800
:1058E0001A402A43120101F1E02181F800240078D6
:1058F00000F01F018E404009800000F1E020C0F858
:10590000006170BD01F01F0086404809800000F171
:10591000E020C0F8806170BD0CED00E00249084352
:1059200002490860704700000000FA050CED00E035
:1059300010B504460648C06808F040FD054908F067
:105940005BFC0146204601F047FB012010BD000032
:10595000B403002000007A4410B504460648806E67
:1059600008F02CFD054908F047FC0146204601F0EF
:1059700033FB012010BD0000B403002000007A4476
:1059800038B5044600226946204600F061FF70B138
:105990000849009808F026FD08F0F0FC06498866E2
:1059A00002220649204601F06BFA012038BD4FF073
:1059B000FF3038BD00007A44B403002082E60008BE
:1059C00010B51446002C08D00878801F062837D25E
:1059D000DFE800F008111A3623231A4900F0ADFB66
:1059E000002010BD48681022214607F009FE00285B
:1059F000F7D0012010BD48680822214607F000FEBC
:105A00000028F7D0012010BD48680222214607F087
:105A1000F7FD0028F7D0012010BD43B148680A22E5
:105A2000214607F0D7FD0028F6D0012010BD4868B8
:105A30000A22214607F0E4FD0028F7D0012010BD1E
:105A4000002010BDCAFEFFFF10B51446002C08D080
:105A50000878801F062837D2DFE800F008111A36D0
:105A600023231A4900F069FB002010BD486810226A
:105A7000214607F0D0FD0028F7D0012010BD48686E
:105A80000822214607F0C7FD0028F7D0012010BDED
:105A900048680222214607F0BEFD0028F7D0012009
:105AA00010BD43B148680A22214607F09EFD002838
:105AB000F6D0012010BD48680A22214607F0ABFD50
:105AC0000028F7D0012010BD002010BDCAFEFFFF46
:105AD000FEB505460C461E46002C11D069462846E8
